{
	"data": {
		"bytecode": {
			"linkReferences": {},
			"object": "6080604052348015600e575f80fd5b506111eb8061001c5f395ff3fe608060405260043610610058575f3560e01c806301ffc9a7146100635780631626ba7e1461009f5780638da5cb5b146100db5780639e5d4c4914610105578063affed0e014610135578063fc0c546a1461015f5761005f565b3661005f57005b5f80fd5b34801561006e575f80fd5b506100896004803603810190610084919061090b565b61018b565b6040516100969190610950565b60405180910390f35b3480156100aa575f80fd5b506100c560048036038101906100c09190610ad8565b61025c565b6040516100d29190610b41565b60405180910390f35b3480156100e6575f80fd5b506100ef610293565b6040516100fc9190610b99565b60405180910390f35b61011f600480360381019061011a9190610c6c565b61039d565b60405161012c9190610d3d565b60405180910390f35b348015610140575f80fd5b50610149610500565b6040516101569190610d6c565b60405180910390f35b34801561016a575f80fd5b50610173610505565b60405161018293929190610d85565b60405180910390f35b5f7f01ffc9a7000000000000000000000000000000000000000000000000000000007bffffffffffffffffffffffffffffffffffffffffffffffffffffffff1916827bffffffffffffffffffffffffffffffffffffffffffffffffffffffff1916148061025557507f400a0398000000000000000000000000000000000000000000000000000000007bffffffffffffffffffffffffffffffffffffffffffffffffffffffff1916827bffffffffffffffffffffffffffffffffffffffffffffffffffffffff1916145b9050919050565b5f80610270610269610293565b858561051b565b9050801561028857631626ba7e60e01b91505061028d565b5f9150505b92915050565b5f805f803073ffffffffffffffffffffffffffffffffffffffff1663fc0c546a6040518163ffffffff1660e01b8152600401606060405180830381865afa1580156102e0573d5f803e3d5ffd5b505050506040513d601f19601f820116820180604052508101906103049190610de2565b92509250925046831461031c575f935050505061039a565b8173ffffffffffffffffffffffffffffffffffffffff16636352211e826040518263ffffffff1660e01b81526004016103559190610d6c565b602060405180830381865afa158015610370573d5f803e3d5ffd5b505050506040513d601f19601f820116820180604052508101906103949190610e32565b93505050505b90565b60606103a7610293565b73ffffffffffffffffffffffffffffffffffffffff163373ffffffffffffffffffffffffffffffffffffffff1614610414576040517f08c379a000000000000000000000000000000000000000000000000000000000815260040161040b90610eb7565b60405180910390fd5b5f80815461042190610f02565b91905081905550838573ffffffffffffffffffffffffffffffffffffffff167f47d99ad340f52da66535aff7e10da1ceb85a32bcbd9fa1c42314d194545e14d28585604051610471929190610f75565b60405180910390a35f8573ffffffffffffffffffffffffffffffffffffffff168585856040516104a2929190610fc5565b5f6040518083038185875af1925050503d805f81146104dc576040519150601f19603f3d011682016040523d82523d5f602084013e6104e1565b606091505b508093508192505050806104f757815160208301fd5b50949350505050565b5f5481565b5f805f6105106106da565b925092509250909192565b5f805f6105288585610758565b915091505f600481111561053f5761053e610fdd565b5b81600481111561055257610551610fdd565b5b14801561058a57508573ffffffffffffffffffffffffffffffffffffffff168273ffffffffffffffffffffffffffffffffffffffff16145b1561059a576001925050506106d3565b5f808773ffffffffffffffffffffffffffffffffffffffff16631626ba7e60e01b88886040516024016105ce929190611019565b604051602081830303815290604052907bffffffffffffffffffffffffffffffffffffffffffffffffffffffff19166020820180517bffffffffffffffffffffffffffffffffffffffffffffffffffffffff83818316178352505050506040516106389190611077565b5f60405180830381855afa9150503d805f8114610670576040519150601f19603f3d011682016040523d82523d5f602084013e610675565b606091505b5091509150818015610688575060208151145b80156106cc5750631626ba7e60e01b7bffffffffffffffffffffffffffffffffffffffffffffffffffffffff1916818060200190518101906106ca91906110a1565b145b9450505050505b9392505050565b5f805f80606067ffffffffffffffff8111156106f9576106f86109b4565b5b6040519080825280601f01601f19166020018201604052801561072b5781602001600182028036833780820191505090505b5090506060604d60208301303c8080602001905181019061074c9190611107565b93509350935050909192565b5f806041835103610795575f805f602086015192506040860151915060608601515f1a9050610789878285856107a4565b9450945050505061079d565b5f6002915091505b9250929050565b5f807f7fffffffffffffffffffffffffffffff5d576e7357a4501ddfe92f46681b20a0835f1c11156107dc575f60039150915061089c565b601b8560ff16141580156107f45750601c8560ff1614155b15610805575f60049150915061089c565b5f6001878787876040515f81526020016040526040516108289493929190611172565b6020604051602081039080840390855afa158015610848573d5f803e3d5ffd5b5050506020604051035190505f73ffffffffffffffffffffffffffffffffffffffff168173ffffffffffffffffffffffffffffffffffffffff1603610894575f6001925092505061089c565b805f92509250505b94509492505050565b5f604051905090565b5f80fd5b5f80fd5b5f7fffffffff0000000000000000000000000000000000000000000000000000000082169050919050565b6108ea816108b6565b81146108f4575f80fd5b50565b5f81359050610905816108e1565b92915050565b5f602082840312156109205761091f6108ae565b5b5f61092d848285016108f7565b91505092915050565b5f8115159050919050565b61094a81610936565b82525050565b5f6020820190506109635f830184610941565b92915050565b5f819050919050565b61097b81610969565b8114610985575f80fd5b50565b5f8135905061099681610972565b92915050565b5f80fd5b5f80fd5b5f601f19601f8301169050919050565b7f4e487b71000000000000000000000000000000000000000000000000000000005f52604160045260245ffd5b6109ea826109a4565b810181811067ffffffffffffffff82111715610a0957610a086109b4565b5b80604052505050565b5f610a1b6108a5565b9050610a2782826109e1565b919050565b5f67ffffffffffffffff821115610a4657610a456109b4565b5b610a4f826109a4565b9050602081019050919050565b828183375f83830152505050565b5f610a7c610a7784610a2c565b610a12565b905082815260208101848484011115610a9857610a976109a0565b5b610aa3848285610a5c565b509392505050565b5f82601f830112610abf57610abe61099c565b5b8135610acf848260208601610a6a565b91505092915050565b5f8060408385031215610aee57610aed6108ae565b5b5f610afb85828601610988565b925050602083013567ffffffffffffffff811115610b1c57610b1b6108b2565b5b610b2885828601610aab565b9150509250929050565b610b3b816108b6565b82525050565b5f602082019050610b545f830184610b32565b92915050565b5f73ffffffffffffffffffffffffffffffffffffffff82169050919050565b5f610b8382610b5a565b9050919050565b610b9381610b79565b82525050565b5f602082019050610bac5f830184610b8a565b92915050565b610bbb81610b79565b8114610bc5575f80fd5b50565b5f81359050610bd681610bb2565b92915050565b5f819050919050565b610bee81610bdc565b8114610bf8575f80fd5b50565b5f81359050610c0981610be5565b92915050565b5f80fd5b5f80fd5b5f8083601f840112610c2c57610c2b61099c565b5b8235905067ffffffffffffffff811115610c4957610c48610c0f565b5b602083019150836001820283011115610c6557610c64610c13565b5b9250929050565b5f805f8060608587031215610c8457610c836108ae565b5b5f610c9187828801610bc8565b9450506020610ca287828801610bfb565b935050604085013567ffffffffffffffff811115610cc357610cc26108b2565b5b610ccf87828801610c17565b925092505092959194509250565b5f81519050919050565b5f82825260208201905092915050565b8281835e5f83830152505050565b5f610d0f82610cdd565b610d198185610ce7565b9350610d29818560208601610cf7565b610d32816109a4565b840191505092915050565b5f6020820190508181035f830152610d558184610d05565b905092915050565b610d6681610bdc565b82525050565b5f602082019050610d7f5f830184610d5d565b92915050565b5f606082019050610d985f830186610d5d565b610da56020830185610b8a565b610db26040830184610d5d565b949350505050565b5f81519050610dc881610be5565b92915050565b5f81519050610ddc81610bb2565b92915050565b5f805f60608486031215610df957610df86108ae565b5b5f610e0686828701610dba565b9350506020610e1786828701610dce565b9250506040610e2886828701610dba565b9150509250925092565b5f60208284031215610e4757610e466108ae565b5b5f610e5484828501610dce565b91505092915050565b5f82825260208201905092915050565b7f4e6f7420746f6b656e206f776e657200000000000000000000000000000000005f82015250565b5f610ea1600f83610e5d565b9150610eac82610e6d565b602082019050919050565b5f6020820190508181035f830152610ece81610e95565b9050919050565b7f4e487b71000000000000000000000000000000000000000000000000000000005f52601160045260245ffd5b5f610f0c82610bdc565b91507fffffffffffffffffffffffffffffffffffffffffffffffffffffffffffffffff8203610f3e57610f3d610ed5565b5b600182019050919050565b5f610f548385610ce7565b9350610f61838584610a5c565b610f6a836109a4565b840190509392505050565b5f6020820190508181035f830152610f8e818486610f49565b90509392505050565b5f81905092915050565b5f610fac8385610f97565b9350610fb9838584610a5c565b82840190509392505050565b5f610fd1828486610fa1565b91508190509392505050565b7f4e487b71000000000000000000000000000000000000000000000000000000005f52602160045260245ffd5b61101381610969565b82525050565b5f60408201905061102c5f83018561100a565b818103602083015261103e8184610d05565b90509392505050565b5f61105182610cdd565b61105b8185610f97565b935061106b818560208601610cf7565b80840191505092915050565b5f6110828284611047565b915081905092915050565b5f8151905061109b81610972565b92915050565b5f602082840312156110b6576110b56108ae565b5b5f6110c38482850161108d565b91505092915050565b5f6110d682610b5a565b9050919050565b6110e6816110cc565b81146110f0575f80fd5b50565b5f81519050611101816110dd565b92915050565b5f805f6060848603121561111e5761111d6108ae565b5b5f61112b86828701610dba565b935050602061113c868287016110f3565b925050604061114d86828701610dba565b9150509250925092565b5f60ff82169050919050565b61116c81611157565b82525050565b5f6080820190506111855f83018761100a565b6111926020830186611163565b61119f604083018561100a565b6111ac606083018461100a565b9594505050505056fea2646970667358221220197cd26a7ad7174f2edfae1efde69a20cd8e379f8b51dd6ef879a1e10f76496b64736f6c634300081a0033",
			"opcodes": "PUSH1 0x80 PUSH1 0x40 MSTORE CALLVALUE DUP1 ISZERO PUSH1 0xE JUMPI PUSH0 DUP1 REVERT JUMPDEST POP PUSH2 0x11EB DUP1 PUSH2 0x1C PUSH0 CODECOPY PUSH0 RETURN INVALID PUSH1 0x80 PUSH1 0x40 MSTORE PUSH1 0x4 CALLDATASIZE LT PUSH2 0x58 JUMPI PUSH0 CALLDATALOAD PUSH1 0xE0 SHR DUP1 PUSH4 0x1FFC9A7 EQ PUSH2 0x63 JUMPI DUP1 PUSH4 0x1626BA7E EQ PUSH2 0x9F JUMPI DUP1 PUSH4 0x8DA5CB5B EQ PUSH2 0xDB JUMPI DUP1 PUSH4 0x9E5D4C49 EQ PUSH2 0x105 JUMPI DUP1 PUSH4 0xAFFED0E0 EQ PUSH2 0x135 JUMPI DUP1 PUSH4 0xFC0C546A EQ PUSH2 0x15F JUMPI PUSH2 0x5F JUMP JUMPDEST CALLDATASIZE PUSH2 0x5F JUMPI STOP JUMPDEST PUSH0 DUP1 REVERT JUMPDEST CALLVALUE DUP1 ISZERO PUSH2 0x6E JUMPI PUSH0 DUP1 REVERT JUMPDEST POP PUSH2 0x89 PUSH1 0x4 DUP1 CALLDATASIZE SUB DUP2 ADD SWAP1 PUSH2 0x84 SWAP2 SWAP1 PUSH2 0x90B JUMP JUMPDEST PUSH2 0x18B JUMP JUMPDEST PUSH1 0x40 MLOAD PUSH2 0x96 SWAP2 SWAP1 PUSH2 0x950 JUMP JUMPDEST PUSH1 0x40 MLOAD DUP1 SWAP2 SUB SWAP1 RETURN JUMPDEST CALLVALUE DUP1 ISZERO PUSH2 0xAA JUMPI PUSH0 DUP1 REVERT JUMPDEST POP PUSH2 0xC5 PUSH1 0x4 DUP1 CALLDATASIZE SUB DUP2 ADD SWAP1 PUSH2 0xC0 SWAP2 SWAP1 PUSH2 0xAD8 JUMP JUMPDEST PUSH2 0x25C JUMP JUMPDEST PUSH1 0x40 MLOAD PUSH2 0xD2 SWAP2 SWAP1 PUSH2 0xB41 JUMP JUMPDEST PUSH1 0x40 MLOAD DUP1 SWAP2 SUB SWAP1 RETURN JUMPDEST CALLVALUE DUP1 ISZERO PUSH2 0xE6 JUMPI PUSH0 DUP1 REVERT JUMPDEST POP PUSH2 0xEF PUSH2 0x293 JUMP JUMPDEST PUSH1 0x40 MLOAD PUSH2 0xFC SWAP2 SWAP1 PUSH2 0xB99 JUMP JUMPDEST PUSH1 0x40 MLOAD DUP1 SWAP2 SUB SWAP1 RETURN JUMPDEST PUSH2 0x11F PUSH1 0x4 DUP1 CALLDATASIZE SUB DUP2 ADD SWAP1 PUSH2 0x11A SWAP2 SWAP1 PUSH2 0xC6C JUMP JUMPDEST PUSH2 0x39D JUMP JUMPDEST PUSH1 0x40 MLOAD PUSH2 0x12C SWAP2 SWAP1 PUSH2 0xD3D JUMP JUMPDEST PUSH1 0x40 MLOAD DUP1 SWAP2 SUB SWAP1 RETURN JUMPDEST CALLVALUE DUP1 ISZERO PUSH2 0x140 JUMPI PUSH0 DUP1 REVERT JUMPDEST POP PUSH2 0x149 PUSH2 0x500 JUMP JUMPDEST PUSH1 0x40 MLOAD PUSH2 0x156 SWAP2 SWAP1 PUSH2 0xD6C JUMP JUMPDEST PUSH1 0x40 MLOAD DUP1 SWAP2 SUB SWAP1 RETURN JUMPDEST CALLVALUE DUP1 ISZERO PUSH2 0x16A JUMPI PUSH0 DUP1 REVERT JUMPDEST POP PUSH2 0x173 PUSH2 0x505 JUMP JUMPDEST PUSH1 0x40 MLOAD PUSH2 0x182 SWAP4 SWAP3 SWAP2 SWAP1 PUSH2 0xD85 JUMP JUMPDEST PUSH1 0x40 MLOAD DUP1 SWAP2 SUB SWAP1 RETURN JUMPDEST PUSH0 PUSH32 0x1FFC9A700000000000000000000000000000000000000000000000000000000 PUSH28 0xFFFFFFFFFFFFFFFFFFFFFFFFFFFFFFFFFFFFFFFFFFFFFFFFFFFFFFFF NOT AND DUP3 PUSH28 0xFFFFFFFFFFFFFFFFFFFFFFFFFFFFFFFFFFFFFFFFFFFFFFFFFFFFFFFF NOT AND EQ DUP1 PUSH2 0x255 JUMPI POP PUSH32 0x400A039800000000000000000000000000000000000000000000000000000000 PUSH28 0xFFFFFFFFFFFFFFFFFFFFFFFFFFFFFFFFFFFFFFFFFFFFFFFFFFFFFFFF NOT AND DUP3 PUSH28 0xFFFFFFFFFFFFFFFFFFFFFFFFFFFFFFFFFFFFFFFFFFFFFFFFFFFFFFFF NOT AND EQ JUMPDEST SWAP1 POP SWAP2 SWAP1 POP JUMP JUMPDEST PUSH0 DUP1 PUSH2 0x270 PUSH2 0x269 PUSH2 0x293 JUMP JUMPDEST DUP6 DUP6 PUSH2 0x51B JUMP JUMPDEST SWAP1 POP DUP1 ISZERO PUSH2 0x288 JUMPI PUSH4 0x1626BA7E PUSH1 0xE0 SHL SWAP2 POP POP PUSH2 0x28D JUMP JUMPDEST PUSH0 SWAP2 POP POP JUMPDEST SWAP3 SWAP2 POP POP JUMP JUMPDEST PUSH0 DUP1 PUSH0 DUP1 ADDRESS PUSH20 0xFFFFFFFFFFFFFFFFFFFFFFFFFFFFFFFFFFFFFFFF AND PUSH4 0xFC0C546A PUSH1 0x40 MLOAD DUP2 PUSH4 0xFFFFFFFF AND PUSH1 0xE0 SHL DUP2 MSTORE PUSH1 0x4 ADD PUSH1 0x60 PUSH1 0x40 MLOAD DUP1 DUP4 SUB DUP2 DUP7 GAS STATICCALL ISZERO DUP1 ISZERO PUSH2 0x2E0 JUMPI RETURNDATASIZE PUSH0 DUP1 RETURNDATACOPY RETURNDATASIZE PUSH0 REVERT JUMPDEST POP POP POP POP PUSH1 0x40 MLOAD RETURNDATASIZE PUSH1 0x1F NOT PUSH1 0x1F DUP3 ADD AND DUP3 ADD DUP1 PUSH1 0x40 MSTORE POP DUP2 ADD SWAP1 PUSH2 0x304 SWAP2 SWAP1 PUSH2 0xDE2 JUMP JUMPDEST SWAP3 POP SWAP3 POP SWAP3 POP CHAINID DUP4 EQ PUSH2 0x31C JUMPI PUSH0 SWAP4 POP POP POP POP PUSH2 0x39A JUMP JUMPDEST DUP2 PUSH20 0xFFFFFFFFFFFFFFFFFFFFFFFFFFFFFFFFFFFFFFFF AND PUSH4 0x6352211E DUP3 PUSH1 0x40 MLOAD DUP3 PUSH4 0xFFFFFFFF AND PUSH1 0xE0 SHL DUP2 MSTORE PUSH1 0x4 ADD PUSH2 0x355 SWAP2 SWAP1 PUSH2 0xD6C JUMP JUMPDEST PUSH1 0x20 PUSH1 0x40 MLOAD DUP1 DUP4 SUB DUP2 DUP7 GAS STATICCALL ISZERO DUP1 ISZERO PUSH2 0x370 JUMPI RETURNDATASIZE PUSH0 DUP1 RETURNDATACOPY RETURNDATASIZE PUSH0 REVERT JUMPDEST POP POP POP POP PUSH1 0x40 MLOAD RETURNDATASIZE PUSH1 0x1F NOT PUSH1 0x1F DUP3 ADD AND DUP3 ADD DUP1 PUSH1 0x40 MSTORE POP DUP2 ADD SWAP1 PUSH2 0x394 SWAP2 SWAP1 PUSH2 0xE32 JUMP JUMPDEST SWAP4 POP POP POP POP JUMPDEST SWAP1 JUMP JUMPDEST PUSH1 0x60 PUSH2 0x3A7 PUSH2 0x293 JUMP JUMPDEST PUSH20 0xFFFFFFFFFFFFFFFFFFFFFFFFFFFFFFFFFFFFFFFF AND CALLER PUSH20 0xFFFFFFFFFFFFFFFFFFFFFFFFFFFFFFFFFFFFFFFF AND EQ PUSH2 0x414 JUMPI PUSH1 0x40 MLOAD PUSH32 0x8C379A000000000000000000000000000000000000000000000000000000000 DUP2 MSTORE PUSH1 0x4 ADD PUSH2 0x40B SWAP1 PUSH2 0xEB7 JUMP JUMPDEST PUSH1 0x40 MLOAD DUP1 SWAP2 SUB SWAP1 REVERT JUMPDEST PUSH0 DUP1 DUP2 SLOAD PUSH2 0x421 SWAP1 PUSH2 0xF02 JUMP JUMPDEST SWAP2 SWAP1 POP DUP2 SWAP1 SSTORE POP DUP4 DUP6 PUSH20 0xFFFFFFFFFFFFFFFFFFFFFFFFFFFFFFFFFFFFFFFF AND PUSH32 0x47D99AD340F52DA66535AFF7E10DA1CEB85A32BCBD9FA1C42314D194545E14D2 DUP6 DUP6 PUSH1 0x40 MLOAD PUSH2 0x471 SWAP3 SWAP2 SWAP1 PUSH2 0xF75 JUMP JUMPDEST PUSH1 0x40 MLOAD DUP1 SWAP2 SUB SWAP1 LOG3 PUSH0 DUP6 PUSH20 0xFFFFFFFFFFFFFFFFFFFFFFFFFFFFFFFFFFFFFFFF AND DUP6 DUP6 DUP6 PUSH1 0x40 MLOAD PUSH2 0x4A2 SWAP3 SWAP2 SWAP1 PUSH2 0xFC5 JUMP JUMPDEST PUSH0 PUSH1 0x40 MLOAD DUP1 DUP4 SUB DUP2 DUP6 DUP8 GAS CALL SWAP3 POP POP POP RETURNDATASIZE DUP1 PUSH0 DUP2 EQ PUSH2 0x4DC JUMPI PUSH1 0x40 MLOAD SWAP2 POP PUSH1 0x1F NOT PUSH1 0x3F RETURNDATASIZE ADD AND DUP3 ADD PUSH1 0x40 MSTORE RETURNDATASIZE DUP3 MSTORE RETURNDATASIZE PUSH0 PUSH1 0x20 DUP5 ADD RETURNDATACOPY PUSH2 0x4E1 JUMP JUMPDEST PUSH1 0x60 SWAP2 POP JUMPDEST POP DUP1 SWAP4 POP DUP2 SWAP3 POP POP POP DUP1 PUSH2 0x4F7 JUMPI DUP2 MLOAD PUSH1 0x20 DUP4 ADD REVERT JUMPDEST POP SWAP5 SWAP4 POP POP POP POP JUMP JUMPDEST PUSH0 SLOAD DUP2 JUMP JUMPDEST PUSH0 DUP1 PUSH0 PUSH2 0x510 PUSH2 0x6DA JUMP JUMPDEST SWAP3 POP SWAP3 POP SWAP3 POP SWAP1 SWAP2 SWAP3 JUMP JUMPDEST PUSH0 DUP1 PUSH0 PUSH2 0x528 DUP6 DUP6 PUSH2 0x758 JUMP JUMPDEST SWAP2 POP SWAP2 POP PUSH0 PUSH1 0x4 DUP2 GT ISZERO PUSH2 0x53F JUMPI PUSH2 0x53E PUSH2 0xFDD JUMP JUMPDEST JUMPDEST DUP2 PUSH1 0x4 DUP2 GT ISZERO PUSH2 0x552 JUMPI PUSH2 0x551 PUSH2 0xFDD JUMP JUMPDEST JUMPDEST EQ DUP1 ISZERO PUSH2 0x58A JUMPI POP DUP6 PUSH20 0xFFFFFFFFFFFFFFFFFFFFFFFFFFFFFFFFFFFFFFFF AND DUP3 PUSH20 0xFFFFFFFFFFFFFFFFFFFFFFFFFFFFFFFFFFFFFFFF AND EQ JUMPDEST ISZERO PUSH2 0x59A JUMPI PUSH1 0x1 SWAP3 POP POP POP PUSH2 0x6D3 JUMP JUMPDEST PUSH0 DUP1 DUP8 PUSH20 0xFFFFFFFFFFFFFFFFFFFFFFFFFFFFFFFFFFFFFFFF AND PUSH4 0x1626BA7E PUSH1 0xE0 SHL DUP9 DUP9 PUSH1 0x40 MLOAD PUSH1 0x24 ADD PUSH2 0x5CE SWAP3 SWAP2 SWAP1 PUSH2 0x1019 JUMP JUMPDEST PUSH1 0x40 MLOAD PUSH1 0x20 DUP2 DUP4 SUB SUB DUP2 MSTORE SWAP1 PUSH1 0x40 MSTORE SWAP1 PUSH28 0xFFFFFFFFFFFFFFFFFFFFFFFFFFFFFFFFFFFFFFFFFFFFFFFFFFFFFFFF NOT AND PUSH1 0x20 DUP3 ADD DUP1 MLOAD PUSH28 0xFFFFFFFFFFFFFFFFFFFFFFFFFFFFFFFFFFFFFFFFFFFFFFFFFFFFFFFF DUP4 DUP2 DUP4 AND OR DUP4 MSTORE POP POP POP POP PUSH1 0x40 MLOAD PUSH2 0x638 SWAP2 SWAP1 PUSH2 0x1077 JUMP JUMPDEST PUSH0 PUSH1 0x40 MLOAD DUP1 DUP4 SUB DUP2 DUP6 GAS STATICCALL SWAP2 POP POP RETURNDATASIZE DUP1 PUSH0 DUP2 EQ PUSH2 0x670 JUMPI PUSH1 0x40 MLOAD SWAP2 POP PUSH1 0x1F NOT PUSH1 0x3F RETURNDATASIZE ADD AND DUP3 ADD PUSH1 0x40 MSTORE RETURNDATASIZE DUP3 MSTORE RETURNDATASIZE PUSH0 PUSH1 0x20 DUP5 ADD RETURNDATACOPY PUSH2 0x675 JUMP JUMPDEST PUSH1 0x60 SWAP2 POP JUMPDEST POP SWAP2 POP SWAP2 POP DUP2 DUP1 ISZERO PUSH2 0x688 JUMPI POP PUSH1 0x20 DUP2 MLOAD EQ JUMPDEST DUP1 ISZERO PUSH2 0x6CC JUMPI POP PUSH4 0x1626BA7E PUSH1 0xE0 SHL PUSH28 0xFFFFFFFFFFFFFFFFFFFFFFFFFFFFFFFFFFFFFFFFFFFFFFFFFFFFFFFF NOT AND DUP2 DUP1 PUSH1 0x20 ADD SWAP1 MLOAD DUP2 ADD SWAP1 PUSH2 0x6CA SWAP2 SWAP1 PUSH2 0x10A1 JUMP JUMPDEST EQ JUMPDEST SWAP5 POP POP POP POP POP JUMPDEST SWAP4 SWAP3 POP POP POP JUMP JUMPDEST PUSH0 DUP1 PUSH0 DUP1 PUSH1 0x60 PUSH8 0xFFFFFFFFFFFFFFFF DUP2 GT ISZERO PUSH2 0x6F9 JUMPI PUSH2 0x6F8 PUSH2 0x9B4 JUMP JUMPDEST JUMPDEST PUSH1 0x40 MLOAD SWAP1 DUP1 DUP3 MSTORE DUP1 PUSH1 0x1F ADD PUSH1 0x1F NOT AND PUSH1 0x20 ADD DUP3 ADD PUSH1 0x40 MSTORE DUP1 ISZERO PUSH2 0x72B JUMPI DUP2 PUSH1 0x20 ADD PUSH1 0x1 DUP3 MUL DUP1 CALLDATASIZE DUP4 CALLDATACOPY DUP1 DUP3 ADD SWAP2 POP POP SWAP1 POP JUMPDEST POP SWAP1 POP PUSH1 0x60 PUSH1 0x4D PUSH1 0x20 DUP4 ADD ADDRESS EXTCODECOPY DUP1 DUP1 PUSH1 0x20 ADD SWAP1 MLOAD DUP2 ADD SWAP1 PUSH2 0x74C SWAP2 SWAP1 PUSH2 0x1107 JUMP JUMPDEST SWAP4 POP SWAP4 POP SWAP4 POP POP SWAP1 SWAP2 SWAP3 JUMP JUMPDEST PUSH0 DUP1 PUSH1 0x41 DUP4 MLOAD SUB PUSH2 0x795 JUMPI PUSH0 DUP1 PUSH0 PUSH1 0x20 DUP7 ADD MLOAD SWAP3 POP PUSH1 0x40 DUP7 ADD MLOAD SWAP2 POP PUSH1 0x60 DUP7 ADD MLOAD PUSH0 BYTE SWAP1 POP PUSH2 0x789 DUP8 DUP3 DUP6 DUP6 PUSH2 0x7A4 JUMP JUMPDEST SWAP5 POP SWAP5 POP POP POP POP PUSH2 0x79D JUMP JUMPDEST PUSH0 PUSH1 0x2 SWAP2 POP SWAP2 POP JUMPDEST SWAP3 POP SWAP3 SWAP1 POP JUMP JUMPDEST PUSH0 DUP1 PUSH32 0x7FFFFFFFFFFFFFFFFFFFFFFFFFFFFFFF5D576E7357A4501DDFE92F46681B20A0 DUP4 PUSH0 SHR GT ISZERO PUSH2 0x7DC JUMPI PUSH0 PUSH1 0x3 SWAP2 POP SWAP2 POP PUSH2 0x89C JUMP JUMPDEST PUSH1 0x1B DUP6 PUSH1 0xFF AND EQ ISZERO DUP1 ISZERO PUSH2 0x7F4 JUMPI POP PUSH1 0x1C DUP6 PUSH1 0xFF AND EQ ISZERO JUMPDEST ISZERO PUSH2 0x805 JUMPI PUSH0 PUSH1 0x4 SWAP2 POP SWAP2 POP PUSH2 0x89C JUMP JUMPDEST PUSH0 PUSH1 0x1 DUP8 DUP8 DUP8 DUP8 PUSH1 0x40 MLOAD PUSH0 DUP2 MSTORE PUSH1 0x20 ADD PUSH1 0x40 MSTORE PUSH1 0x40 MLOAD PUSH2 0x828 SWAP5 SWAP4 SWAP3 SWAP2 SWAP1 PUSH2 0x1172 JUMP JUMPDEST PUSH1 0x20 PUSH1 0x40 MLOAD PUSH1 0x20 DUP2 SUB SWAP1 DUP1 DUP5 SUB SWAP1 DUP6 GAS STATICCALL ISZERO DUP1 ISZERO PUSH2 0x848 JUMPI RETURNDATASIZE PUSH0 DUP1 RETURNDATACOPY RETURNDATASIZE PUSH0 REVERT JUMPDEST POP POP POP PUSH1 0x20 PUSH1 0x40 MLOAD SUB MLOAD SWAP1 POP PUSH0 PUSH20 0xFFFFFFFFFFFFFFFFFFFFFFFFFFFFFFFFFFFFFFFF AND DUP2 PUSH20 0xFFFFFFFFFFFFFFFFFFFFFFFFFFFFFFFFFFFFFFFF AND SUB PUSH2 0x894 JUMPI PUSH0 PUSH1 0x1 SWAP3 POP SWAP3 POP POP PUSH2 0x89C JUMP JUMPDEST DUP1 PUSH0 SWAP3 POP SWAP3 POP POP JUMPDEST SWAP5 POP SWAP5 SWAP3 POP POP POP JUMP JUMPDEST PUSH0 PUSH1 0x40 MLOAD SWAP1 POP SWAP1 JUMP JUMPDEST PUSH0 DUP1 REVERT JUMPDEST PUSH0 DUP1 REVERT JUMPDEST PUSH0 PUSH32 0xFFFFFFFF00000000000000000000000000000000000000000000000000000000 DUP3 AND SWAP1 POP SWAP2 SWAP1 POP JUMP JUMPDEST PUSH2 0x8EA DUP2 PUSH2 0x8B6 JUMP JUMPDEST DUP2 EQ PUSH2 0x8F4 JUMPI PUSH0 DUP1 REVERT JUMPDEST POP JUMP JUMPDEST PUSH0 DUP2 CALLDATALOAD SWAP1 POP PUSH2 0x905 DUP2 PUSH2 0x8E1 JUMP JUMPDEST SWAP3 SWAP2 POP POP JUMP JUMPDEST PUSH0 PUSH1 0x20 DUP3 DUP5 SUB SLT ISZERO PUSH2 0x920 JUMPI PUSH2 0x91F PUSH2 0x8AE JUMP JUMPDEST JUMPDEST PUSH0 PUSH2 0x92D DUP5 DUP3 DUP6 ADD PUSH2 0x8F7 JUMP JUMPDEST SWAP2 POP POP SWAP3 SWAP2 POP POP JUMP JUMPDEST PUSH0 DUP2 ISZERO ISZERO SWAP1 POP SWAP2 SWAP1 POP JUMP JUMPDEST PUSH2 0x94A DUP2 PUSH2 0x936 JUMP JUMPDEST DUP3 MSTORE POP POP JUMP JUMPDEST PUSH0 PUSH1 0x20 DUP3 ADD SWAP1 POP PUSH2 0x963 PUSH0 DUP4 ADD DUP5 PUSH2 0x941 JUMP JUMPDEST SWAP3 SWAP2 POP POP JUMP JUMPDEST PUSH0 DUP2 SWAP1 POP SWAP2 SWAP1 POP JUMP JUMPDEST PUSH2 0x97B DUP2 PUSH2 0x969 JUMP JUMPDEST DUP2 EQ PUSH2 0x985 JUMPI PUSH0 DUP1 REVERT JUMPDEST POP JUMP JUMPDEST PUSH0 DUP2 CALLDATALOAD SWAP1 POP PUSH2 0x996 DUP2 PUSH2 0x972 JUMP JUMPDEST SWAP3 SWAP2 POP POP JUMP JUMPDEST PUSH0 DUP1 REVERT JUMPDEST PUSH0 DUP1 REVERT JUMPDEST PUSH0 PUSH1 0x1F NOT PUSH1 0x1F DUP4 ADD AND SWAP1 POP SWAP2 SWAP1 POP JUMP JUMPDEST PUSH32 0x4E487B7100000000000000000000000000000000000000000000000000000000 PUSH0 MSTORE PUSH1 0x41 PUSH1 0x4 MSTORE PUSH1 0x24 PUSH0 REVERT JUMPDEST PUSH2 0x9EA DUP3 PUSH2 0x9A4 JUMP JUMPDEST DUP2 ADD DUP2 DUP2 LT PUSH8 0xFFFFFFFFFFFFFFFF DUP3 GT OR ISZERO PUSH2 0xA09 JUMPI PUSH2 0xA08 PUSH2 0x9B4 JUMP JUMPDEST JUMPDEST DUP1 PUSH1 0x40 MSTORE POP POP POP JUMP JUMPDEST PUSH0 PUSH2 0xA1B PUSH2 0x8A5 JUMP JUMPDEST SWAP1 POP PUSH2 0xA27 DUP3 DUP3 PUSH2 0x9E1 JUMP JUMPDEST SWAP2 SWAP1 POP JUMP JUMPDEST PUSH0 PUSH8 0xFFFFFFFFFFFFFFFF DUP3 GT ISZERO PUSH2 0xA46 JUMPI PUSH2 0xA45 PUSH2 0x9B4 JUMP JUMPDEST JUMPDEST PUSH2 0xA4F DUP3 PUSH2 0x9A4 JUMP JUMPDEST SWAP1 POP PUSH1 0x20 DUP2 ADD SWAP1 POP SWAP2 SWAP1 POP JUMP JUMPDEST DUP3 DUP2 DUP4 CALLDATACOPY PUSH0 DUP4 DUP4 ADD MSTORE POP POP POP JUMP JUMPDEST PUSH0 PUSH2 0xA7C PUSH2 0xA77 DUP5 PUSH2 0xA2C JUMP JUMPDEST PUSH2 0xA12 JUMP JUMPDEST SWAP1 POP DUP3 DUP2 MSTORE PUSH1 0x20 DUP2 ADD DUP5 DUP5 DUP5 ADD GT ISZERO PUSH2 0xA98 JUMPI PUSH2 0xA97 PUSH2 0x9A0 JUMP JUMPDEST JUMPDEST PUSH2 0xAA3 DUP5 DUP3 DUP6 PUSH2 0xA5C JUMP JUMPDEST POP SWAP4 SWAP3 POP POP POP JUMP JUMPDEST PUSH0 DUP3 PUSH1 0x1F DUP4 ADD SLT PUSH2 0xABF JUMPI PUSH2 0xABE PUSH2 0x99C JUMP JUMPDEST JUMPDEST DUP2 CALLDATALOAD PUSH2 0xACF DUP5 DUP3 PUSH1 0x20 DUP7 ADD PUSH2 0xA6A JUMP JUMPDEST SWAP2 POP POP SWAP3 SWAP2 POP POP JUMP JUMPDEST PUSH0 DUP1 PUSH1 0x40 DUP4 DUP6 SUB SLT ISZERO PUSH2 0xAEE JUMPI PUSH2 0xAED PUSH2 0x8AE JUMP JUMPDEST JUMPDEST PUSH0 PUSH2 0xAFB DUP6 DUP3 DUP7 ADD PUSH2 0x988 JUMP JUMPDEST SWAP3 POP POP PUSH1 0x20 DUP4 ADD CALLDATALOAD PUSH8 0xFFFFFFFFFFFFFFFF DUP2 GT ISZERO PUSH2 0xB1C JUMPI PUSH2 0xB1B PUSH2 0x8B2 JUMP JUMPDEST JUMPDEST PUSH2 0xB28 DUP6 DUP3 DUP7 ADD PUSH2 0xAAB JUMP JUMPDEST SWAP2 POP POP SWAP3 POP SWAP3 SWAP1 POP JUMP JUMPDEST PUSH2 0xB3B DUP2 PUSH2 0x8B6 JUMP JUMPDEST DUP3 MSTORE POP POP JUMP JUMPDEST PUSH0 PUSH1 0x20 DUP3 ADD SWAP1 POP PUSH2 0xB54 PUSH0 DUP4 ADD DUP5 PUSH2 0xB32 JUMP JUMPDEST SWAP3 SWAP2 POP POP JUMP JUMPDEST PUSH0 PUSH20 0xFFFFFFFFFFFFFFFFFFFFFFFFFFFFFFFFFFFFFFFF DUP3 AND SWAP1 POP SWAP2 SWAP1 POP JUMP JUMPDEST PUSH0 PUSH2 0xB83 DUP3 PUSH2 0xB5A JUMP JUMPDEST SWAP1 POP SWAP2 SWAP1 POP JUMP JUMPDEST PUSH2 0xB93 DUP2 PUSH2 0xB79 JUMP JUMPDEST DUP3 MSTORE POP POP JUMP JUMPDEST PUSH0 PUSH1 0x20 DUP3 ADD SWAP1 POP PUSH2 0xBAC PUSH0 DUP4 ADD DUP5 PUSH2 0xB8A JUMP JUMPDEST SWAP3 SWAP2 POP POP JUMP JUMPDEST PUSH2 0xBBB DUP2 PUSH2 0xB79 JUMP JUMPDEST DUP2 EQ PUSH2 0xBC5 JUMPI PUSH0 DUP1 REVERT JUMPDEST POP JUMP JUMPDEST PUSH0 DUP2 CALLDATALOAD SWAP1 POP PUSH2 0xBD6 DUP2 PUSH2 0xBB2 JUMP JUMPDEST SWAP3 SWAP2 POP POP JUMP JUMPDEST PUSH0 DUP2 SWAP1 POP SWAP2 SWAP1 POP JUMP JUMPDEST PUSH2 0xBEE DUP2 PUSH2 0xBDC JUMP JUMPDEST DUP2 EQ PUSH2 0xBF8 JUMPI PUSH0 DUP1 REVERT JUMPDEST POP JUMP JUMPDEST PUSH0 DUP2 CALLDATALOAD SWAP1 POP PUSH2 0xC09 DUP2 PUSH2 0xBE5 JUMP JUMPDEST SWAP3 SWAP2 POP POP JUMP JUMPDEST PUSH0 DUP1 REVERT JUMPDEST PUSH0 DUP1 REVERT JUMPDEST PUSH0 DUP1 DUP4 PUSH1 0x1F DUP5 ADD SLT PUSH2 0xC2C JUMPI PUSH2 0xC2B PUSH2 0x99C JUMP JUMPDEST JUMPDEST DUP3 CALLDATALOAD SWAP1 POP PUSH8 0xFFFFFFFFFFFFFFFF DUP2 GT ISZERO PUSH2 0xC49 JUMPI PUSH2 0xC48 PUSH2 0xC0F JUMP JUMPDEST JUMPDEST PUSH1 0x20 DUP4 ADD SWAP2 POP DUP4 PUSH1 0x1 DUP3 MUL DUP4 ADD GT ISZERO PUSH2 0xC65 JUMPI PUSH2 0xC64 PUSH2 0xC13 JUMP JUMPDEST JUMPDEST SWAP3 POP SWAP3 SWAP1 POP JUMP JUMPDEST PUSH0 DUP1 PUSH0 DUP1 PUSH1 0x60 DUP6 DUP8 SUB SLT ISZERO PUSH2 0xC84 JUMPI PUSH2 0xC83 PUSH2 0x8AE JUMP JUMPDEST JUMPDEST PUSH0 PUSH2 0xC91 DUP8 DUP3 DUP9 ADD PUSH2 0xBC8 JUMP JUMPDEST SWAP5 POP POP PUSH1 0x20 PUSH2 0xCA2 DUP8 DUP3 DUP9 ADD PUSH2 0xBFB JUMP JUMPDEST SWAP4 POP POP PUSH1 0x40 DUP6 ADD CALLDATALOAD PUSH8 0xFFFFFFFFFFFFFFFF DUP2 GT ISZERO PUSH2 0xCC3 JUMPI PUSH2 0xCC2 PUSH2 0x8B2 JUMP JUMPDEST JUMPDEST PUSH2 0xCCF DUP8 DUP3 DUP9 ADD PUSH2 0xC17 JUMP JUMPDEST SWAP3 POP SWAP3 POP POP SWAP3 SWAP6 SWAP2 SWAP5 POP SWAP3 POP JUMP JUMPDEST PUSH0 DUP2 MLOAD SWAP1 POP SWAP2 SWAP1 POP JUMP JUMPDEST PUSH0 DUP3 DUP3 MSTORE PUSH1 0x20 DUP3 ADD SWAP1 POP SWAP3 SWAP2 POP POP JUMP JUMPDEST DUP3 DUP2 DUP4 MCOPY PUSH0 DUP4 DUP4 ADD MSTORE POP POP POP JUMP JUMPDEST PUSH0 PUSH2 0xD0F DUP3 PUSH2 0xCDD JUMP JUMPDEST PUSH2 0xD19 DUP2 DUP6 PUSH2 0xCE7 JUMP JUMPDEST SWAP4 POP PUSH2 0xD29 DUP2 DUP6 PUSH1 0x20 DUP7 ADD PUSH2 0xCF7 JUMP JUMPDEST PUSH2 0xD32 DUP2 PUSH2 0x9A4 JUMP JUMPDEST DUP5 ADD SWAP2 POP POP SWAP3 SWAP2 POP POP JUMP JUMPDEST PUSH0 PUSH1 0x20 DUP3 ADD SWAP1 POP DUP2 DUP2 SUB PUSH0 DUP4 ADD MSTORE PUSH2 0xD55 DUP2 DUP5 PUSH2 0xD05 JUMP JUMPDEST SWAP1 POP SWAP3 SWAP2 POP POP JUMP JUMPDEST PUSH2 0xD66 DUP2 PUSH2 0xBDC JUMP JUMPDEST DUP3 MSTORE POP POP JUMP JUMPDEST PUSH0 PUSH1 0x20 DUP3 ADD SWAP1 POP PUSH2 0xD7F PUSH0 DUP4 ADD DUP5 PUSH2 0xD5D JUMP JUMPDEST SWAP3 SWAP2 POP POP JUMP JUMPDEST PUSH0 PUSH1 0x60 DUP3 ADD SWAP1 POP PUSH2 0xD98 PUSH0 DUP4 ADD DUP7 PUSH2 0xD5D JUMP JUMPDEST PUSH2 0xDA5 PUSH1 0x20 DUP4 ADD DUP6 PUSH2 0xB8A JUMP JUMPDEST PUSH2 0xDB2 PUSH1 0x40 DUP4 ADD DUP5 PUSH2 0xD5D JUMP JUMPDEST SWAP5 SWAP4 POP POP POP POP JUMP JUMPDEST PUSH0 DUP2 MLOAD SWAP1 POP PUSH2 0xDC8 DUP2 PUSH2 0xBE5 JUMP JUMPDEST SWAP3 SWAP2 POP POP JUMP JUMPDEST PUSH0 DUP2 MLOAD SWAP1 POP PUSH2 0xDDC DUP2 PUSH2 0xBB2 JUMP JUMPDEST SWAP3 SWAP2 POP POP JUMP JUMPDEST PUSH0 DUP1 PUSH0 PUSH1 0x60 DUP5 DUP7 SUB SLT ISZERO PUSH2 0xDF9 JUMPI PUSH2 0xDF8 PUSH2 0x8AE JUMP JUMPDEST JUMPDEST PUSH0 PUSH2 0xE06 DUP7 DUP3 DUP8 ADD PUSH2 0xDBA JUMP JUMPDEST SWAP4 POP POP PUSH1 0x20 PUSH2 0xE17 DUP7 DUP3 DUP8 ADD PUSH2 0xDCE JUMP JUMPDEST SWAP3 POP POP PUSH1 0x40 PUSH2 0xE28 DUP7 DUP3 DUP8 ADD PUSH2 0xDBA JUMP JUMPDEST SWAP2 POP POP SWAP3 POP SWAP3 POP SWAP3 JUMP JUMPDEST PUSH0 PUSH1 0x20 DUP3 DUP5 SUB SLT ISZERO PUSH2 0xE47 JUMPI PUSH2 0xE46 PUSH2 0x8AE JUMP JUMPDEST JUMPDEST PUSH0 PUSH2 0xE54 DUP5 DUP3 DUP6 ADD PUSH2 0xDCE JUMP JUMPDEST SWAP2 POP POP SWAP3 SWAP2 POP POP JUMP JUMPDEST PUSH0 DUP3 DUP3 MSTORE PUSH1 0x20 DUP3 ADD SWAP1 POP SWAP3 SWAP2 POP POP JUMP JUMPDEST PUSH32 0x4E6F7420746F6B656E206F776E65720000000000000000000000000000000000 PUSH0 DUP3 ADD MSTORE POP JUMP JUMPDEST PUSH0 PUSH2 0xEA1 PUSH1 0xF DUP4 PUSH2 0xE5D JUMP JUMPDEST SWAP2 POP PUSH2 0xEAC DUP3 PUSH2 0xE6D JUMP JUMPDEST PUSH1 0x20 DUP3 ADD SWAP1 POP SWAP2 SWAP1 POP JUMP JUMPDEST PUSH0 PUSH1 0x20 DUP3 ADD SWAP1 POP DUP2 DUP2 SUB PUSH0 DUP4 ADD MSTORE PUSH2 0xECE DUP2 PUSH2 0xE95 JUMP JUMPDEST SWAP1 POP SWAP2 SWAP1 POP JUMP JUMPDEST PUSH32 0x4E487B7100000000000000000000000000000000000000000000000000000000 PUSH0 MSTORE PUSH1 0x11 PUSH1 0x4 MSTORE PUSH1 0x24 PUSH0 REVERT JUMPDEST PUSH0 PUSH2 0xF0C DUP3 PUSH2 0xBDC JUMP JUMPDEST SWAP2 POP PUSH32 0xFFFFFFFFFFFFFFFFFFFFFFFFFFFFFFFFFFFFFFFFFFFFFFFFFFFFFFFFFFFFFFFF DUP3 SUB PUSH2 0xF3E JUMPI PUSH2 0xF3D PUSH2 0xED5 JUMP JUMPDEST JUMPDEST PUSH1 0x1 DUP3 ADD SWAP1 POP SWAP2 SWAP1 POP JUMP JUMPDEST PUSH0 PUSH2 0xF54 DUP4 DUP6 PUSH2 0xCE7 JUMP JUMPDEST SWAP4 POP PUSH2 0xF61 DUP4 DUP6 DUP5 PUSH2 0xA5C JUMP JUMPDEST PUSH2 0xF6A DUP4 PUSH2 0x9A4 JUMP JUMPDEST DUP5 ADD SWAP1 POP SWAP4 SWAP3 POP POP POP JUMP JUMPDEST PUSH0 PUSH1 0x20 DUP3 ADD SWAP1 POP DUP2 DUP2 SUB PUSH0 DUP4 ADD MSTORE PUSH2 0xF8E DUP2 DUP5 DUP7 PUSH2 0xF49 JUMP JUMPDEST SWAP1 POP SWAP4 SWAP3 POP POP POP JUMP JUMPDEST PUSH0 DUP2 SWAP1 POP SWAP3 SWAP2 POP POP JUMP JUMPDEST PUSH0 PUSH2 0xFAC DUP4 DUP6 PUSH2 0xF97 JUMP JUMPDEST SWAP4 POP PUSH2 0xFB9 DUP4 DUP6 DUP5 PUSH2 0xA5C JUMP JUMPDEST DUP3 DUP5 ADD SWAP1 POP SWAP4 SWAP3 POP POP POP JUMP JUMPDEST PUSH0 PUSH2 0xFD1 DUP3 DUP5 DUP7 PUSH2 0xFA1 JUMP JUMPDEST SWAP2 POP DUP2 SWAP1 POP SWAP4 SWAP3 POP POP POP JUMP JUMPDEST PUSH32 0x4E487B7100000000000000000000000000000000000000000000000000000000 PUSH0 MSTORE PUSH1 0x21 PUSH1 0x4 MSTORE PUSH1 0x24 PUSH0 REVERT JUMPDEST PUSH2 0x1013 DUP2 PUSH2 0x969 JUMP JUMPDEST DUP3 MSTORE POP POP JUMP JUMPDEST PUSH0 PUSH1 0x40 DUP3 ADD SWAP1 POP PUSH2 0x102C PUSH0 DUP4 ADD DUP6 PUSH2 0x100A JUMP JUMPDEST DUP2 DUP2 SUB PUSH1 0x20 DUP4 ADD MSTORE PUSH2 0x103E DUP2 DUP5 PUSH2 0xD05 JUMP JUMPDEST SWAP1 POP SWAP4 SWAP3 POP POP POP JUMP JUMPDEST PUSH0 PUSH2 0x1051 DUP3 PUSH2 0xCDD JUMP JUMPDEST PUSH2 0x105B DUP2 DUP6 PUSH2 0xF97 JUMP JUMPDEST SWAP4 POP PUSH2 0x106B DUP2 DUP6 PUSH1 0x20 DUP7 ADD PUSH2 0xCF7 JUMP JUMPDEST DUP1 DUP5 ADD SWAP2 POP POP SWAP3 SWAP2 POP POP JUMP JUMPDEST PUSH0 PUSH2 0x1082 DUP3 DUP5 PUSH2 0x1047 JUMP JUMPDEST SWAP2 POP DUP2 SWAP1 POP SWAP3 SWAP2 POP POP JUMP JUMPDEST PUSH0 DUP2 MLOAD SWAP1 POP PUSH2 0x109B DUP2 PUSH2 0x972 JUMP JUMPDEST SWAP3 SWAP2 POP POP JUMP JUMPDEST PUSH0 PUSH1 0x20 DUP3 DUP5 SUB SLT ISZERO PUSH2 0x10B6 JUMPI PUSH2 0x10B5 PUSH2 0x8AE JUMP JUMPDEST JUMPDEST PUSH0 PUSH2 0x10C3 DUP5 DUP3 DUP6 ADD PUSH2 0x108D JUMP JUMPDEST SWAP2 POP POP SWAP3 SWAP2 POP POP JUMP JUMPDEST PUSH0 PUSH2 0x10D6 DUP3 PUSH2 0xB5A JUMP JUMPDEST SWAP1 POP SWAP2 SWAP1 POP JUMP JUMPDEST PUSH2 0x10E6 DUP2 PUSH2 0x10CC JUMP JUMPDEST DUP2 EQ PUSH2 0x10F0 JUMPI PUSH0 DUP1 REVERT JUMPDEST POP JUMP JUMPDEST PUSH0 DUP2 MLOAD SWAP1 POP PUSH2 0x1101 DUP2 PUSH2 0x10DD JUMP JUMPDEST SWAP3 SWAP2 POP POP JUMP JUMPDEST PUSH0 DUP1 PUSH0 PUSH1 0x60 DUP5 DUP7 SUB SLT ISZERO PUSH2 0x111E JUMPI PUSH2 0x111D PUSH2 0x8AE JUMP JUMPDEST JUMPDEST PUSH0 PUSH2 0x112B DUP7 DUP3 DUP8 ADD PUSH2 0xDBA JUMP JUMPDEST SWAP4 POP POP PUSH1 0x20 PUSH2 0x113C DUP7 DUP3 DUP8 ADD PUSH2 0x10F3 JUMP JUMPDEST SWAP3 POP POP PUSH1 0x40 PUSH2 0x114D DUP7 DUP3 DUP8 ADD PUSH2 0xDBA JUMP JUMPDEST SWAP2 POP POP SWAP3 POP SWAP3 POP SWAP3 JUMP JUMPDEST PUSH0 PUSH1 0xFF DUP3 AND SWAP1 POP SWAP2 SWAP1 POP JUMP JUMPDEST PUSH2 0x116C DUP2 PUSH2 0x1157 JUMP JUMPDEST DUP3 MSTORE POP POP JUMP JUMPDEST PUSH0 PUSH1 0x80 DUP3 ADD SWAP1 POP PUSH2 0x1185 PUSH0 DUP4 ADD DUP8 PUSH2 0x100A JUMP JUMPDEST PUSH2 0x1192 PUSH1 0x20 DUP4 ADD DUP7 PUSH2 0x1163 JUMP JUMPDEST PUSH2 0x119F PUSH1 0x40 DUP4 ADD DUP6 PUSH2 0x100A JUMP JUMPDEST PUSH2 0x11AC PUSH1 0x60 DUP4 ADD DUP5 PUSH2 0x100A JUMP JUMPDEST SWAP6 SWAP5 POP POP POP POP POP JUMP INVALID LOG2 PUSH5 0x6970667358 0x22 SLT KECCAK256 NOT PUSH29 0xD26A7AD7174F2EDFAE1EFDE69A20CD8E379F8B51DD6EF879A1E10F7649 PUSH12 0x64736F6C634300081A003300 "
		},
		"gasEstimates": {
			"creation": {
				"codeDepositCost": "917400",
				"executionCost": "953",
				"totalCost": "918353"
			},
			"external": {
				"executeCall(address,uint256,bytes)": "infinite",
				"isValidSignature(bytes32,bytes)": "infinite",
				"nonce()": "2490",
				"owner()": "infinite",
				"supportsInterface(bytes4)": "653",
				"token()": "infinite"
			}
		},
		"methodIdentifiers": {
			"executeCall(address,uint256,bytes)": "9e5d4c49",
			"isValidSignature(bytes32,bytes)": "1626ba7e",
			"nonce()": "affed0e0",
			"owner()": "8da5cb5b",
			"supportsInterface(bytes4)": "01ffc9a7",
			"token()": "fc0c546a"
		}
	},
	"abi": [
		{
			"anonymous": false,
			"inputs": [
				{
					"indexed": true,
					"internalType": "address",
					"name": "target",
					"type": "address"
				},
				{
					"indexed": true,
					"internalType": "uint256",
					"name": "value",
					"type": "uint256"
				},
				{
					"indexed": false,
					"internalType": "bytes",
					"name": "data",
					"type": "bytes"
				}
			],
			"name": "TransactionExecuted",
			"type": "event"
		},
		{
			"inputs": [
				{
					"internalType": "address",
					"name": "to",
					"type": "address"
				},
				{
					"internalType": "uint256",
					"name": "value",
					"type": "uint256"
				},
				{
					"internalType": "bytes",
					"name": "data",
					"type": "bytes"
				}
			],
			"name": "executeCall",
			"outputs": [
				{
					"internalType": "bytes",
					"name": "result",
					"type": "bytes"
				}
			],
			"stateMutability": "payable",
			"type": "function"
		},
		{
			"inputs": [
				{
					"internalType": "bytes32",
					"name": "hash",
					"type": "bytes32"
				},
				{
					"internalType": "bytes",
					"name": "signature",
					"type": "bytes"
				}
			],
			"name": "isValidSignature",
			"outputs": [
				{
					"internalType": "bytes4",
					"name": "magicValue",
					"type": "bytes4"
				}
			],
			"stateMutability": "view",
			"type": "function"
		},
		{
			"inputs": [],
			"name": "nonce",
			"outputs": [
				{
					"internalType": "uint256",
					"name": "",
					"type": "uint256"
				}
			],
			"stateMutability": "view",
			"type": "function"
		},
		{
			"inputs": [],
			"name": "owner",
			"outputs": [
				{
					"internalType": "address",
					"name": "",
					"type": "address"
				}
			],
			"stateMutability": "view",
			"type": "function"
		},
		{
			"inputs": [
				{
					"internalType": "bytes4",
					"name": "interfaceId",
					"type": "bytes4"
				}
			],
			"name": "supportsInterface",
			"outputs": [
				{
					"internalType": "bool",
					"name": "",
					"type": "bool"
				}
			],
			"stateMutability": "pure",
			"type": "function"
		},
		{
			"inputs": [],
			"name": "token",
			"outputs": [
				{
					"internalType": "uint256",
					"name": "",
					"type": "uint256"
				},
				{
					"internalType": "address",
					"name": "",
					"type": "address"
				},
				{
					"internalType": "uint256",
					"name": "",
					"type": "uint256"
				}
			],
			"stateMutability": "view",
			"type": "function"
		},
		{
			"stateMutability": "payable",
			"type": "receive"
		}
	]
}