{
	"data": {
		"bytecode": {
			"linkReferences": {},
			"object": "6080604052348015600e575f80fd5b50610ac68061001c5f395ff3fe608060405234801561000f575f80fd5b5060043610610034575f3560e01c80635e9bc53614610038578063da7323b314610068575b5f80fd5b610052600480360381019061004d9190610470565b610098565b60405161005f91906104f6565b60405180910390f35b610082600480360381019061007d9190610570565b6100c8565b60405161008f91906104f6565b60405180910390f35b5f806100a78787878787610225565b8051906020012090506100bc835f1b82610279565b91505095945050505050565b5f806100d78989898989610225565b90505f6100ed865f1b8380519060200120610279565b90505f8173ffffffffffffffffffffffffffffffffffffffff163b1461011757809250505061021a565b6101245f875f1b8461028d565b90505f85859050146101d3575f8173ffffffffffffffffffffffffffffffffffffffff168686604051610158929190610656565b5f604051808303815f865af19150503d805f8114610191576040519150601f19603f3d011682016040523d82523d5f602084013e610196565b606091505b50509050806101d1576040517f19b991a800000000000000000000000000000000000000000000000000000000815260040160405180910390fd5b505b7f07fba7bba1191da7ee1155dcfa0030701c9c9a9cc34a93b991fc6fd0c9268d8f818b8b8b8b8b60405161020c9695949392919061067d565b60405180910390a180925050505b979650505050505050565b6060858286868660405160200161023f94939291906106dc565b60405160208183030381529060405260405160200161025f92919061084a565b604051602081830303815290604052905095945050505050565b5f610285838330610399565b905092915050565b5f80844710156102d2576040517f08c379a00000000000000000000000000000000000000000000000000000000081526004016102c9906108e1565b60405180910390fd5b5f835103610315576040517f08c379a000000000000000000000000000000000000000000000000000000000815260040161030c90610949565b60405180910390fd5b8383516020850187f590505f73ffffffffffffffffffffffffffffffffffffffff168173ffffffffffffffffffffffffffffffffffffffff160361038e576040517f08c379a0000000000000000000000000000000000000000000000000000000008152600401610385906109b1565b60405180910390fd5b809150509392505050565b5f8060ff60f81b8386866040516020016103b69493929190610a43565b604051602081830303815290604052805190602001209050805f1c9150509392505050565b5f80fd5b5f80fd5b5f73ffffffffffffffffffffffffffffffffffffffff82169050919050565b5f61040c826103e3565b9050919050565b61041c81610402565b8114610426575f80fd5b50565b5f8135905061043781610413565b92915050565b5f819050919050565b61044f8161043d565b8114610459575f80fd5b50565b5f8135905061046a81610446565b92915050565b5f805f805f60a08688031215610489576104886103db565b5b5f61049688828901610429565b95505060206104a78882890161045c565b94505060406104b888828901610429565b93505060606104c98882890161045c565b92505060806104da8882890161045c565b9150509295509295909350565b6104f081610402565b82525050565b5f6020820190506105095f8301846104e7565b92915050565b5f80fd5b5f80fd5b5f80fd5b5f8083601f8401126105305761052f61050f565b5b8235905067ffffffffffffffff81111561054d5761054c610513565b5b60208301915083600182028301111561056957610568610517565b5b9250929050565b5f805f805f805f60c0888a03121561058b5761058a6103db565b5b5f6105988a828b01610429565b97505060206105a98a828b0161045c565b96505060406105ba8a828b01610429565b95505060606105cb8a828b0161045c565b94505060806105dc8a828b0161045c565b93505060a088013567ffffffffffffffff8111156105fd576105fc6103df565b5b6106098a828b0161051b565b925092505092959891949750929550565b5f81905092915050565b828183375f83830152505050565b5f61063d838561061a565b935061064a838584610624565b82840190509392505050565b5f610662828486610632565b91508190509392505050565b6106778161043d565b82525050565b5f60c0820190506106905f8301896104e7565b61069d60208301886104e7565b6106aa604083018761066e565b6106b760608301866104e7565b6106c4608083018561066e565b6106d160a083018461066e565b979650505050505050565b5f6080820190506106ef5f83018761066e565b6106fc602083018661066e565b61070960408301856104e7565b610716606083018461066e565b95945050505050565b5f81905092915050565b7f3d60ad80600a3d3981f3363d3d373d3d3d363d730000000000000000000000005f82015250565b5f61075d60148361071f565b915061076882610729565b601482019050919050565b5f8160601b9050919050565b5f61078982610773565b9050919050565b5f61079a8261077f565b9050919050565b6107b26107ad82610402565b610790565b82525050565b7f5af43d82803e903d91602b57fd5bf300000000000000000000000000000000005f82015250565b5f6107ec600f8361071f565b91506107f7826107b8565b600f82019050919050565b5f81519050919050565b8281835e5f83830152505050565b5f61082482610802565b61082e818561061a565b935061083e81856020860161080c565b80840191505092915050565b5f61085482610751565b915061086082856107a1565b60148201915061086f826107e0565b915061087b828461081a565b91508190509392505050565b5f82825260208201905092915050565b7f437265617465323a20696e73756666696369656e742062616c616e63650000005f82015250565b5f6108cb601d83610887565b91506108d682610897565b602082019050919050565b5f6020820190508181035f8301526108f8816108bf565b9050919050565b7f437265617465323a2062797465636f6465206c656e677468206973207a65726f5f82015250565b5f610933602083610887565b915061093e826108ff565b602082019050919050565b5f6020820190508181035f83015261096081610927565b9050919050565b7f437265617465323a204661696c6564206f6e206465706c6f79000000000000005f82015250565b5f61099b601983610887565b91506109a682610967565b602082019050919050565b5f6020820190508181035f8301526109c88161098f565b9050919050565b5f7fff0000000000000000000000000000000000000000000000000000000000000082169050919050565b5f819050919050565b610a14610a0f826109cf565b6109fa565b82525050565b5f819050919050565b5f819050919050565b610a3d610a3882610a1a565b610a23565b82525050565b5f610a4e8287610a03565b600182019150610a5e82866107a1565b601482019150610a6e8285610a2c565b602082019150610a7e8284610a2c565b6020820191508190509594505050505056fea2646970667358221220b1934b7b242a8496c3af335381a9e104e77e9163133c767039a0cf38c6258cc064736f6c634300081a0033",
			"opcodes": "PUSH1 0x80 PUSH1 0x40 MSTORE CALLVALUE DUP1 ISZERO PUSH1 0xE JUMPI PUSH0 DUP1 REVERT JUMPDEST POP PUSH2 0xAC6 DUP1 PUSH2 0x1C PUSH0 CODECOPY PUSH0 RETURN INVALID PUSH1 0x80 PUSH1 0x40 MSTORE CALLVALUE DUP1 ISZERO PUSH2 0xF JUMPI PUSH0 DUP1 REVERT JUMPDEST POP PUSH1 0x4 CALLDATASIZE LT PUSH2 0x34 JUMPI PUSH0 CALLDATALOAD PUSH1 0xE0 SHR DUP1 PUSH4 0x5E9BC536 EQ PUSH2 0x38 JUMPI DUP1 PUSH4 0xDA7323B3 EQ PUSH2 0x68 JUMPI JUMPDEST PUSH0 DUP1 REVERT JUMPDEST PUSH2 0x52 PUSH1 0x4 DUP1 CALLDATASIZE SUB DUP2 ADD SWAP1 PUSH2 0x4D SWAP2 SWAP1 PUSH2 0x470 JUMP JUMPDEST PUSH2 0x98 JUMP JUMPDEST PUSH1 0x40 MLOAD PUSH2 0x5F SWAP2 SWAP1 PUSH2 0x4F6 JUMP JUMPDEST PUSH1 0x40 MLOAD DUP1 SWAP2 SUB SWAP1 RETURN JUMPDEST PUSH2 0x82 PUSH1 0x4 DUP1 CALLDATASIZE SUB DUP2 ADD SWAP1 PUSH2 0x7D SWAP2 SWAP1 PUSH2 0x570 JUMP JUMPDEST PUSH2 0xC8 JUMP JUMPDEST PUSH1 0x40 MLOAD PUSH2 0x8F SWAP2 SWAP1 PUSH2 0x4F6 JUMP JUMPDEST PUSH1 0x40 MLOAD DUP1 SWAP2 SUB SWAP1 RETURN JUMPDEST PUSH0 DUP1 PUSH2 0xA7 DUP8 DUP8 DUP8 DUP8 DUP8 PUSH2 0x225 JUMP JUMPDEST DUP1 MLOAD SWAP1 PUSH1 0x20 ADD KECCAK256 SWAP1 POP PUSH2 0xBC DUP4 PUSH0 SHL DUP3 PUSH2 0x279 JUMP JUMPDEST SWAP2 POP POP SWAP6 SWAP5 POP POP POP POP POP JUMP JUMPDEST PUSH0 DUP1 PUSH2 0xD7 DUP10 DUP10 DUP10 DUP10 DUP10 PUSH2 0x225 JUMP JUMPDEST SWAP1 POP PUSH0 PUSH2 0xED DUP7 PUSH0 SHL DUP4 DUP1 MLOAD SWAP1 PUSH1 0x20 ADD KECCAK256 PUSH2 0x279 JUMP JUMPDEST SWAP1 POP PUSH0 DUP2 PUSH20 0xFFFFFFFFFFFFFFFFFFFFFFFFFFFFFFFFFFFFFFFF AND EXTCODESIZE EQ PUSH2 0x117 JUMPI DUP1 SWAP3 POP POP POP PUSH2 0x21A JUMP JUMPDEST PUSH2 0x124 PUSH0 DUP8 PUSH0 SHL DUP5 PUSH2 0x28D JUMP JUMPDEST SWAP1 POP PUSH0 DUP6 DUP6 SWAP1 POP EQ PUSH2 0x1D3 JUMPI PUSH0 DUP2 PUSH20 0xFFFFFFFFFFFFFFFFFFFFFFFFFFFFFFFFFFFFFFFF AND DUP7 DUP7 PUSH1 0x40 MLOAD PUSH2 0x158 SWAP3 SWAP2 SWAP1 PUSH2 0x656 JUMP JUMPDEST PUSH0 PUSH1 0x40 MLOAD DUP1 DUP4 SUB DUP2 PUSH0 DUP7 GAS CALL SWAP2 POP POP RETURNDATASIZE DUP1 PUSH0 DUP2 EQ PUSH2 0x191 JUMPI PUSH1 0x40 MLOAD SWAP2 POP PUSH1 0x1F NOT PUSH1 0x3F RETURNDATASIZE ADD AND DUP3 ADD PUSH1 0x40 MSTORE RETURNDATASIZE DUP3 MSTORE RETURNDATASIZE PUSH0 PUSH1 0x20 DUP5 ADD RETURNDATACOPY PUSH2 0x196 JUMP JUMPDEST PUSH1 0x60 SWAP2 POP JUMPDEST POP POP SWAP1 POP DUP1 PUSH2 0x1D1 JUMPI PUSH1 0x40 MLOAD PUSH32 0x19B991A800000000000000000000000000000000000000000000000000000000 DUP2 MSTORE PUSH1 0x4 ADD PUSH1 0x40 MLOAD DUP1 SWAP2 SUB SWAP1 REVERT JUMPDEST POP JUMPDEST PUSH32 0x7FBA7BBA1191DA7EE1155DCFA0030701C9C9A9CC34A93B991FC6FD0C9268D8F DUP2 DUP12 DUP12 DUP12 DUP12 DUP12 PUSH1 0x40 MLOAD PUSH2 0x20C SWAP7 SWAP6 SWAP5 SWAP4 SWAP3 SWAP2 SWAP1 PUSH2 0x67D JUMP JUMPDEST PUSH1 0x40 MLOAD DUP1 SWAP2 SUB SWAP1 LOG1 DUP1 SWAP3 POP POP POP JUMPDEST SWAP8 SWAP7 POP POP POP POP POP POP POP JUMP JUMPDEST PUSH1 0x60 DUP6 DUP3 DUP7 DUP7 DUP7 PUSH1 0x40 MLOAD PUSH1 0x20 ADD PUSH2 0x23F SWAP5 SWAP4 SWAP3 SWAP2 SWAP1 PUSH2 0x6DC JUMP JUMPDEST PUSH1 0x40 MLOAD PUSH1 0x20 DUP2 DUP4 SUB SUB DUP2 MSTORE SWAP1 PUSH1 0x40 MSTORE PUSH1 0x40 MLOAD PUSH1 0x20 ADD PUSH2 0x25F SWAP3 SWAP2 SWAP1 PUSH2 0x84A JUMP JUMPDEST PUSH1 0x40 MLOAD PUSH1 0x20 DUP2 DUP4 SUB SUB DUP2 MSTORE SWAP1 PUSH1 0x40 MSTORE SWAP1 POP SWAP6 SWAP5 POP POP POP POP POP JUMP JUMPDEST PUSH0 PUSH2 0x285 DUP4 DUP4 ADDRESS PUSH2 0x399 JUMP JUMPDEST SWAP1 POP SWAP3 SWAP2 POP POP JUMP JUMPDEST PUSH0 DUP1 DUP5 SELFBALANCE LT ISZERO PUSH2 0x2D2 JUMPI PUSH1 0x40 MLOAD PUSH32 0x8C379A000000000000000000000000000000000000000000000000000000000 DUP2 MSTORE PUSH1 0x4 ADD PUSH2 0x2C9 SWAP1 PUSH2 0x8E1 JUMP JUMPDEST PUSH1 0x40 MLOAD DUP1 SWAP2 SUB SWAP1 REVERT JUMPDEST PUSH0 DUP4 MLOAD SUB PUSH2 0x315 JUMPI PUSH1 0x40 MLOAD PUSH32 0x8C379A000000000000000000000000000000000000000000000000000000000 DUP2 MSTORE PUSH1 0x4 ADD PUSH2 0x30C SWAP1 PUSH2 0x949 JUMP JUMPDEST PUSH1 0x40 MLOAD DUP1 SWAP2 SUB SWAP1 REVERT JUMPDEST DUP4 DUP4 MLOAD PUSH1 0x20 DUP6 ADD DUP8 CREATE2 SWAP1 POP PUSH0 PUSH20 0xFFFFFFFFFFFFFFFFFFFFFFFFFFFFFFFFFFFFFFFF AND DUP2 PUSH20 0xFFFFFFFFFFFFFFFFFFFFFFFFFFFFFFFFFFFFFFFF AND SUB PUSH2 0x38E JUMPI PUSH1 0x40 MLOAD PUSH32 0x8C379A000000000000000000000000000000000000000000000000000000000 DUP2 MSTORE PUSH1 0x4 ADD PUSH2 0x385 SWAP1 PUSH2 0x9B1 JUMP JUMPDEST PUSH1 0x40 MLOAD DUP1 SWAP2 SUB SWAP1 REVERT JUMPDEST DUP1 SWAP2 POP POP SWAP4 SWAP3 POP POP POP JUMP JUMPDEST PUSH0 DUP1 PUSH1 0xFF PUSH1 0xF8 SHL DUP4 DUP7 DUP7 PUSH1 0x40 MLOAD PUSH1 0x20 ADD PUSH2 0x3B6 SWAP5 SWAP4 SWAP3 SWAP2 SWAP1 PUSH2 0xA43 JUMP JUMPDEST PUSH1 0x40 MLOAD PUSH1 0x20 DUP2 DUP4 SUB SUB DUP2 MSTORE SWAP1 PUSH1 0x40 MSTORE DUP1 MLOAD SWAP1 PUSH1 0x20 ADD KECCAK256 SWAP1 POP DUP1 PUSH0 SHR SWAP2 POP POP SWAP4 SWAP3 POP POP POP JUMP JUMPDEST PUSH0 DUP1 REVERT JUMPDEST PUSH0 DUP1 REVERT JUMPDEST PUSH0 PUSH20 0xFFFFFFFFFFFFFFFFFFFFFFFFFFFFFFFFFFFFFFFF DUP3 AND SWAP1 POP SWAP2 SWAP1 POP JUMP JUMPDEST PUSH0 PUSH2 0x40C DUP3 PUSH2 0x3E3 JUMP JUMPDEST SWAP1 POP SWAP2 SWAP1 POP JUMP JUMPDEST PUSH2 0x41C DUP2 PUSH2 0x402 JUMP JUMPDEST DUP2 EQ PUSH2 0x426 JUMPI PUSH0 DUP1 REVERT JUMPDEST POP JUMP JUMPDEST PUSH0 DUP2 CALLDATALOAD SWAP1 POP PUSH2 0x437 DUP2 PUSH2 0x413 JUMP JUMPDEST SWAP3 SWAP2 POP POP JUMP JUMPDEST PUSH0 DUP2 SWAP1 POP SWAP2 SWAP1 POP JUMP JUMPDEST PUSH2 0x44F DUP2 PUSH2 0x43D JUMP JUMPDEST DUP2 EQ PUSH2 0x459 JUMPI PUSH0 DUP1 REVERT JUMPDEST POP JUMP JUMPDEST PUSH0 DUP2 CALLDATALOAD SWAP1 POP PUSH2 0x46A DUP2 PUSH2 0x446 JUMP JUMPDEST SWAP3 SWAP2 POP POP JUMP JUMPDEST PUSH0 DUP1 PUSH0 DUP1 PUSH0 PUSH1 0xA0 DUP7 DUP9 SUB SLT ISZERO PUSH2 0x489 JUMPI PUSH2 0x488 PUSH2 0x3DB JUMP JUMPDEST JUMPDEST PUSH0 PUSH2 0x496 DUP9 DUP3 DUP10 ADD PUSH2 0x429 JUMP JUMPDEST SWAP6 POP POP PUSH1 0x20 PUSH2 0x4A7 DUP9 DUP3 DUP10 ADD PUSH2 0x45C JUMP JUMPDEST SWAP5 POP POP PUSH1 0x40 PUSH2 0x4B8 DUP9 DUP3 DUP10 ADD PUSH2 0x429 JUMP JUMPDEST SWAP4 POP POP PUSH1 0x60 PUSH2 0x4C9 DUP9 DUP3 DUP10 ADD PUSH2 0x45C JUMP JUMPDEST SWAP3 POP POP PUSH1 0x80 PUSH2 0x4DA DUP9 DUP3 DUP10 ADD PUSH2 0x45C JUMP JUMPDEST SWAP2 POP POP SWAP3 SWAP6 POP SWAP3 SWAP6 SWAP1 SWAP4 POP JUMP JUMPDEST PUSH2 0x4F0 DUP2 PUSH2 0x402 JUMP JUMPDEST DUP3 MSTORE POP POP JUMP JUMPDEST PUSH0 PUSH1 0x20 DUP3 ADD SWAP1 POP PUSH2 0x509 PUSH0 DUP4 ADD DUP5 PUSH2 0x4E7 JUMP JUMPDEST SWAP3 SWAP2 POP POP JUMP JUMPDEST PUSH0 DUP1 REVERT JUMPDEST PUSH0 DUP1 REVERT JUMPDEST PUSH0 DUP1 REVERT JUMPDEST PUSH0 DUP1 DUP4 PUSH1 0x1F DUP5 ADD SLT PUSH2 0x530 JUMPI PUSH2 0x52F PUSH2 0x50F JUMP JUMPDEST JUMPDEST DUP3 CALLDATALOAD SWAP1 POP PUSH8 0xFFFFFFFFFFFFFFFF DUP2 GT ISZERO PUSH2 0x54D JUMPI PUSH2 0x54C PUSH2 0x513 JUMP JUMPDEST JUMPDEST PUSH1 0x20 DUP4 ADD SWAP2 POP DUP4 PUSH1 0x1 DUP3 MUL DUP4 ADD GT ISZERO PUSH2 0x569 JUMPI PUSH2 0x568 PUSH2 0x517 JUMP JUMPDEST JUMPDEST SWAP3 POP SWAP3 SWAP1 POP JUMP JUMPDEST PUSH0 DUP1 PUSH0 DUP1 PUSH0 DUP1 PUSH0 PUSH1 0xC0 DUP9 DUP11 SUB SLT ISZERO PUSH2 0x58B JUMPI PUSH2 0x58A PUSH2 0x3DB JUMP JUMPDEST JUMPDEST PUSH0 PUSH2 0x598 DUP11 DUP3 DUP12 ADD PUSH2 0x429 JUMP JUMPDEST SWAP8 POP POP PUSH1 0x20 PUSH2 0x5A9 DUP11 DUP3 DUP12 ADD PUSH2 0x45C JUMP JUMPDEST SWAP7 POP POP PUSH1 0x40 PUSH2 0x5BA DUP11 DUP3 DUP12 ADD PUSH2 0x429 JUMP JUMPDEST SWAP6 POP POP PUSH1 0x60 PUSH2 0x5CB DUP11 DUP3 DUP12 ADD PUSH2 0x45C JUMP JUMPDEST SWAP5 POP POP PUSH1 0x80 PUSH2 0x5DC DUP11 DUP3 DUP12 ADD PUSH2 0x45C JUMP JUMPDEST SWAP4 POP POP PUSH1 0xA0 DUP9 ADD CALLDATALOAD PUSH8 0xFFFFFFFFFFFFFFFF DUP2 GT ISZERO PUSH2 0x5FD JUMPI PUSH2 0x5FC PUSH2 0x3DF JUMP JUMPDEST JUMPDEST PUSH2 0x609 DUP11 DUP3 DUP12 ADD PUSH2 0x51B JUMP JUMPDEST SWAP3 POP SWAP3 POP POP SWAP3 SWAP6 SWAP9 SWAP2 SWAP5 SWAP8 POP SWAP3 SWAP6 POP JUMP JUMPDEST PUSH0 DUP2 SWAP1 POP SWAP3 SWAP2 POP POP JUMP JUMPDEST DUP3 DUP2 DUP4 CALLDATACOPY PUSH0 DUP4 DUP4 ADD MSTORE POP POP POP JUMP JUMPDEST PUSH0 PUSH2 0x63D DUP4 DUP6 PUSH2 0x61A JUMP JUMPDEST SWAP4 POP PUSH2 0x64A DUP4 DUP6 DUP5 PUSH2 0x624 JUMP JUMPDEST DUP3 DUP5 ADD SWAP1 POP SWAP4 SWAP3 POP POP POP JUMP JUMPDEST PUSH0 PUSH2 0x662 DUP3 DUP5 DUP7 PUSH2 0x632 JUMP JUMPDEST SWAP2 POP DUP2 SWAP1 POP SWAP4 SWAP3 POP POP POP JUMP JUMPDEST PUSH2 0x677 DUP2 PUSH2 0x43D JUMP JUMPDEST DUP3 MSTORE POP POP JUMP JUMPDEST PUSH0 PUSH1 0xC0 DUP3 ADD SWAP1 POP PUSH2 0x690 PUSH0 DUP4 ADD DUP10 PUSH2 0x4E7 JUMP JUMPDEST PUSH2 0x69D PUSH1 0x20 DUP4 ADD DUP9 PUSH2 0x4E7 JUMP JUMPDEST PUSH2 0x6AA PUSH1 0x40 DUP4 ADD DUP8 PUSH2 0x66E JUMP JUMPDEST PUSH2 0x6B7 PUSH1 0x60 DUP4 ADD DUP7 PUSH2 0x4E7 JUMP JUMPDEST PUSH2 0x6C4 PUSH1 0x80 DUP4 ADD DUP6 PUSH2 0x66E JUMP JUMPDEST PUSH2 0x6D1 PUSH1 0xA0 DUP4 ADD DUP5 PUSH2 0x66E JUMP JUMPDEST SWAP8 SWAP7 POP POP POP POP POP POP POP JUMP JUMPDEST PUSH0 PUSH1 0x80 DUP3 ADD SWAP1 POP PUSH2 0x6EF PUSH0 DUP4 ADD DUP8 PUSH2 0x66E JUMP JUMPDEST PUSH2 0x6FC PUSH1 0x20 DUP4 ADD DUP7 PUSH2 0x66E JUMP JUMPDEST PUSH2 0x709 PUSH1 0x40 DUP4 ADD DUP6 PUSH2 0x4E7 JUMP JUMPDEST PUSH2 0x716 PUSH1 0x60 DUP4 ADD DUP5 PUSH2 0x66E JUMP JUMPDEST SWAP6 SWAP5 POP POP POP POP POP JUMP JUMPDEST PUSH0 DUP2 SWAP1 POP SWAP3 SWAP2 POP POP JUMP JUMPDEST PUSH32 0x3D60AD80600A3D3981F3363D3D373D3D3D363D73000000000000000000000000 PUSH0 DUP3 ADD MSTORE POP JUMP JUMPDEST PUSH0 PUSH2 0x75D PUSH1 0x14 DUP4 PUSH2 0x71F JUMP JUMPDEST SWAP2 POP PUSH2 0x768 DUP3 PUSH2 0x729 JUMP JUMPDEST PUSH1 0x14 DUP3 ADD SWAP1 POP SWAP2 SWAP1 POP JUMP JUMPDEST PUSH0 DUP2 PUSH1 0x60 SHL SWAP1 POP SWAP2 SWAP1 POP JUMP JUMPDEST PUSH0 PUSH2 0x789 DUP3 PUSH2 0x773 JUMP JUMPDEST SWAP1 POP SWAP2 SWAP1 POP JUMP JUMPDEST PUSH0 PUSH2 0x79A DUP3 PUSH2 0x77F JUMP JUMPDEST SWAP1 POP SWAP2 SWAP1 POP JUMP JUMPDEST PUSH2 0x7B2 PUSH2 0x7AD DUP3 PUSH2 0x402 JUMP JUMPDEST PUSH2 0x790 JUMP JUMPDEST DUP3 MSTORE POP POP JUMP JUMPDEST PUSH32 0x5AF43D82803E903D91602B57FD5BF30000000000000000000000000000000000 PUSH0 DUP3 ADD MSTORE POP JUMP JUMPDEST PUSH0 PUSH2 0x7EC PUSH1 0xF DUP4 PUSH2 0x71F JUMP JUMPDEST SWAP2 POP PUSH2 0x7F7 DUP3 PUSH2 0x7B8 JUMP JUMPDEST PUSH1 0xF DUP3 ADD SWAP1 POP SWAP2 SWAP1 POP JUMP JUMPDEST PUSH0 DUP2 MLOAD SWAP1 POP SWAP2 SWAP1 POP JUMP JUMPDEST DUP3 DUP2 DUP4 MCOPY PUSH0 DUP4 DUP4 ADD MSTORE POP POP POP JUMP JUMPDEST PUSH0 PUSH2 0x824 DUP3 PUSH2 0x802 JUMP JUMPDEST PUSH2 0x82E DUP2 DUP6 PUSH2 0x61A JUMP JUMPDEST SWAP4 POP PUSH2 0x83E DUP2 DUP6 PUSH1 0x20 DUP7 ADD PUSH2 0x80C JUMP JUMPDEST DUP1 DUP5 ADD SWAP2 POP POP SWAP3 SWAP2 POP POP JUMP JUMPDEST PUSH0 PUSH2 0x854 DUP3 PUSH2 0x751 JUMP JUMPDEST SWAP2 POP PUSH2 0x860 DUP3 DUP6 PUSH2 0x7A1 JUMP JUMPDEST PUSH1 0x14 DUP3 ADD SWAP2 POP PUSH2 0x86F DUP3 PUSH2 0x7E0 JUMP JUMPDEST SWAP2 POP PUSH2 0x87B DUP3 DUP5 PUSH2 0x81A JUMP JUMPDEST SWAP2 POP DUP2 SWAP1 POP SWAP4 SWAP3 POP POP POP JUMP JUMPDEST PUSH0 DUP3 DUP3 MSTORE PUSH1 0x20 DUP3 ADD SWAP1 POP SWAP3 SWAP2 POP POP JUMP JUMPDEST PUSH32 0x437265617465323A20696E73756666696369656E742062616C616E6365000000 PUSH0 DUP3 ADD MSTORE POP JUMP JUMPDEST PUSH0 PUSH2 0x8CB PUSH1 0x1D DUP4 PUSH2 0x887 JUMP JUMPDEST SWAP2 POP PUSH2 0x8D6 DUP3 PUSH2 0x897 JUMP JUMPDEST PUSH1 0x20 DUP3 ADD SWAP1 POP SWAP2 SWAP1 POP JUMP JUMPDEST PUSH0 PUSH1 0x20 DUP3 ADD SWAP1 POP DUP2 DUP2 SUB PUSH0 DUP4 ADD MSTORE PUSH2 0x8F8 DUP2 PUSH2 0x8BF JUMP JUMPDEST SWAP1 POP SWAP2 SWAP1 POP JUMP JUMPDEST PUSH32 0x437265617465323A2062797465636F6465206C656E677468206973207A65726F PUSH0 DUP3 ADD MSTORE POP JUMP JUMPDEST PUSH0 PUSH2 0x933 PUSH1 0x20 DUP4 PUSH2 0x887 JUMP JUMPDEST SWAP2 POP PUSH2 0x93E DUP3 PUSH2 0x8FF JUMP JUMPDEST PUSH1 0x20 DUP3 ADD SWAP1 POP SWAP2 SWAP1 POP JUMP JUMPDEST PUSH0 PUSH1 0x20 DUP3 ADD SWAP1 POP DUP2 DUP2 SUB PUSH0 DUP4 ADD MSTORE PUSH2 0x960 DUP2 PUSH2 0x927 JUMP JUMPDEST SWAP1 POP SWAP2 SWAP1 POP JUMP JUMPDEST PUSH32 0x437265617465323A204661696C6564206F6E206465706C6F7900000000000000 PUSH0 DUP3 ADD MSTORE POP JUMP JUMPDEST PUSH0 PUSH2 0x99B PUSH1 0x19 DUP4 PUSH2 0x887 JUMP JUMPDEST SWAP2 POP PUSH2 0x9A6 DUP3 PUSH2 0x967 JUMP JUMPDEST PUSH1 0x20 DUP3 ADD SWAP1 POP SWAP2 SWAP1 POP JUMP JUMPDEST PUSH0 PUSH1 0x20 DUP3 ADD SWAP1 POP DUP2 DUP2 SUB PUSH0 DUP4 ADD MSTORE PUSH2 0x9C8 DUP2 PUSH2 0x98F JUMP JUMPDEST SWAP1 POP SWAP2 SWAP1 POP JUMP JUMPDEST PUSH0 PUSH32 0xFF00000000000000000000000000000000000000000000000000000000000000 DUP3 AND SWAP1 POP SWAP2 SWAP1 POP JUMP JUMPDEST PUSH0 DUP2 SWAP1 POP SWAP2 SWAP1 POP JUMP JUMPDEST PUSH2 0xA14 PUSH2 0xA0F DUP3 PUSH2 0x9CF JUMP JUMPDEST PUSH2 0x9FA JUMP JUMPDEST DUP3 MSTORE POP POP JUMP JUMPDEST PUSH0 DUP2 SWAP1 POP SWAP2 SWAP1 POP JUMP JUMPDEST PUSH0 DUP2 SWAP1 POP SWAP2 SWAP1 POP JUMP JUMPDEST PUSH2 0xA3D PUSH2 0xA38 DUP3 PUSH2 0xA1A JUMP JUMPDEST PUSH2 0xA23 JUMP JUMPDEST DUP3 MSTORE POP POP JUMP JUMPDEST PUSH0 PUSH2 0xA4E DUP3 DUP8 PUSH2 0xA03 JUMP JUMPDEST PUSH1 0x1 DUP3 ADD SWAP2 POP PUSH2 0xA5E DUP3 DUP7 PUSH2 0x7A1 JUMP JUMPDEST PUSH1 0x14 DUP3 ADD SWAP2 POP PUSH2 0xA6E DUP3 DUP6 PUSH2 0xA2C JUMP JUMPDEST PUSH1 0x20 DUP3 ADD SWAP2 POP PUSH2 0xA7E DUP3 DUP5 PUSH2 0xA2C JUMP JUMPDEST PUSH1 0x20 DUP3 ADD SWAP2 POP DUP2 SWAP1 POP SWAP6 SWAP5 POP POP POP POP POP JUMP INVALID LOG2 PUSH5 0x6970667358 0x22 SLT KECCAK256 0xB1 SWAP4 0x4B PUSH28 0x242A8496C3AF335381A9E104E77E9163133C767039A0CF38C6258CC0 PUSH5 0x736F6C6343 STOP ADDMOD BYTE STOP CALLER "
		},
		"gasEstimates": {
			"creation": {
				"codeDepositCost": "551600",
				"executionCost": "585",
				"totalCost": "552185"
			},
			"external": {
				"account(address,uint256,address,uint256,uint256)": "infinite",
				"createAccount(address,uint256,address,uint256,uint256,bytes)": "infinite"
			},
			"internal": {
				"_creationCode(address,uint256,address,uint256,uint256)": "infinite"
			}
		},
		"methodIdentifiers": {
			"account(address,uint256,address,uint256,uint256)": "5e9bc536",
			"createAccount(address,uint256,address,uint256,uint256,bytes)": "da7323b3"
		}
	},
	"abi": [
		{
			"inputs": [],
			"name": "InitializationFailed",
			"type": "error"
		},
		{
			"anonymous": false,
			"inputs": [
				{
					"indexed": false,
					"internalType": "address",
					"name": "account",
					"type": "address"
				},
				{
					"indexed": false,
					"internalType": "address",
					"name": "implementation",
					"type": "address"
				},
				{
					"indexed": false,
					"internalType": "uint256",
					"name": "chainId",
					"type": "uint256"
				},
				{
					"indexed": false,
					"internalType": "address",
					"name": "tokenContract",
					"type": "address"
				},
				{
					"indexed": false,
					"internalType": "uint256",
					"name": "tokenId",
					"type": "uint256"
				},
				{
					"indexed": false,
					"internalType": "uint256",
					"name": "salt",
					"type": "uint256"
				}
			],
			"name": "AccountCreated",
			"type": "event"
		},
		{
			"inputs": [
				{
					"internalType": "address",
					"name": "implementation",
					"type": "address"
				},
				{
					"internalType": "uint256",
					"name": "chainId",
					"type": "uint256"
				},
				{
					"internalType": "address",
					"name": "tokenContract",
					"type": "address"
				},
				{
					"internalType": "uint256",
					"name": "tokenId",
					"type": "uint256"
				},
				{
					"internalType": "uint256",
					"name": "salt",
					"type": "uint256"
				}
			],
			"name": "account",
			"outputs": [
				{
					"internalType": "address",
					"name": "",
					"type": "address"
				}
			],
			"stateMutability": "view",
			"type": "function"
		},
		{
			"inputs": [
				{
					"internalType": "address",
					"name": "implementation",
					"type": "address"
				},
				{
					"internalType": "uint256",
					"name": "chainId",
					"type": "uint256"
				},
				{
					"internalType": "address",
					"name": "tokenContract",
					"type": "address"
				},
				{
					"internalType": "uint256",
					"name": "tokenId",
					"type": "uint256"
				},
				{
					"internalType": "uint256",
					"name": "salt",
					"type": "uint256"
				},
				{
					"internalType": "bytes",
					"name": "initData",
					"type": "bytes"
				}
			],
			"name": "createAccount",
			"outputs": [
				{
					"internalType": "address",
					"name": "",
					"type": "address"
				}
			],
			"stateMutability": "nonpayable",
			"type": "function"
		}
	]
}