{
	"tba/ReceiveableTBA.sol": {
		"ERC6551Account": {
			"abi": [
				{
					"anonymous": false,
					"inputs": [
						{
							"indexed": true,
							"internalType": "address",
							"name": "target",
							"type": "address"
						},
						{
							"indexed": true,
							"internalType": "uint256",
							"name": "value",
							"type": "uint256"
						},
						{
							"indexed": false,
							"internalType": "bytes",
							"name": "data",
							"type": "bytes"
						}
					],
					"name": "TransactionExecuted",
					"type": "event"
				},
				{
					"inputs": [
						{
							"internalType": "address",
							"name": "to",
							"type": "address"
						},
						{
							"internalType": "uint256",
							"name": "value",
							"type": "uint256"
						},
						{
							"internalType": "bytes",
							"name": "data",
							"type": "bytes"
						}
					],
					"name": "executeCall",
					"outputs": [
						{
							"internalType": "bytes",
							"name": "result",
							"type": "bytes"
						}
					],
					"stateMutability": "payable",
					"type": "function"
				},
				{
					"inputs": [
						{
							"internalType": "bytes32",
							"name": "hash",
							"type": "bytes32"
						},
						{
							"internalType": "bytes",
							"name": "signature",
							"type": "bytes"
						}
					],
					"name": "isValidSignature",
					"outputs": [
						{
							"internalType": "bytes4",
							"name": "magicValue",
							"type": "bytes4"
						}
					],
					"stateMutability": "view",
					"type": "function"
				},
				{
					"inputs": [],
					"name": "nonce",
					"outputs": [
						{
							"internalType": "uint256",
							"name": "",
							"type": "uint256"
						}
					],
					"stateMutability": "view",
					"type": "function"
				},
				{
					"inputs": [
						{
							"internalType": "address",
							"name": "",
							"type": "address"
						},
						{
							"internalType": "address",
							"name": "",
							"type": "address"
						},
						{
							"internalType": "uint256",
							"name": "",
							"type": "uint256"
						},
						{
							"internalType": "bytes",
							"name": "",
							"type": "bytes"
						}
					],
					"name": "onERC721Received",
					"outputs": [
						{
							"internalType": "bytes4",
							"name": "",
							"type": "bytes4"
						}
					],
					"stateMutability": "pure",
					"type": "function"
				},
				{
					"inputs": [],
					"name": "owner",
					"outputs": [
						{
							"internalType": "address",
							"name": "",
							"type": "address"
						}
					],
					"stateMutability": "view",
					"type": "function"
				},
				{
					"inputs": [
						{
							"internalType": "bytes4",
							"name": "interfaceId",
							"type": "bytes4"
						}
					],
					"name": "supportsInterface",
					"outputs": [
						{
							"internalType": "bool",
							"name": "",
							"type": "bool"
						}
					],
					"stateMutability": "pure",
					"type": "function"
				},
				{
					"inputs": [],
					"name": "token",
					"outputs": [
						{
							"internalType": "uint256",
							"name": "",
							"type": "uint256"
						},
						{
							"internalType": "address",
							"name": "",
							"type": "address"
						},
						{
							"internalType": "uint256",
							"name": "",
							"type": "uint256"
						}
					],
					"stateMutability": "view",
					"type": "function"
				},
				{
					"stateMutability": "payable",
					"type": "receive"
				}
			],
			"devdoc": {
				"kind": "dev",
				"methods": {
					"isValidSignature(bytes32,bytes)": {
						"details": "Should return whether the signature provided is valid for the provided data",
						"params": {
							"hash": "Hash of the data to be signed",
							"signature": "Signature byte array associated with _data"
						}
					},
					"supportsInterface(bytes4)": {
						"details": "Returns true if this contract implements the interface defined by `interfaceId`. See the corresponding https://eips.ethereum.org/EIPS/eip-165#how-interfaces-are-identified[EIP section] to learn more about how these ids are created. This function call must use less than 30 000 gas."
					}
				},
				"version": 1
			},
			"evm": {
				"assembly": "    /* \"tba/ReceiveableTBA.sol\":949:2960  contract ERC6551Account is IERC165, IERC1271, IERC6551Account, IERC721Receiver {... */\n  mstore(0x40, 0x80)\n  callvalue\n  dup1\n  iszero\n  tag_1\n  jumpi\n  0x00\n  dup1\n  revert\ntag_1:\n  pop\n  dataSize(sub_0)\n  dup1\n  dataOffset(sub_0)\n  0x00\n  codecopy\n  0x00\n  return\nstop\n\nsub_0: assembly {\n        /* \"tba/ReceiveableTBA.sol\":949:2960  contract ERC6551Account is IERC165, IERC1271, IERC6551Account, IERC721Receiver {... */\n      mstore(0x40, 0x80)\n      jumpi(tag_1, lt(calldatasize, 0x04))\n      shr(0xe0, calldataload(0x00))\n      dup1\n      0x8da5cb5b\n      gt\n      tag_10\n      jumpi\n      dup1\n      0x8da5cb5b\n      eq\n      tag_6\n      jumpi\n      dup1\n      0x9e5d4c49\n      eq\n      tag_7\n      jumpi\n      dup1\n      0xaffed0e0\n      eq\n      tag_8\n      jumpi\n      dup1\n      0xfc0c546a\n      eq\n      tag_9\n      jumpi\n      jump(tag_2)\n    tag_10:\n      dup1\n      0x01ffc9a7\n      eq\n      tag_3\n      jumpi\n      dup1\n      0x150b7a02\n      eq\n      tag_4\n      jumpi\n      dup1\n      0x1626ba7e\n      eq\n      tag_5\n      jumpi\n      jump(tag_2)\n    tag_1:\n      jumpi(tag_2, calldatasize)\n      stop\n    tag_2:\n      0x00\n      dup1\n      revert\n        /* \"tba/ReceiveableTBA.sol\":2057:2325  function supportsInterface(bytes4 interfaceId) public pure returns (bool) {... */\n    tag_3:\n      callvalue\n      dup1\n      iszero\n      tag_13\n      jumpi\n      0x00\n      dup1\n      revert\n    tag_13:\n      pop\n      tag_14\n      0x04\n      dup1\n      calldatasize\n      sub\n      dup2\n      add\n      swap1\n      tag_15\n      swap2\n      swap1\n      tag_16\n      jump\t// in\n    tag_15:\n      tag_17\n      jump\t// in\n    tag_14:\n      mload(0x40)\n      tag_18\n      swap2\n      swap1\n      tag_19\n      jump\t// in\n    tag_18:\n      mload(0x40)\n      dup1\n      swap2\n      sub\n      swap1\n      return\n        /* \"tba/ReceiveableTBA.sol\":2714:2958  function onERC721Received(... */\n    tag_4:\n      callvalue\n      dup1\n      iszero\n      tag_20\n      jumpi\n      0x00\n      dup1\n      revert\n    tag_20:\n      pop\n      tag_21\n      0x04\n      dup1\n      calldatasize\n      sub\n      dup2\n      add\n      swap1\n      tag_22\n      swap2\n      swap1\n      tag_23\n      jump\t// in\n    tag_22:\n      tag_24\n      jump\t// in\n    tag_21:\n      mload(0x40)\n      tag_25\n      swap2\n      swap1\n      tag_26\n      jump\t// in\n    tag_25:\n      mload(0x40)\n      dup1\n      swap2\n      sub\n      swap1\n      return\n        /* \"tba/ReceiveableTBA.sol\":2331:2708  function isValidSignature(... */\n    tag_5:\n      callvalue\n      dup1\n      iszero\n      tag_27\n      jumpi\n      0x00\n      dup1\n      revert\n    tag_27:\n      pop\n      tag_28\n      0x04\n      dup1\n      calldatasize\n      sub\n      dup2\n      add\n      swap1\n      tag_29\n      swap2\n      swap1\n      tag_30\n      jump\t// in\n    tag_29:\n      tag_31\n      jump\t// in\n    tag_28:\n      mload(0x40)\n      tag_32\n      swap2\n      swap1\n      tag_26\n      jump\t// in\n    tag_32:\n      mload(0x40)\n      dup1\n      swap2\n      sub\n      swap1\n      return\n        /* \"tba/ReceiveableTBA.sol\":1788:2051  function owner() public view returns (address) {... */\n    tag_6:\n      callvalue\n      dup1\n      iszero\n      tag_33\n      jumpi\n      0x00\n      dup1\n      revert\n    tag_33:\n      pop\n      tag_34\n      tag_35\n      jump\t// in\n    tag_34:\n      mload(0x40)\n      tag_36\n      swap2\n      swap1\n      tag_37\n      jump\t// in\n    tag_36:\n      mload(0x40)\n      dup1\n      swap2\n      sub\n      swap1\n      return\n        /* \"tba/ReceiveableTBA.sol\":1096:1660  function executeCall(... */\n    tag_7:\n      tag_38\n      0x04\n      dup1\n      calldatasize\n      sub\n      dup2\n      add\n      swap1\n      tag_39\n      swap2\n      swap1\n      tag_40\n      jump\t// in\n    tag_39:\n      tag_41\n      jump\t// in\n    tag_38:\n      mload(0x40)\n      tag_42\n      swap2\n      swap1\n      tag_43\n      jump\t// in\n    tag_42:\n      mload(0x40)\n      dup1\n      swap2\n      sub\n      swap1\n      return\n        /* \"tba/ReceiveableTBA.sol\":1034:1054  uint256 public nonce */\n    tag_8:\n      callvalue\n      dup1\n      iszero\n      tag_44\n      jumpi\n      0x00\n      dup1\n      revert\n    tag_44:\n      pop\n      tag_45\n      tag_46\n      jump\t// in\n    tag_45:\n      mload(0x40)\n      tag_47\n      swap2\n      swap1\n      tag_48\n      jump\t// in\n    tag_47:\n      mload(0x40)\n      dup1\n      swap2\n      sub\n      swap1\n      return\n        /* \"tba/ReceiveableTBA.sol\":1666:1782  function token() external view returns (uint256, address, uint256) {... */\n    tag_9:\n      callvalue\n      dup1\n      iszero\n      tag_49\n      jumpi\n      0x00\n      dup1\n      revert\n    tag_49:\n      pop\n      tag_50\n      tag_51\n      jump\t// in\n    tag_50:\n      mload(0x40)\n      tag_52\n      swap4\n      swap3\n      swap2\n      swap1\n      tag_53\n      jump\t// in\n    tag_52:\n      mload(0x40)\n      dup1\n      swap2\n      sub\n      swap1\n      return\n        /* \"tba/ReceiveableTBA.sol\":2057:2325  function supportsInterface(bytes4 interfaceId) public pure returns (bool) {... */\n    tag_17:\n        /* \"tba/ReceiveableTBA.sol\":2125:2129  bool */\n      0x00\n        /* \"tba/ReceiveableTBA.sol\":2164:2189  type(IERC165).interfaceId */\n      0x01ffc9a700000000000000000000000000000000000000000000000000000000\n        /* \"tba/ReceiveableTBA.sol\":2149:2189  interfaceId == type(IERC165).interfaceId */\n      not(0xffffffffffffffffffffffffffffffffffffffffffffffffffffffff)\n      and\n        /* \"tba/ReceiveableTBA.sol\":2149:2160  interfaceId */\n      dup3\n        /* \"tba/ReceiveableTBA.sol\":2149:2189  interfaceId == type(IERC165).interfaceId */\n      not(0xffffffffffffffffffffffffffffffffffffffffffffffffffffffff)\n      and\n      eq\n        /* \"tba/ReceiveableTBA.sol\":2149:2253  interfaceId == type(IERC165).interfaceId ||... */\n      dup1\n      tag_55\n      jumpi\n      pop\n        /* \"tba/ReceiveableTBA.sol\":2220:2253  type(IERC6551Account).interfaceId */\n      0x400a039800000000000000000000000000000000000000000000000000000000\n        /* \"tba/ReceiveableTBA.sol\":2205:2253  interfaceId == type(IERC6551Account).interfaceId */\n      not(0xffffffffffffffffffffffffffffffffffffffffffffffffffffffff)\n      and\n        /* \"tba/ReceiveableTBA.sol\":2205:2216  interfaceId */\n      dup3\n        /* \"tba/ReceiveableTBA.sol\":2205:2253  interfaceId == type(IERC6551Account).interfaceId */\n      not(0xffffffffffffffffffffffffffffffffffffffffffffffffffffffff)\n      and\n      eq\n        /* \"tba/ReceiveableTBA.sol\":2149:2253  interfaceId == type(IERC165).interfaceId ||... */\n    tag_55:\n        /* \"tba/ReceiveableTBA.sol\":2149:2317  interfaceId == type(IERC165).interfaceId ||... */\n      dup1\n      tag_56\n      jumpi\n      pop\n        /* \"tba/ReceiveableTBA.sol\":2284:2317  type(IERC721Receiver).interfaceId */\n      0x150b7a0200000000000000000000000000000000000000000000000000000000\n        /* \"tba/ReceiveableTBA.sol\":2269:2317  interfaceId == type(IERC721Receiver).interfaceId */\n      not(0xffffffffffffffffffffffffffffffffffffffffffffffffffffffff)\n      and\n        /* \"tba/ReceiveableTBA.sol\":2269:2280  interfaceId */\n      dup3\n        /* \"tba/ReceiveableTBA.sol\":2269:2317  interfaceId == type(IERC721Receiver).interfaceId */\n      not(0xffffffffffffffffffffffffffffffffffffffffffffffffffffffff)\n      and\n      eq\n        /* \"tba/ReceiveableTBA.sol\":2149:2317  interfaceId == type(IERC165).interfaceId ||... */\n    tag_56:\n        /* \"tba/ReceiveableTBA.sol\":2141:2318  return (interfaceId == type(IERC165).interfaceId ||... */\n      swap1\n      pop\n        /* \"tba/ReceiveableTBA.sol\":2057:2325  function supportsInterface(bytes4 interfaceId) public pure returns (bool) {... */\n      swap2\n      swap1\n      pop\n      jump\t// out\n        /* \"tba/ReceiveableTBA.sol\":2714:2958  function onERC721Received(... */\n    tag_24:\n        /* \"tba/ReceiveableTBA.sol\":2896:2902  bytes4 */\n      0x00\n        /* \"tba/ReceiveableTBA.sol\":2921:2951  this.onERC721Received.selector */\n      shl(0xe0, 0x150b7a02)\n        /* \"tba/ReceiveableTBA.sol\":2914:2951  return this.onERC721Received.selector */\n      swap1\n      pop\n        /* \"tba/ReceiveableTBA.sol\":2714:2958  function onERC721Received(... */\n      swap6\n      swap5\n      pop\n      pop\n      pop\n      pop\n      pop\n      jump\t// out\n        /* \"tba/ReceiveableTBA.sol\":2331:2708  function isValidSignature(... */\n    tag_31:\n        /* \"tba/ReceiveableTBA.sol\":2440:2457  bytes4 magicValue */\n      0x00\n        /* \"tba/ReceiveableTBA.sol\":2469:2481  bool isValid */\n      dup1\n        /* \"tba/ReceiveableTBA.sol\":2484:2592  SignatureChecker.isValidSignatureNow(... */\n      tag_59\n        /* \"tba/ReceiveableTBA.sol\":2534:2541  owner() */\n      tag_60\n        /* \"tba/ReceiveableTBA.sol\":2534:2539  owner */\n      tag_35\n        /* \"tba/ReceiveableTBA.sol\":2534:2541  owner() */\n      jump\t// in\n    tag_60:\n        /* \"tba/ReceiveableTBA.sol\":2555:2559  hash */\n      dup6\n        /* \"tba/ReceiveableTBA.sol\":2573:2582  signature */\n      dup6\n        /* \"tba/ReceiveableTBA.sol\":2484:2520  SignatureChecker.isValidSignatureNow */\n      tag_61\n        /* \"tba/ReceiveableTBA.sol\":2484:2592  SignatureChecker.isValidSignatureNow(... */\n      jump\t// in\n    tag_59:\n        /* \"tba/ReceiveableTBA.sol\":2469:2592  bool isValid = SignatureChecker.isValidSignatureNow(... */\n      swap1\n      pop\n        /* \"tba/ReceiveableTBA.sol\":2607:2614  isValid */\n      dup1\n        /* \"tba/ReceiveableTBA.sol\":2603:2682  if (isValid) {... */\n      iszero\n      tag_62\n      jumpi\n        /* \"tba/ReceiveableTBA.sol\":2637:2671  IERC1271.isValidSignature.selector */\n      shl(0xe0, 0x1626ba7e)\n        /* \"tba/ReceiveableTBA.sol\":2630:2671  return IERC1271.isValidSignature.selector */\n      swap2\n      pop\n      pop\n      jump(tag_58)\n        /* \"tba/ReceiveableTBA.sol\":2603:2682  if (isValid) {... */\n    tag_62:\n        /* \"tba/ReceiveableTBA.sol\":2692:2701  return \"\" */\n      0x00\n      swap2\n      pop\n      pop\n        /* \"tba/ReceiveableTBA.sol\":2331:2708  function isValidSignature(... */\n    tag_58:\n      swap3\n      swap2\n      pop\n      pop\n      jump\t// out\n        /* \"tba/ReceiveableTBA.sol\":1788:2051  function owner() public view returns (address) {... */\n    tag_35:\n        /* \"tba/ReceiveableTBA.sol\":1826:1833  address */\n      0x00\n        /* \"tba/ReceiveableTBA.sol\":1846:1861  uint256 chainId */\n      dup1\n        /* \"tba/ReceiveableTBA.sol\":1863:1884  address tokenContract */\n      0x00\n        /* \"tba/ReceiveableTBA.sol\":1886:1901  uint256 tokenId */\n      dup1\n        /* \"tba/ReceiveableTBA.sol\":1905:1909  this */\n      address\n        /* \"tba/ReceiveableTBA.sol\":1905:1928  this... */\n      0xffffffffffffffffffffffffffffffffffffffff\n      and\n      0xfc0c546a\n        /* \"tba/ReceiveableTBA.sol\":1905:1930  this... */\n      mload(0x40)\n      dup2\n      0xffffffff\n      and\n      0xe0\n      shl\n      dup2\n      mstore\n      0x04\n      add\n      0x60\n      mload(0x40)\n      dup1\n      dup4\n      sub\n      dup2\n      dup7\n      gas\n      staticcall\n      iszero\n      dup1\n      iszero\n      tag_65\n      jumpi\n      returndatasize\n      0x00\n      dup1\n      returndatacopy\n      revert(0x00, returndatasize)\n    tag_65:\n      pop\n      pop\n      pop\n      pop\n      mload(0x40)\n      returndatasize\n      not(0x1f)\n      0x1f\n      dup3\n      add\n      and\n      dup3\n      add\n      dup1\n      0x40\n      mstore\n      pop\n      dup2\n      add\n      swap1\n      tag_66\n      swap2\n      swap1\n      tag_67\n      jump\t// in\n    tag_66:\n        /* \"tba/ReceiveableTBA.sol\":1845:1930  (uint256 chainId, address tokenContract, uint256 tokenId) = this... */\n      swap3\n      pop\n      swap3\n      pop\n      swap3\n      pop\n        /* \"tba/ReceiveableTBA.sol\":1955:1968  block.chainid */\n      chainid\n        /* \"tba/ReceiveableTBA.sol\":1944:1951  chainId */\n      dup4\n        /* \"tba/ReceiveableTBA.sol\":1944:1968  chainId != block.chainid */\n      eq\n        /* \"tba/ReceiveableTBA.sol\":1940:1987  if (chainId != block.chainid) return address(0) */\n      tag_68\n      jumpi\n        /* \"tba/ReceiveableTBA.sol\":1985:1986  0 */\n      0x00\n        /* \"tba/ReceiveableTBA.sol\":1970:1987  return address(0) */\n      swap4\n      pop\n      pop\n      pop\n      pop\n      jump(tag_63)\n        /* \"tba/ReceiveableTBA.sol\":1940:1987  if (chainId != block.chainid) return address(0) */\n    tag_68:\n        /* \"tba/ReceiveableTBA.sol\":2013:2026  tokenContract */\n      dup2\n        /* \"tba/ReceiveableTBA.sol\":2005:2035  IERC721(tokenContract).ownerOf */\n      0xffffffffffffffffffffffffffffffffffffffff\n      and\n      0x6352211e\n        /* \"tba/ReceiveableTBA.sol\":2036:2043  tokenId */\n      dup3\n        /* \"tba/ReceiveableTBA.sol\":2005:2044  IERC721(tokenContract).ownerOf(tokenId) */\n      mload(0x40)\n      dup3\n      0xffffffff\n      and\n      0xe0\n      shl\n      dup2\n      mstore\n      0x04\n      add\n      tag_69\n      swap2\n      swap1\n      tag_48\n      jump\t// in\n    tag_69:\n      0x20\n      mload(0x40)\n      dup1\n      dup4\n      sub\n      dup2\n      dup7\n      gas\n      staticcall\n      iszero\n      dup1\n      iszero\n      tag_71\n      jumpi\n      returndatasize\n      0x00\n      dup1\n      returndatacopy\n      revert(0x00, returndatasize)\n    tag_71:\n      pop\n      pop\n      pop\n      pop\n      mload(0x40)\n      returndatasize\n      not(0x1f)\n      0x1f\n      dup3\n      add\n      and\n      dup3\n      add\n      dup1\n      0x40\n      mstore\n      pop\n      dup2\n      add\n      swap1\n      tag_72\n      swap2\n      swap1\n      tag_73\n      jump\t// in\n    tag_72:\n        /* \"tba/ReceiveableTBA.sol\":1998:2044  return IERC721(tokenContract).ownerOf(tokenId) */\n      swap4\n      pop\n      pop\n      pop\n      pop\n        /* \"tba/ReceiveableTBA.sol\":1788:2051  function owner() public view returns (address) {... */\n    tag_63:\n      swap1\n      jump\t// out\n        /* \"tba/ReceiveableTBA.sol\":1096:1660  function executeCall(... */\n    tag_41:\n        /* \"tba/ReceiveableTBA.sol\":1221:1240  bytes memory result */\n      0x60\n        /* \"tba/ReceiveableTBA.sol\":1274:1281  owner() */\n      tag_75\n        /* \"tba/ReceiveableTBA.sol\":1274:1279  owner */\n      tag_35\n        /* \"tba/ReceiveableTBA.sol\":1274:1281  owner() */\n      jump\t// in\n    tag_75:\n        /* \"tba/ReceiveableTBA.sol\":1260:1281  msg.sender == owner() */\n      0xffffffffffffffffffffffffffffffffffffffff\n      and\n        /* \"tba/ReceiveableTBA.sol\":1260:1270  msg.sender */\n      caller\n        /* \"tba/ReceiveableTBA.sol\":1260:1281  msg.sender == owner() */\n      0xffffffffffffffffffffffffffffffffffffffff\n      and\n      eq\n        /* \"tba/ReceiveableTBA.sol\":1252:1301  require(msg.sender == owner(), \"Not token owner\") */\n      tag_76\n      jumpi\n      mload(0x40)\n      0x08c379a000000000000000000000000000000000000000000000000000000000\n      dup2\n      mstore\n      0x04\n      add\n      tag_77\n      swap1\n      tag_78\n      jump\t// in\n    tag_77:\n      mload(0x40)\n      dup1\n      swap2\n      sub\n      swap1\n      revert\n    tag_76:\n        /* \"tba/ReceiveableTBA.sol\":1333:1334  0 */\n      0x00\n        /* \"tba/ReceiveableTBA.sol\":1319:1323  data */\n      dup4\n      dup4\n        /* \"tba/ReceiveableTBA.sol\":1319:1330  data.length */\n      swap1\n      pop\n        /* \"tba/ReceiveableTBA.sol\":1319:1334  data.length > 0 */\n      gt\n        /* \"tba/ReceiveableTBA.sol\":1311:1376  require(data.length > 0, \"You do not have enough points to mint\") */\n      tag_79\n      jumpi\n      mload(0x40)\n      0x08c379a000000000000000000000000000000000000000000000000000000000\n      dup2\n      mstore\n      0x04\n      add\n      tag_80\n      swap1\n      tag_81\n      jump\t// in\n    tag_80:\n      mload(0x40)\n      dup1\n      swap2\n      sub\n      swap1\n      revert\n    tag_79:\n        /* \"tba/ReceiveableTBA.sol\":1389:1394  nonce */\n      0x00\n      dup1\n        /* \"tba/ReceiveableTBA.sol\":1387:1394  ++nonce */\n      dup2\n      sload\n      tag_82\n      swap1\n      tag_83\n      jump\t// in\n    tag_82:\n      swap2\n      swap1\n      pop\n      dup2\n      swap1\n      sstore\n      pop\n        /* \"tba/ReceiveableTBA.sol\":1434:1439  value */\n      dup4\n        /* \"tba/ReceiveableTBA.sol\":1430:1432  to */\n      dup6\n        /* \"tba/ReceiveableTBA.sol\":1410:1446  TransactionExecuted(to, value, data) */\n      0xffffffffffffffffffffffffffffffffffffffff\n      and\n      0x47d99ad340f52da66535aff7e10da1ceb85a32bcbd9fa1c42314d194545e14d2\n        /* \"tba/ReceiveableTBA.sol\":1441:1445  data */\n      dup6\n      dup6\n        /* \"tba/ReceiveableTBA.sol\":1410:1446  TransactionExecuted(to, value, data) */\n      mload(0x40)\n      tag_84\n      swap3\n      swap2\n      swap1\n      tag_85\n      jump\t// in\n    tag_84:\n      mload(0x40)\n      dup1\n      swap2\n      sub\n      swap1\n      log3\n        /* \"tba/ReceiveableTBA.sol\":1457:1469  bool success */\n      0x00\n        /* \"tba/ReceiveableTBA.sol\":1499:1501  to */\n      dup6\n        /* \"tba/ReceiveableTBA.sol\":1499:1506  to.call */\n      0xffffffffffffffffffffffffffffffffffffffff\n      and\n        /* \"tba/ReceiveableTBA.sol\":1514:1519  value */\n      dup6\n        /* \"tba/ReceiveableTBA.sol\":1521:1525  data */\n      dup6\n      dup6\n        /* \"tba/ReceiveableTBA.sol\":1499:1526  to.call{value: value}(data) */\n      mload(0x40)\n      tag_86\n      swap3\n      swap2\n      swap1\n      tag_87\n      jump\t// in\n    tag_86:\n      0x00\n      mload(0x40)\n      dup1\n      dup4\n      sub\n      dup2\n      dup6\n      dup8\n      gas\n      call\n      swap3\n      pop\n      pop\n      pop\n      returndatasize\n      dup1\n      0x00\n      dup2\n      eq\n      tag_90\n      jumpi\n      mload(0x40)\n      swap2\n      pop\n      and(add(returndatasize, 0x3f), not(0x1f))\n      dup3\n      add\n      0x40\n      mstore\n      returndatasize\n      dup3\n      mstore\n      returndatasize\n      0x00\n      0x20\n      dup5\n      add\n      returndatacopy\n      jump(tag_89)\n    tag_90:\n      0x60\n      swap2\n      pop\n    tag_89:\n      pop\n        /* \"tba/ReceiveableTBA.sol\":1479:1526  (success, result) = to.call{value: value}(data) */\n      dup1\n      swap4\n      pop\n      dup2\n      swap3\n      pop\n      pop\n      pop\n        /* \"tba/ReceiveableTBA.sol\":1542:1549  success */\n      dup1\n        /* \"tba/ReceiveableTBA.sol\":1537:1654  if (!success) {... */\n      tag_91\n      jumpi\n        /* \"tba/ReceiveableTBA.sol\":1622:1628  result */\n      dup2\n        /* \"tba/ReceiveableTBA.sol\":1616:1629  mload(result) */\n      mload\n        /* \"tba/ReceiveableTBA.sol\":1611:1613  32 */\n      0x20\n        /* \"tba/ReceiveableTBA.sol\":1603:1609  result */\n      dup4\n        /* \"tba/ReceiveableTBA.sol\":1599:1614  add(result, 32) */\n      add\n        /* \"tba/ReceiveableTBA.sol\":1592:1630  revert(add(result, 32), mload(result)) */\n      revert\n        /* \"tba/ReceiveableTBA.sol\":1537:1654  if (!success) {... */\n    tag_91:\n        /* \"tba/ReceiveableTBA.sol\":1242:1660  {... */\n      pop\n        /* \"tba/ReceiveableTBA.sol\":1096:1660  function executeCall(... */\n      swap5\n      swap4\n      pop\n      pop\n      pop\n      pop\n      jump\t// out\n        /* \"tba/ReceiveableTBA.sol\":1034:1054  uint256 public nonce */\n    tag_46:\n      sload(0x00)\n      dup2\n      jump\t// out\n        /* \"tba/ReceiveableTBA.sol\":1666:1782  function token() external view returns (uint256, address, uint256) {... */\n    tag_51:\n        /* \"tba/ReceiveableTBA.sol\":1706:1713  uint256 */\n      0x00\n        /* \"tba/ReceiveableTBA.sol\":1715:1722  address */\n      dup1\n        /* \"tba/ReceiveableTBA.sol\":1724:1731  uint256 */\n      0x00\n        /* \"tba/ReceiveableTBA.sol\":1750:1775  ERC6551AccountLib.token() */\n      tag_93\n        /* \"tba/ReceiveableTBA.sol\":1750:1773  ERC6551AccountLib.token */\n      tag_94\n        /* \"tba/ReceiveableTBA.sol\":1750:1775  ERC6551AccountLib.token() */\n      jump\t// in\n    tag_93:\n        /* \"tba/ReceiveableTBA.sol\":1743:1775  return ERC6551AccountLib.token() */\n      swap3\n      pop\n      swap3\n      pop\n      swap3\n      pop\n        /* \"tba/ReceiveableTBA.sol\":1666:1782  function token() external view returns (uint256, address, uint256) {... */\n      swap1\n      swap2\n      swap3\n      jump\t// out\n        /* \"github.com/OpenZeppelin/openzeppelin-contracts/blob/v4.7.3/contracts/utils/cryptography/SignatureChecker.sol\":1039:1706  function isValidSignatureNow(... */\n    tag_61:\n        /* \"github.com/OpenZeppelin/openzeppelin-contracts/blob/v4.7.3/contracts/utils/cryptography/SignatureChecker.sol\":1175:1179  bool */\n      0x00\n        /* \"github.com/OpenZeppelin/openzeppelin-contracts/blob/v4.7.3/contracts/utils/cryptography/SignatureChecker.sol\":1192:1209  address recovered */\n      dup1\n        /* \"github.com/OpenZeppelin/openzeppelin-contracts/blob/v4.7.3/contracts/utils/cryptography/SignatureChecker.sol\":1211:1235  ECDSA.RecoverError error */\n      0x00\n        /* \"github.com/OpenZeppelin/openzeppelin-contracts/blob/v4.7.3/contracts/utils/cryptography/SignatureChecker.sol\":1239:1272  ECDSA.tryRecover(hash, signature) */\n      tag_96\n        /* \"github.com/OpenZeppelin/openzeppelin-contracts/blob/v4.7.3/contracts/utils/cryptography/SignatureChecker.sol\":1256:1260  hash */\n      dup6\n        /* \"github.com/OpenZeppelin/openzeppelin-contracts/blob/v4.7.3/contracts/utils/cryptography/SignatureChecker.sol\":1262:1271  signature */\n      dup6\n        /* \"github.com/OpenZeppelin/openzeppelin-contracts/blob/v4.7.3/contracts/utils/cryptography/SignatureChecker.sol\":1239:1255  ECDSA.tryRecover */\n      tag_97\n        /* \"github.com/OpenZeppelin/openzeppelin-contracts/blob/v4.7.3/contracts/utils/cryptography/SignatureChecker.sol\":1239:1272  ECDSA.tryRecover(hash, signature) */\n      jump\t// in\n    tag_96:\n        /* \"github.com/OpenZeppelin/openzeppelin-contracts/blob/v4.7.3/contracts/utils/cryptography/SignatureChecker.sol\":1191:1272  (address recovered, ECDSA.RecoverError error) = ECDSA.tryRecover(hash, signature) */\n      swap2\n      pop\n      swap2\n      pop\n        /* \"github.com/OpenZeppelin/openzeppelin-contracts/blob/v4.7.3/contracts/utils/cryptography/SignatureChecker.sol\":1295:1321  ECDSA.RecoverError.NoError */\n      0x00\n        /* \"github.com/OpenZeppelin/openzeppelin-contracts/blob/v4.7.3/contracts/utils/cryptography/SignatureChecker.sol\":1286:1321  error == ECDSA.RecoverError.NoError */\n      0x04\n      dup2\n      gt\n      iszero\n      tag_98\n      jumpi\n      tag_99\n      tag_100\n      jump\t// in\n    tag_99:\n    tag_98:\n        /* \"github.com/OpenZeppelin/openzeppelin-contracts/blob/v4.7.3/contracts/utils/cryptography/SignatureChecker.sol\":1286:1291  error */\n      dup2\n        /* \"github.com/OpenZeppelin/openzeppelin-contracts/blob/v4.7.3/contracts/utils/cryptography/SignatureChecker.sol\":1286:1321  error == ECDSA.RecoverError.NoError */\n      0x04\n      dup2\n      gt\n      iszero\n      tag_101\n      jumpi\n      tag_102\n      tag_100\n      jump\t// in\n    tag_102:\n    tag_101:\n      eq\n        /* \"github.com/OpenZeppelin/openzeppelin-contracts/blob/v4.7.3/contracts/utils/cryptography/SignatureChecker.sol\":1286:1344  error == ECDSA.RecoverError.NoError && recovered == signer */\n      dup1\n      iszero\n      tag_103\n      jumpi\n      pop\n        /* \"github.com/OpenZeppelin/openzeppelin-contracts/blob/v4.7.3/contracts/utils/cryptography/SignatureChecker.sol\":1338:1344  signer */\n      dup6\n        /* \"github.com/OpenZeppelin/openzeppelin-contracts/blob/v4.7.3/contracts/utils/cryptography/SignatureChecker.sol\":1325:1344  recovered == signer */\n      0xffffffffffffffffffffffffffffffffffffffff\n      and\n        /* \"github.com/OpenZeppelin/openzeppelin-contracts/blob/v4.7.3/contracts/utils/cryptography/SignatureChecker.sol\":1325:1334  recovered */\n      dup3\n        /* \"github.com/OpenZeppelin/openzeppelin-contracts/blob/v4.7.3/contracts/utils/cryptography/SignatureChecker.sol\":1325:1344  recovered == signer */\n      0xffffffffffffffffffffffffffffffffffffffff\n      and\n      eq\n        /* \"github.com/OpenZeppelin/openzeppelin-contracts/blob/v4.7.3/contracts/utils/cryptography/SignatureChecker.sol\":1286:1344  error == ECDSA.RecoverError.NoError && recovered == signer */\n    tag_103:\n        /* \"github.com/OpenZeppelin/openzeppelin-contracts/blob/v4.7.3/contracts/utils/cryptography/SignatureChecker.sol\":1282:1382  if (error == ECDSA.RecoverError.NoError && recovered == signer) {... */\n      iszero\n      tag_104\n      jumpi\n        /* \"github.com/OpenZeppelin/openzeppelin-contracts/blob/v4.7.3/contracts/utils/cryptography/SignatureChecker.sol\":1367:1371  true */\n      0x01\n        /* \"github.com/OpenZeppelin/openzeppelin-contracts/blob/v4.7.3/contracts/utils/cryptography/SignatureChecker.sol\":1360:1371  return true */\n      swap3\n      pop\n      pop\n      pop\n      jump(tag_95)\n        /* \"github.com/OpenZeppelin/openzeppelin-contracts/blob/v4.7.3/contracts/utils/cryptography/SignatureChecker.sol\":1282:1382  if (error == ECDSA.RecoverError.NoError && recovered == signer) {... */\n    tag_104:\n        /* \"github.com/OpenZeppelin/openzeppelin-contracts/blob/v4.7.3/contracts/utils/cryptography/SignatureChecker.sol\":1393:1405  bool success */\n      0x00\n        /* \"github.com/OpenZeppelin/openzeppelin-contracts/blob/v4.7.3/contracts/utils/cryptography/SignatureChecker.sol\":1407:1426  bytes memory result */\n      dup1\n        /* \"github.com/OpenZeppelin/openzeppelin-contracts/blob/v4.7.3/contracts/utils/cryptography/SignatureChecker.sol\":1430:1436  signer */\n      dup8\n        /* \"github.com/OpenZeppelin/openzeppelin-contracts/blob/v4.7.3/contracts/utils/cryptography/SignatureChecker.sol\":1430:1447  signer.staticcall */\n      0xffffffffffffffffffffffffffffffffffffffff\n      and\n        /* \"github.com/OpenZeppelin/openzeppelin-contracts/blob/v4.7.3/contracts/utils/cryptography/SignatureChecker.sol\":1484:1518  IERC1271.isValidSignature.selector */\n      shl(0xe0, 0x1626ba7e)\n        /* \"github.com/OpenZeppelin/openzeppelin-contracts/blob/v4.7.3/contracts/utils/cryptography/SignatureChecker.sol\":1520:1524  hash */\n      dup9\n        /* \"github.com/OpenZeppelin/openzeppelin-contracts/blob/v4.7.3/contracts/utils/cryptography/SignatureChecker.sol\":1526:1535  signature */\n      dup9\n        /* \"github.com/OpenZeppelin/openzeppelin-contracts/blob/v4.7.3/contracts/utils/cryptography/SignatureChecker.sol\":1461:1536  abi.encodeWithSelector(IERC1271.isValidSignature.selector, hash, signature) */\n      add(0x24, mload(0x40))\n      tag_105\n      swap3\n      swap2\n      swap1\n      tag_106\n      jump\t// in\n    tag_105:\n      mload(0x40)\n      0x20\n      dup2\n      dup4\n      sub\n      sub\n      dup2\n      mstore\n      swap1\n      0x40\n      mstore\n      swap1\n      not(0xffffffffffffffffffffffffffffffffffffffffffffffffffffffff)\n      and\n      0x20\n      dup3\n      add\n      dup1\n      mload\n      0xffffffffffffffffffffffffffffffffffffffffffffffffffffffff\n      dup4\n      dup2\n      dup4\n      and\n      or\n      dup4\n      mstore\n      pop\n      pop\n      pop\n      pop\n        /* \"github.com/OpenZeppelin/openzeppelin-contracts/blob/v4.7.3/contracts/utils/cryptography/SignatureChecker.sol\":1430:1546  signer.staticcall(... */\n      mload(0x40)\n      tag_107\n      swap2\n      swap1\n      tag_108\n      jump\t// in\n    tag_107:\n      0x00\n      mload(0x40)\n      dup1\n      dup4\n      sub\n      dup2\n      dup6\n      gas\n      staticcall\n      swap2\n      pop\n      pop\n      returndatasize\n      dup1\n      0x00\n      dup2\n      eq\n      tag_111\n      jumpi\n      mload(0x40)\n      swap2\n      pop\n      and(add(returndatasize, 0x3f), not(0x1f))\n      dup3\n      add\n      0x40\n      mstore\n      returndatasize\n      dup3\n      mstore\n      returndatasize\n      0x00\n      0x20\n      dup5\n      add\n      returndatacopy\n      jump(tag_110)\n    tag_111:\n      0x60\n      swap2\n      pop\n    tag_110:\n      pop\n        /* \"github.com/OpenZeppelin/openzeppelin-contracts/blob/v4.7.3/contracts/utils/cryptography/SignatureChecker.sol\":1392:1546  (bool success, bytes memory result) = signer.staticcall(... */\n      swap2\n      pop\n      swap2\n      pop\n        /* \"github.com/OpenZeppelin/openzeppelin-contracts/blob/v4.7.3/contracts/utils/cryptography/SignatureChecker.sol\":1564:1571  success */\n      dup2\n        /* \"github.com/OpenZeppelin/openzeppelin-contracts/blob/v4.7.3/contracts/utils/cryptography/SignatureChecker.sol\":1564:1606  success &&... */\n      dup1\n      iszero\n      tag_112\n      jumpi\n      pop\n        /* \"github.com/OpenZeppelin/openzeppelin-contracts/blob/v4.7.3/contracts/utils/cryptography/SignatureChecker.sol\":1604:1606  32 */\n      0x20\n        /* \"github.com/OpenZeppelin/openzeppelin-contracts/blob/v4.7.3/contracts/utils/cryptography/SignatureChecker.sol\":1587:1593  result */\n      dup2\n        /* \"github.com/OpenZeppelin/openzeppelin-contracts/blob/v4.7.3/contracts/utils/cryptography/SignatureChecker.sol\":1587:1600  result.length */\n      mload\n        /* \"github.com/OpenZeppelin/openzeppelin-contracts/blob/v4.7.3/contracts/utils/cryptography/SignatureChecker.sol\":1587:1606  result.length == 32 */\n      eq\n        /* \"github.com/OpenZeppelin/openzeppelin-contracts/blob/v4.7.3/contracts/utils/cryptography/SignatureChecker.sol\":1564:1606  success &&... */\n    tag_112:\n        /* \"github.com/OpenZeppelin/openzeppelin-contracts/blob/v4.7.3/contracts/utils/cryptography/SignatureChecker.sol\":1564:1698  success &&... */\n      dup1\n      iszero\n      tag_113\n      jumpi\n      pop\n        /* \"github.com/OpenZeppelin/openzeppelin-contracts/blob/v4.7.3/contracts/utils/cryptography/SignatureChecker.sol\":1663:1697  IERC1271.isValidSignature.selector */\n      shl(0xe0, 0x1626ba7e)\n        /* \"github.com/OpenZeppelin/openzeppelin-contracts/blob/v4.7.3/contracts/utils/cryptography/SignatureChecker.sol\":1655:1698  bytes32(IERC1271.isValidSignature.selector) */\n      not(0xffffffffffffffffffffffffffffffffffffffffffffffffffffffff)\n      and\n        /* \"github.com/OpenZeppelin/openzeppelin-contracts/blob/v4.7.3/contracts/utils/cryptography/SignatureChecker.sol\":1633:1639  result */\n      dup2\n        /* \"github.com/OpenZeppelin/openzeppelin-contracts/blob/v4.7.3/contracts/utils/cryptography/SignatureChecker.sol\":1622:1651  abi.decode(result, (bytes32)) */\n      dup1\n      0x20\n      add\n      swap1\n      mload\n      dup2\n      add\n      swap1\n      tag_114\n      swap2\n      swap1\n      tag_115\n      jump\t// in\n    tag_114:\n        /* \"github.com/OpenZeppelin/openzeppelin-contracts/blob/v4.7.3/contracts/utils/cryptography/SignatureChecker.sol\":1622:1698  abi.decode(result, (bytes32)) == bytes32(IERC1271.isValidSignature.selector) */\n      eq\n        /* \"github.com/OpenZeppelin/openzeppelin-contracts/blob/v4.7.3/contracts/utils/cryptography/SignatureChecker.sol\":1564:1698  success &&... */\n    tag_113:\n        /* \"github.com/OpenZeppelin/openzeppelin-contracts/blob/v4.7.3/contracts/utils/cryptography/SignatureChecker.sol\":1556:1699  return (success &&... */\n      swap5\n      pop\n      pop\n      pop\n      pop\n      pop\n        /* \"github.com/OpenZeppelin/openzeppelin-contracts/blob/v4.7.3/contracts/utils/cryptography/SignatureChecker.sol\":1039:1706  function isValidSignatureNow(... */\n    tag_95:\n      swap4\n      swap3\n      pop\n      pop\n      pop\n      jump\t// out\n        /* \"tba/lib/ERC6551AccountLib.sol\":789:1195  function token()... */\n    tag_94:\n        /* \"tba/lib/ERC6551AccountLib.sol\":866:873  uint256 */\n      0x00\n        /* \"tba/lib/ERC6551AccountLib.sol\":887:894  address */\n      dup1\n        /* \"tba/lib/ERC6551AccountLib.sol\":908:915  uint256 */\n      0x00\n        /* \"tba/lib/ERC6551AccountLib.sol\":940:959  bytes memory footer */\n      dup1\n        /* \"tba/lib/ERC6551AccountLib.sol\":972:976  0x60 */\n      0x60\n        /* \"tba/lib/ERC6551AccountLib.sol\":962:977  new bytes(0x60) */\n      0xffffffffffffffff\n      dup2\n      gt\n      iszero\n      tag_117\n      jumpi\n      tag_118\n      tag_119\n      jump\t// in\n    tag_118:\n    tag_117:\n      mload(0x40)\n      swap1\n      dup1\n      dup3\n      mstore\n      dup1\n      0x1f\n      add\n      not(0x1f)\n      and\n      0x20\n      add\n      dup3\n      add\n      0x40\n      mstore\n      dup1\n      iszero\n      tag_120\n      jumpi\n      dup2\n      0x20\n      add\n      0x01\n      dup3\n      mul\n      dup1\n      calldatasize\n      dup4\n      calldatacopy\n      dup1\n      dup3\n      add\n      swap2\n      pop\n      pop\n      swap1\n      pop\n    tag_120:\n      pop\n        /* \"tba/lib/ERC6551AccountLib.sol\":940:977  bytes memory footer = new bytes(0x60) */\n      swap1\n      pop\n        /* \"tba/lib/ERC6551AccountLib.sol\":1109:1113  0x60 */\n      0x60\n        /* \"tba/lib/ERC6551AccountLib.sol\":1103:1107  0x4d */\n      0x4d\n        /* \"tba/lib/ERC6551AccountLib.sol\":1096:1100  0x20 */\n      0x20\n        /* \"tba/lib/ERC6551AccountLib.sol\":1088:1094  footer */\n      dup4\n        /* \"tba/lib/ERC6551AccountLib.sol\":1084:1101  add(footer, 0x20) */\n      add\n        /* \"tba/lib/ERC6551AccountLib.sol\":1073:1082  address() */\n      address\n        /* \"tba/lib/ERC6551AccountLib.sol\":1061:1114  extcodecopy(address(), add(footer, 0x20), 0x4d, 0x60) */\n      extcodecopy\n        /* \"tba/lib/ERC6551AccountLib.sol\":1152:1158  footer */\n      dup1\n        /* \"tba/lib/ERC6551AccountLib.sol\":1141:1188  abi.decode(footer, (uint256, address, uint256)) */\n      dup1\n      0x20\n      add\n      swap1\n      mload\n      dup2\n      add\n      swap1\n      tag_121\n      swap2\n      swap1\n      tag_122\n      jump\t// in\n    tag_121:\n        /* \"tba/lib/ERC6551AccountLib.sol\":1134:1188  return abi.decode(footer, (uint256, address, uint256)) */\n      swap4\n      pop\n      swap4\n      pop\n      swap4\n      pop\n      pop\n        /* \"tba/lib/ERC6551AccountLib.sol\":789:1195  function token()... */\n      swap1\n      swap2\n      swap3\n      jump\t// out\n        /* \"github.com/OpenZeppelin/openzeppelin-contracts/blob/v4.7.3/contracts/utils/cryptography/ECDSA.sol\":2243:2973  function tryRecover(bytes32 hash, bytes memory signature) internal pure returns (address, RecoverError) {... */\n    tag_97:\n        /* \"github.com/OpenZeppelin/openzeppelin-contracts/blob/v4.7.3/contracts/utils/cryptography/ECDSA.sol\":2324:2331  address */\n      0x00\n        /* \"github.com/OpenZeppelin/openzeppelin-contracts/blob/v4.7.3/contracts/utils/cryptography/ECDSA.sol\":2333:2345  RecoverError */\n      dup1\n        /* \"github.com/OpenZeppelin/openzeppelin-contracts/blob/v4.7.3/contracts/utils/cryptography/ECDSA.sol\":2381:2383  65 */\n      0x41\n        /* \"github.com/OpenZeppelin/openzeppelin-contracts/blob/v4.7.3/contracts/utils/cryptography/ECDSA.sol\":2361:2370  signature */\n      dup4\n        /* \"github.com/OpenZeppelin/openzeppelin-contracts/blob/v4.7.3/contracts/utils/cryptography/ECDSA.sol\":2361:2377  signature.length */\n      mload\n        /* \"github.com/OpenZeppelin/openzeppelin-contracts/blob/v4.7.3/contracts/utils/cryptography/ECDSA.sol\":2361:2383  signature.length == 65 */\n      sub\n        /* \"github.com/OpenZeppelin/openzeppelin-contracts/blob/v4.7.3/contracts/utils/cryptography/ECDSA.sol\":2357:2967  if (signature.length == 65) {... */\n      tag_124\n      jumpi\n        /* \"github.com/OpenZeppelin/openzeppelin-contracts/blob/v4.7.3/contracts/utils/cryptography/ECDSA.sol\":2399:2408  bytes32 r */\n      0x00\n        /* \"github.com/OpenZeppelin/openzeppelin-contracts/blob/v4.7.3/contracts/utils/cryptography/ECDSA.sol\":2422:2431  bytes32 s */\n      dup1\n        /* \"github.com/OpenZeppelin/openzeppelin-contracts/blob/v4.7.3/contracts/utils/cryptography/ECDSA.sol\":2445:2452  uint8 v */\n      0x00\n        /* \"github.com/OpenZeppelin/openzeppelin-contracts/blob/v4.7.3/contracts/utils/cryptography/ECDSA.sol\":2697:2701  0x20 */\n      0x20\n        /* \"github.com/OpenZeppelin/openzeppelin-contracts/blob/v4.7.3/contracts/utils/cryptography/ECDSA.sol\":2686:2695  signature */\n      dup7\n        /* \"github.com/OpenZeppelin/openzeppelin-contracts/blob/v4.7.3/contracts/utils/cryptography/ECDSA.sol\":2682:2702  add(signature, 0x20) */\n      add\n        /* \"github.com/OpenZeppelin/openzeppelin-contracts/blob/v4.7.3/contracts/utils/cryptography/ECDSA.sol\":2676:2703  mload(add(signature, 0x20)) */\n      mload\n        /* \"github.com/OpenZeppelin/openzeppelin-contracts/blob/v4.7.3/contracts/utils/cryptography/ECDSA.sol\":2671:2703  r := mload(add(signature, 0x20)) */\n      swap3\n      pop\n        /* \"github.com/OpenZeppelin/openzeppelin-contracts/blob/v4.7.3/contracts/utils/cryptography/ECDSA.sol\":2746:2750  0x40 */\n      0x40\n        /* \"github.com/OpenZeppelin/openzeppelin-contracts/blob/v4.7.3/contracts/utils/cryptography/ECDSA.sol\":2735:2744  signature */\n      dup7\n        /* \"github.com/OpenZeppelin/openzeppelin-contracts/blob/v4.7.3/contracts/utils/cryptography/ECDSA.sol\":2731:2751  add(signature, 0x40) */\n      add\n        /* \"github.com/OpenZeppelin/openzeppelin-contracts/blob/v4.7.3/contracts/utils/cryptography/ECDSA.sol\":2725:2752  mload(add(signature, 0x40)) */\n      mload\n        /* \"github.com/OpenZeppelin/openzeppelin-contracts/blob/v4.7.3/contracts/utils/cryptography/ECDSA.sol\":2720:2752  s := mload(add(signature, 0x40)) */\n      swap2\n      pop\n        /* \"github.com/OpenZeppelin/openzeppelin-contracts/blob/v4.7.3/contracts/utils/cryptography/ECDSA.sol\":2803:2807  0x60 */\n      0x60\n        /* \"github.com/OpenZeppelin/openzeppelin-contracts/blob/v4.7.3/contracts/utils/cryptography/ECDSA.sol\":2792:2801  signature */\n      dup7\n        /* \"github.com/OpenZeppelin/openzeppelin-contracts/blob/v4.7.3/contracts/utils/cryptography/ECDSA.sol\":2788:2808  add(signature, 0x60) */\n      add\n        /* \"github.com/OpenZeppelin/openzeppelin-contracts/blob/v4.7.3/contracts/utils/cryptography/ECDSA.sol\":2782:2809  mload(add(signature, 0x60)) */\n      mload\n        /* \"github.com/OpenZeppelin/openzeppelin-contracts/blob/v4.7.3/contracts/utils/cryptography/ECDSA.sol\":2779:2780  0 */\n      0x00\n        /* \"github.com/OpenZeppelin/openzeppelin-contracts/blob/v4.7.3/contracts/utils/cryptography/ECDSA.sol\":2774:2810  byte(0, mload(add(signature, 0x60))) */\n      byte\n        /* \"github.com/OpenZeppelin/openzeppelin-contracts/blob/v4.7.3/contracts/utils/cryptography/ECDSA.sol\":2769:2810  v := byte(0, mload(add(signature, 0x60))) */\n      swap1\n      pop\n        /* \"github.com/OpenZeppelin/openzeppelin-contracts/blob/v4.7.3/contracts/utils/cryptography/ECDSA.sol\":2844:2869  tryRecover(hash, v, r, s) */\n      tag_125\n        /* \"github.com/OpenZeppelin/openzeppelin-contracts/blob/v4.7.3/contracts/utils/cryptography/ECDSA.sol\":2855:2859  hash */\n      dup8\n        /* \"github.com/OpenZeppelin/openzeppelin-contracts/blob/v4.7.3/contracts/utils/cryptography/ECDSA.sol\":2861:2862  v */\n      dup3\n        /* \"github.com/OpenZeppelin/openzeppelin-contracts/blob/v4.7.3/contracts/utils/cryptography/ECDSA.sol\":2864:2865  r */\n      dup6\n        /* \"github.com/OpenZeppelin/openzeppelin-contracts/blob/v4.7.3/contracts/utils/cryptography/ECDSA.sol\":2867:2868  s */\n      dup6\n        /* \"github.com/OpenZeppelin/openzeppelin-contracts/blob/v4.7.3/contracts/utils/cryptography/ECDSA.sol\":2844:2854  tryRecover */\n      tag_126\n        /* \"github.com/OpenZeppelin/openzeppelin-contracts/blob/v4.7.3/contracts/utils/cryptography/ECDSA.sol\":2844:2869  tryRecover(hash, v, r, s) */\n      jump\t// in\n    tag_125:\n        /* \"github.com/OpenZeppelin/openzeppelin-contracts/blob/v4.7.3/contracts/utils/cryptography/ECDSA.sol\":2837:2869  return tryRecover(hash, v, r, s) */\n      swap5\n      pop\n      swap5\n      pop\n      pop\n      pop\n      pop\n      jump(tag_123)\n        /* \"github.com/OpenZeppelin/openzeppelin-contracts/blob/v4.7.3/contracts/utils/cryptography/ECDSA.sol\":2357:2967  if (signature.length == 65) {... */\n    tag_124:\n        /* \"github.com/OpenZeppelin/openzeppelin-contracts/blob/v4.7.3/contracts/utils/cryptography/ECDSA.sol\":2916:2917  0 */\n      0x00\n        /* \"github.com/OpenZeppelin/openzeppelin-contracts/blob/v4.7.3/contracts/utils/cryptography/ECDSA.sol\":2920:2955  RecoverError.InvalidSignatureLength */\n      0x02\n        /* \"github.com/OpenZeppelin/openzeppelin-contracts/blob/v4.7.3/contracts/utils/cryptography/ECDSA.sol\":2900:2956  return (address(0), RecoverError.InvalidSignatureLength) */\n      swap2\n      pop\n      swap2\n      pop\n        /* \"github.com/OpenZeppelin/openzeppelin-contracts/blob/v4.7.3/contracts/utils/cryptography/ECDSA.sol\":2243:2973  function tryRecover(bytes32 hash, bytes memory signature) internal pure returns (address, RecoverError) {... */\n    tag_123:\n      swap3\n      pop\n      swap3\n      swap1\n      pop\n      jump\t// out\n        /* \"github.com/OpenZeppelin/openzeppelin-contracts/blob/v4.7.3/contracts/utils/cryptography/ECDSA.sol\":5167:6770  function tryRecover(... */\n    tag_126:\n        /* \"github.com/OpenZeppelin/openzeppelin-contracts/blob/v4.7.3/contracts/utils/cryptography/ECDSA.sol\":5293:5300  address */\n      0x00\n        /* \"github.com/OpenZeppelin/openzeppelin-contracts/blob/v4.7.3/contracts/utils/cryptography/ECDSA.sol\":5302:5314  RecoverError */\n      dup1\n        /* \"github.com/OpenZeppelin/openzeppelin-contracts/blob/v4.7.3/contracts/utils/cryptography/ECDSA.sol\":6217:6283  0x7FFFFFFFFFFFFFFFFFFFFFFFFFFFFFFF5D576E7357A4501DDFE92F46681B20A0 */\n      0x7fffffffffffffffffffffffffffffff5d576e7357a4501ddfe92f46681b20a0\n        /* \"github.com/OpenZeppelin/openzeppelin-contracts/blob/v4.7.3/contracts/utils/cryptography/ECDSA.sol\":6212:6213  s */\n      dup4\n        /* \"github.com/OpenZeppelin/openzeppelin-contracts/blob/v4.7.3/contracts/utils/cryptography/ECDSA.sol\":6204:6214  uint256(s) */\n      0x00\n      shr\n        /* \"github.com/OpenZeppelin/openzeppelin-contracts/blob/v4.7.3/contracts/utils/cryptography/ECDSA.sol\":6204:6283  uint256(s) > 0x7FFFFFFFFFFFFFFFFFFFFFFFFFFFFFFF5D576E7357A4501DDFE92F46681B20A0 */\n      gt\n        /* \"github.com/OpenZeppelin/openzeppelin-contracts/blob/v4.7.3/contracts/utils/cryptography/ECDSA.sol\":6200:6361  if (uint256(s) > 0x7FFFFFFFFFFFFFFFFFFFFFFFFFFFFFFF5D576E7357A4501DDFE92F46681B20A0) {... */\n      iszero\n      tag_129\n      jumpi\n        /* \"github.com/OpenZeppelin/openzeppelin-contracts/blob/v4.7.3/contracts/utils/cryptography/ECDSA.sol\":6315:6316  0 */\n      0x00\n        /* \"github.com/OpenZeppelin/openzeppelin-contracts/blob/v4.7.3/contracts/utils/cryptography/ECDSA.sol\":6319:6349  RecoverError.InvalidSignatureS */\n      0x03\n        /* \"github.com/OpenZeppelin/openzeppelin-contracts/blob/v4.7.3/contracts/utils/cryptography/ECDSA.sol\":6299:6350  return (address(0), RecoverError.InvalidSignatureS) */\n      swap2\n      pop\n      swap2\n      pop\n      jump(tag_128)\n        /* \"github.com/OpenZeppelin/openzeppelin-contracts/blob/v4.7.3/contracts/utils/cryptography/ECDSA.sol\":6200:6361  if (uint256(s) > 0x7FFFFFFFFFFFFFFFFFFFFFFFFFFFFFFF5D576E7357A4501DDFE92F46681B20A0) {... */\n    tag_129:\n        /* \"github.com/OpenZeppelin/openzeppelin-contracts/blob/v4.7.3/contracts/utils/cryptography/ECDSA.sol\":6379:6381  27 */\n      0x1b\n        /* \"github.com/OpenZeppelin/openzeppelin-contracts/blob/v4.7.3/contracts/utils/cryptography/ECDSA.sol\":6374:6375  v */\n      dup6\n        /* \"github.com/OpenZeppelin/openzeppelin-contracts/blob/v4.7.3/contracts/utils/cryptography/ECDSA.sol\":6374:6381  v != 27 */\n      0xff\n      and\n      eq\n      iszero\n        /* \"github.com/OpenZeppelin/openzeppelin-contracts/blob/v4.7.3/contracts/utils/cryptography/ECDSA.sol\":6374:6392  v != 27 && v != 28 */\n      dup1\n      iszero\n      tag_130\n      jumpi\n      pop\n        /* \"github.com/OpenZeppelin/openzeppelin-contracts/blob/v4.7.3/contracts/utils/cryptography/ECDSA.sol\":6390:6392  28 */\n      0x1c\n        /* \"github.com/OpenZeppelin/openzeppelin-contracts/blob/v4.7.3/contracts/utils/cryptography/ECDSA.sol\":6385:6386  v */\n      dup6\n        /* \"github.com/OpenZeppelin/openzeppelin-contracts/blob/v4.7.3/contracts/utils/cryptography/ECDSA.sol\":6385:6392  v != 28 */\n      0xff\n      and\n      eq\n      iszero\n        /* \"github.com/OpenZeppelin/openzeppelin-contracts/blob/v4.7.3/contracts/utils/cryptography/ECDSA.sol\":6374:6392  v != 27 && v != 28 */\n    tag_130:\n        /* \"github.com/OpenZeppelin/openzeppelin-contracts/blob/v4.7.3/contracts/utils/cryptography/ECDSA.sol\":6370:6470  if (v != 27 && v != 28) {... */\n      iszero\n      tag_131\n      jumpi\n        /* \"github.com/OpenZeppelin/openzeppelin-contracts/blob/v4.7.3/contracts/utils/cryptography/ECDSA.sol\":6424:6425  0 */\n      0x00\n        /* \"github.com/OpenZeppelin/openzeppelin-contracts/blob/v4.7.3/contracts/utils/cryptography/ECDSA.sol\":6428:6458  RecoverError.InvalidSignatureV */\n      0x04\n        /* \"github.com/OpenZeppelin/openzeppelin-contracts/blob/v4.7.3/contracts/utils/cryptography/ECDSA.sol\":6408:6459  return (address(0), RecoverError.InvalidSignatureV) */\n      swap2\n      pop\n      swap2\n      pop\n      jump(tag_128)\n        /* \"github.com/OpenZeppelin/openzeppelin-contracts/blob/v4.7.3/contracts/utils/cryptography/ECDSA.sol\":6370:6470  if (v != 27 && v != 28) {... */\n    tag_131:\n        /* \"github.com/OpenZeppelin/openzeppelin-contracts/blob/v4.7.3/contracts/utils/cryptography/ECDSA.sol\":6564:6578  address signer */\n      0x00\n        /* \"github.com/OpenZeppelin/openzeppelin-contracts/blob/v4.7.3/contracts/utils/cryptography/ECDSA.sol\":6581:6605  ecrecover(hash, v, r, s) */\n      0x01\n        /* \"github.com/OpenZeppelin/openzeppelin-contracts/blob/v4.7.3/contracts/utils/cryptography/ECDSA.sol\":6591:6595  hash */\n      dup8\n        /* \"github.com/OpenZeppelin/openzeppelin-contracts/blob/v4.7.3/contracts/utils/cryptography/ECDSA.sol\":6597:6598  v */\n      dup8\n        /* \"github.com/OpenZeppelin/openzeppelin-contracts/blob/v4.7.3/contracts/utils/cryptography/ECDSA.sol\":6600:6601  r */\n      dup8\n        /* \"github.com/OpenZeppelin/openzeppelin-contracts/blob/v4.7.3/contracts/utils/cryptography/ECDSA.sol\":6603:6604  s */\n      dup8\n        /* \"github.com/OpenZeppelin/openzeppelin-contracts/blob/v4.7.3/contracts/utils/cryptography/ECDSA.sol\":6581:6605  ecrecover(hash, v, r, s) */\n      mload(0x40)\n      0x00\n      dup2\n      mstore\n      0x20\n      add\n      0x40\n      mstore\n      mload(0x40)\n      tag_132\n      swap5\n      swap4\n      swap3\n      swap2\n      swap1\n      tag_133\n      jump\t// in\n    tag_132:\n      0x20\n      mload(0x40)\n      0x20\n      dup2\n      sub\n      swap1\n      dup1\n      dup5\n      sub\n      swap1\n      dup6\n      gas\n      staticcall\n      iszero\n      dup1\n      iszero\n      tag_135\n      jumpi\n      returndatasize\n      0x00\n      dup1\n      returndatacopy\n      revert(0x00, returndatasize)\n    tag_135:\n      pop\n      pop\n      pop\n      mload(sub(mload(0x40), 0x20))\n        /* \"github.com/OpenZeppelin/openzeppelin-contracts/blob/v4.7.3/contracts/utils/cryptography/ECDSA.sol\":6564:6605  address signer = ecrecover(hash, v, r, s) */\n      swap1\n      pop\n        /* \"github.com/OpenZeppelin/openzeppelin-contracts/blob/v4.7.3/contracts/utils/cryptography/ECDSA.sol\":6637:6638  0 */\n      0x00\n        /* \"github.com/OpenZeppelin/openzeppelin-contracts/blob/v4.7.3/contracts/utils/cryptography/ECDSA.sol\":6619:6639  signer == address(0) */\n      0xffffffffffffffffffffffffffffffffffffffff\n      and\n        /* \"github.com/OpenZeppelin/openzeppelin-contracts/blob/v4.7.3/contracts/utils/cryptography/ECDSA.sol\":6619:6625  signer */\n      dup2\n        /* \"github.com/OpenZeppelin/openzeppelin-contracts/blob/v4.7.3/contracts/utils/cryptography/ECDSA.sol\":6619:6639  signer == address(0) */\n      0xffffffffffffffffffffffffffffffffffffffff\n      and\n      sub\n        /* \"github.com/OpenZeppelin/openzeppelin-contracts/blob/v4.7.3/contracts/utils/cryptography/ECDSA.sol\":6615:6716  if (signer == address(0)) {... */\n      tag_136\n      jumpi\n        /* \"github.com/OpenZeppelin/openzeppelin-contracts/blob/v4.7.3/contracts/utils/cryptography/ECDSA.sol\":6671:6672  0 */\n      0x00\n        /* \"github.com/OpenZeppelin/openzeppelin-contracts/blob/v4.7.3/contracts/utils/cryptography/ECDSA.sol\":6675:6704  RecoverError.InvalidSignature */\n      0x01\n        /* \"github.com/OpenZeppelin/openzeppelin-contracts/blob/v4.7.3/contracts/utils/cryptography/ECDSA.sol\":6655:6705  return (address(0), RecoverError.InvalidSignature) */\n      swap3\n      pop\n      swap3\n      pop\n      pop\n      jump(tag_128)\n        /* \"github.com/OpenZeppelin/openzeppelin-contracts/blob/v4.7.3/contracts/utils/cryptography/ECDSA.sol\":6615:6716  if (signer == address(0)) {... */\n    tag_136:\n        /* \"github.com/OpenZeppelin/openzeppelin-contracts/blob/v4.7.3/contracts/utils/cryptography/ECDSA.sol\":6734:6740  signer */\n      dup1\n        /* \"github.com/OpenZeppelin/openzeppelin-contracts/blob/v4.7.3/contracts/utils/cryptography/ECDSA.sol\":6742:6762  RecoverError.NoError */\n      0x00\n        /* \"github.com/OpenZeppelin/openzeppelin-contracts/blob/v4.7.3/contracts/utils/cryptography/ECDSA.sol\":6726:6763  return (signer, RecoverError.NoError) */\n      swap3\n      pop\n      swap3\n      pop\n      pop\n        /* \"github.com/OpenZeppelin/openzeppelin-contracts/blob/v4.7.3/contracts/utils/cryptography/ECDSA.sol\":5167:6770  function tryRecover(... */\n    tag_128:\n      swap5\n      pop\n      swap5\n      swap3\n      pop\n      pop\n      pop\n      jump\t// out\n        /* \"#utility.yul\":7:82   */\n    tag_137:\n        /* \"#utility.yul\":40:46   */\n      0x00\n        /* \"#utility.yul\":73:75   */\n      0x40\n        /* \"#utility.yul\":67:76   */\n      mload\n        /* \"#utility.yul\":57:76   */\n      swap1\n      pop\n        /* \"#utility.yul\":7:82   */\n      swap1\n      jump\t// out\n        /* \"#utility.yul\":88:205   */\n    tag_138:\n        /* \"#utility.yul\":197:198   */\n      0x00\n        /* \"#utility.yul\":194:195   */\n      dup1\n        /* \"#utility.yul\":187:199   */\n      revert\n        /* \"#utility.yul\":211:328   */\n    tag_139:\n        /* \"#utility.yul\":320:321   */\n      0x00\n        /* \"#utility.yul\":317:318   */\n      dup1\n        /* \"#utility.yul\":310:322   */\n      revert\n        /* \"#utility.yul\":334:483   */\n    tag_140:\n        /* \"#utility.yul\":370:377   */\n      0x00\n        /* \"#utility.yul\":410:476   */\n      0xffffffff00000000000000000000000000000000000000000000000000000000\n        /* \"#utility.yul\":403:408   */\n      dup3\n        /* \"#utility.yul\":399:477   */\n      and\n        /* \"#utility.yul\":388:477   */\n      swap1\n      pop\n        /* \"#utility.yul\":334:483   */\n      swap2\n      swap1\n      pop\n      jump\t// out\n        /* \"#utility.yul\":489:609   */\n    tag_141:\n        /* \"#utility.yul\":561:584   */\n      tag_199\n        /* \"#utility.yul\":578:583   */\n      dup2\n        /* \"#utility.yul\":561:584   */\n      tag_140\n      jump\t// in\n    tag_199:\n        /* \"#utility.yul\":554:559   */\n      dup2\n        /* \"#utility.yul\":551:585   */\n      eq\n        /* \"#utility.yul\":541:603   */\n      tag_200\n      jumpi\n        /* \"#utility.yul\":599:600   */\n      0x00\n        /* \"#utility.yul\":596:597   */\n      dup1\n        /* \"#utility.yul\":589:601   */\n      revert\n        /* \"#utility.yul\":541:603   */\n    tag_200:\n        /* \"#utility.yul\":489:609   */\n      pop\n      jump\t// out\n        /* \"#utility.yul\":615:752   */\n    tag_142:\n        /* \"#utility.yul\":660:665   */\n      0x00\n        /* \"#utility.yul\":698:704   */\n      dup2\n        /* \"#utility.yul\":685:705   */\n      calldataload\n        /* \"#utility.yul\":676:705   */\n      swap1\n      pop\n        /* \"#utility.yul\":714:746   */\n      tag_202\n        /* \"#utility.yul\":740:745   */\n      dup2\n        /* \"#utility.yul\":714:746   */\n      tag_141\n      jump\t// in\n    tag_202:\n        /* \"#utility.yul\":615:752   */\n      swap3\n      swap2\n      pop\n      pop\n      jump\t// out\n        /* \"#utility.yul\":758:1085   */\n    tag_16:\n        /* \"#utility.yul\":816:822   */\n      0x00\n        /* \"#utility.yul\":865:867   */\n      0x20\n        /* \"#utility.yul\":853:862   */\n      dup3\n        /* \"#utility.yul\":844:851   */\n      dup5\n        /* \"#utility.yul\":840:863   */\n      sub\n        /* \"#utility.yul\":836:868   */\n      slt\n        /* \"#utility.yul\":833:952   */\n      iszero\n      tag_204\n      jumpi\n        /* \"#utility.yul\":871:950   */\n      tag_205\n      tag_138\n      jump\t// in\n    tag_205:\n        /* \"#utility.yul\":833:952   */\n    tag_204:\n        /* \"#utility.yul\":991:992   */\n      0x00\n        /* \"#utility.yul\":1016:1068   */\n      tag_206\n        /* \"#utility.yul\":1060:1067   */\n      dup5\n        /* \"#utility.yul\":1051:1057   */\n      dup3\n        /* \"#utility.yul\":1040:1049   */\n      dup6\n        /* \"#utility.yul\":1036:1058   */\n      add\n        /* \"#utility.yul\":1016:1068   */\n      tag_142\n      jump\t// in\n    tag_206:\n        /* \"#utility.yul\":1006:1068   */\n      swap2\n      pop\n        /* \"#utility.yul\":962:1078   */\n      pop\n        /* \"#utility.yul\":758:1085   */\n      swap3\n      swap2\n      pop\n      pop\n      jump\t// out\n        /* \"#utility.yul\":1091:1181   */\n    tag_143:\n        /* \"#utility.yul\":1125:1132   */\n      0x00\n        /* \"#utility.yul\":1168:1173   */\n      dup2\n        /* \"#utility.yul\":1161:1174   */\n      iszero\n        /* \"#utility.yul\":1154:1175   */\n      iszero\n        /* \"#utility.yul\":1143:1175   */\n      swap1\n      pop\n        /* \"#utility.yul\":1091:1181   */\n      swap2\n      swap1\n      pop\n      jump\t// out\n        /* \"#utility.yul\":1187:1296   */\n    tag_144:\n        /* \"#utility.yul\":1268:1289   */\n      tag_209\n        /* \"#utility.yul\":1283:1288   */\n      dup2\n        /* \"#utility.yul\":1268:1289   */\n      tag_143\n      jump\t// in\n    tag_209:\n        /* \"#utility.yul\":1263:1266   */\n      dup3\n        /* \"#utility.yul\":1256:1290   */\n      mstore\n        /* \"#utility.yul\":1187:1296   */\n      pop\n      pop\n      jump\t// out\n        /* \"#utility.yul\":1302:1512   */\n    tag_19:\n        /* \"#utility.yul\":1389:1393   */\n      0x00\n        /* \"#utility.yul\":1427:1429   */\n      0x20\n        /* \"#utility.yul\":1416:1425   */\n      dup3\n        /* \"#utility.yul\":1412:1430   */\n      add\n        /* \"#utility.yul\":1404:1430   */\n      swap1\n      pop\n        /* \"#utility.yul\":1440:1505   */\n      tag_211\n        /* \"#utility.yul\":1502:1503   */\n      0x00\n        /* \"#utility.yul\":1491:1500   */\n      dup4\n        /* \"#utility.yul\":1487:1504   */\n      add\n        /* \"#utility.yul\":1478:1484   */\n      dup5\n        /* \"#utility.yul\":1440:1505   */\n      tag_144\n      jump\t// in\n    tag_211:\n        /* \"#utility.yul\":1302:1512   */\n      swap3\n      swap2\n      pop\n      pop\n      jump\t// out\n        /* \"#utility.yul\":1518:1644   */\n    tag_145:\n        /* \"#utility.yul\":1555:1562   */\n      0x00\n        /* \"#utility.yul\":1595:1637   */\n      0xffffffffffffffffffffffffffffffffffffffff\n        /* \"#utility.yul\":1588:1593   */\n      dup3\n        /* \"#utility.yul\":1584:1638   */\n      and\n        /* \"#utility.yul\":1573:1638   */\n      swap1\n      pop\n        /* \"#utility.yul\":1518:1644   */\n      swap2\n      swap1\n      pop\n      jump\t// out\n        /* \"#utility.yul\":1650:1746   */\n    tag_146:\n        /* \"#utility.yul\":1687:1694   */\n      0x00\n        /* \"#utility.yul\":1716:1740   */\n      tag_214\n        /* \"#utility.yul\":1734:1739   */\n      dup3\n        /* \"#utility.yul\":1716:1740   */\n      tag_145\n      jump\t// in\n    tag_214:\n        /* \"#utility.yul\":1705:1740   */\n      swap1\n      pop\n        /* \"#utility.yul\":1650:1746   */\n      swap2\n      swap1\n      pop\n      jump\t// out\n        /* \"#utility.yul\":1752:1874   */\n    tag_147:\n        /* \"#utility.yul\":1825:1849   */\n      tag_216\n        /* \"#utility.yul\":1843:1848   */\n      dup2\n        /* \"#utility.yul\":1825:1849   */\n      tag_146\n      jump\t// in\n    tag_216:\n        /* \"#utility.yul\":1818:1823   */\n      dup2\n        /* \"#utility.yul\":1815:1850   */\n      eq\n        /* \"#utility.yul\":1805:1868   */\n      tag_217\n      jumpi\n        /* \"#utility.yul\":1864:1865   */\n      0x00\n        /* \"#utility.yul\":1861:1862   */\n      dup1\n        /* \"#utility.yul\":1854:1866   */\n      revert\n        /* \"#utility.yul\":1805:1868   */\n    tag_217:\n        /* \"#utility.yul\":1752:1874   */\n      pop\n      jump\t// out\n        /* \"#utility.yul\":1880:2019   */\n    tag_148:\n        /* \"#utility.yul\":1926:1931   */\n      0x00\n        /* \"#utility.yul\":1964:1970   */\n      dup2\n        /* \"#utility.yul\":1951:1971   */\n      calldataload\n        /* \"#utility.yul\":1942:1971   */\n      swap1\n      pop\n        /* \"#utility.yul\":1980:2013   */\n      tag_219\n        /* \"#utility.yul\":2007:2012   */\n      dup2\n        /* \"#utility.yul\":1980:2013   */\n      tag_147\n      jump\t// in\n    tag_219:\n        /* \"#utility.yul\":1880:2019   */\n      swap3\n      swap2\n      pop\n      pop\n      jump\t// out\n        /* \"#utility.yul\":2025:2102   */\n    tag_149:\n        /* \"#utility.yul\":2062:2069   */\n      0x00\n        /* \"#utility.yul\":2091:2096   */\n      dup2\n        /* \"#utility.yul\":2080:2096   */\n      swap1\n      pop\n        /* \"#utility.yul\":2025:2102   */\n      swap2\n      swap1\n      pop\n      jump\t// out\n        /* \"#utility.yul\":2108:2230   */\n    tag_150:\n        /* \"#utility.yul\":2181:2205   */\n      tag_222\n        /* \"#utility.yul\":2199:2204   */\n      dup2\n        /* \"#utility.yul\":2181:2205   */\n      tag_149\n      jump\t// in\n    tag_222:\n        /* \"#utility.yul\":2174:2179   */\n      dup2\n        /* \"#utility.yul\":2171:2206   */\n      eq\n        /* \"#utility.yul\":2161:2224   */\n      tag_223\n      jumpi\n        /* \"#utility.yul\":2220:2221   */\n      0x00\n        /* \"#utility.yul\":2217:2218   */\n      dup1\n        /* \"#utility.yul\":2210:2222   */\n      revert\n        /* \"#utility.yul\":2161:2224   */\n    tag_223:\n        /* \"#utility.yul\":2108:2230   */\n      pop\n      jump\t// out\n        /* \"#utility.yul\":2236:2375   */\n    tag_151:\n        /* \"#utility.yul\":2282:2287   */\n      0x00\n        /* \"#utility.yul\":2320:2326   */\n      dup2\n        /* \"#utility.yul\":2307:2327   */\n      calldataload\n        /* \"#utility.yul\":2298:2327   */\n      swap1\n      pop\n        /* \"#utility.yul\":2336:2369   */\n      tag_225\n        /* \"#utility.yul\":2363:2368   */\n      dup2\n        /* \"#utility.yul\":2336:2369   */\n      tag_150\n      jump\t// in\n    tag_225:\n        /* \"#utility.yul\":2236:2375   */\n      swap3\n      swap2\n      pop\n      pop\n      jump\t// out\n        /* \"#utility.yul\":2381:2498   */\n    tag_152:\n        /* \"#utility.yul\":2490:2491   */\n      0x00\n        /* \"#utility.yul\":2487:2488   */\n      dup1\n        /* \"#utility.yul\":2480:2492   */\n      revert\n        /* \"#utility.yul\":2504:2621   */\n    tag_153:\n        /* \"#utility.yul\":2613:2614   */\n      0x00\n        /* \"#utility.yul\":2610:2611   */\n      dup1\n        /* \"#utility.yul\":2603:2615   */\n      revert\n        /* \"#utility.yul\":2627:2744   */\n    tag_154:\n        /* \"#utility.yul\":2736:2737   */\n      0x00\n        /* \"#utility.yul\":2733:2734   */\n      dup1\n        /* \"#utility.yul\":2726:2738   */\n      revert\n        /* \"#utility.yul\":2763:3315   */\n    tag_155:\n        /* \"#utility.yul\":2820:2828   */\n      0x00\n        /* \"#utility.yul\":2830:2836   */\n      dup1\n        /* \"#utility.yul\":2880:2883   */\n      dup4\n        /* \"#utility.yul\":2873:2877   */\n      0x1f\n        /* \"#utility.yul\":2865:2871   */\n      dup5\n        /* \"#utility.yul\":2861:2878   */\n      add\n        /* \"#utility.yul\":2857:2884   */\n      slt\n        /* \"#utility.yul\":2847:2969   */\n      tag_230\n      jumpi\n        /* \"#utility.yul\":2888:2967   */\n      tag_231\n      tag_152\n      jump\t// in\n    tag_231:\n        /* \"#utility.yul\":2847:2969   */\n    tag_230:\n        /* \"#utility.yul\":3001:3007   */\n      dup3\n        /* \"#utility.yul\":2988:3008   */\n      calldataload\n        /* \"#utility.yul\":2978:3008   */\n      swap1\n      pop\n        /* \"#utility.yul\":3031:3049   */\n      0xffffffffffffffff\n        /* \"#utility.yul\":3023:3029   */\n      dup2\n        /* \"#utility.yul\":3020:3050   */\n      gt\n        /* \"#utility.yul\":3017:3134   */\n      iszero\n      tag_232\n      jumpi\n        /* \"#utility.yul\":3053:3132   */\n      tag_233\n      tag_153\n      jump\t// in\n    tag_233:\n        /* \"#utility.yul\":3017:3134   */\n    tag_232:\n        /* \"#utility.yul\":3167:3171   */\n      0x20\n        /* \"#utility.yul\":3159:3165   */\n      dup4\n        /* \"#utility.yul\":3155:3172   */\n      add\n        /* \"#utility.yul\":3143:3172   */\n      swap2\n      pop\n        /* \"#utility.yul\":3221:3224   */\n      dup4\n        /* \"#utility.yul\":3213:3217   */\n      0x01\n        /* \"#utility.yul\":3205:3211   */\n      dup3\n        /* \"#utility.yul\":3201:3218   */\n      mul\n        /* \"#utility.yul\":3191:3199   */\n      dup4\n        /* \"#utility.yul\":3187:3219   */\n      add\n        /* \"#utility.yul\":3184:3225   */\n      gt\n        /* \"#utility.yul\":3181:3309   */\n      iszero\n      tag_234\n      jumpi\n        /* \"#utility.yul\":3228:3307   */\n      tag_235\n      tag_154\n      jump\t// in\n    tag_235:\n        /* \"#utility.yul\":3181:3309   */\n    tag_234:\n        /* \"#utility.yul\":2763:3315   */\n      swap3\n      pop\n      swap3\n      swap1\n      pop\n      jump\t// out\n        /* \"#utility.yul\":3321:4284   */\n    tag_23:\n        /* \"#utility.yul\":3418:3424   */\n      0x00\n        /* \"#utility.yul\":3426:3432   */\n      dup1\n        /* \"#utility.yul\":3434:3440   */\n      0x00\n        /* \"#utility.yul\":3442:3448   */\n      dup1\n        /* \"#utility.yul\":3450:3456   */\n      0x00\n        /* \"#utility.yul\":3499:3502   */\n      0x80\n        /* \"#utility.yul\":3487:3496   */\n      dup7\n        /* \"#utility.yul\":3478:3485   */\n      dup9\n        /* \"#utility.yul\":3474:3497   */\n      sub\n        /* \"#utility.yul\":3470:3503   */\n      slt\n        /* \"#utility.yul\":3467:3587   */\n      iszero\n      tag_237\n      jumpi\n        /* \"#utility.yul\":3506:3585   */\n      tag_238\n      tag_138\n      jump\t// in\n    tag_238:\n        /* \"#utility.yul\":3467:3587   */\n    tag_237:\n        /* \"#utility.yul\":3626:3627   */\n      0x00\n        /* \"#utility.yul\":3651:3704   */\n      tag_239\n        /* \"#utility.yul\":3696:3703   */\n      dup9\n        /* \"#utility.yul\":3687:3693   */\n      dup3\n        /* \"#utility.yul\":3676:3685   */\n      dup10\n        /* \"#utility.yul\":3672:3694   */\n      add\n        /* \"#utility.yul\":3651:3704   */\n      tag_148\n      jump\t// in\n    tag_239:\n        /* \"#utility.yul\":3641:3704   */\n      swap6\n      pop\n        /* \"#utility.yul\":3597:3714   */\n      pop\n        /* \"#utility.yul\":3753:3755   */\n      0x20\n        /* \"#utility.yul\":3779:3832   */\n      tag_240\n        /* \"#utility.yul\":3824:3831   */\n      dup9\n        /* \"#utility.yul\":3815:3821   */\n      dup3\n        /* \"#utility.yul\":3804:3813   */\n      dup10\n        /* \"#utility.yul\":3800:3822   */\n      add\n        /* \"#utility.yul\":3779:3832   */\n      tag_148\n      jump\t// in\n    tag_240:\n        /* \"#utility.yul\":3769:3832   */\n      swap5\n      pop\n        /* \"#utility.yul\":3724:3842   */\n      pop\n        /* \"#utility.yul\":3881:3883   */\n      0x40\n        /* \"#utility.yul\":3907:3960   */\n      tag_241\n        /* \"#utility.yul\":3952:3959   */\n      dup9\n        /* \"#utility.yul\":3943:3949   */\n      dup3\n        /* \"#utility.yul\":3932:3941   */\n      dup10\n        /* \"#utility.yul\":3928:3950   */\n      add\n        /* \"#utility.yul\":3907:3960   */\n      tag_151\n      jump\t// in\n    tag_241:\n        /* \"#utility.yul\":3897:3960   */\n      swap4\n      pop\n        /* \"#utility.yul\":3852:3970   */\n      pop\n        /* \"#utility.yul\":4037:4039   */\n      0x60\n        /* \"#utility.yul\":4026:4035   */\n      dup7\n        /* \"#utility.yul\":4022:4040   */\n      add\n        /* \"#utility.yul\":4009:4041   */\n      calldataload\n        /* \"#utility.yul\":4068:4086   */\n      0xffffffffffffffff\n        /* \"#utility.yul\":4060:4066   */\n      dup2\n        /* \"#utility.yul\":4057:4087   */\n      gt\n        /* \"#utility.yul\":4054:4171   */\n      iszero\n      tag_242\n      jumpi\n        /* \"#utility.yul\":4090:4169   */\n      tag_243\n      tag_139\n      jump\t// in\n    tag_243:\n        /* \"#utility.yul\":4054:4171   */\n    tag_242:\n        /* \"#utility.yul\":4203:4267   */\n      tag_244\n        /* \"#utility.yul\":4259:4266   */\n      dup9\n        /* \"#utility.yul\":4250:4256   */\n      dup3\n        /* \"#utility.yul\":4239:4248   */\n      dup10\n        /* \"#utility.yul\":4235:4257   */\n      add\n        /* \"#utility.yul\":4203:4267   */\n      tag_155\n      jump\t// in\n    tag_244:\n        /* \"#utility.yul\":4185:4267   */\n      swap3\n      pop\n      swap3\n      pop\n        /* \"#utility.yul\":3980:4277   */\n      pop\n        /* \"#utility.yul\":3321:4284   */\n      swap3\n      swap6\n      pop\n      swap3\n      swap6\n      swap1\n      swap4\n      pop\n      jump\t// out\n        /* \"#utility.yul\":4290:4405   */\n    tag_156:\n        /* \"#utility.yul\":4375:4398   */\n      tag_246\n        /* \"#utility.yul\":4392:4397   */\n      dup2\n        /* \"#utility.yul\":4375:4398   */\n      tag_140\n      jump\t// in\n    tag_246:\n        /* \"#utility.yul\":4370:4373   */\n      dup3\n        /* \"#utility.yul\":4363:4399   */\n      mstore\n        /* \"#utility.yul\":4290:4405   */\n      pop\n      pop\n      jump\t// out\n        /* \"#utility.yul\":4411:4629   */\n    tag_26:\n        /* \"#utility.yul\":4502:4506   */\n      0x00\n        /* \"#utility.yul\":4540:4542   */\n      0x20\n        /* \"#utility.yul\":4529:4538   */\n      dup3\n        /* \"#utility.yul\":4525:4543   */\n      add\n        /* \"#utility.yul\":4517:4543   */\n      swap1\n      pop\n        /* \"#utility.yul\":4553:4622   */\n      tag_248\n        /* \"#utility.yul\":4619:4620   */\n      0x00\n        /* \"#utility.yul\":4608:4617   */\n      dup4\n        /* \"#utility.yul\":4604:4621   */\n      add\n        /* \"#utility.yul\":4595:4601   */\n      dup5\n        /* \"#utility.yul\":4553:4622   */\n      tag_156\n      jump\t// in\n    tag_248:\n        /* \"#utility.yul\":4411:4629   */\n      swap3\n      swap2\n      pop\n      pop\n      jump\t// out\n        /* \"#utility.yul\":4635:4712   */\n    tag_157:\n        /* \"#utility.yul\":4672:4679   */\n      0x00\n        /* \"#utility.yul\":4701:4706   */\n      dup2\n        /* \"#utility.yul\":4690:4706   */\n      swap1\n      pop\n        /* \"#utility.yul\":4635:4712   */\n      swap2\n      swap1\n      pop\n      jump\t// out\n        /* \"#utility.yul\":4718:4840   */\n    tag_158:\n        /* \"#utility.yul\":4791:4815   */\n      tag_251\n        /* \"#utility.yul\":4809:4814   */\n      dup2\n        /* \"#utility.yul\":4791:4815   */\n      tag_157\n      jump\t// in\n    tag_251:\n        /* \"#utility.yul\":4784:4789   */\n      dup2\n        /* \"#utility.yul\":4781:4816   */\n      eq\n        /* \"#utility.yul\":4771:4834   */\n      tag_252\n      jumpi\n        /* \"#utility.yul\":4830:4831   */\n      0x00\n        /* \"#utility.yul\":4827:4828   */\n      dup1\n        /* \"#utility.yul\":4820:4832   */\n      revert\n        /* \"#utility.yul\":4771:4834   */\n    tag_252:\n        /* \"#utility.yul\":4718:4840   */\n      pop\n      jump\t// out\n        /* \"#utility.yul\":4846:4985   */\n    tag_159:\n        /* \"#utility.yul\":4892:4897   */\n      0x00\n        /* \"#utility.yul\":4930:4936   */\n      dup2\n        /* \"#utility.yul\":4917:4937   */\n      calldataload\n        /* \"#utility.yul\":4908:4937   */\n      swap1\n      pop\n        /* \"#utility.yul\":4946:4979   */\n      tag_254\n        /* \"#utility.yul\":4973:4978   */\n      dup2\n        /* \"#utility.yul\":4946:4979   */\n      tag_158\n      jump\t// in\n    tag_254:\n        /* \"#utility.yul\":4846:4985   */\n      swap3\n      swap2\n      pop\n      pop\n      jump\t// out\n        /* \"#utility.yul\":4991:5108   */\n    tag_160:\n        /* \"#utility.yul\":5100:5101   */\n      0x00\n        /* \"#utility.yul\":5097:5098   */\n      dup1\n        /* \"#utility.yul\":5090:5102   */\n      revert\n        /* \"#utility.yul\":5114:5216   */\n    tag_161:\n        /* \"#utility.yul\":5155:5161   */\n      0x00\n        /* \"#utility.yul\":5206:5208   */\n      0x1f\n        /* \"#utility.yul\":5202:5209   */\n      not\n        /* \"#utility.yul\":5197:5199   */\n      0x1f\n        /* \"#utility.yul\":5190:5195   */\n      dup4\n        /* \"#utility.yul\":5186:5200   */\n      add\n        /* \"#utility.yul\":5182:5210   */\n      and\n        /* \"#utility.yul\":5172:5210   */\n      swap1\n      pop\n        /* \"#utility.yul\":5114:5216   */\n      swap2\n      swap1\n      pop\n      jump\t// out\n        /* \"#utility.yul\":5222:5402   */\n    tag_119:\n        /* \"#utility.yul\":5270:5347   */\n      0x4e487b7100000000000000000000000000000000000000000000000000000000\n        /* \"#utility.yul\":5267:5268   */\n      0x00\n        /* \"#utility.yul\":5260:5348   */\n      mstore\n        /* \"#utility.yul\":5367:5371   */\n      0x41\n        /* \"#utility.yul\":5364:5365   */\n      0x04\n        /* \"#utility.yul\":5357:5372   */\n      mstore\n        /* \"#utility.yul\":5391:5395   */\n      0x24\n        /* \"#utility.yul\":5388:5389   */\n      0x00\n        /* \"#utility.yul\":5381:5396   */\n      revert\n        /* \"#utility.yul\":5408:5689   */\n    tag_162:\n        /* \"#utility.yul\":5491:5518   */\n      tag_259\n        /* \"#utility.yul\":5513:5517   */\n      dup3\n        /* \"#utility.yul\":5491:5518   */\n      tag_161\n      jump\t// in\n    tag_259:\n        /* \"#utility.yul\":5483:5489   */\n      dup2\n        /* \"#utility.yul\":5479:5519   */\n      add\n        /* \"#utility.yul\":5621:5627   */\n      dup2\n        /* \"#utility.yul\":5609:5619   */\n      dup2\n        /* \"#utility.yul\":5606:5628   */\n      lt\n        /* \"#utility.yul\":5585:5603   */\n      0xffffffffffffffff\n        /* \"#utility.yul\":5573:5583   */\n      dup3\n        /* \"#utility.yul\":5570:5604   */\n      gt\n        /* \"#utility.yul\":5567:5629   */\n      or\n        /* \"#utility.yul\":5564:5652   */\n      iszero\n      tag_260\n      jumpi\n        /* \"#utility.yul\":5632:5650   */\n      tag_261\n      tag_119\n      jump\t// in\n    tag_261:\n        /* \"#utility.yul\":5564:5652   */\n    tag_260:\n        /* \"#utility.yul\":5672:5682   */\n      dup1\n        /* \"#utility.yul\":5668:5670   */\n      0x40\n        /* \"#utility.yul\":5661:5683   */\n      mstore\n        /* \"#utility.yul\":5451:5689   */\n      pop\n        /* \"#utility.yul\":5408:5689   */\n      pop\n      pop\n      jump\t// out\n        /* \"#utility.yul\":5695:5824   */\n    tag_163:\n        /* \"#utility.yul\":5729:5735   */\n      0x00\n        /* \"#utility.yul\":5756:5776   */\n      tag_263\n      tag_137\n      jump\t// in\n    tag_263:\n        /* \"#utility.yul\":5746:5776   */\n      swap1\n      pop\n        /* \"#utility.yul\":5785:5818   */\n      tag_264\n        /* \"#utility.yul\":5813:5817   */\n      dup3\n        /* \"#utility.yul\":5805:5811   */\n      dup3\n        /* \"#utility.yul\":5785:5818   */\n      tag_162\n      jump\t// in\n    tag_264:\n        /* \"#utility.yul\":5695:5824   */\n      swap2\n      swap1\n      pop\n      jump\t// out\n        /* \"#utility.yul\":5830:6137   */\n    tag_164:\n        /* \"#utility.yul\":5891:5895   */\n      0x00\n        /* \"#utility.yul\":5981:5999   */\n      0xffffffffffffffff\n        /* \"#utility.yul\":5973:5979   */\n      dup3\n        /* \"#utility.yul\":5970:6000   */\n      gt\n        /* \"#utility.yul\":5967:6023   */\n      iszero\n      tag_266\n      jumpi\n        /* \"#utility.yul\":6003:6021   */\n      tag_267\n      tag_119\n      jump\t// in\n    tag_267:\n        /* \"#utility.yul\":5967:6023   */\n    tag_266:\n        /* \"#utility.yul\":6041:6070   */\n      tag_268\n        /* \"#utility.yul\":6063:6069   */\n      dup3\n        /* \"#utility.yul\":6041:6070   */\n      tag_161\n      jump\t// in\n    tag_268:\n        /* \"#utility.yul\":6033:6070   */\n      swap1\n      pop\n        /* \"#utility.yul\":6125:6129   */\n      0x20\n        /* \"#utility.yul\":6119:6123   */\n      dup2\n        /* \"#utility.yul\":6115:6130   */\n      add\n        /* \"#utility.yul\":6107:6130   */\n      swap1\n      pop\n        /* \"#utility.yul\":5830:6137   */\n      swap2\n      swap1\n      pop\n      jump\t// out\n        /* \"#utility.yul\":6143:6289   */\n    tag_165:\n        /* \"#utility.yul\":6240:6246   */\n      dup3\n        /* \"#utility.yul\":6235:6238   */\n      dup2\n        /* \"#utility.yul\":6230:6233   */\n      dup4\n        /* \"#utility.yul\":6217:6247   */\n      calldatacopy\n        /* \"#utility.yul\":6281:6282   */\n      0x00\n        /* \"#utility.yul\":6272:6278   */\n      dup4\n        /* \"#utility.yul\":6267:6270   */\n      dup4\n        /* \"#utility.yul\":6263:6279   */\n      add\n        /* \"#utility.yul\":6256:6283   */\n      mstore\n        /* \"#utility.yul\":6143:6289   */\n      pop\n      pop\n      pop\n      jump\t// out\n        /* \"#utility.yul\":6295:6718   */\n    tag_166:\n        /* \"#utility.yul\":6372:6377   */\n      0x00\n        /* \"#utility.yul\":6397:6462   */\n      tag_271\n        /* \"#utility.yul\":6413:6461   */\n      tag_272\n        /* \"#utility.yul\":6454:6460   */\n      dup5\n        /* \"#utility.yul\":6413:6461   */\n      tag_164\n      jump\t// in\n    tag_272:\n        /* \"#utility.yul\":6397:6462   */\n      tag_163\n      jump\t// in\n    tag_271:\n        /* \"#utility.yul\":6388:6462   */\n      swap1\n      pop\n        /* \"#utility.yul\":6485:6491   */\n      dup3\n        /* \"#utility.yul\":6478:6483   */\n      dup2\n        /* \"#utility.yul\":6471:6492   */\n      mstore\n        /* \"#utility.yul\":6523:6527   */\n      0x20\n        /* \"#utility.yul\":6516:6521   */\n      dup2\n        /* \"#utility.yul\":6512:6528   */\n      add\n        /* \"#utility.yul\":6561:6564   */\n      dup5\n        /* \"#utility.yul\":6552:6558   */\n      dup5\n        /* \"#utility.yul\":6547:6550   */\n      dup5\n        /* \"#utility.yul\":6543:6559   */\n      add\n        /* \"#utility.yul\":6540:6565   */\n      gt\n        /* \"#utility.yul\":6537:6649   */\n      iszero\n      tag_273\n      jumpi\n        /* \"#utility.yul\":6568:6647   */\n      tag_274\n      tag_160\n      jump\t// in\n    tag_274:\n        /* \"#utility.yul\":6537:6649   */\n    tag_273:\n        /* \"#utility.yul\":6658:6712   */\n      tag_275\n        /* \"#utility.yul\":6705:6711   */\n      dup5\n        /* \"#utility.yul\":6700:6703   */\n      dup3\n        /* \"#utility.yul\":6695:6698   */\n      dup6\n        /* \"#utility.yul\":6658:6712   */\n      tag_165\n      jump\t// in\n    tag_275:\n        /* \"#utility.yul\":6378:6718   */\n      pop\n        /* \"#utility.yul\":6295:6718   */\n      swap4\n      swap3\n      pop\n      pop\n      pop\n      jump\t// out\n        /* \"#utility.yul\":6737:7075   */\n    tag_167:\n        /* \"#utility.yul\":6792:6797   */\n      0x00\n        /* \"#utility.yul\":6841:6844   */\n      dup3\n        /* \"#utility.yul\":6834:6838   */\n      0x1f\n        /* \"#utility.yul\":6826:6832   */\n      dup4\n        /* \"#utility.yul\":6822:6839   */\n      add\n        /* \"#utility.yul\":6818:6845   */\n      slt\n        /* \"#utility.yul\":6808:6930   */\n      tag_277\n      jumpi\n        /* \"#utility.yul\":6849:6928   */\n      tag_278\n      tag_152\n      jump\t// in\n    tag_278:\n        /* \"#utility.yul\":6808:6930   */\n    tag_277:\n        /* \"#utility.yul\":6966:6972   */\n      dup2\n        /* \"#utility.yul\":6953:6973   */\n      calldataload\n        /* \"#utility.yul\":6991:7069   */\n      tag_279\n        /* \"#utility.yul\":7065:7068   */\n      dup5\n        /* \"#utility.yul\":7057:7063   */\n      dup3\n        /* \"#utility.yul\":7050:7054   */\n      0x20\n        /* \"#utility.yul\":7042:7048   */\n      dup7\n        /* \"#utility.yul\":7038:7055   */\n      add\n        /* \"#utility.yul\":6991:7069   */\n      tag_166\n      jump\t// in\n    tag_279:\n        /* \"#utility.yul\":6982:7069   */\n      swap2\n      pop\n        /* \"#utility.yul\":6798:7075   */\n      pop\n        /* \"#utility.yul\":6737:7075   */\n      swap3\n      swap2\n      pop\n      pop\n      jump\t// out\n        /* \"#utility.yul\":7081:7733   */\n    tag_30:\n        /* \"#utility.yul\":7158:7164   */\n      0x00\n        /* \"#utility.yul\":7166:7172   */\n      dup1\n        /* \"#utility.yul\":7215:7217   */\n      0x40\n        /* \"#utility.yul\":7203:7212   */\n      dup4\n        /* \"#utility.yul\":7194:7201   */\n      dup6\n        /* \"#utility.yul\":7190:7213   */\n      sub\n        /* \"#utility.yul\":7186:7218   */\n      slt\n        /* \"#utility.yul\":7183:7302   */\n      iszero\n      tag_281\n      jumpi\n        /* \"#utility.yul\":7221:7300   */\n      tag_282\n      tag_138\n      jump\t// in\n    tag_282:\n        /* \"#utility.yul\":7183:7302   */\n    tag_281:\n        /* \"#utility.yul\":7341:7342   */\n      0x00\n        /* \"#utility.yul\":7366:7419   */\n      tag_283\n        /* \"#utility.yul\":7411:7418   */\n      dup6\n        /* \"#utility.yul\":7402:7408   */\n      dup3\n        /* \"#utility.yul\":7391:7400   */\n      dup7\n        /* \"#utility.yul\":7387:7409   */\n      add\n        /* \"#utility.yul\":7366:7419   */\n      tag_159\n      jump\t// in\n    tag_283:\n        /* \"#utility.yul\":7356:7419   */\n      swap3\n      pop\n        /* \"#utility.yul\":7312:7429   */\n      pop\n        /* \"#utility.yul\":7496:7498   */\n      0x20\n        /* \"#utility.yul\":7485:7494   */\n      dup4\n        /* \"#utility.yul\":7481:7499   */\n      add\n        /* \"#utility.yul\":7468:7500   */\n      calldataload\n        /* \"#utility.yul\":7527:7545   */\n      0xffffffffffffffff\n        /* \"#utility.yul\":7519:7525   */\n      dup2\n        /* \"#utility.yul\":7516:7546   */\n      gt\n        /* \"#utility.yul\":7513:7630   */\n      iszero\n      tag_284\n      jumpi\n        /* \"#utility.yul\":7549:7628   */\n      tag_285\n      tag_139\n      jump\t// in\n    tag_285:\n        /* \"#utility.yul\":7513:7630   */\n    tag_284:\n        /* \"#utility.yul\":7654:7716   */\n      tag_286\n        /* \"#utility.yul\":7708:7715   */\n      dup6\n        /* \"#utility.yul\":7699:7705   */\n      dup3\n        /* \"#utility.yul\":7688:7697   */\n      dup7\n        /* \"#utility.yul\":7684:7706   */\n      add\n        /* \"#utility.yul\":7654:7716   */\n      tag_167\n      jump\t// in\n    tag_286:\n        /* \"#utility.yul\":7644:7716   */\n      swap2\n      pop\n        /* \"#utility.yul\":7439:7726   */\n      pop\n        /* \"#utility.yul\":7081:7733   */\n      swap3\n      pop\n      swap3\n      swap1\n      pop\n      jump\t// out\n        /* \"#utility.yul\":7739:7857   */\n    tag_168:\n        /* \"#utility.yul\":7826:7850   */\n      tag_288\n        /* \"#utility.yul\":7844:7849   */\n      dup2\n        /* \"#utility.yul\":7826:7850   */\n      tag_146\n      jump\t// in\n    tag_288:\n        /* \"#utility.yul\":7821:7824   */\n      dup3\n        /* \"#utility.yul\":7814:7851   */\n      mstore\n        /* \"#utility.yul\":7739:7857   */\n      pop\n      pop\n      jump\t// out\n        /* \"#utility.yul\":7863:8085   */\n    tag_37:\n        /* \"#utility.yul\":7956:7960   */\n      0x00\n        /* \"#utility.yul\":7994:7996   */\n      0x20\n        /* \"#utility.yul\":7983:7992   */\n      dup3\n        /* \"#utility.yul\":7979:7997   */\n      add\n        /* \"#utility.yul\":7971:7997   */\n      swap1\n      pop\n        /* \"#utility.yul\":8007:8078   */\n      tag_290\n        /* \"#utility.yul\":8075:8076   */\n      0x00\n        /* \"#utility.yul\":8064:8073   */\n      dup4\n        /* \"#utility.yul\":8060:8077   */\n      add\n        /* \"#utility.yul\":8051:8057   */\n      dup5\n        /* \"#utility.yul\":8007:8078   */\n      tag_168\n      jump\t// in\n    tag_290:\n        /* \"#utility.yul\":7863:8085   */\n      swap3\n      swap2\n      pop\n      pop\n      jump\t// out\n        /* \"#utility.yul\":8091:8908   */\n    tag_40:\n        /* \"#utility.yul\":8179:8185   */\n      0x00\n        /* \"#utility.yul\":8187:8193   */\n      dup1\n        /* \"#utility.yul\":8195:8201   */\n      0x00\n        /* \"#utility.yul\":8203:8209   */\n      dup1\n        /* \"#utility.yul\":8252:8254   */\n      0x60\n        /* \"#utility.yul\":8240:8249   */\n      dup6\n        /* \"#utility.yul\":8231:8238   */\n      dup8\n        /* \"#utility.yul\":8227:8250   */\n      sub\n        /* \"#utility.yul\":8223:8255   */\n      slt\n        /* \"#utility.yul\":8220:8339   */\n      iszero\n      tag_292\n      jumpi\n        /* \"#utility.yul\":8258:8337   */\n      tag_293\n      tag_138\n      jump\t// in\n    tag_293:\n        /* \"#utility.yul\":8220:8339   */\n    tag_292:\n        /* \"#utility.yul\":8378:8379   */\n      0x00\n        /* \"#utility.yul\":8403:8456   */\n      tag_294\n        /* \"#utility.yul\":8448:8455   */\n      dup8\n        /* \"#utility.yul\":8439:8445   */\n      dup3\n        /* \"#utility.yul\":8428:8437   */\n      dup9\n        /* \"#utility.yul\":8424:8446   */\n      add\n        /* \"#utility.yul\":8403:8456   */\n      tag_148\n      jump\t// in\n    tag_294:\n        /* \"#utility.yul\":8393:8456   */\n      swap5\n      pop\n        /* \"#utility.yul\":8349:8466   */\n      pop\n        /* \"#utility.yul\":8505:8507   */\n      0x20\n        /* \"#utility.yul\":8531:8584   */\n      tag_295\n        /* \"#utility.yul\":8576:8583   */\n      dup8\n        /* \"#utility.yul\":8567:8573   */\n      dup3\n        /* \"#utility.yul\":8556:8565   */\n      dup9\n        /* \"#utility.yul\":8552:8574   */\n      add\n        /* \"#utility.yul\":8531:8584   */\n      tag_151\n      jump\t// in\n    tag_295:\n        /* \"#utility.yul\":8521:8584   */\n      swap4\n      pop\n        /* \"#utility.yul\":8476:8594   */\n      pop\n        /* \"#utility.yul\":8661:8663   */\n      0x40\n        /* \"#utility.yul\":8650:8659   */\n      dup6\n        /* \"#utility.yul\":8646:8664   */\n      add\n        /* \"#utility.yul\":8633:8665   */\n      calldataload\n        /* \"#utility.yul\":8692:8710   */\n      0xffffffffffffffff\n        /* \"#utility.yul\":8684:8690   */\n      dup2\n        /* \"#utility.yul\":8681:8711   */\n      gt\n        /* \"#utility.yul\":8678:8795   */\n      iszero\n      tag_296\n      jumpi\n        /* \"#utility.yul\":8714:8793   */\n      tag_297\n      tag_139\n      jump\t// in\n    tag_297:\n        /* \"#utility.yul\":8678:8795   */\n    tag_296:\n        /* \"#utility.yul\":8827:8891   */\n      tag_298\n        /* \"#utility.yul\":8883:8890   */\n      dup8\n        /* \"#utility.yul\":8874:8880   */\n      dup3\n        /* \"#utility.yul\":8863:8872   */\n      dup9\n        /* \"#utility.yul\":8859:8881   */\n      add\n        /* \"#utility.yul\":8827:8891   */\n      tag_155\n      jump\t// in\n    tag_298:\n        /* \"#utility.yul\":8809:8891   */\n      swap3\n      pop\n      swap3\n      pop\n        /* \"#utility.yul\":8604:8901   */\n      pop\n        /* \"#utility.yul\":8091:8908   */\n      swap3\n      swap6\n      swap2\n      swap5\n      pop\n      swap3\n      pop\n      jump\t// out\n        /* \"#utility.yul\":8914:9012   */\n    tag_169:\n        /* \"#utility.yul\":8965:8971   */\n      0x00\n        /* \"#utility.yul\":8999:9004   */\n      dup2\n        /* \"#utility.yul\":8993:9005   */\n      mload\n        /* \"#utility.yul\":8983:9005   */\n      swap1\n      pop\n        /* \"#utility.yul\":8914:9012   */\n      swap2\n      swap1\n      pop\n      jump\t// out\n        /* \"#utility.yul\":9018:9186   */\n    tag_170:\n        /* \"#utility.yul\":9101:9112   */\n      0x00\n        /* \"#utility.yul\":9135:9141   */\n      dup3\n        /* \"#utility.yul\":9130:9133   */\n      dup3\n        /* \"#utility.yul\":9123:9142   */\n      mstore\n        /* \"#utility.yul\":9175:9179   */\n      0x20\n        /* \"#utility.yul\":9170:9173   */\n      dup3\n        /* \"#utility.yul\":9166:9180   */\n      add\n        /* \"#utility.yul\":9151:9180   */\n      swap1\n      pop\n        /* \"#utility.yul\":9018:9186   */\n      swap3\n      swap2\n      pop\n      pop\n      jump\t// out\n        /* \"#utility.yul\":9192:9438   */\n    tag_171:\n        /* \"#utility.yul\":9273:9274   */\n      0x00\n        /* \"#utility.yul\":9283:9396   */\n    tag_302:\n        /* \"#utility.yul\":9297:9303   */\n      dup4\n        /* \"#utility.yul\":9294:9295   */\n      dup2\n        /* \"#utility.yul\":9291:9304   */\n      lt\n        /* \"#utility.yul\":9283:9396   */\n      iszero\n      tag_304\n      jumpi\n        /* \"#utility.yul\":9382:9383   */\n      dup1\n        /* \"#utility.yul\":9377:9380   */\n      dup3\n        /* \"#utility.yul\":9373:9384   */\n      add\n        /* \"#utility.yul\":9367:9385   */\n      mload\n        /* \"#utility.yul\":9363:9364   */\n      dup2\n        /* \"#utility.yul\":9358:9361   */\n      dup5\n        /* \"#utility.yul\":9354:9365   */\n      add\n        /* \"#utility.yul\":9347:9386   */\n      mstore\n        /* \"#utility.yul\":9319:9321   */\n      0x20\n        /* \"#utility.yul\":9316:9317   */\n      dup2\n        /* \"#utility.yul\":9312:9322   */\n      add\n        /* \"#utility.yul\":9307:9322   */\n      swap1\n      pop\n        /* \"#utility.yul\":9283:9396   */\n      jump(tag_302)\n    tag_304:\n        /* \"#utility.yul\":9430:9431   */\n      0x00\n        /* \"#utility.yul\":9421:9427   */\n      dup5\n        /* \"#utility.yul\":9416:9419   */\n      dup5\n        /* \"#utility.yul\":9412:9428   */\n      add\n        /* \"#utility.yul\":9405:9432   */\n      mstore\n        /* \"#utility.yul\":9254:9438   */\n      pop\n        /* \"#utility.yul\":9192:9438   */\n      pop\n      pop\n      pop\n      jump\t// out\n        /* \"#utility.yul\":9444:9817   */\n    tag_172:\n        /* \"#utility.yul\":9530:9533   */\n      0x00\n        /* \"#utility.yul\":9558:9596   */\n      tag_306\n        /* \"#utility.yul\":9590:9595   */\n      dup3\n        /* \"#utility.yul\":9558:9596   */\n      tag_169\n      jump\t// in\n    tag_306:\n        /* \"#utility.yul\":9612:9682   */\n      tag_307\n        /* \"#utility.yul\":9675:9681   */\n      dup2\n        /* \"#utility.yul\":9670:9673   */\n      dup6\n        /* \"#utility.yul\":9612:9682   */\n      tag_170\n      jump\t// in\n    tag_307:\n        /* \"#utility.yul\":9605:9682   */\n      swap4\n      pop\n        /* \"#utility.yul\":9691:9756   */\n      tag_308\n        /* \"#utility.yul\":9749:9755   */\n      dup2\n        /* \"#utility.yul\":9744:9747   */\n      dup6\n        /* \"#utility.yul\":9737:9741   */\n      0x20\n        /* \"#utility.yul\":9730:9735   */\n      dup7\n        /* \"#utility.yul\":9726:9742   */\n      add\n        /* \"#utility.yul\":9691:9756   */\n      tag_171\n      jump\t// in\n    tag_308:\n        /* \"#utility.yul\":9781:9810   */\n      tag_309\n        /* \"#utility.yul\":9803:9809   */\n      dup2\n        /* \"#utility.yul\":9781:9810   */\n      tag_161\n      jump\t// in\n    tag_309:\n        /* \"#utility.yul\":9776:9779   */\n      dup5\n        /* \"#utility.yul\":9772:9811   */\n      add\n        /* \"#utility.yul\":9765:9811   */\n      swap2\n      pop\n        /* \"#utility.yul\":9534:9817   */\n      pop\n        /* \"#utility.yul\":9444:9817   */\n      swap3\n      swap2\n      pop\n      pop\n      jump\t// out\n        /* \"#utility.yul\":9823:10132   */\n    tag_43:\n        /* \"#utility.yul\":9934:9938   */\n      0x00\n        /* \"#utility.yul\":9972:9974   */\n      0x20\n        /* \"#utility.yul\":9961:9970   */\n      dup3\n        /* \"#utility.yul\":9957:9975   */\n      add\n        /* \"#utility.yul\":9949:9975   */\n      swap1\n      pop\n        /* \"#utility.yul\":10021:10030   */\n      dup2\n        /* \"#utility.yul\":10015:10019   */\n      dup2\n        /* \"#utility.yul\":10011:10031   */\n      sub\n        /* \"#utility.yul\":10007:10008   */\n      0x00\n        /* \"#utility.yul\":9996:10005   */\n      dup4\n        /* \"#utility.yul\":9992:10009   */\n      add\n        /* \"#utility.yul\":9985:10032   */\n      mstore\n        /* \"#utility.yul\":10049:10125   */\n      tag_311\n        /* \"#utility.yul\":10120:10124   */\n      dup2\n        /* \"#utility.yul\":10111:10117   */\n      dup5\n        /* \"#utility.yul\":10049:10125   */\n      tag_172\n      jump\t// in\n    tag_311:\n        /* \"#utility.yul\":10041:10125   */\n      swap1\n      pop\n        /* \"#utility.yul\":9823:10132   */\n      swap3\n      swap2\n      pop\n      pop\n      jump\t// out\n        /* \"#utility.yul\":10138:10256   */\n    tag_173:\n        /* \"#utility.yul\":10225:10249   */\n      tag_313\n        /* \"#utility.yul\":10243:10248   */\n      dup2\n        /* \"#utility.yul\":10225:10249   */\n      tag_149\n      jump\t// in\n    tag_313:\n        /* \"#utility.yul\":10220:10223   */\n      dup3\n        /* \"#utility.yul\":10213:10250   */\n      mstore\n        /* \"#utility.yul\":10138:10256   */\n      pop\n      pop\n      jump\t// out\n        /* \"#utility.yul\":10262:10484   */\n    tag_48:\n        /* \"#utility.yul\":10355:10359   */\n      0x00\n        /* \"#utility.yul\":10393:10395   */\n      0x20\n        /* \"#utility.yul\":10382:10391   */\n      dup3\n        /* \"#utility.yul\":10378:10396   */\n      add\n        /* \"#utility.yul\":10370:10396   */\n      swap1\n      pop\n        /* \"#utility.yul\":10406:10477   */\n      tag_315\n        /* \"#utility.yul\":10474:10475   */\n      0x00\n        /* \"#utility.yul\":10463:10472   */\n      dup4\n        /* \"#utility.yul\":10459:10476   */\n      add\n        /* \"#utility.yul\":10450:10456   */\n      dup5\n        /* \"#utility.yul\":10406:10477   */\n      tag_173\n      jump\t// in\n    tag_315:\n        /* \"#utility.yul\":10262:10484   */\n      swap3\n      swap2\n      pop\n      pop\n      jump\t// out\n        /* \"#utility.yul\":10490:10932   */\n    tag_53:\n        /* \"#utility.yul\":10639:10643   */\n      0x00\n        /* \"#utility.yul\":10677:10679   */\n      0x60\n        /* \"#utility.yul\":10666:10675   */\n      dup3\n        /* \"#utility.yul\":10662:10680   */\n      add\n        /* \"#utility.yul\":10654:10680   */\n      swap1\n      pop\n        /* \"#utility.yul\":10690:10761   */\n      tag_317\n        /* \"#utility.yul\":10758:10759   */\n      0x00\n        /* \"#utility.yul\":10747:10756   */\n      dup4\n        /* \"#utility.yul\":10743:10760   */\n      add\n        /* \"#utility.yul\":10734:10740   */\n      dup7\n        /* \"#utility.yul\":10690:10761   */\n      tag_173\n      jump\t// in\n    tag_317:\n        /* \"#utility.yul\":10771:10843   */\n      tag_318\n        /* \"#utility.yul\":10839:10841   */\n      0x20\n        /* \"#utility.yul\":10828:10837   */\n      dup4\n        /* \"#utility.yul\":10824:10842   */\n      add\n        /* \"#utility.yul\":10815:10821   */\n      dup6\n        /* \"#utility.yul\":10771:10843   */\n      tag_168\n      jump\t// in\n    tag_318:\n        /* \"#utility.yul\":10853:10925   */\n      tag_319\n        /* \"#utility.yul\":10921:10923   */\n      0x40\n        /* \"#utility.yul\":10910:10919   */\n      dup4\n        /* \"#utility.yul\":10906:10924   */\n      add\n        /* \"#utility.yul\":10897:10903   */\n      dup5\n        /* \"#utility.yul\":10853:10925   */\n      tag_173\n      jump\t// in\n    tag_319:\n        /* \"#utility.yul\":10490:10932   */\n      swap5\n      swap4\n      pop\n      pop\n      pop\n      pop\n      jump\t// out\n        /* \"#utility.yul\":10938:11081   */\n    tag_174:\n        /* \"#utility.yul\":10995:11000   */\n      0x00\n        /* \"#utility.yul\":11026:11032   */\n      dup2\n        /* \"#utility.yul\":11020:11033   */\n      mload\n        /* \"#utility.yul\":11011:11033   */\n      swap1\n      pop\n        /* \"#utility.yul\":11042:11075   */\n      tag_321\n        /* \"#utility.yul\":11069:11074   */\n      dup2\n        /* \"#utility.yul\":11042:11075   */\n      tag_150\n      jump\t// in\n    tag_321:\n        /* \"#utility.yul\":10938:11081   */\n      swap3\n      swap2\n      pop\n      pop\n      jump\t// out\n        /* \"#utility.yul\":11087:11230   */\n    tag_175:\n        /* \"#utility.yul\":11144:11149   */\n      0x00\n        /* \"#utility.yul\":11175:11181   */\n      dup2\n        /* \"#utility.yul\":11169:11182   */\n      mload\n        /* \"#utility.yul\":11160:11182   */\n      swap1\n      pop\n        /* \"#utility.yul\":11191:11224   */\n      tag_323\n        /* \"#utility.yul\":11218:11223   */\n      dup2\n        /* \"#utility.yul\":11191:11224   */\n      tag_147\n      jump\t// in\n    tag_323:\n        /* \"#utility.yul\":11087:11230   */\n      swap3\n      swap2\n      pop\n      pop\n      jump\t// out\n        /* \"#utility.yul\":11236:11899   */\n    tag_67:\n        /* \"#utility.yul\":11324:11330   */\n      0x00\n        /* \"#utility.yul\":11332:11338   */\n      dup1\n        /* \"#utility.yul\":11340:11346   */\n      0x00\n        /* \"#utility.yul\":11389:11391   */\n      0x60\n        /* \"#utility.yul\":11377:11386   */\n      dup5\n        /* \"#utility.yul\":11368:11375   */\n      dup7\n        /* \"#utility.yul\":11364:11387   */\n      sub\n        /* \"#utility.yul\":11360:11392   */\n      slt\n        /* \"#utility.yul\":11357:11476   */\n      iszero\n      tag_325\n      jumpi\n        /* \"#utility.yul\":11395:11474   */\n      tag_326\n      tag_138\n      jump\t// in\n    tag_326:\n        /* \"#utility.yul\":11357:11476   */\n    tag_325:\n        /* \"#utility.yul\":11515:11516   */\n      0x00\n        /* \"#utility.yul\":11540:11604   */\n      tag_327\n        /* \"#utility.yul\":11596:11603   */\n      dup7\n        /* \"#utility.yul\":11587:11593   */\n      dup3\n        /* \"#utility.yul\":11576:11585   */\n      dup8\n        /* \"#utility.yul\":11572:11594   */\n      add\n        /* \"#utility.yul\":11540:11604   */\n      tag_174\n      jump\t// in\n    tag_327:\n        /* \"#utility.yul\":11530:11604   */\n      swap4\n      pop\n        /* \"#utility.yul\":11486:11614   */\n      pop\n        /* \"#utility.yul\":11653:11655   */\n      0x20\n        /* \"#utility.yul\":11679:11743   */\n      tag_328\n        /* \"#utility.yul\":11735:11742   */\n      dup7\n        /* \"#utility.yul\":11726:11732   */\n      dup3\n        /* \"#utility.yul\":11715:11724   */\n      dup8\n        /* \"#utility.yul\":11711:11733   */\n      add\n        /* \"#utility.yul\":11679:11743   */\n      tag_175\n      jump\t// in\n    tag_328:\n        /* \"#utility.yul\":11669:11743   */\n      swap3\n      pop\n        /* \"#utility.yul\":11624:11753   */\n      pop\n        /* \"#utility.yul\":11792:11794   */\n      0x40\n        /* \"#utility.yul\":11818:11882   */\n      tag_329\n        /* \"#utility.yul\":11874:11881   */\n      dup7\n        /* \"#utility.yul\":11865:11871   */\n      dup3\n        /* \"#utility.yul\":11854:11863   */\n      dup8\n        /* \"#utility.yul\":11850:11872   */\n      add\n        /* \"#utility.yul\":11818:11882   */\n      tag_174\n      jump\t// in\n    tag_329:\n        /* \"#utility.yul\":11808:11882   */\n      swap2\n      pop\n        /* \"#utility.yul\":11763:11892   */\n      pop\n        /* \"#utility.yul\":11236:11899   */\n      swap3\n      pop\n      swap3\n      pop\n      swap3\n      jump\t// out\n        /* \"#utility.yul\":11905:12256   */\n    tag_73:\n        /* \"#utility.yul\":11975:11981   */\n      0x00\n        /* \"#utility.yul\":12024:12026   */\n      0x20\n        /* \"#utility.yul\":12012:12021   */\n      dup3\n        /* \"#utility.yul\":12003:12010   */\n      dup5\n        /* \"#utility.yul\":11999:12022   */\n      sub\n        /* \"#utility.yul\":11995:12027   */\n      slt\n        /* \"#utility.yul\":11992:12111   */\n      iszero\n      tag_331\n      jumpi\n        /* \"#utility.yul\":12030:12109   */\n      tag_332\n      tag_138\n      jump\t// in\n    tag_332:\n        /* \"#utility.yul\":11992:12111   */\n    tag_331:\n        /* \"#utility.yul\":12150:12151   */\n      0x00\n        /* \"#utility.yul\":12175:12239   */\n      tag_333\n        /* \"#utility.yul\":12231:12238   */\n      dup5\n        /* \"#utility.yul\":12222:12228   */\n      dup3\n        /* \"#utility.yul\":12211:12220   */\n      dup6\n        /* \"#utility.yul\":12207:12229   */\n      add\n        /* \"#utility.yul\":12175:12239   */\n      tag_175\n      jump\t// in\n    tag_333:\n        /* \"#utility.yul\":12165:12239   */\n      swap2\n      pop\n        /* \"#utility.yul\":12121:12249   */\n      pop\n        /* \"#utility.yul\":11905:12256   */\n      swap3\n      swap2\n      pop\n      pop\n      jump\t// out\n        /* \"#utility.yul\":12262:12431   */\n    tag_176:\n        /* \"#utility.yul\":12346:12357   */\n      0x00\n        /* \"#utility.yul\":12380:12386   */\n      dup3\n        /* \"#utility.yul\":12375:12378   */\n      dup3\n        /* \"#utility.yul\":12368:12387   */\n      mstore\n        /* \"#utility.yul\":12420:12424   */\n      0x20\n        /* \"#utility.yul\":12415:12418   */\n      dup3\n        /* \"#utility.yul\":12411:12425   */\n      add\n        /* \"#utility.yul\":12396:12425   */\n      swap1\n      pop\n        /* \"#utility.yul\":12262:12431   */\n      swap3\n      swap2\n      pop\n      pop\n      jump\t// out\n        /* \"#utility.yul\":12437:12602   */\n    tag_177:\n        /* \"#utility.yul\":12577:12594   */\n      0x4e6f7420746f6b656e206f776e65720000000000000000000000000000000000\n        /* \"#utility.yul\":12573:12574   */\n      0x00\n        /* \"#utility.yul\":12565:12571   */\n      dup3\n        /* \"#utility.yul\":12561:12575   */\n      add\n        /* \"#utility.yul\":12554:12595   */\n      mstore\n        /* \"#utility.yul\":12437:12602   */\n      pop\n      jump\t// out\n        /* \"#utility.yul\":12608:12974   */\n    tag_178:\n        /* \"#utility.yul\":12750:12753   */\n      0x00\n        /* \"#utility.yul\":12771:12838   */\n      tag_337\n        /* \"#utility.yul\":12835:12837   */\n      0x0f\n        /* \"#utility.yul\":12830:12833   */\n      dup4\n        /* \"#utility.yul\":12771:12838   */\n      tag_176\n      jump\t// in\n    tag_337:\n        /* \"#utility.yul\":12764:12838   */\n      swap2\n      pop\n        /* \"#utility.yul\":12847:12940   */\n      tag_338\n        /* \"#utility.yul\":12936:12939   */\n      dup3\n        /* \"#utility.yul\":12847:12940   */\n      tag_177\n      jump\t// in\n    tag_338:\n        /* \"#utility.yul\":12965:12967   */\n      0x20\n        /* \"#utility.yul\":12960:12963   */\n      dup3\n        /* \"#utility.yul\":12956:12968   */\n      add\n        /* \"#utility.yul\":12949:12968   */\n      swap1\n      pop\n        /* \"#utility.yul\":12608:12974   */\n      swap2\n      swap1\n      pop\n      jump\t// out\n        /* \"#utility.yul\":12980:13399   */\n    tag_78:\n        /* \"#utility.yul\":13146:13150   */\n      0x00\n        /* \"#utility.yul\":13184:13186   */\n      0x20\n        /* \"#utility.yul\":13173:13182   */\n      dup3\n        /* \"#utility.yul\":13169:13187   */\n      add\n        /* \"#utility.yul\":13161:13187   */\n      swap1\n      pop\n        /* \"#utility.yul\":13233:13242   */\n      dup2\n        /* \"#utility.yul\":13227:13231   */\n      dup2\n        /* \"#utility.yul\":13223:13243   */\n      sub\n        /* \"#utility.yul\":13219:13220   */\n      0x00\n        /* \"#utility.yul\":13208:13217   */\n      dup4\n        /* \"#utility.yul\":13204:13221   */\n      add\n        /* \"#utility.yul\":13197:13244   */\n      mstore\n        /* \"#utility.yul\":13261:13392   */\n      tag_340\n        /* \"#utility.yul\":13387:13391   */\n      dup2\n        /* \"#utility.yul\":13261:13392   */\n      tag_178\n      jump\t// in\n    tag_340:\n        /* \"#utility.yul\":13253:13392   */\n      swap1\n      pop\n        /* \"#utility.yul\":12980:13399   */\n      swap2\n      swap1\n      pop\n      jump\t// out\n        /* \"#utility.yul\":13405:13629   */\n    tag_179:\n        /* \"#utility.yul\":13545:13579   */\n      0x596f7520646f206e6f74206861766520656e6f75676820706f696e747320746f\n        /* \"#utility.yul\":13541:13542   */\n      0x00\n        /* \"#utility.yul\":13533:13539   */\n      dup3\n        /* \"#utility.yul\":13529:13543   */\n      add\n        /* \"#utility.yul\":13522:13580   */\n      mstore\n        /* \"#utility.yul\":13614:13621   */\n      0x206d696e74000000000000000000000000000000000000000000000000000000\n        /* \"#utility.yul\":13609:13611   */\n      0x20\n        /* \"#utility.yul\":13601:13607   */\n      dup3\n        /* \"#utility.yul\":13597:13612   */\n      add\n        /* \"#utility.yul\":13590:13622   */\n      mstore\n        /* \"#utility.yul\":13405:13629   */\n      pop\n      jump\t// out\n        /* \"#utility.yul\":13635:14001   */\n    tag_180:\n        /* \"#utility.yul\":13777:13780   */\n      0x00\n        /* \"#utility.yul\":13798:13865   */\n      tag_343\n        /* \"#utility.yul\":13862:13864   */\n      0x25\n        /* \"#utility.yul\":13857:13860   */\n      dup4\n        /* \"#utility.yul\":13798:13865   */\n      tag_176\n      jump\t// in\n    tag_343:\n        /* \"#utility.yul\":13791:13865   */\n      swap2\n      pop\n        /* \"#utility.yul\":13874:13967   */\n      tag_344\n        /* \"#utility.yul\":13963:13966   */\n      dup3\n        /* \"#utility.yul\":13874:13967   */\n      tag_179\n      jump\t// in\n    tag_344:\n        /* \"#utility.yul\":13992:13994   */\n      0x40\n        /* \"#utility.yul\":13987:13990   */\n      dup3\n        /* \"#utility.yul\":13983:13995   */\n      add\n        /* \"#utility.yul\":13976:13995   */\n      swap1\n      pop\n        /* \"#utility.yul\":13635:14001   */\n      swap2\n      swap1\n      pop\n      jump\t// out\n        /* \"#utility.yul\":14007:14426   */\n    tag_81:\n        /* \"#utility.yul\":14173:14177   */\n      0x00\n        /* \"#utility.yul\":14211:14213   */\n      0x20\n        /* \"#utility.yul\":14200:14209   */\n      dup3\n        /* \"#utility.yul\":14196:14214   */\n      add\n        /* \"#utility.yul\":14188:14214   */\n      swap1\n      pop\n        /* \"#utility.yul\":14260:14269   */\n      dup2\n        /* \"#utility.yul\":14254:14258   */\n      dup2\n        /* \"#utility.yul\":14250:14270   */\n      sub\n        /* \"#utility.yul\":14246:14247   */\n      0x00\n        /* \"#utility.yul\":14235:14244   */\n      dup4\n        /* \"#utility.yul\":14231:14248   */\n      add\n        /* \"#utility.yul\":14224:14271   */\n      mstore\n        /* \"#utility.yul\":14288:14419   */\n      tag_346\n        /* \"#utility.yul\":14414:14418   */\n      dup2\n        /* \"#utility.yul\":14288:14419   */\n      tag_180\n      jump\t// in\n    tag_346:\n        /* \"#utility.yul\":14280:14419   */\n      swap1\n      pop\n        /* \"#utility.yul\":14007:14426   */\n      swap2\n      swap1\n      pop\n      jump\t// out\n        /* \"#utility.yul\":14432:14612   */\n    tag_181:\n        /* \"#utility.yul\":14480:14557   */\n      0x4e487b7100000000000000000000000000000000000000000000000000000000\n        /* \"#utility.yul\":14477:14478   */\n      0x00\n        /* \"#utility.yul\":14470:14558   */\n      mstore\n        /* \"#utility.yul\":14577:14581   */\n      0x11\n        /* \"#utility.yul\":14574:14575   */\n      0x04\n        /* \"#utility.yul\":14567:14582   */\n      mstore\n        /* \"#utility.yul\":14601:14605   */\n      0x24\n        /* \"#utility.yul\":14598:14599   */\n      0x00\n        /* \"#utility.yul\":14591:14606   */\n      revert\n        /* \"#utility.yul\":14618:14851   */\n    tag_83:\n        /* \"#utility.yul\":14657:14660   */\n      0x00\n        /* \"#utility.yul\":14680:14704   */\n      tag_349\n        /* \"#utility.yul\":14698:14703   */\n      dup3\n        /* \"#utility.yul\":14680:14704   */\n      tag_149\n      jump\t// in\n    tag_349:\n        /* \"#utility.yul\":14671:14704   */\n      swap2\n      pop\n        /* \"#utility.yul\":14726:14792   */\n      0xffffffffffffffffffffffffffffffffffffffffffffffffffffffffffffffff\n        /* \"#utility.yul\":14719:14724   */\n      dup3\n        /* \"#utility.yul\":14716:14793   */\n      sub\n        /* \"#utility.yul\":14713:14816   */\n      tag_350\n      jumpi\n        /* \"#utility.yul\":14796:14814   */\n      tag_351\n      tag_181\n      jump\t// in\n    tag_351:\n        /* \"#utility.yul\":14713:14816   */\n    tag_350:\n        /* \"#utility.yul\":14843:14844   */\n      0x01\n        /* \"#utility.yul\":14836:14841   */\n      dup3\n        /* \"#utility.yul\":14832:14845   */\n      add\n        /* \"#utility.yul\":14825:14845   */\n      swap1\n      pop\n        /* \"#utility.yul\":14618:14851   */\n      swap2\n      swap1\n      pop\n      jump\t// out\n        /* \"#utility.yul\":14879:15193   */\n    tag_182:\n        /* \"#utility.yul\":14975:14978   */\n      0x00\n        /* \"#utility.yul\":14996:15066   */\n      tag_353\n        /* \"#utility.yul\":15059:15065   */\n      dup4\n        /* \"#utility.yul\":15054:15057   */\n      dup6\n        /* \"#utility.yul\":14996:15066   */\n      tag_170\n      jump\t// in\n    tag_353:\n        /* \"#utility.yul\":14989:15066   */\n      swap4\n      pop\n        /* \"#utility.yul\":15076:15132   */\n      tag_354\n        /* \"#utility.yul\":15125:15131   */\n      dup4\n        /* \"#utility.yul\":15120:15123   */\n      dup6\n        /* \"#utility.yul\":15113:15118   */\n      dup5\n        /* \"#utility.yul\":15076:15132   */\n      tag_165\n      jump\t// in\n    tag_354:\n        /* \"#utility.yul\":15157:15186   */\n      tag_355\n        /* \"#utility.yul\":15179:15185   */\n      dup4\n        /* \"#utility.yul\":15157:15186   */\n      tag_161\n      jump\t// in\n    tag_355:\n        /* \"#utility.yul\":15152:15155   */\n      dup5\n        /* \"#utility.yul\":15148:15187   */\n      add\n        /* \"#utility.yul\":15141:15187   */\n      swap1\n      pop\n        /* \"#utility.yul\":14879:15193   */\n      swap4\n      swap3\n      pop\n      pop\n      pop\n      jump\t// out\n        /* \"#utility.yul\":15199:15528   */\n    tag_85:\n        /* \"#utility.yul\":15320:15324   */\n      0x00\n        /* \"#utility.yul\":15358:15360   */\n      0x20\n        /* \"#utility.yul\":15347:15356   */\n      dup3\n        /* \"#utility.yul\":15343:15361   */\n      add\n        /* \"#utility.yul\":15335:15361   */\n      swap1\n      pop\n        /* \"#utility.yul\":15407:15416   */\n      dup2\n        /* \"#utility.yul\":15401:15405   */\n      dup2\n        /* \"#utility.yul\":15397:15417   */\n      sub\n        /* \"#utility.yul\":15393:15394   */\n      0x00\n        /* \"#utility.yul\":15382:15391   */\n      dup4\n        /* \"#utility.yul\":15378:15395   */\n      add\n        /* \"#utility.yul\":15371:15418   */\n      mstore\n        /* \"#utility.yul\":15435:15521   */\n      tag_357\n        /* \"#utility.yul\":15516:15520   */\n      dup2\n        /* \"#utility.yul\":15507:15513   */\n      dup5\n        /* \"#utility.yul\":15499:15505   */\n      dup7\n        /* \"#utility.yul\":15435:15521   */\n      tag_182\n      jump\t// in\n    tag_357:\n        /* \"#utility.yul\":15427:15521   */\n      swap1\n      pop\n        /* \"#utility.yul\":15199:15528   */\n      swap4\n      swap3\n      pop\n      pop\n      pop\n      jump\t// out\n        /* \"#utility.yul\":15534:15681   */\n    tag_183:\n        /* \"#utility.yul\":15635:15646   */\n      0x00\n        /* \"#utility.yul\":15672:15675   */\n      dup2\n        /* \"#utility.yul\":15657:15675   */\n      swap1\n      pop\n        /* \"#utility.yul\":15534:15681   */\n      swap3\n      swap2\n      pop\n      pop\n      jump\t// out\n        /* \"#utility.yul\":15709:16036   */\n    tag_184:\n        /* \"#utility.yul\":15823:15826   */\n      0x00\n        /* \"#utility.yul\":15844:15932   */\n      tag_360\n        /* \"#utility.yul\":15925:15931   */\n      dup4\n        /* \"#utility.yul\":15920:15923   */\n      dup6\n        /* \"#utility.yul\":15844:15932   */\n      tag_183\n      jump\t// in\n    tag_360:\n        /* \"#utility.yul\":15837:15932   */\n      swap4\n      pop\n        /* \"#utility.yul\":15942:15998   */\n      tag_361\n        /* \"#utility.yul\":15991:15997   */\n      dup4\n        /* \"#utility.yul\":15986:15989   */\n      dup6\n        /* \"#utility.yul\":15979:15984   */\n      dup5\n        /* \"#utility.yul\":15942:15998   */\n      tag_165\n      jump\t// in\n    tag_361:\n        /* \"#utility.yul\":16023:16029   */\n      dup3\n        /* \"#utility.yul\":16018:16021   */\n      dup5\n        /* \"#utility.yul\":16014:16030   */\n      add\n        /* \"#utility.yul\":16007:16030   */\n      swap1\n      pop\n        /* \"#utility.yul\":15709:16036   */\n      swap4\n      swap3\n      pop\n      pop\n      pop\n      jump\t// out\n        /* \"#utility.yul\":16042:16333   */\n    tag_87:\n        /* \"#utility.yul\":16182:16185   */\n      0x00\n        /* \"#utility.yul\":16204:16307   */\n      tag_363\n        /* \"#utility.yul\":16303:16306   */\n      dup3\n        /* \"#utility.yul\":16294:16300   */\n      dup5\n        /* \"#utility.yul\":16286:16292   */\n      dup7\n        /* \"#utility.yul\":16204:16307   */\n      tag_184\n      jump\t// in\n    tag_363:\n        /* \"#utility.yul\":16197:16307   */\n      swap2\n      pop\n        /* \"#utility.yul\":16324:16327   */\n      dup2\n        /* \"#utility.yul\":16317:16327   */\n      swap1\n      pop\n        /* \"#utility.yul\":16042:16333   */\n      swap4\n      swap3\n      pop\n      pop\n      pop\n      jump\t// out\n        /* \"#utility.yul\":16339:16519   */\n    tag_100:\n        /* \"#utility.yul\":16387:16464   */\n      0x4e487b7100000000000000000000000000000000000000000000000000000000\n        /* \"#utility.yul\":16384:16385   */\n      0x00\n        /* \"#utility.yul\":16377:16465   */\n      mstore\n        /* \"#utility.yul\":16484:16488   */\n      0x21\n        /* \"#utility.yul\":16481:16482   */\n      0x04\n        /* \"#utility.yul\":16474:16489   */\n      mstore\n        /* \"#utility.yul\":16508:16512   */\n      0x24\n        /* \"#utility.yul\":16505:16506   */\n      0x00\n        /* \"#utility.yul\":16498:16513   */\n      revert\n        /* \"#utility.yul\":16525:16643   */\n    tag_185:\n        /* \"#utility.yul\":16612:16636   */\n      tag_366\n        /* \"#utility.yul\":16630:16635   */\n      dup2\n        /* \"#utility.yul\":16612:16636   */\n      tag_157\n      jump\t// in\n    tag_366:\n        /* \"#utility.yul\":16607:16610   */\n      dup3\n        /* \"#utility.yul\":16600:16637   */\n      mstore\n        /* \"#utility.yul\":16525:16643   */\n      pop\n      pop\n      jump\t// out\n        /* \"#utility.yul\":16649:17068   */\n    tag_106:\n        /* \"#utility.yul\":16788:16792   */\n      0x00\n        /* \"#utility.yul\":16826:16828   */\n      0x40\n        /* \"#utility.yul\":16815:16824   */\n      dup3\n        /* \"#utility.yul\":16811:16829   */\n      add\n        /* \"#utility.yul\":16803:16829   */\n      swap1\n      pop\n        /* \"#utility.yul\":16839:16910   */\n      tag_368\n        /* \"#utility.yul\":16907:16908   */\n      0x00\n        /* \"#utility.yul\":16896:16905   */\n      dup4\n        /* \"#utility.yul\":16892:16909   */\n      add\n        /* \"#utility.yul\":16883:16889   */\n      dup6\n        /* \"#utility.yul\":16839:16910   */\n      tag_185\n      jump\t// in\n    tag_368:\n        /* \"#utility.yul\":16957:16966   */\n      dup2\n        /* \"#utility.yul\":16951:16955   */\n      dup2\n        /* \"#utility.yul\":16947:16967   */\n      sub\n        /* \"#utility.yul\":16942:16944   */\n      0x20\n        /* \"#utility.yul\":16931:16940   */\n      dup4\n        /* \"#utility.yul\":16927:16945   */\n      add\n        /* \"#utility.yul\":16920:16968   */\n      mstore\n        /* \"#utility.yul\":16985:17061   */\n      tag_369\n        /* \"#utility.yul\":17056:17060   */\n      dup2\n        /* \"#utility.yul\":17047:17053   */\n      dup5\n        /* \"#utility.yul\":16985:17061   */\n      tag_172\n      jump\t// in\n    tag_369:\n        /* \"#utility.yul\":16977:17061   */\n      swap1\n      pop\n        /* \"#utility.yul\":16649:17068   */\n      swap4\n      swap3\n      pop\n      pop\n      pop\n      jump\t// out\n        /* \"#utility.yul\":17074:17460   */\n    tag_186:\n        /* \"#utility.yul\":17178:17181   */\n      0x00\n        /* \"#utility.yul\":17206:17244   */\n      tag_371\n        /* \"#utility.yul\":17238:17243   */\n      dup3\n        /* \"#utility.yul\":17206:17244   */\n      tag_169\n      jump\t// in\n    tag_371:\n        /* \"#utility.yul\":17260:17348   */\n      tag_372\n        /* \"#utility.yul\":17341:17347   */\n      dup2\n        /* \"#utility.yul\":17336:17339   */\n      dup6\n        /* \"#utility.yul\":17260:17348   */\n      tag_183\n      jump\t// in\n    tag_372:\n        /* \"#utility.yul\":17253:17348   */\n      swap4\n      pop\n        /* \"#utility.yul\":17357:17422   */\n      tag_373\n        /* \"#utility.yul\":17415:17421   */\n      dup2\n        /* \"#utility.yul\":17410:17413   */\n      dup6\n        /* \"#utility.yul\":17403:17407   */\n      0x20\n        /* \"#utility.yul\":17396:17401   */\n      dup7\n        /* \"#utility.yul\":17392:17408   */\n      add\n        /* \"#utility.yul\":17357:17422   */\n      tag_171\n      jump\t// in\n    tag_373:\n        /* \"#utility.yul\":17447:17453   */\n      dup1\n        /* \"#utility.yul\":17442:17445   */\n      dup5\n        /* \"#utility.yul\":17438:17454   */\n      add\n        /* \"#utility.yul\":17431:17454   */\n      swap2\n      pop\n        /* \"#utility.yul\":17182:17460   */\n      pop\n        /* \"#utility.yul\":17074:17460   */\n      swap3\n      swap2\n      pop\n      pop\n      jump\t// out\n        /* \"#utility.yul\":17466:17737   */\n    tag_108:\n        /* \"#utility.yul\":17596:17599   */\n      0x00\n        /* \"#utility.yul\":17618:17711   */\n      tag_375\n        /* \"#utility.yul\":17707:17710   */\n      dup3\n        /* \"#utility.yul\":17698:17704   */\n      dup5\n        /* \"#utility.yul\":17618:17711   */\n      tag_186\n      jump\t// in\n    tag_375:\n        /* \"#utility.yul\":17611:17711   */\n      swap2\n      pop\n        /* \"#utility.yul\":17728:17731   */\n      dup2\n        /* \"#utility.yul\":17721:17731   */\n      swap1\n      pop\n        /* \"#utility.yul\":17466:17737   */\n      swap3\n      swap2\n      pop\n      pop\n      jump\t// out\n        /* \"#utility.yul\":17743:17886   */\n    tag_187:\n        /* \"#utility.yul\":17800:17805   */\n      0x00\n        /* \"#utility.yul\":17831:17837   */\n      dup2\n        /* \"#utility.yul\":17825:17838   */\n      mload\n        /* \"#utility.yul\":17816:17838   */\n      swap1\n      pop\n        /* \"#utility.yul\":17847:17880   */\n      tag_377\n        /* \"#utility.yul\":17874:17879   */\n      dup2\n        /* \"#utility.yul\":17847:17880   */\n      tag_158\n      jump\t// in\n    tag_377:\n        /* \"#utility.yul\":17743:17886   */\n      swap3\n      swap2\n      pop\n      pop\n      jump\t// out\n        /* \"#utility.yul\":17892:18243   */\n    tag_115:\n        /* \"#utility.yul\":17962:17968   */\n      0x00\n        /* \"#utility.yul\":18011:18013   */\n      0x20\n        /* \"#utility.yul\":17999:18008   */\n      dup3\n        /* \"#utility.yul\":17990:17997   */\n      dup5\n        /* \"#utility.yul\":17986:18009   */\n      sub\n        /* \"#utility.yul\":17982:18014   */\n      slt\n        /* \"#utility.yul\":17979:18098   */\n      iszero\n      tag_379\n      jumpi\n        /* \"#utility.yul\":18017:18096   */\n      tag_380\n      tag_138\n      jump\t// in\n    tag_380:\n        /* \"#utility.yul\":17979:18098   */\n    tag_379:\n        /* \"#utility.yul\":18137:18138   */\n      0x00\n        /* \"#utility.yul\":18162:18226   */\n      tag_381\n        /* \"#utility.yul\":18218:18225   */\n      dup5\n        /* \"#utility.yul\":18209:18215   */\n      dup3\n        /* \"#utility.yul\":18198:18207   */\n      dup6\n        /* \"#utility.yul\":18194:18216   */\n      add\n        /* \"#utility.yul\":18162:18226   */\n      tag_187\n      jump\t// in\n    tag_381:\n        /* \"#utility.yul\":18152:18226   */\n      swap2\n      pop\n        /* \"#utility.yul\":18108:18236   */\n      pop\n        /* \"#utility.yul\":17892:18243   */\n      swap3\n      swap2\n      pop\n      pop\n      jump\t// out\n        /* \"#utility.yul\":18249:18353   */\n    tag_188:\n        /* \"#utility.yul\":18294:18301   */\n      0x00\n        /* \"#utility.yul\":18323:18347   */\n      tag_383\n        /* \"#utility.yul\":18341:18346   */\n      dup3\n        /* \"#utility.yul\":18323:18347   */\n      tag_145\n      jump\t// in\n    tag_383:\n        /* \"#utility.yul\":18312:18347   */\n      swap1\n      pop\n        /* \"#utility.yul\":18249:18353   */\n      swap2\n      swap1\n      pop\n      jump\t// out\n        /* \"#utility.yul\":18359:18497   */\n    tag_189:\n        /* \"#utility.yul\":18440:18472   */\n      tag_385\n        /* \"#utility.yul\":18466:18471   */\n      dup2\n        /* \"#utility.yul\":18440:18472   */\n      tag_188\n      jump\t// in\n    tag_385:\n        /* \"#utility.yul\":18433:18438   */\n      dup2\n        /* \"#utility.yul\":18430:18473   */\n      eq\n        /* \"#utility.yul\":18420:18491   */\n      tag_386\n      jumpi\n        /* \"#utility.yul\":18487:18488   */\n      0x00\n        /* \"#utility.yul\":18484:18485   */\n      dup1\n        /* \"#utility.yul\":18477:18489   */\n      revert\n        /* \"#utility.yul\":18420:18491   */\n    tag_386:\n        /* \"#utility.yul\":18359:18497   */\n      pop\n      jump\t// out\n        /* \"#utility.yul\":18503:18662   */\n    tag_190:\n        /* \"#utility.yul\":18568:18573   */\n      0x00\n        /* \"#utility.yul\":18599:18605   */\n      dup2\n        /* \"#utility.yul\":18593:18606   */\n      mload\n        /* \"#utility.yul\":18584:18606   */\n      swap1\n      pop\n        /* \"#utility.yul\":18615:18656   */\n      tag_388\n        /* \"#utility.yul\":18650:18655   */\n      dup2\n        /* \"#utility.yul\":18615:18656   */\n      tag_189\n      jump\t// in\n    tag_388:\n        /* \"#utility.yul\":18503:18662   */\n      swap3\n      swap2\n      pop\n      pop\n      jump\t// out\n        /* \"#utility.yul\":18668:19347   */\n    tag_122:\n        /* \"#utility.yul\":18764:18770   */\n      0x00\n        /* \"#utility.yul\":18772:18778   */\n      dup1\n        /* \"#utility.yul\":18780:18786   */\n      0x00\n        /* \"#utility.yul\":18829:18831   */\n      0x60\n        /* \"#utility.yul\":18817:18826   */\n      dup5\n        /* \"#utility.yul\":18808:18815   */\n      dup7\n        /* \"#utility.yul\":18804:18827   */\n      sub\n        /* \"#utility.yul\":18800:18832   */\n      slt\n        /* \"#utility.yul\":18797:18916   */\n      iszero\n      tag_390\n      jumpi\n        /* \"#utility.yul\":18835:18914   */\n      tag_391\n      tag_138\n      jump\t// in\n    tag_391:\n        /* \"#utility.yul\":18797:18916   */\n    tag_390:\n        /* \"#utility.yul\":18955:18956   */\n      0x00\n        /* \"#utility.yul\":18980:19044   */\n      tag_392\n        /* \"#utility.yul\":19036:19043   */\n      dup7\n        /* \"#utility.yul\":19027:19033   */\n      dup3\n        /* \"#utility.yul\":19016:19025   */\n      dup8\n        /* \"#utility.yul\":19012:19034   */\n      add\n        /* \"#utility.yul\":18980:19044   */\n      tag_174\n      jump\t// in\n    tag_392:\n        /* \"#utility.yul\":18970:19044   */\n      swap4\n      pop\n        /* \"#utility.yul\":18926:19054   */\n      pop\n        /* \"#utility.yul\":19093:19095   */\n      0x20\n        /* \"#utility.yul\":19119:19191   */\n      tag_393\n        /* \"#utility.yul\":19183:19190   */\n      dup7\n        /* \"#utility.yul\":19174:19180   */\n      dup3\n        /* \"#utility.yul\":19163:19172   */\n      dup8\n        /* \"#utility.yul\":19159:19181   */\n      add\n        /* \"#utility.yul\":19119:19191   */\n      tag_190\n      jump\t// in\n    tag_393:\n        /* \"#utility.yul\":19109:19191   */\n      swap3\n      pop\n        /* \"#utility.yul\":19064:19201   */\n      pop\n        /* \"#utility.yul\":19240:19242   */\n      0x40\n        /* \"#utility.yul\":19266:19330   */\n      tag_394\n        /* \"#utility.yul\":19322:19329   */\n      dup7\n        /* \"#utility.yul\":19313:19319   */\n      dup3\n        /* \"#utility.yul\":19302:19311   */\n      dup8\n        /* \"#utility.yul\":19298:19320   */\n      add\n        /* \"#utility.yul\":19266:19330   */\n      tag_174\n      jump\t// in\n    tag_394:\n        /* \"#utility.yul\":19256:19330   */\n      swap2\n      pop\n        /* \"#utility.yul\":19211:19340   */\n      pop\n        /* \"#utility.yul\":18668:19347   */\n      swap3\n      pop\n      swap3\n      pop\n      swap3\n      jump\t// out\n        /* \"#utility.yul\":19353:19439   */\n    tag_191:\n        /* \"#utility.yul\":19388:19395   */\n      0x00\n        /* \"#utility.yul\":19428:19432   */\n      0xff\n        /* \"#utility.yul\":19421:19426   */\n      dup3\n        /* \"#utility.yul\":19417:19433   */\n      and\n        /* \"#utility.yul\":19406:19433   */\n      swap1\n      pop\n        /* \"#utility.yul\":19353:19439   */\n      swap2\n      swap1\n      pop\n      jump\t// out\n        /* \"#utility.yul\":19445:19557   */\n    tag_192:\n        /* \"#utility.yul\":19528:19550   */\n      tag_397\n        /* \"#utility.yul\":19544:19549   */\n      dup2\n        /* \"#utility.yul\":19528:19550   */\n      tag_191\n      jump\t// in\n    tag_397:\n        /* \"#utility.yul\":19523:19526   */\n      dup3\n        /* \"#utility.yul\":19516:19551   */\n      mstore\n        /* \"#utility.yul\":19445:19557   */\n      pop\n      pop\n      jump\t// out\n        /* \"#utility.yul\":19563:20108   */\n    tag_133:\n        /* \"#utility.yul\":19736:19740   */\n      0x00\n        /* \"#utility.yul\":19774:19777   */\n      0x80\n        /* \"#utility.yul\":19763:19772   */\n      dup3\n        /* \"#utility.yul\":19759:19778   */\n      add\n        /* \"#utility.yul\":19751:19778   */\n      swap1\n      pop\n        /* \"#utility.yul\":19788:19859   */\n      tag_399\n        /* \"#utility.yul\":19856:19857   */\n      0x00\n        /* \"#utility.yul\":19845:19854   */\n      dup4\n        /* \"#utility.yul\":19841:19858   */\n      add\n        /* \"#utility.yul\":19832:19838   */\n      dup8\n        /* \"#utility.yul\":19788:19859   */\n      tag_185\n      jump\t// in\n    tag_399:\n        /* \"#utility.yul\":19869:19937   */\n      tag_400\n        /* \"#utility.yul\":19933:19935   */\n      0x20\n        /* \"#utility.yul\":19922:19931   */\n      dup4\n        /* \"#utility.yul\":19918:19936   */\n      add\n        /* \"#utility.yul\":19909:19915   */\n      dup7\n        /* \"#utility.yul\":19869:19937   */\n      tag_192\n      jump\t// in\n    tag_400:\n        /* \"#utility.yul\":19947:20019   */\n      tag_401\n        /* \"#utility.yul\":20015:20017   */\n      0x40\n        /* \"#utility.yul\":20004:20013   */\n      dup4\n        /* \"#utility.yul\":20000:20018   */\n      add\n        /* \"#utility.yul\":19991:19997   */\n      dup6\n        /* \"#utility.yul\":19947:20019   */\n      tag_185\n      jump\t// in\n    tag_401:\n        /* \"#utility.yul\":20029:20101   */\n      tag_402\n        /* \"#utility.yul\":20097:20099   */\n      0x60\n        /* \"#utility.yul\":20086:20095   */\n      dup4\n        /* \"#utility.yul\":20082:20100   */\n      add\n        /* \"#utility.yul\":20073:20079   */\n      dup5\n        /* \"#utility.yul\":20029:20101   */\n      tag_185\n      jump\t// in\n    tag_402:\n        /* \"#utility.yul\":19563:20108   */\n      swap6\n      swap5\n      pop\n      pop\n      pop\n      pop\n      pop\n      jump\t// out\n\n    auxdata: 0xa2646970667358221220c56fcc67f4dde93941bf6688e42a1f16d371c48715a042947c0e5cbefd27823964736f6c63430008130033\n}\n",
				"bytecode": {
					"linkReferences": {},
					"object": "608060405234801561001057600080fd5b506114c9806100206000396000f3fe6080604052600436106100745760003560e01c80638da5cb5b1161004e5780638da5cb5b146101375780639e5d4c4914610162578063affed0e014610192578063fc0c546a146101bd5761007b565b806301ffc9a714610080578063150b7a02146100bd5780631626ba7e146100fa5761007b565b3661007b57005b600080fd5b34801561008c57600080fd5b506100a760048036038101906100a29190610a5e565b6101ea565b6040516100b49190610aa6565b60405180910390f35b3480156100c957600080fd5b506100e460048036038101906100df9190610bba565b610324565b6040516100f19190610c51565b60405180910390f35b34801561010657600080fd5b50610121600480360381019061011c9190610de3565b610339565b60405161012e9190610c51565b60405180910390f35b34801561014357600080fd5b5061014c610372565b6040516101599190610e4e565b60405180910390f35b61017c60048036038101906101779190610e69565b610483565b6040516101899190610f5c565b60405180910390f35b34801561019e57600080fd5b506101a7610631565b6040516101b49190610f8d565b60405180910390f35b3480156101c957600080fd5b506101d2610637565b6040516101e193929190610fa8565b60405180910390f35b60007f01ffc9a7000000000000000000000000000000000000000000000000000000007bffffffffffffffffffffffffffffffffffffffffffffffffffffffff1916827bffffffffffffffffffffffffffffffffffffffffffffffffffffffff191614806102b557507f400a0398000000000000000000000000000000000000000000000000000000007bffffffffffffffffffffffffffffffffffffffffffffffffffffffff1916827bffffffffffffffffffffffffffffffffffffffffffffffffffffffff1916145b8061031d57507f150b7a02000000000000000000000000000000000000000000000000000000007bffffffffffffffffffffffffffffffffffffffffffffffffffffffff1916827bffffffffffffffffffffffffffffffffffffffffffffffffffffffff1916145b9050919050565b600063150b7a0260e01b905095945050505050565b60008061034e610347610372565b858561064f565b9050801561036657631626ba7e60e01b91505061036c565b60009150505b92915050565b6000806000803073ffffffffffffffffffffffffffffffffffffffff1663fc0c546a6040518163ffffffff1660e01b8152600401606060405180830381865afa1580156103c3573d6000803e3d6000fd5b505050506040513d601f19601f820116820180604052508101906103e79190611009565b9250925092504683146104005760009350505050610480565b8173ffffffffffffffffffffffffffffffffffffffff16636352211e826040518263ffffffff1660e01b81526004016104399190610f8d565b602060405180830381865afa158015610456573d6000803e3d6000fd5b505050506040513d601f19601f8201168201806040525081019061047a919061105c565b93505050505b90565b606061048d610372565b73ffffffffffffffffffffffffffffffffffffffff163373ffffffffffffffffffffffffffffffffffffffff16146104fa576040517f08c379a00000000000000000000000000000000000000000000000000000000081526004016104f1906110e6565b60405180910390fd5b60008383905011610540576040517f08c379a000000000000000000000000000000000000000000000000000000000815260040161053790611178565b60405180910390fd5b600080815461054e906111c7565b91905081905550838573ffffffffffffffffffffffffffffffffffffffff167f47d99ad340f52da66535aff7e10da1ceb85a32bcbd9fa1c42314d194545e14d2858560405161059e92919061123c565b60405180910390a360008573ffffffffffffffffffffffffffffffffffffffff168585856040516105d0929190611290565b60006040518083038185875af1925050503d806000811461060d576040519150601f19603f3d011682016040523d82523d6000602084013e610612565b606091505b5080935081925050508061062857815160208301fd5b50949350505050565b60005481565b6000806000610644610815565b925092509250909192565b600080600061065e8585610895565b9150915060006004811115610676576106756112a9565b5b816004811115610689576106886112a9565b5b1480156106c157508573ffffffffffffffffffffffffffffffffffffffff168273ffffffffffffffffffffffffffffffffffffffff16145b156106d15760019250505061080e565b6000808773ffffffffffffffffffffffffffffffffffffffff16631626ba7e60e01b88886040516024016107069291906112e7565b604051602081830303815290604052907bffffffffffffffffffffffffffffffffffffffffffffffffffffffff19166020820180517bffffffffffffffffffffffffffffffffffffffffffffffffffffffff83818316178352505050506040516107709190611348565b600060405180830381855afa9150503d80600081146107ab576040519150601f19603f3d011682016040523d82523d6000602084013e6107b0565b606091505b50915091508180156107c3575060208151145b80156108075750631626ba7e60e01b7bffffffffffffffffffffffffffffffffffffffffffffffffffffffff1916818060200190518101906108059190611374565b145b9450505050505b9392505050565b600080600080606067ffffffffffffffff81111561083657610835610cb8565b5b6040519080825280601f01601f1916602001820160405280156108685781602001600182028036833780820191505090505b5090506060604d60208301303c8080602001905181019061088991906113df565b93509350935050909192565b60008060418351036108d65760008060006020860151925060408601519150606086015160001a90506108ca878285856108e6565b945094505050506108df565b60006002915091505b9250929050565b6000807f7fffffffffffffffffffffffffffffff5d576e7357a4501ddfe92f46681b20a08360001c11156109215760006003915091506109e9565b601b8560ff16141580156109395750601c8560ff1614155b1561094b5760006004915091506109e9565b600060018787878760405160008152602001604052604051610970949392919061144e565b6020604051602081039080840390855afa158015610992573d6000803e3d6000fd5b505050602060405103519050600073ffffffffffffffffffffffffffffffffffffffff168173ffffffffffffffffffffffffffffffffffffffff16036109e0576000600192509250506109e9565b80600092509250505b94509492505050565b6000604051905090565b600080fd5b600080fd5b60007fffffffff0000000000000000000000000000000000000000000000000000000082169050919050565b610a3b81610a06565b8114610a4657600080fd5b50565b600081359050610a5881610a32565b92915050565b600060208284031215610a7457610a736109fc565b5b6000610a8284828501610a49565b91505092915050565b60008115159050919050565b610aa081610a8b565b82525050565b6000602082019050610abb6000830184610a97565b92915050565b600073ffffffffffffffffffffffffffffffffffffffff82169050919050565b6000610aec82610ac1565b9050919050565b610afc81610ae1565b8114610b0757600080fd5b50565b600081359050610b1981610af3565b92915050565b6000819050919050565b610b3281610b1f565b8114610b3d57600080fd5b50565b600081359050610b4f81610b29565b92915050565b600080fd5b600080fd5b600080fd5b60008083601f840112610b7a57610b79610b55565b5b8235905067ffffffffffffffff811115610b9757610b96610b5a565b5b602083019150836001820283011115610bb357610bb2610b5f565b5b9250929050565b600080600080600060808688031215610bd657610bd56109fc565b5b6000610be488828901610b0a565b9550506020610bf588828901610b0a565b9450506040610c0688828901610b40565b935050606086013567ffffffffffffffff811115610c2757610c26610a01565b5b610c3388828901610b64565b92509250509295509295909350565b610c4b81610a06565b82525050565b6000602082019050610c666000830184610c42565b92915050565b6000819050919050565b610c7f81610c6c565b8114610c8a57600080fd5b50565b600081359050610c9c81610c76565b92915050565b600080fd5b6000601f19601f8301169050919050565b7f4e487b7100000000000000000000000000000000000000000000000000000000600052604160045260246000fd5b610cf082610ca7565b810181811067ffffffffffffffff82111715610d0f57610d0e610cb8565b5b80604052505050565b6000610d226109f2565b9050610d2e8282610ce7565b919050565b600067ffffffffffffffff821115610d4e57610d4d610cb8565b5b610d5782610ca7565b9050602081019050919050565b82818337600083830152505050565b6000610d86610d8184610d33565b610d18565b905082815260208101848484011115610da257610da1610ca2565b5b610dad848285610d64565b509392505050565b600082601f830112610dca57610dc9610b55565b5b8135610dda848260208601610d73565b91505092915050565b60008060408385031215610dfa57610df96109fc565b5b6000610e0885828601610c8d565b925050602083013567ffffffffffffffff811115610e2957610e28610a01565b5b610e3585828601610db5565b9150509250929050565b610e4881610ae1565b82525050565b6000602082019050610e636000830184610e3f565b92915050565b60008060008060608587031215610e8357610e826109fc565b5b6000610e9187828801610b0a565b9450506020610ea287828801610b40565b935050604085013567ffffffffffffffff811115610ec357610ec2610a01565b5b610ecf87828801610b64565b925092505092959194509250565b600081519050919050565b600082825260208201905092915050565b60005b83811015610f17578082015181840152602081019050610efc565b60008484015250505050565b6000610f2e82610edd565b610f388185610ee8565b9350610f48818560208601610ef9565b610f5181610ca7565b840191505092915050565b60006020820190508181036000830152610f768184610f23565b905092915050565b610f8781610b1f565b82525050565b6000602082019050610fa26000830184610f7e565b92915050565b6000606082019050610fbd6000830186610f7e565b610fca6020830185610e3f565b610fd76040830184610f7e565b949350505050565b600081519050610fee81610b29565b92915050565b60008151905061100381610af3565b92915050565b600080600060608486031215611022576110216109fc565b5b600061103086828701610fdf565b935050602061104186828701610ff4565b925050604061105286828701610fdf565b9150509250925092565b600060208284031215611072576110716109fc565b5b600061108084828501610ff4565b91505092915050565b600082825260208201905092915050565b7f4e6f7420746f6b656e206f776e65720000000000000000000000000000000000600082015250565b60006110d0600f83611089565b91506110db8261109a565b602082019050919050565b600060208201905081810360008301526110ff816110c3565b9050919050565b7f596f7520646f206e6f74206861766520656e6f75676820706f696e747320746f60008201527f206d696e74000000000000000000000000000000000000000000000000000000602082015250565b6000611162602583611089565b915061116d82611106565b604082019050919050565b6000602082019050818103600083015261119181611155565b9050919050565b7f4e487b7100000000000000000000000000000000000000000000000000000000600052601160045260246000fd5b60006111d282610b1f565b91507fffffffffffffffffffffffffffffffffffffffffffffffffffffffffffffffff820361120457611203611198565b5b600182019050919050565b600061121b8385610ee8565b9350611228838584610d64565b61123183610ca7565b840190509392505050565b6000602082019050818103600083015261125781848661120f565b90509392505050565b600081905092915050565b60006112778385611260565b9350611284838584610d64565b82840190509392505050565b600061129d82848661126b565b91508190509392505050565b7f4e487b7100000000000000000000000000000000000000000000000000000000600052602160045260246000fd5b6112e181610c6c565b82525050565b60006040820190506112fc60008301856112d8565b818103602083015261130e8184610f23565b90509392505050565b600061132282610edd565b61132c8185611260565b935061133c818560208601610ef9565b80840191505092915050565b60006113548284611317565b915081905092915050565b60008151905061136e81610c76565b92915050565b60006020828403121561138a576113896109fc565b5b60006113988482850161135f565b91505092915050565b60006113ac82610ac1565b9050919050565b6113bc816113a1565b81146113c757600080fd5b50565b6000815190506113d9816113b3565b92915050565b6000806000606084860312156113f8576113f76109fc565b5b600061140686828701610fdf565b9350506020611417868287016113ca565b925050604061142886828701610fdf565b9150509250925092565b600060ff82169050919050565b61144881611432565b82525050565b600060808201905061146360008301876112d8565b611470602083018661143f565b61147d60408301856112d8565b61148a60608301846112d8565b9594505050505056fea2646970667358221220c56fcc67f4dde93941bf6688e42a1f16d371c48715a042947c0e5cbefd27823964736f6c63430008130033",
					"opcodes": "PUSH1 0x80 PUSH1 0x40 MSTORE CALLVALUE DUP1 ISZERO PUSH2 0x10 JUMPI PUSH1 0x0 DUP1 REVERT JUMPDEST POP PUSH2 0x14C9 DUP1 PUSH2 0x20 PUSH1 0x0 CODECOPY PUSH1 0x0 RETURN INVALID PUSH1 0x80 PUSH1 0x40 MSTORE PUSH1 0x4 CALLDATASIZE LT PUSH2 0x74 JUMPI PUSH1 0x0 CALLDATALOAD PUSH1 0xE0 SHR DUP1 PUSH4 0x8DA5CB5B GT PUSH2 0x4E JUMPI DUP1 PUSH4 0x8DA5CB5B EQ PUSH2 0x137 JUMPI DUP1 PUSH4 0x9E5D4C49 EQ PUSH2 0x162 JUMPI DUP1 PUSH4 0xAFFED0E0 EQ PUSH2 0x192 JUMPI DUP1 PUSH4 0xFC0C546A EQ PUSH2 0x1BD JUMPI PUSH2 0x7B JUMP JUMPDEST DUP1 PUSH4 0x1FFC9A7 EQ PUSH2 0x80 JUMPI DUP1 PUSH4 0x150B7A02 EQ PUSH2 0xBD JUMPI DUP1 PUSH4 0x1626BA7E EQ PUSH2 0xFA JUMPI PUSH2 0x7B JUMP JUMPDEST CALLDATASIZE PUSH2 0x7B JUMPI STOP JUMPDEST PUSH1 0x0 DUP1 REVERT JUMPDEST CALLVALUE DUP1 ISZERO PUSH2 0x8C JUMPI PUSH1 0x0 DUP1 REVERT JUMPDEST POP PUSH2 0xA7 PUSH1 0x4 DUP1 CALLDATASIZE SUB DUP2 ADD SWAP1 PUSH2 0xA2 SWAP2 SWAP1 PUSH2 0xA5E JUMP JUMPDEST PUSH2 0x1EA JUMP JUMPDEST PUSH1 0x40 MLOAD PUSH2 0xB4 SWAP2 SWAP1 PUSH2 0xAA6 JUMP JUMPDEST PUSH1 0x40 MLOAD DUP1 SWAP2 SUB SWAP1 RETURN JUMPDEST CALLVALUE DUP1 ISZERO PUSH2 0xC9 JUMPI PUSH1 0x0 DUP1 REVERT JUMPDEST POP PUSH2 0xE4 PUSH1 0x4 DUP1 CALLDATASIZE SUB DUP2 ADD SWAP1 PUSH2 0xDF SWAP2 SWAP1 PUSH2 0xBBA JUMP JUMPDEST PUSH2 0x324 JUMP JUMPDEST PUSH1 0x40 MLOAD PUSH2 0xF1 SWAP2 SWAP1 PUSH2 0xC51 JUMP JUMPDEST PUSH1 0x40 MLOAD DUP1 SWAP2 SUB SWAP1 RETURN JUMPDEST CALLVALUE DUP1 ISZERO PUSH2 0x106 JUMPI PUSH1 0x0 DUP1 REVERT JUMPDEST POP PUSH2 0x121 PUSH1 0x4 DUP1 CALLDATASIZE SUB DUP2 ADD SWAP1 PUSH2 0x11C SWAP2 SWAP1 PUSH2 0xDE3 JUMP JUMPDEST PUSH2 0x339 JUMP JUMPDEST PUSH1 0x40 MLOAD PUSH2 0x12E SWAP2 SWAP1 PUSH2 0xC51 JUMP JUMPDEST PUSH1 0x40 MLOAD DUP1 SWAP2 SUB SWAP1 RETURN JUMPDEST CALLVALUE DUP1 ISZERO PUSH2 0x143 JUMPI PUSH1 0x0 DUP1 REVERT JUMPDEST POP PUSH2 0x14C PUSH2 0x372 JUMP JUMPDEST PUSH1 0x40 MLOAD PUSH2 0x159 SWAP2 SWAP1 PUSH2 0xE4E JUMP JUMPDEST PUSH1 0x40 MLOAD DUP1 SWAP2 SUB SWAP1 RETURN JUMPDEST PUSH2 0x17C PUSH1 0x4 DUP1 CALLDATASIZE SUB DUP2 ADD SWAP1 PUSH2 0x177 SWAP2 SWAP1 PUSH2 0xE69 JUMP JUMPDEST PUSH2 0x483 JUMP JUMPDEST PUSH1 0x40 MLOAD PUSH2 0x189 SWAP2 SWAP1 PUSH2 0xF5C JUMP JUMPDEST PUSH1 0x40 MLOAD DUP1 SWAP2 SUB SWAP1 RETURN JUMPDEST CALLVALUE DUP1 ISZERO PUSH2 0x19E JUMPI PUSH1 0x0 DUP1 REVERT JUMPDEST POP PUSH2 0x1A7 PUSH2 0x631 JUMP JUMPDEST PUSH1 0x40 MLOAD PUSH2 0x1B4 SWAP2 SWAP1 PUSH2 0xF8D JUMP JUMPDEST PUSH1 0x40 MLOAD DUP1 SWAP2 SUB SWAP1 RETURN JUMPDEST CALLVALUE DUP1 ISZERO PUSH2 0x1C9 JUMPI PUSH1 0x0 DUP1 REVERT JUMPDEST POP PUSH2 0x1D2 PUSH2 0x637 JUMP JUMPDEST PUSH1 0x40 MLOAD PUSH2 0x1E1 SWAP4 SWAP3 SWAP2 SWAP1 PUSH2 0xFA8 JUMP JUMPDEST PUSH1 0x40 MLOAD DUP1 SWAP2 SUB SWAP1 RETURN JUMPDEST PUSH1 0x0 PUSH32 0x1FFC9A700000000000000000000000000000000000000000000000000000000 PUSH28 0xFFFFFFFFFFFFFFFFFFFFFFFFFFFFFFFFFFFFFFFFFFFFFFFFFFFFFFFF NOT AND DUP3 PUSH28 0xFFFFFFFFFFFFFFFFFFFFFFFFFFFFFFFFFFFFFFFFFFFFFFFFFFFFFFFF NOT AND EQ DUP1 PUSH2 0x2B5 JUMPI POP PUSH32 0x400A039800000000000000000000000000000000000000000000000000000000 PUSH28 0xFFFFFFFFFFFFFFFFFFFFFFFFFFFFFFFFFFFFFFFFFFFFFFFFFFFFFFFF NOT AND DUP3 PUSH28 0xFFFFFFFFFFFFFFFFFFFFFFFFFFFFFFFFFFFFFFFFFFFFFFFFFFFFFFFF NOT AND EQ JUMPDEST DUP1 PUSH2 0x31D JUMPI POP PUSH32 0x150B7A0200000000000000000000000000000000000000000000000000000000 PUSH28 0xFFFFFFFFFFFFFFFFFFFFFFFFFFFFFFFFFFFFFFFFFFFFFFFFFFFFFFFF NOT AND DUP3 PUSH28 0xFFFFFFFFFFFFFFFFFFFFFFFFFFFFFFFFFFFFFFFFFFFFFFFFFFFFFFFF NOT AND EQ JUMPDEST SWAP1 POP SWAP2 SWAP1 POP JUMP JUMPDEST PUSH1 0x0 PUSH4 0x150B7A02 PUSH1 0xE0 SHL SWAP1 POP SWAP6 SWAP5 POP POP POP POP POP JUMP JUMPDEST PUSH1 0x0 DUP1 PUSH2 0x34E PUSH2 0x347 PUSH2 0x372 JUMP JUMPDEST DUP6 DUP6 PUSH2 0x64F JUMP JUMPDEST SWAP1 POP DUP1 ISZERO PUSH2 0x366 JUMPI PUSH4 0x1626BA7E PUSH1 0xE0 SHL SWAP2 POP POP PUSH2 0x36C JUMP JUMPDEST PUSH1 0x0 SWAP2 POP POP JUMPDEST SWAP3 SWAP2 POP POP JUMP JUMPDEST PUSH1 0x0 DUP1 PUSH1 0x0 DUP1 ADDRESS PUSH20 0xFFFFFFFFFFFFFFFFFFFFFFFFFFFFFFFFFFFFFFFF AND PUSH4 0xFC0C546A PUSH1 0x40 MLOAD DUP2 PUSH4 0xFFFFFFFF AND PUSH1 0xE0 SHL DUP2 MSTORE PUSH1 0x4 ADD PUSH1 0x60 PUSH1 0x40 MLOAD DUP1 DUP4 SUB DUP2 DUP7 GAS STATICCALL ISZERO DUP1 ISZERO PUSH2 0x3C3 JUMPI RETURNDATASIZE PUSH1 0x0 DUP1 RETURNDATACOPY RETURNDATASIZE PUSH1 0x0 REVERT JUMPDEST POP POP POP POP PUSH1 0x40 MLOAD RETURNDATASIZE PUSH1 0x1F NOT PUSH1 0x1F DUP3 ADD AND DUP3 ADD DUP1 PUSH1 0x40 MSTORE POP DUP2 ADD SWAP1 PUSH2 0x3E7 SWAP2 SWAP1 PUSH2 0x1009 JUMP JUMPDEST SWAP3 POP SWAP3 POP SWAP3 POP CHAINID DUP4 EQ PUSH2 0x400 JUMPI PUSH1 0x0 SWAP4 POP POP POP POP PUSH2 0x480 JUMP JUMPDEST DUP2 PUSH20 0xFFFFFFFFFFFFFFFFFFFFFFFFFFFFFFFFFFFFFFFF AND PUSH4 0x6352211E DUP3 PUSH1 0x40 MLOAD DUP3 PUSH4 0xFFFFFFFF AND PUSH1 0xE0 SHL DUP2 MSTORE PUSH1 0x4 ADD PUSH2 0x439 SWAP2 SWAP1 PUSH2 0xF8D JUMP JUMPDEST PUSH1 0x20 PUSH1 0x40 MLOAD DUP1 DUP4 SUB DUP2 DUP7 GAS STATICCALL ISZERO DUP1 ISZERO PUSH2 0x456 JUMPI RETURNDATASIZE PUSH1 0x0 DUP1 RETURNDATACOPY RETURNDATASIZE PUSH1 0x0 REVERT JUMPDEST POP POP POP POP PUSH1 0x40 MLOAD RETURNDATASIZE PUSH1 0x1F NOT PUSH1 0x1F DUP3 ADD AND DUP3 ADD DUP1 PUSH1 0x40 MSTORE POP DUP2 ADD SWAP1 PUSH2 0x47A SWAP2 SWAP1 PUSH2 0x105C JUMP JUMPDEST SWAP4 POP POP POP POP JUMPDEST SWAP1 JUMP JUMPDEST PUSH1 0x60 PUSH2 0x48D PUSH2 0x372 JUMP JUMPDEST PUSH20 0xFFFFFFFFFFFFFFFFFFFFFFFFFFFFFFFFFFFFFFFF AND CALLER PUSH20 0xFFFFFFFFFFFFFFFFFFFFFFFFFFFFFFFFFFFFFFFF AND EQ PUSH2 0x4FA JUMPI PUSH1 0x40 MLOAD PUSH32 0x8C379A000000000000000000000000000000000000000000000000000000000 DUP2 MSTORE PUSH1 0x4 ADD PUSH2 0x4F1 SWAP1 PUSH2 0x10E6 JUMP JUMPDEST PUSH1 0x40 MLOAD DUP1 SWAP2 SUB SWAP1 REVERT JUMPDEST PUSH1 0x0 DUP4 DUP4 SWAP1 POP GT PUSH2 0x540 JUMPI PUSH1 0x40 MLOAD PUSH32 0x8C379A000000000000000000000000000000000000000000000000000000000 DUP2 MSTORE PUSH1 0x4 ADD PUSH2 0x537 SWAP1 PUSH2 0x1178 JUMP JUMPDEST PUSH1 0x40 MLOAD DUP1 SWAP2 SUB SWAP1 REVERT JUMPDEST PUSH1 0x0 DUP1 DUP2 SLOAD PUSH2 0x54E SWAP1 PUSH2 0x11C7 JUMP JUMPDEST SWAP2 SWAP1 POP DUP2 SWAP1 SSTORE POP DUP4 DUP6 PUSH20 0xFFFFFFFFFFFFFFFFFFFFFFFFFFFFFFFFFFFFFFFF AND PUSH32 0x47D99AD340F52DA66535AFF7E10DA1CEB85A32BCBD9FA1C42314D194545E14D2 DUP6 DUP6 PUSH1 0x40 MLOAD PUSH2 0x59E SWAP3 SWAP2 SWAP1 PUSH2 0x123C JUMP JUMPDEST PUSH1 0x40 MLOAD DUP1 SWAP2 SUB SWAP1 LOG3 PUSH1 0x0 DUP6 PUSH20 0xFFFFFFFFFFFFFFFFFFFFFFFFFFFFFFFFFFFFFFFF AND DUP6 DUP6 DUP6 PUSH1 0x40 MLOAD PUSH2 0x5D0 SWAP3 SWAP2 SWAP1 PUSH2 0x1290 JUMP JUMPDEST PUSH1 0x0 PUSH1 0x40 MLOAD DUP1 DUP4 SUB DUP2 DUP6 DUP8 GAS CALL SWAP3 POP POP POP RETURNDATASIZE DUP1 PUSH1 0x0 DUP2 EQ PUSH2 0x60D JUMPI PUSH1 0x40 MLOAD SWAP2 POP PUSH1 0x1F NOT PUSH1 0x3F RETURNDATASIZE ADD AND DUP3 ADD PUSH1 0x40 MSTORE RETURNDATASIZE DUP3 MSTORE RETURNDATASIZE PUSH1 0x0 PUSH1 0x20 DUP5 ADD RETURNDATACOPY PUSH2 0x612 JUMP JUMPDEST PUSH1 0x60 SWAP2 POP JUMPDEST POP DUP1 SWAP4 POP DUP2 SWAP3 POP POP POP DUP1 PUSH2 0x628 JUMPI DUP2 MLOAD PUSH1 0x20 DUP4 ADD REVERT JUMPDEST POP SWAP5 SWAP4 POP POP POP POP JUMP JUMPDEST PUSH1 0x0 SLOAD DUP2 JUMP JUMPDEST PUSH1 0x0 DUP1 PUSH1 0x0 PUSH2 0x644 PUSH2 0x815 JUMP JUMPDEST SWAP3 POP SWAP3 POP SWAP3 POP SWAP1 SWAP2 SWAP3 JUMP JUMPDEST PUSH1 0x0 DUP1 PUSH1 0x0 PUSH2 0x65E DUP6 DUP6 PUSH2 0x895 JUMP JUMPDEST SWAP2 POP SWAP2 POP PUSH1 0x0 PUSH1 0x4 DUP2 GT ISZERO PUSH2 0x676 JUMPI PUSH2 0x675 PUSH2 0x12A9 JUMP JUMPDEST JUMPDEST DUP2 PUSH1 0x4 DUP2 GT ISZERO PUSH2 0x689 JUMPI PUSH2 0x688 PUSH2 0x12A9 JUMP JUMPDEST JUMPDEST EQ DUP1 ISZERO PUSH2 0x6C1 JUMPI POP DUP6 PUSH20 0xFFFFFFFFFFFFFFFFFFFFFFFFFFFFFFFFFFFFFFFF AND DUP3 PUSH20 0xFFFFFFFFFFFFFFFFFFFFFFFFFFFFFFFFFFFFFFFF AND EQ JUMPDEST ISZERO PUSH2 0x6D1 JUMPI PUSH1 0x1 SWAP3 POP POP POP PUSH2 0x80E JUMP JUMPDEST PUSH1 0x0 DUP1 DUP8 PUSH20 0xFFFFFFFFFFFFFFFFFFFFFFFFFFFFFFFFFFFFFFFF AND PUSH4 0x1626BA7E PUSH1 0xE0 SHL DUP9 DUP9 PUSH1 0x40 MLOAD PUSH1 0x24 ADD PUSH2 0x706 SWAP3 SWAP2 SWAP1 PUSH2 0x12E7 JUMP JUMPDEST PUSH1 0x40 MLOAD PUSH1 0x20 DUP2 DUP4 SUB SUB DUP2 MSTORE SWAP1 PUSH1 0x40 MSTORE SWAP1 PUSH28 0xFFFFFFFFFFFFFFFFFFFFFFFFFFFFFFFFFFFFFFFFFFFFFFFFFFFFFFFF NOT AND PUSH1 0x20 DUP3 ADD DUP1 MLOAD PUSH28 0xFFFFFFFFFFFFFFFFFFFFFFFFFFFFFFFFFFFFFFFFFFFFFFFFFFFFFFFF DUP4 DUP2 DUP4 AND OR DUP4 MSTORE POP POP POP POP PUSH1 0x40 MLOAD PUSH2 0x770 SWAP2 SWAP1 PUSH2 0x1348 JUMP JUMPDEST PUSH1 0x0 PUSH1 0x40 MLOAD DUP1 DUP4 SUB DUP2 DUP6 GAS STATICCALL SWAP2 POP POP RETURNDATASIZE DUP1 PUSH1 0x0 DUP2 EQ PUSH2 0x7AB JUMPI PUSH1 0x40 MLOAD SWAP2 POP PUSH1 0x1F NOT PUSH1 0x3F RETURNDATASIZE ADD AND DUP3 ADD PUSH1 0x40 MSTORE RETURNDATASIZE DUP3 MSTORE RETURNDATASIZE PUSH1 0x0 PUSH1 0x20 DUP5 ADD RETURNDATACOPY PUSH2 0x7B0 JUMP JUMPDEST PUSH1 0x60 SWAP2 POP JUMPDEST POP SWAP2 POP SWAP2 POP DUP2 DUP1 ISZERO PUSH2 0x7C3 JUMPI POP PUSH1 0x20 DUP2 MLOAD EQ JUMPDEST DUP1 ISZERO PUSH2 0x807 JUMPI POP PUSH4 0x1626BA7E PUSH1 0xE0 SHL PUSH28 0xFFFFFFFFFFFFFFFFFFFFFFFFFFFFFFFFFFFFFFFFFFFFFFFFFFFFFFFF NOT AND DUP2 DUP1 PUSH1 0x20 ADD SWAP1 MLOAD DUP2 ADD SWAP1 PUSH2 0x805 SWAP2 SWAP1 PUSH2 0x1374 JUMP JUMPDEST EQ JUMPDEST SWAP5 POP POP POP POP POP JUMPDEST SWAP4 SWAP3 POP POP POP JUMP JUMPDEST PUSH1 0x0 DUP1 PUSH1 0x0 DUP1 PUSH1 0x60 PUSH8 0xFFFFFFFFFFFFFFFF DUP2 GT ISZERO PUSH2 0x836 JUMPI PUSH2 0x835 PUSH2 0xCB8 JUMP JUMPDEST JUMPDEST PUSH1 0x40 MLOAD SWAP1 DUP1 DUP3 MSTORE DUP1 PUSH1 0x1F ADD PUSH1 0x1F NOT AND PUSH1 0x20 ADD DUP3 ADD PUSH1 0x40 MSTORE DUP1 ISZERO PUSH2 0x868 JUMPI DUP2 PUSH1 0x20 ADD PUSH1 0x1 DUP3 MUL DUP1 CALLDATASIZE DUP4 CALLDATACOPY DUP1 DUP3 ADD SWAP2 POP POP SWAP1 POP JUMPDEST POP SWAP1 POP PUSH1 0x60 PUSH1 0x4D PUSH1 0x20 DUP4 ADD ADDRESS EXTCODECOPY DUP1 DUP1 PUSH1 0x20 ADD SWAP1 MLOAD DUP2 ADD SWAP1 PUSH2 0x889 SWAP2 SWAP1 PUSH2 0x13DF JUMP JUMPDEST SWAP4 POP SWAP4 POP SWAP4 POP POP SWAP1 SWAP2 SWAP3 JUMP JUMPDEST PUSH1 0x0 DUP1 PUSH1 0x41 DUP4 MLOAD SUB PUSH2 0x8D6 JUMPI PUSH1 0x0 DUP1 PUSH1 0x0 PUSH1 0x20 DUP7 ADD MLOAD SWAP3 POP PUSH1 0x40 DUP7 ADD MLOAD SWAP2 POP PUSH1 0x60 DUP7 ADD MLOAD PUSH1 0x0 BYTE SWAP1 POP PUSH2 0x8CA DUP8 DUP3 DUP6 DUP6 PUSH2 0x8E6 JUMP JUMPDEST SWAP5 POP SWAP5 POP POP POP POP PUSH2 0x8DF JUMP JUMPDEST PUSH1 0x0 PUSH1 0x2 SWAP2 POP SWAP2 POP JUMPDEST SWAP3 POP SWAP3 SWAP1 POP JUMP JUMPDEST PUSH1 0x0 DUP1 PUSH32 0x7FFFFFFFFFFFFFFFFFFFFFFFFFFFFFFF5D576E7357A4501DDFE92F46681B20A0 DUP4 PUSH1 0x0 SHR GT ISZERO PUSH2 0x921 JUMPI PUSH1 0x0 PUSH1 0x3 SWAP2 POP SWAP2 POP PUSH2 0x9E9 JUMP JUMPDEST PUSH1 0x1B DUP6 PUSH1 0xFF AND EQ ISZERO DUP1 ISZERO PUSH2 0x939 JUMPI POP PUSH1 0x1C DUP6 PUSH1 0xFF AND EQ ISZERO JUMPDEST ISZERO PUSH2 0x94B JUMPI PUSH1 0x0 PUSH1 0x4 SWAP2 POP SWAP2 POP PUSH2 0x9E9 JUMP JUMPDEST PUSH1 0x0 PUSH1 0x1 DUP8 DUP8 DUP8 DUP8 PUSH1 0x40 MLOAD PUSH1 0x0 DUP2 MSTORE PUSH1 0x20 ADD PUSH1 0x40 MSTORE PUSH1 0x40 MLOAD PUSH2 0x970 SWAP5 SWAP4 SWAP3 SWAP2 SWAP1 PUSH2 0x144E JUMP JUMPDEST PUSH1 0x20 PUSH1 0x40 MLOAD PUSH1 0x20 DUP2 SUB SWAP1 DUP1 DUP5 SUB SWAP1 DUP6 GAS STATICCALL ISZERO DUP1 ISZERO PUSH2 0x992 JUMPI RETURNDATASIZE PUSH1 0x0 DUP1 RETURNDATACOPY RETURNDATASIZE PUSH1 0x0 REVERT JUMPDEST POP POP POP PUSH1 0x20 PUSH1 0x40 MLOAD SUB MLOAD SWAP1 POP PUSH1 0x0 PUSH20 0xFFFFFFFFFFFFFFFFFFFFFFFFFFFFFFFFFFFFFFFF AND DUP2 PUSH20 0xFFFFFFFFFFFFFFFFFFFFFFFFFFFFFFFFFFFFFFFF AND SUB PUSH2 0x9E0 JUMPI PUSH1 0x0 PUSH1 0x1 SWAP3 POP SWAP3 POP POP PUSH2 0x9E9 JUMP JUMPDEST DUP1 PUSH1 0x0 SWAP3 POP SWAP3 POP POP JUMPDEST SWAP5 POP SWAP5 SWAP3 POP POP POP JUMP JUMPDEST PUSH1 0x0 PUSH1 0x40 MLOAD SWAP1 POP SWAP1 JUMP JUMPDEST PUSH1 0x0 DUP1 REVERT JUMPDEST PUSH1 0x0 DUP1 REVERT JUMPDEST PUSH1 0x0 PUSH32 0xFFFFFFFF00000000000000000000000000000000000000000000000000000000 DUP3 AND SWAP1 POP SWAP2 SWAP1 POP JUMP JUMPDEST PUSH2 0xA3B DUP2 PUSH2 0xA06 JUMP JUMPDEST DUP2 EQ PUSH2 0xA46 JUMPI PUSH1 0x0 DUP1 REVERT JUMPDEST POP JUMP JUMPDEST PUSH1 0x0 DUP2 CALLDATALOAD SWAP1 POP PUSH2 0xA58 DUP2 PUSH2 0xA32 JUMP JUMPDEST SWAP3 SWAP2 POP POP JUMP JUMPDEST PUSH1 0x0 PUSH1 0x20 DUP3 DUP5 SUB SLT ISZERO PUSH2 0xA74 JUMPI PUSH2 0xA73 PUSH2 0x9FC JUMP JUMPDEST JUMPDEST PUSH1 0x0 PUSH2 0xA82 DUP5 DUP3 DUP6 ADD PUSH2 0xA49 JUMP JUMPDEST SWAP2 POP POP SWAP3 SWAP2 POP POP JUMP JUMPDEST PUSH1 0x0 DUP2 ISZERO ISZERO SWAP1 POP SWAP2 SWAP1 POP JUMP JUMPDEST PUSH2 0xAA0 DUP2 PUSH2 0xA8B JUMP JUMPDEST DUP3 MSTORE POP POP JUMP JUMPDEST PUSH1 0x0 PUSH1 0x20 DUP3 ADD SWAP1 POP PUSH2 0xABB PUSH1 0x0 DUP4 ADD DUP5 PUSH2 0xA97 JUMP JUMPDEST SWAP3 SWAP2 POP POP JUMP JUMPDEST PUSH1 0x0 PUSH20 0xFFFFFFFFFFFFFFFFFFFFFFFFFFFFFFFFFFFFFFFF DUP3 AND SWAP1 POP SWAP2 SWAP1 POP JUMP JUMPDEST PUSH1 0x0 PUSH2 0xAEC DUP3 PUSH2 0xAC1 JUMP JUMPDEST SWAP1 POP SWAP2 SWAP1 POP JUMP JUMPDEST PUSH2 0xAFC DUP2 PUSH2 0xAE1 JUMP JUMPDEST DUP2 EQ PUSH2 0xB07 JUMPI PUSH1 0x0 DUP1 REVERT JUMPDEST POP JUMP JUMPDEST PUSH1 0x0 DUP2 CALLDATALOAD SWAP1 POP PUSH2 0xB19 DUP2 PUSH2 0xAF3 JUMP JUMPDEST SWAP3 SWAP2 POP POP JUMP JUMPDEST PUSH1 0x0 DUP2 SWAP1 POP SWAP2 SWAP1 POP JUMP JUMPDEST PUSH2 0xB32 DUP2 PUSH2 0xB1F JUMP JUMPDEST DUP2 EQ PUSH2 0xB3D JUMPI PUSH1 0x0 DUP1 REVERT JUMPDEST POP JUMP JUMPDEST PUSH1 0x0 DUP2 CALLDATALOAD SWAP1 POP PUSH2 0xB4F DUP2 PUSH2 0xB29 JUMP JUMPDEST SWAP3 SWAP2 POP POP JUMP JUMPDEST PUSH1 0x0 DUP1 REVERT JUMPDEST PUSH1 0x0 DUP1 REVERT JUMPDEST PUSH1 0x0 DUP1 REVERT JUMPDEST PUSH1 0x0 DUP1 DUP4 PUSH1 0x1F DUP5 ADD SLT PUSH2 0xB7A JUMPI PUSH2 0xB79 PUSH2 0xB55 JUMP JUMPDEST JUMPDEST DUP3 CALLDATALOAD SWAP1 POP PUSH8 0xFFFFFFFFFFFFFFFF DUP2 GT ISZERO PUSH2 0xB97 JUMPI PUSH2 0xB96 PUSH2 0xB5A JUMP JUMPDEST JUMPDEST PUSH1 0x20 DUP4 ADD SWAP2 POP DUP4 PUSH1 0x1 DUP3 MUL DUP4 ADD GT ISZERO PUSH2 0xBB3 JUMPI PUSH2 0xBB2 PUSH2 0xB5F JUMP JUMPDEST JUMPDEST SWAP3 POP SWAP3 SWAP1 POP JUMP JUMPDEST PUSH1 0x0 DUP1 PUSH1 0x0 DUP1 PUSH1 0x0 PUSH1 0x80 DUP7 DUP9 SUB SLT ISZERO PUSH2 0xBD6 JUMPI PUSH2 0xBD5 PUSH2 0x9FC JUMP JUMPDEST JUMPDEST PUSH1 0x0 PUSH2 0xBE4 DUP9 DUP3 DUP10 ADD PUSH2 0xB0A JUMP JUMPDEST SWAP6 POP POP PUSH1 0x20 PUSH2 0xBF5 DUP9 DUP3 DUP10 ADD PUSH2 0xB0A JUMP JUMPDEST SWAP5 POP POP PUSH1 0x40 PUSH2 0xC06 DUP9 DUP3 DUP10 ADD PUSH2 0xB40 JUMP JUMPDEST SWAP4 POP POP PUSH1 0x60 DUP7 ADD CALLDATALOAD PUSH8 0xFFFFFFFFFFFFFFFF DUP2 GT ISZERO PUSH2 0xC27 JUMPI PUSH2 0xC26 PUSH2 0xA01 JUMP JUMPDEST JUMPDEST PUSH2 0xC33 DUP9 DUP3 DUP10 ADD PUSH2 0xB64 JUMP JUMPDEST SWAP3 POP SWAP3 POP POP SWAP3 SWAP6 POP SWAP3 SWAP6 SWAP1 SWAP4 POP JUMP JUMPDEST PUSH2 0xC4B DUP2 PUSH2 0xA06 JUMP JUMPDEST DUP3 MSTORE POP POP JUMP JUMPDEST PUSH1 0x0 PUSH1 0x20 DUP3 ADD SWAP1 POP PUSH2 0xC66 PUSH1 0x0 DUP4 ADD DUP5 PUSH2 0xC42 JUMP JUMPDEST SWAP3 SWAP2 POP POP JUMP JUMPDEST PUSH1 0x0 DUP2 SWAP1 POP SWAP2 SWAP1 POP JUMP JUMPDEST PUSH2 0xC7F DUP2 PUSH2 0xC6C JUMP JUMPDEST DUP2 EQ PUSH2 0xC8A JUMPI PUSH1 0x0 DUP1 REVERT JUMPDEST POP JUMP JUMPDEST PUSH1 0x0 DUP2 CALLDATALOAD SWAP1 POP PUSH2 0xC9C DUP2 PUSH2 0xC76 JUMP JUMPDEST SWAP3 SWAP2 POP POP JUMP JUMPDEST PUSH1 0x0 DUP1 REVERT JUMPDEST PUSH1 0x0 PUSH1 0x1F NOT PUSH1 0x1F DUP4 ADD AND SWAP1 POP SWAP2 SWAP1 POP JUMP JUMPDEST PUSH32 0x4E487B7100000000000000000000000000000000000000000000000000000000 PUSH1 0x0 MSTORE PUSH1 0x41 PUSH1 0x4 MSTORE PUSH1 0x24 PUSH1 0x0 REVERT JUMPDEST PUSH2 0xCF0 DUP3 PUSH2 0xCA7 JUMP JUMPDEST DUP2 ADD DUP2 DUP2 LT PUSH8 0xFFFFFFFFFFFFFFFF DUP3 GT OR ISZERO PUSH2 0xD0F JUMPI PUSH2 0xD0E PUSH2 0xCB8 JUMP JUMPDEST JUMPDEST DUP1 PUSH1 0x40 MSTORE POP POP POP JUMP JUMPDEST PUSH1 0x0 PUSH2 0xD22 PUSH2 0x9F2 JUMP JUMPDEST SWAP1 POP PUSH2 0xD2E DUP3 DUP3 PUSH2 0xCE7 JUMP JUMPDEST SWAP2 SWAP1 POP JUMP JUMPDEST PUSH1 0x0 PUSH8 0xFFFFFFFFFFFFFFFF DUP3 GT ISZERO PUSH2 0xD4E JUMPI PUSH2 0xD4D PUSH2 0xCB8 JUMP JUMPDEST JUMPDEST PUSH2 0xD57 DUP3 PUSH2 0xCA7 JUMP JUMPDEST SWAP1 POP PUSH1 0x20 DUP2 ADD SWAP1 POP SWAP2 SWAP1 POP JUMP JUMPDEST DUP3 DUP2 DUP4 CALLDATACOPY PUSH1 0x0 DUP4 DUP4 ADD MSTORE POP POP POP JUMP JUMPDEST PUSH1 0x0 PUSH2 0xD86 PUSH2 0xD81 DUP5 PUSH2 0xD33 JUMP JUMPDEST PUSH2 0xD18 JUMP JUMPDEST SWAP1 POP DUP3 DUP2 MSTORE PUSH1 0x20 DUP2 ADD DUP5 DUP5 DUP5 ADD GT ISZERO PUSH2 0xDA2 JUMPI PUSH2 0xDA1 PUSH2 0xCA2 JUMP JUMPDEST JUMPDEST PUSH2 0xDAD DUP5 DUP3 DUP6 PUSH2 0xD64 JUMP JUMPDEST POP SWAP4 SWAP3 POP POP POP JUMP JUMPDEST PUSH1 0x0 DUP3 PUSH1 0x1F DUP4 ADD SLT PUSH2 0xDCA JUMPI PUSH2 0xDC9 PUSH2 0xB55 JUMP JUMPDEST JUMPDEST DUP2 CALLDATALOAD PUSH2 0xDDA DUP5 DUP3 PUSH1 0x20 DUP7 ADD PUSH2 0xD73 JUMP JUMPDEST SWAP2 POP POP SWAP3 SWAP2 POP POP JUMP JUMPDEST PUSH1 0x0 DUP1 PUSH1 0x40 DUP4 DUP6 SUB SLT ISZERO PUSH2 0xDFA JUMPI PUSH2 0xDF9 PUSH2 0x9FC JUMP JUMPDEST JUMPDEST PUSH1 0x0 PUSH2 0xE08 DUP6 DUP3 DUP7 ADD PUSH2 0xC8D JUMP JUMPDEST SWAP3 POP POP PUSH1 0x20 DUP4 ADD CALLDATALOAD PUSH8 0xFFFFFFFFFFFFFFFF DUP2 GT ISZERO PUSH2 0xE29 JUMPI PUSH2 0xE28 PUSH2 0xA01 JUMP JUMPDEST JUMPDEST PUSH2 0xE35 DUP6 DUP3 DUP7 ADD PUSH2 0xDB5 JUMP JUMPDEST SWAP2 POP POP SWAP3 POP SWAP3 SWAP1 POP JUMP JUMPDEST PUSH2 0xE48 DUP2 PUSH2 0xAE1 JUMP JUMPDEST DUP3 MSTORE POP POP JUMP JUMPDEST PUSH1 0x0 PUSH1 0x20 DUP3 ADD SWAP1 POP PUSH2 0xE63 PUSH1 0x0 DUP4 ADD DUP5 PUSH2 0xE3F JUMP JUMPDEST SWAP3 SWAP2 POP POP JUMP JUMPDEST PUSH1 0x0 DUP1 PUSH1 0x0 DUP1 PUSH1 0x60 DUP6 DUP8 SUB SLT ISZERO PUSH2 0xE83 JUMPI PUSH2 0xE82 PUSH2 0x9FC JUMP JUMPDEST JUMPDEST PUSH1 0x0 PUSH2 0xE91 DUP8 DUP3 DUP9 ADD PUSH2 0xB0A JUMP JUMPDEST SWAP5 POP POP PUSH1 0x20 PUSH2 0xEA2 DUP8 DUP3 DUP9 ADD PUSH2 0xB40 JUMP JUMPDEST SWAP4 POP POP PUSH1 0x40 DUP6 ADD CALLDATALOAD PUSH8 0xFFFFFFFFFFFFFFFF DUP2 GT ISZERO PUSH2 0xEC3 JUMPI PUSH2 0xEC2 PUSH2 0xA01 JUMP JUMPDEST JUMPDEST PUSH2 0xECF DUP8 DUP3 DUP9 ADD PUSH2 0xB64 JUMP JUMPDEST SWAP3 POP SWAP3 POP POP SWAP3 SWAP6 SWAP2 SWAP5 POP SWAP3 POP JUMP JUMPDEST PUSH1 0x0 DUP2 MLOAD SWAP1 POP SWAP2 SWAP1 POP JUMP JUMPDEST PUSH1 0x0 DUP3 DUP3 MSTORE PUSH1 0x20 DUP3 ADD SWAP1 POP SWAP3 SWAP2 POP POP JUMP JUMPDEST PUSH1 0x0 JUMPDEST DUP4 DUP2 LT ISZERO PUSH2 0xF17 JUMPI DUP1 DUP3 ADD MLOAD DUP2 DUP5 ADD MSTORE PUSH1 0x20 DUP2 ADD SWAP1 POP PUSH2 0xEFC JUMP JUMPDEST PUSH1 0x0 DUP5 DUP5 ADD MSTORE POP POP POP POP JUMP JUMPDEST PUSH1 0x0 PUSH2 0xF2E DUP3 PUSH2 0xEDD JUMP JUMPDEST PUSH2 0xF38 DUP2 DUP6 PUSH2 0xEE8 JUMP JUMPDEST SWAP4 POP PUSH2 0xF48 DUP2 DUP6 PUSH1 0x20 DUP7 ADD PUSH2 0xEF9 JUMP JUMPDEST PUSH2 0xF51 DUP2 PUSH2 0xCA7 JUMP JUMPDEST DUP5 ADD SWAP2 POP POP SWAP3 SWAP2 POP POP JUMP JUMPDEST PUSH1 0x0 PUSH1 0x20 DUP3 ADD SWAP1 POP DUP2 DUP2 SUB PUSH1 0x0 DUP4 ADD MSTORE PUSH2 0xF76 DUP2 DUP5 PUSH2 0xF23 JUMP JUMPDEST SWAP1 POP SWAP3 SWAP2 POP POP JUMP JUMPDEST PUSH2 0xF87 DUP2 PUSH2 0xB1F JUMP JUMPDEST DUP3 MSTORE POP POP JUMP JUMPDEST PUSH1 0x0 PUSH1 0x20 DUP3 ADD SWAP1 POP PUSH2 0xFA2 PUSH1 0x0 DUP4 ADD DUP5 PUSH2 0xF7E JUMP JUMPDEST SWAP3 SWAP2 POP POP JUMP JUMPDEST PUSH1 0x0 PUSH1 0x60 DUP3 ADD SWAP1 POP PUSH2 0xFBD PUSH1 0x0 DUP4 ADD DUP7 PUSH2 0xF7E JUMP JUMPDEST PUSH2 0xFCA PUSH1 0x20 DUP4 ADD DUP6 PUSH2 0xE3F JUMP JUMPDEST PUSH2 0xFD7 PUSH1 0x40 DUP4 ADD DUP5 PUSH2 0xF7E JUMP JUMPDEST SWAP5 SWAP4 POP POP POP POP JUMP JUMPDEST PUSH1 0x0 DUP2 MLOAD SWAP1 POP PUSH2 0xFEE DUP2 PUSH2 0xB29 JUMP JUMPDEST SWAP3 SWAP2 POP POP JUMP JUMPDEST PUSH1 0x0 DUP2 MLOAD SWAP1 POP PUSH2 0x1003 DUP2 PUSH2 0xAF3 JUMP JUMPDEST SWAP3 SWAP2 POP POP JUMP JUMPDEST PUSH1 0x0 DUP1 PUSH1 0x0 PUSH1 0x60 DUP5 DUP7 SUB SLT ISZERO PUSH2 0x1022 JUMPI PUSH2 0x1021 PUSH2 0x9FC JUMP JUMPDEST JUMPDEST PUSH1 0x0 PUSH2 0x1030 DUP7 DUP3 DUP8 ADD PUSH2 0xFDF JUMP JUMPDEST SWAP4 POP POP PUSH1 0x20 PUSH2 0x1041 DUP7 DUP3 DUP8 ADD PUSH2 0xFF4 JUMP JUMPDEST SWAP3 POP POP PUSH1 0x40 PUSH2 0x1052 DUP7 DUP3 DUP8 ADD PUSH2 0xFDF JUMP JUMPDEST SWAP2 POP POP SWAP3 POP SWAP3 POP SWAP3 JUMP JUMPDEST PUSH1 0x0 PUSH1 0x20 DUP3 DUP5 SUB SLT ISZERO PUSH2 0x1072 JUMPI PUSH2 0x1071 PUSH2 0x9FC JUMP JUMPDEST JUMPDEST PUSH1 0x0 PUSH2 0x1080 DUP5 DUP3 DUP6 ADD PUSH2 0xFF4 JUMP JUMPDEST SWAP2 POP POP SWAP3 SWAP2 POP POP JUMP JUMPDEST PUSH1 0x0 DUP3 DUP3 MSTORE PUSH1 0x20 DUP3 ADD SWAP1 POP SWAP3 SWAP2 POP POP JUMP JUMPDEST PUSH32 0x4E6F7420746F6B656E206F776E65720000000000000000000000000000000000 PUSH1 0x0 DUP3 ADD MSTORE POP JUMP JUMPDEST PUSH1 0x0 PUSH2 0x10D0 PUSH1 0xF DUP4 PUSH2 0x1089 JUMP JUMPDEST SWAP2 POP PUSH2 0x10DB DUP3 PUSH2 0x109A JUMP JUMPDEST PUSH1 0x20 DUP3 ADD SWAP1 POP SWAP2 SWAP1 POP JUMP JUMPDEST PUSH1 0x0 PUSH1 0x20 DUP3 ADD SWAP1 POP DUP2 DUP2 SUB PUSH1 0x0 DUP4 ADD MSTORE PUSH2 0x10FF DUP2 PUSH2 0x10C3 JUMP JUMPDEST SWAP1 POP SWAP2 SWAP1 POP JUMP JUMPDEST PUSH32 0x596F7520646F206E6F74206861766520656E6F75676820706F696E747320746F PUSH1 0x0 DUP3 ADD MSTORE PUSH32 0x206D696E74000000000000000000000000000000000000000000000000000000 PUSH1 0x20 DUP3 ADD MSTORE POP JUMP JUMPDEST PUSH1 0x0 PUSH2 0x1162 PUSH1 0x25 DUP4 PUSH2 0x1089 JUMP JUMPDEST SWAP2 POP PUSH2 0x116D DUP3 PUSH2 0x1106 JUMP JUMPDEST PUSH1 0x40 DUP3 ADD SWAP1 POP SWAP2 SWAP1 POP JUMP JUMPDEST PUSH1 0x0 PUSH1 0x20 DUP3 ADD SWAP1 POP DUP2 DUP2 SUB PUSH1 0x0 DUP4 ADD MSTORE PUSH2 0x1191 DUP2 PUSH2 0x1155 JUMP JUMPDEST SWAP1 POP SWAP2 SWAP1 POP JUMP JUMPDEST PUSH32 0x4E487B7100000000000000000000000000000000000000000000000000000000 PUSH1 0x0 MSTORE PUSH1 0x11 PUSH1 0x4 MSTORE PUSH1 0x24 PUSH1 0x0 REVERT JUMPDEST PUSH1 0x0 PUSH2 0x11D2 DUP3 PUSH2 0xB1F JUMP JUMPDEST SWAP2 POP PUSH32 0xFFFFFFFFFFFFFFFFFFFFFFFFFFFFFFFFFFFFFFFFFFFFFFFFFFFFFFFFFFFFFFFF DUP3 SUB PUSH2 0x1204 JUMPI PUSH2 0x1203 PUSH2 0x1198 JUMP JUMPDEST JUMPDEST PUSH1 0x1 DUP3 ADD SWAP1 POP SWAP2 SWAP1 POP JUMP JUMPDEST PUSH1 0x0 PUSH2 0x121B DUP4 DUP6 PUSH2 0xEE8 JUMP JUMPDEST SWAP4 POP PUSH2 0x1228 DUP4 DUP6 DUP5 PUSH2 0xD64 JUMP JUMPDEST PUSH2 0x1231 DUP4 PUSH2 0xCA7 JUMP JUMPDEST DUP5 ADD SWAP1 POP SWAP4 SWAP3 POP POP POP JUMP JUMPDEST PUSH1 0x0 PUSH1 0x20 DUP3 ADD SWAP1 POP DUP2 DUP2 SUB PUSH1 0x0 DUP4 ADD MSTORE PUSH2 0x1257 DUP2 DUP5 DUP7 PUSH2 0x120F JUMP JUMPDEST SWAP1 POP SWAP4 SWAP3 POP POP POP JUMP JUMPDEST PUSH1 0x0 DUP2 SWAP1 POP SWAP3 SWAP2 POP POP JUMP JUMPDEST PUSH1 0x0 PUSH2 0x1277 DUP4 DUP6 PUSH2 0x1260 JUMP JUMPDEST SWAP4 POP PUSH2 0x1284 DUP4 DUP6 DUP5 PUSH2 0xD64 JUMP JUMPDEST DUP3 DUP5 ADD SWAP1 POP SWAP4 SWAP3 POP POP POP JUMP JUMPDEST PUSH1 0x0 PUSH2 0x129D DUP3 DUP5 DUP7 PUSH2 0x126B JUMP JUMPDEST SWAP2 POP DUP2 SWAP1 POP SWAP4 SWAP3 POP POP POP JUMP JUMPDEST PUSH32 0x4E487B7100000000000000000000000000000000000000000000000000000000 PUSH1 0x0 MSTORE PUSH1 0x21 PUSH1 0x4 MSTORE PUSH1 0x24 PUSH1 0x0 REVERT JUMPDEST PUSH2 0x12E1 DUP2 PUSH2 0xC6C JUMP JUMPDEST DUP3 MSTORE POP POP JUMP JUMPDEST PUSH1 0x0 PUSH1 0x40 DUP3 ADD SWAP1 POP PUSH2 0x12FC PUSH1 0x0 DUP4 ADD DUP6 PUSH2 0x12D8 JUMP JUMPDEST DUP2 DUP2 SUB PUSH1 0x20 DUP4 ADD MSTORE PUSH2 0x130E DUP2 DUP5 PUSH2 0xF23 JUMP JUMPDEST SWAP1 POP SWAP4 SWAP3 POP POP POP JUMP JUMPDEST PUSH1 0x0 PUSH2 0x1322 DUP3 PUSH2 0xEDD JUMP JUMPDEST PUSH2 0x132C DUP2 DUP6 PUSH2 0x1260 JUMP JUMPDEST SWAP4 POP PUSH2 0x133C DUP2 DUP6 PUSH1 0x20 DUP7 ADD PUSH2 0xEF9 JUMP JUMPDEST DUP1 DUP5 ADD SWAP2 POP POP SWAP3 SWAP2 POP POP JUMP JUMPDEST PUSH1 0x0 PUSH2 0x1354 DUP3 DUP5 PUSH2 0x1317 JUMP JUMPDEST SWAP2 POP DUP2 SWAP1 POP SWAP3 SWAP2 POP POP JUMP JUMPDEST PUSH1 0x0 DUP2 MLOAD SWAP1 POP PUSH2 0x136E DUP2 PUSH2 0xC76 JUMP JUMPDEST SWAP3 SWAP2 POP POP JUMP JUMPDEST PUSH1 0x0 PUSH1 0x20 DUP3 DUP5 SUB SLT ISZERO PUSH2 0x138A JUMPI PUSH2 0x1389 PUSH2 0x9FC JUMP JUMPDEST JUMPDEST PUSH1 0x0 PUSH2 0x1398 DUP5 DUP3 DUP6 ADD PUSH2 0x135F JUMP JUMPDEST SWAP2 POP POP SWAP3 SWAP2 POP POP JUMP JUMPDEST PUSH1 0x0 PUSH2 0x13AC DUP3 PUSH2 0xAC1 JUMP JUMPDEST SWAP1 POP SWAP2 SWAP1 POP JUMP JUMPDEST PUSH2 0x13BC DUP2 PUSH2 0x13A1 JUMP JUMPDEST DUP2 EQ PUSH2 0x13C7 JUMPI PUSH1 0x0 DUP1 REVERT JUMPDEST POP JUMP JUMPDEST PUSH1 0x0 DUP2 MLOAD SWAP1 POP PUSH2 0x13D9 DUP2 PUSH2 0x13B3 JUMP JUMPDEST SWAP3 SWAP2 POP POP JUMP JUMPDEST PUSH1 0x0 DUP1 PUSH1 0x0 PUSH1 0x60 DUP5 DUP7 SUB SLT ISZERO PUSH2 0x13F8 JUMPI PUSH2 0x13F7 PUSH2 0x9FC JUMP JUMPDEST JUMPDEST PUSH1 0x0 PUSH2 0x1406 DUP7 DUP3 DUP8 ADD PUSH2 0xFDF JUMP JUMPDEST SWAP4 POP POP PUSH1 0x20 PUSH2 0x1417 DUP7 DUP3 DUP8 ADD PUSH2 0x13CA JUMP JUMPDEST SWAP3 POP POP PUSH1 0x40 PUSH2 0x1428 DUP7 DUP3 DUP8 ADD PUSH2 0xFDF JUMP JUMPDEST SWAP2 POP POP SWAP3 POP SWAP3 POP SWAP3 JUMP JUMPDEST PUSH1 0x0 PUSH1 0xFF DUP3 AND SWAP1 POP SWAP2 SWAP1 POP JUMP JUMPDEST PUSH2 0x1448 DUP2 PUSH2 0x1432 JUMP JUMPDEST DUP3 MSTORE POP POP JUMP JUMPDEST PUSH1 0x0 PUSH1 0x80 DUP3 ADD SWAP1 POP PUSH2 0x1463 PUSH1 0x0 DUP4 ADD DUP8 PUSH2 0x12D8 JUMP JUMPDEST PUSH2 0x1470 PUSH1 0x20 DUP4 ADD DUP7 PUSH2 0x143F JUMP JUMPDEST PUSH2 0x147D PUSH1 0x40 DUP4 ADD DUP6 PUSH2 0x12D8 JUMP JUMPDEST PUSH2 0x148A PUSH1 0x60 DUP4 ADD DUP5 PUSH2 0x12D8 JUMP JUMPDEST SWAP6 SWAP5 POP POP POP POP POP JUMP INVALID LOG2 PUSH5 0x6970667358 0x22 SLT KECCAK256 0xC5 PUSH16 0xCC67F4DDE93941BF6688E42A1F16D371 0xC4 DUP8 ISZERO LOG0 TIMESTAMP SWAP5 PUSH29 0xE5CBEFD27823964736F6C634300081300330000000000000000000000 "
				},
				"gasEstimates": {
					"creation": {
						"codeDepositCost": "1064200",
						"executionCost": "1107",
						"totalCost": "1065307"
					},
					"external": {
						"executeCall(address,uint256,bytes)": "infinite",
						"isValidSignature(bytes32,bytes)": "infinite",
						"nonce()": "2473",
						"onERC721Received(address,address,uint256,bytes)": "infinite",
						"owner()": "infinite",
						"supportsInterface(bytes4)": "731",
						"token()": "infinite"
					}
				},
				"methodIdentifiers": {
					"executeCall(address,uint256,bytes)": "9e5d4c49",
					"isValidSignature(bytes32,bytes)": "1626ba7e",
					"nonce()": "affed0e0",
					"onERC721Received(address,address,uint256,bytes)": "150b7a02",
					"owner()": "8da5cb5b",
					"supportsInterface(bytes4)": "01ffc9a7",
					"token()": "fc0c546a"
				}
			},
			"storageLayout": {
				"storage": [
					{
						"astId": 1539,
						"contract": "tba/ReceiveableTBA.sol:ERC6551Account",
						"label": "nonce",
						"offset": 0,
						"slot": "0",
						"type": "t_uint256"
					}
				],
				"types": {
					"t_uint256": {
						"encoding": "inplace",
						"label": "uint256",
						"numberOfBytes": "32"
					}
				}
			},
			"userdoc": {
				"kind": "user",
				"methods": {},
				"version": 1
			}
		}
	}
}