{
	"tba/lib/MinimalReceiver.sol": {
		"MinimalReceiver": {
			"abi": [
				{
					"inputs": [
						{
							"internalType": "address",
							"name": "",
							"type": "address"
						},
						{
							"internalType": "address",
							"name": "",
							"type": "address"
						},
						{
							"internalType": "uint256[]",
							"name": "",
							"type": "uint256[]"
						},
						{
							"internalType": "uint256[]",
							"name": "",
							"type": "uint256[]"
						},
						{
							"internalType": "bytes",
							"name": "",
							"type": "bytes"
						}
					],
					"name": "onERC1155BatchReceived",
					"outputs": [
						{
							"internalType": "bytes4",
							"name": "",
							"type": "bytes4"
						}
					],
					"stateMutability": "nonpayable",
					"type": "function"
				},
				{
					"inputs": [
						{
							"internalType": "address",
							"name": "",
							"type": "address"
						},
						{
							"internalType": "address",
							"name": "",
							"type": "address"
						},
						{
							"internalType": "uint256",
							"name": "",
							"type": "uint256"
						},
						{
							"internalType": "uint256",
							"name": "",
							"type": "uint256"
						},
						{
							"internalType": "bytes",
							"name": "",
							"type": "bytes"
						}
					],
					"name": "onERC1155Received",
					"outputs": [
						{
							"internalType": "bytes4",
							"name": "",
							"type": "bytes4"
						}
					],
					"stateMutability": "nonpayable",
					"type": "function"
				},
				{
					"inputs": [
						{
							"internalType": "address",
							"name": "",
							"type": "address"
						},
						{
							"internalType": "address",
							"name": "",
							"type": "address"
						},
						{
							"internalType": "uint256",
							"name": "",
							"type": "uint256"
						},
						{
							"internalType": "bytes",
							"name": "",
							"type": "bytes"
						}
					],
					"name": "onERC721Received",
					"outputs": [
						{
							"internalType": "bytes4",
							"name": "",
							"type": "bytes4"
						}
					],
					"stateMutability": "nonpayable",
					"type": "function"
				},
				{
					"inputs": [
						{
							"internalType": "bytes4",
							"name": "interfaceId",
							"type": "bytes4"
						}
					],
					"name": "supportsInterface",
					"outputs": [
						{
							"internalType": "bool",
							"name": "",
							"type": "bool"
						}
					],
					"stateMutability": "view",
					"type": "function"
				},
				{
					"stateMutability": "payable",
					"type": "receive"
				}
			],
			"devdoc": {
				"kind": "dev",
				"methods": {
					"onERC721Received(address,address,uint256,bytes)": {
						"details": "See {IERC721Receiver-onERC721Received}. Always returns `IERC721Receiver.onERC721Received.selector`."
					},
					"supportsInterface(bytes4)": {
						"details": "See {IERC165-supportsInterface}."
					}
				},
				"version": 1
			},
			"evm": {
				"assembly": "    /* \"tba/lib/MinimalReceiver.sol\":298:454  contract MinimalReceiver is ERC721Holder, ERC1155Holder {... */\n  mstore(0x40, 0x80)\n  callvalue\n  dup1\n  iszero\n  tag_1\n  jumpi\n  0x00\n  dup1\n  revert\ntag_1:\n  pop\n  dataSize(sub_0)\n  dup1\n  dataOffset(sub_0)\n  0x00\n  codecopy\n  0x00\n  return\nstop\n\nsub_0: assembly {\n        /* \"tba/lib/MinimalReceiver.sol\":298:454  contract MinimalReceiver is ERC721Holder, ERC1155Holder {... */\n      mstore(0x40, 0x80)\n      jumpi(tag_1, lt(calldatasize, 0x04))\n      shr(0xe0, calldataload(0x00))\n      dup1\n      0x01ffc9a7\n      eq\n      tag_3\n      jumpi\n      dup1\n      0x150b7a02\n      eq\n      tag_4\n      jumpi\n      dup1\n      0xbc197c81\n      eq\n      tag_5\n      jumpi\n      dup1\n      0xf23a6e61\n      eq\n      tag_6\n      jumpi\n      jump(tag_2)\n    tag_1:\n      jumpi(tag_2, calldatasize)\n      stop\n    tag_2:\n      0x00\n      dup1\n      revert\n        /* \"github.com/OpenZeppelin/openzeppelin-contracts/blob/v4.7.3/contracts/token/ERC1155/utils/ERC1155Receiver.sol\":387:608  function supportsInterface(bytes4 interfaceId) public view virtual override(ERC165, IERC165) returns (bool) {... */\n    tag_3:\n      callvalue\n      dup1\n      iszero\n      tag_9\n      jumpi\n      0x00\n      dup1\n      revert\n    tag_9:\n      pop\n      tag_10\n      0x04\n      dup1\n      calldatasize\n      sub\n      dup2\n      add\n      swap1\n      tag_11\n      swap2\n      swap1\n      tag_12\n      jump\t// in\n    tag_11:\n      tag_13\n      jump\t// in\n    tag_10:\n      mload(0x40)\n      tag_14\n      swap2\n      swap1\n      tag_15\n      jump\t// in\n    tag_14:\n      mload(0x40)\n      dup1\n      swap2\n      sub\n      swap1\n      return\n        /* \"github.com/OpenZeppelin/openzeppelin-contracts/blob/v4.7.3/contracts/token/ERC721/utils/ERC721Holder.sol\":588:788  function onERC721Received(... */\n    tag_4:\n      callvalue\n      dup1\n      iszero\n      tag_16\n      jumpi\n      0x00\n      dup1\n      revert\n    tag_16:\n      pop\n      tag_17\n      0x04\n      dup1\n      calldatasize\n      sub\n      dup2\n      add\n      swap1\n      tag_18\n      swap2\n      swap1\n      tag_19\n      jump\t// in\n    tag_18:\n      tag_20\n      jump\t// in\n    tag_17:\n      mload(0x40)\n      tag_21\n      swap2\n      swap1\n      tag_22\n      jump\t// in\n    tag_21:\n      mload(0x40)\n      dup1\n      swap2\n      sub\n      swap1\n      return\n        /* \"github.com/OpenZeppelin/openzeppelin-contracts/blob/v4.7.3/contracts/token/ERC1155/utils/ERC1155Holder.sol\":724:971  function onERC1155BatchReceived(... */\n    tag_5:\n      callvalue\n      dup1\n      iszero\n      tag_23\n      jumpi\n      0x00\n      dup1\n      revert\n    tag_23:\n      pop\n      tag_24\n      0x04\n      dup1\n      calldatasize\n      sub\n      dup2\n      add\n      swap1\n      tag_25\n      swap2\n      swap1\n      tag_26\n      jump\t// in\n    tag_25:\n      tag_27\n      jump\t// in\n    tag_24:\n      mload(0x40)\n      tag_28\n      swap2\n      swap1\n      tag_22\n      jump\t// in\n    tag_28:\n      mload(0x40)\n      dup1\n      swap2\n      sub\n      swap1\n      return\n        /* \"github.com/OpenZeppelin/openzeppelin-contracts/blob/v4.7.3/contracts/token/ERC1155/utils/ERC1155Holder.sol\":499:718  function onERC1155Received(... */\n    tag_6:\n      callvalue\n      dup1\n      iszero\n      tag_29\n      jumpi\n      0x00\n      dup1\n      revert\n    tag_29:\n      pop\n      tag_30\n      0x04\n      dup1\n      calldatasize\n      sub\n      dup2\n      add\n      swap1\n      tag_31\n      swap2\n      swap1\n      tag_32\n      jump\t// in\n    tag_31:\n      tag_33\n      jump\t// in\n    tag_30:\n      mload(0x40)\n      tag_34\n      swap2\n      swap1\n      tag_22\n      jump\t// in\n    tag_34:\n      mload(0x40)\n      dup1\n      swap2\n      sub\n      swap1\n      return\n        /* \"github.com/OpenZeppelin/openzeppelin-contracts/blob/v4.7.3/contracts/token/ERC1155/utils/ERC1155Receiver.sol\":387:608  function supportsInterface(bytes4 interfaceId) public view virtual override(ERC165, IERC165) returns (bool) {... */\n    tag_13:\n        /* \"github.com/OpenZeppelin/openzeppelin-contracts/blob/v4.7.3/contracts/token/ERC1155/utils/ERC1155Receiver.sol\":489:493  bool */\n      0x00\n        /* \"github.com/OpenZeppelin/openzeppelin-contracts/blob/v4.7.3/contracts/token/ERC1155/utils/ERC1155Receiver.sol\":527:561  type(IERC1155Receiver).interfaceId */\n      0x4e2312e000000000000000000000000000000000000000000000000000000000\n        /* \"github.com/OpenZeppelin/openzeppelin-contracts/blob/v4.7.3/contracts/token/ERC1155/utils/ERC1155Receiver.sol\":512:561  interfaceId == type(IERC1155Receiver).interfaceId */\n      not(0xffffffffffffffffffffffffffffffffffffffffffffffffffffffff)\n      and\n        /* \"github.com/OpenZeppelin/openzeppelin-contracts/blob/v4.7.3/contracts/token/ERC1155/utils/ERC1155Receiver.sol\":512:523  interfaceId */\n      dup3\n        /* \"github.com/OpenZeppelin/openzeppelin-contracts/blob/v4.7.3/contracts/token/ERC1155/utils/ERC1155Receiver.sol\":512:561  interfaceId == type(IERC1155Receiver).interfaceId */\n      not(0xffffffffffffffffffffffffffffffffffffffffffffffffffffffff)\n      and\n      eq\n        /* \"github.com/OpenZeppelin/openzeppelin-contracts/blob/v4.7.3/contracts/token/ERC1155/utils/ERC1155Receiver.sol\":512:601  interfaceId == type(IERC1155Receiver).interfaceId || super.supportsInterface(interfaceId) */\n      dup1\n      tag_36\n      jumpi\n      pop\n        /* \"github.com/OpenZeppelin/openzeppelin-contracts/blob/v4.7.3/contracts/token/ERC1155/utils/ERC1155Receiver.sol\":565:601  super.supportsInterface(interfaceId) */\n      tag_37\n        /* \"github.com/OpenZeppelin/openzeppelin-contracts/blob/v4.7.3/contracts/token/ERC1155/utils/ERC1155Receiver.sol\":589:600  interfaceId */\n      dup3\n        /* \"github.com/OpenZeppelin/openzeppelin-contracts/blob/v4.7.3/contracts/token/ERC1155/utils/ERC1155Receiver.sol\":565:588  super.supportsInterface */\n      tag_38\n        /* \"github.com/OpenZeppelin/openzeppelin-contracts/blob/v4.7.3/contracts/token/ERC1155/utils/ERC1155Receiver.sol\":565:601  super.supportsInterface(interfaceId) */\n      jump\t// in\n    tag_37:\n        /* \"github.com/OpenZeppelin/openzeppelin-contracts/blob/v4.7.3/contracts/token/ERC1155/utils/ERC1155Receiver.sol\":512:601  interfaceId == type(IERC1155Receiver).interfaceId || super.supportsInterface(interfaceId) */\n    tag_36:\n        /* \"github.com/OpenZeppelin/openzeppelin-contracts/blob/v4.7.3/contracts/token/ERC1155/utils/ERC1155Receiver.sol\":505:601  return interfaceId == type(IERC1155Receiver).interfaceId || super.supportsInterface(interfaceId) */\n      swap1\n      pop\n        /* \"github.com/OpenZeppelin/openzeppelin-contracts/blob/v4.7.3/contracts/token/ERC1155/utils/ERC1155Receiver.sol\":387:608  function supportsInterface(bytes4 interfaceId) public view virtual override(ERC165, IERC165) returns (bool) {... */\n      swap2\n      swap1\n      pop\n      jump\t// out\n        /* \"github.com/OpenZeppelin/openzeppelin-contracts/blob/v4.7.3/contracts/token/ERC721/utils/ERC721Holder.sol\":588:788  function onERC721Received(... */\n    tag_20:\n        /* \"github.com/OpenZeppelin/openzeppelin-contracts/blob/v4.7.3/contracts/token/ERC721/utils/ERC721Holder.sol\":726:732  bytes4 */\n      0x00\n        /* \"github.com/OpenZeppelin/openzeppelin-contracts/blob/v4.7.3/contracts/token/ERC721/utils/ERC721Holder.sol\":751:781  this.onERC721Received.selector */\n      shl(0xe0, 0x150b7a02)\n        /* \"github.com/OpenZeppelin/openzeppelin-contracts/blob/v4.7.3/contracts/token/ERC721/utils/ERC721Holder.sol\":744:781  return this.onERC721Received.selector */\n      swap1\n      pop\n        /* \"github.com/OpenZeppelin/openzeppelin-contracts/blob/v4.7.3/contracts/token/ERC721/utils/ERC721Holder.sol\":588:788  function onERC721Received(... */\n      swap5\n      swap4\n      pop\n      pop\n      pop\n      pop\n      jump\t// out\n        /* \"github.com/OpenZeppelin/openzeppelin-contracts/blob/v4.7.3/contracts/token/ERC1155/utils/ERC1155Holder.sol\":724:971  function onERC1155BatchReceived(... */\n    tag_27:\n        /* \"github.com/OpenZeppelin/openzeppelin-contracts/blob/v4.7.3/contracts/token/ERC1155/utils/ERC1155Holder.sol\":903:909  bytes4 */\n      0x00\n        /* \"github.com/OpenZeppelin/openzeppelin-contracts/blob/v4.7.3/contracts/token/ERC1155/utils/ERC1155Holder.sol\":928:964  this.onERC1155BatchReceived.selector */\n      shl(0xe0, 0xbc197c81)\n        /* \"github.com/OpenZeppelin/openzeppelin-contracts/blob/v4.7.3/contracts/token/ERC1155/utils/ERC1155Holder.sol\":921:964  return this.onERC1155BatchReceived.selector */\n      swap1\n      pop\n        /* \"github.com/OpenZeppelin/openzeppelin-contracts/blob/v4.7.3/contracts/token/ERC1155/utils/ERC1155Holder.sol\":724:971  function onERC1155BatchReceived(... */\n      swap6\n      swap5\n      pop\n      pop\n      pop\n      pop\n      pop\n      jump\t// out\n        /* \"github.com/OpenZeppelin/openzeppelin-contracts/blob/v4.7.3/contracts/token/ERC1155/utils/ERC1155Holder.sol\":499:718  function onERC1155Received(... */\n    tag_33:\n        /* \"github.com/OpenZeppelin/openzeppelin-contracts/blob/v4.7.3/contracts/token/ERC1155/utils/ERC1155Holder.sol\":655:661  bytes4 */\n      0x00\n        /* \"github.com/OpenZeppelin/openzeppelin-contracts/blob/v4.7.3/contracts/token/ERC1155/utils/ERC1155Holder.sol\":680:711  this.onERC1155Received.selector */\n      shl(0xe0, 0xf23a6e61)\n        /* \"github.com/OpenZeppelin/openzeppelin-contracts/blob/v4.7.3/contracts/token/ERC1155/utils/ERC1155Holder.sol\":673:711  return this.onERC1155Received.selector */\n      swap1\n      pop\n        /* \"github.com/OpenZeppelin/openzeppelin-contracts/blob/v4.7.3/contracts/token/ERC1155/utils/ERC1155Holder.sol\":499:718  function onERC1155Received(... */\n      swap6\n      swap5\n      pop\n      pop\n      pop\n      pop\n      pop\n      jump\t// out\n        /* \"github.com/OpenZeppelin/openzeppelin-contracts/blob/v4.7.3/contracts/utils/introspection/ERC165.sol\":829:984  function supportsInterface(bytes4 interfaceId) public view virtual override returns (bool) {... */\n    tag_38:\n        /* \"github.com/OpenZeppelin/openzeppelin-contracts/blob/v4.7.3/contracts/utils/introspection/ERC165.sol\":914:918  bool */\n      0x00\n        /* \"github.com/OpenZeppelin/openzeppelin-contracts/blob/v4.7.3/contracts/utils/introspection/ERC165.sol\":952:977  type(IERC165).interfaceId */\n      0x01ffc9a700000000000000000000000000000000000000000000000000000000\n        /* \"github.com/OpenZeppelin/openzeppelin-contracts/blob/v4.7.3/contracts/utils/introspection/ERC165.sol\":937:977  interfaceId == type(IERC165).interfaceId */\n      not(0xffffffffffffffffffffffffffffffffffffffffffffffffffffffff)\n      and\n        /* \"github.com/OpenZeppelin/openzeppelin-contracts/blob/v4.7.3/contracts/utils/introspection/ERC165.sol\":937:948  interfaceId */\n      dup3\n        /* \"github.com/OpenZeppelin/openzeppelin-contracts/blob/v4.7.3/contracts/utils/introspection/ERC165.sol\":937:977  interfaceId == type(IERC165).interfaceId */\n      not(0xffffffffffffffffffffffffffffffffffffffffffffffffffffffff)\n      and\n      eq\n        /* \"github.com/OpenZeppelin/openzeppelin-contracts/blob/v4.7.3/contracts/utils/introspection/ERC165.sol\":930:977  return interfaceId == type(IERC165).interfaceId */\n      swap1\n      pop\n        /* \"github.com/OpenZeppelin/openzeppelin-contracts/blob/v4.7.3/contracts/utils/introspection/ERC165.sol\":829:984  function supportsInterface(bytes4 interfaceId) public view virtual override returns (bool) {... */\n      swap2\n      swap1\n      pop\n      jump\t// out\n        /* \"#utility.yul\":7:82   */\n    tag_43:\n        /* \"#utility.yul\":40:46   */\n      0x00\n        /* \"#utility.yul\":73:75   */\n      0x40\n        /* \"#utility.yul\":67:76   */\n      mload\n        /* \"#utility.yul\":57:76   */\n      swap1\n      pop\n        /* \"#utility.yul\":7:82   */\n      swap1\n      jump\t// out\n        /* \"#utility.yul\":88:205   */\n    tag_44:\n        /* \"#utility.yul\":197:198   */\n      0x00\n        /* \"#utility.yul\":194:195   */\n      dup1\n        /* \"#utility.yul\":187:199   */\n      revert\n        /* \"#utility.yul\":211:328   */\n    tag_45:\n        /* \"#utility.yul\":320:321   */\n      0x00\n        /* \"#utility.yul\":317:318   */\n      dup1\n        /* \"#utility.yul\":310:322   */\n      revert\n        /* \"#utility.yul\":334:483   */\n    tag_46:\n        /* \"#utility.yul\":370:377   */\n      0x00\n        /* \"#utility.yul\":410:476   */\n      0xffffffff00000000000000000000000000000000000000000000000000000000\n        /* \"#utility.yul\":403:408   */\n      dup3\n        /* \"#utility.yul\":399:477   */\n      and\n        /* \"#utility.yul\":388:477   */\n      swap1\n      pop\n        /* \"#utility.yul\":334:483   */\n      swap2\n      swap1\n      pop\n      jump\t// out\n        /* \"#utility.yul\":489:609   */\n    tag_47:\n        /* \"#utility.yul\":561:584   */\n      tag_79\n        /* \"#utility.yul\":578:583   */\n      dup2\n        /* \"#utility.yul\":561:584   */\n      tag_46\n      jump\t// in\n    tag_79:\n        /* \"#utility.yul\":554:559   */\n      dup2\n        /* \"#utility.yul\":551:585   */\n      eq\n        /* \"#utility.yul\":541:603   */\n      tag_80\n      jumpi\n        /* \"#utility.yul\":599:600   */\n      0x00\n        /* \"#utility.yul\":596:597   */\n      dup1\n        /* \"#utility.yul\":589:601   */\n      revert\n        /* \"#utility.yul\":541:603   */\n    tag_80:\n        /* \"#utility.yul\":489:609   */\n      pop\n      jump\t// out\n        /* \"#utility.yul\":615:752   */\n    tag_48:\n        /* \"#utility.yul\":660:665   */\n      0x00\n        /* \"#utility.yul\":698:704   */\n      dup2\n        /* \"#utility.yul\":685:705   */\n      calldataload\n        /* \"#utility.yul\":676:705   */\n      swap1\n      pop\n        /* \"#utility.yul\":714:746   */\n      tag_82\n        /* \"#utility.yul\":740:745   */\n      dup2\n        /* \"#utility.yul\":714:746   */\n      tag_47\n      jump\t// in\n    tag_82:\n        /* \"#utility.yul\":615:752   */\n      swap3\n      swap2\n      pop\n      pop\n      jump\t// out\n        /* \"#utility.yul\":758:1085   */\n    tag_12:\n        /* \"#utility.yul\":816:822   */\n      0x00\n        /* \"#utility.yul\":865:867   */\n      0x20\n        /* \"#utility.yul\":853:862   */\n      dup3\n        /* \"#utility.yul\":844:851   */\n      dup5\n        /* \"#utility.yul\":840:863   */\n      sub\n        /* \"#utility.yul\":836:868   */\n      slt\n        /* \"#utility.yul\":833:952   */\n      iszero\n      tag_84\n      jumpi\n        /* \"#utility.yul\":871:950   */\n      tag_85\n      tag_44\n      jump\t// in\n    tag_85:\n        /* \"#utility.yul\":833:952   */\n    tag_84:\n        /* \"#utility.yul\":991:992   */\n      0x00\n        /* \"#utility.yul\":1016:1068   */\n      tag_86\n        /* \"#utility.yul\":1060:1067   */\n      dup5\n        /* \"#utility.yul\":1051:1057   */\n      dup3\n        /* \"#utility.yul\":1040:1049   */\n      dup6\n        /* \"#utility.yul\":1036:1058   */\n      add\n        /* \"#utility.yul\":1016:1068   */\n      tag_48\n      jump\t// in\n    tag_86:\n        /* \"#utility.yul\":1006:1068   */\n      swap2\n      pop\n        /* \"#utility.yul\":962:1078   */\n      pop\n        /* \"#utility.yul\":758:1085   */\n      swap3\n      swap2\n      pop\n      pop\n      jump\t// out\n        /* \"#utility.yul\":1091:1181   */\n    tag_49:\n        /* \"#utility.yul\":1125:1132   */\n      0x00\n        /* \"#utility.yul\":1168:1173   */\n      dup2\n        /* \"#utility.yul\":1161:1174   */\n      iszero\n        /* \"#utility.yul\":1154:1175   */\n      iszero\n        /* \"#utility.yul\":1143:1175   */\n      swap1\n      pop\n        /* \"#utility.yul\":1091:1181   */\n      swap2\n      swap1\n      pop\n      jump\t// out\n        /* \"#utility.yul\":1187:1296   */\n    tag_50:\n        /* \"#utility.yul\":1268:1289   */\n      tag_89\n        /* \"#utility.yul\":1283:1288   */\n      dup2\n        /* \"#utility.yul\":1268:1289   */\n      tag_49\n      jump\t// in\n    tag_89:\n        /* \"#utility.yul\":1263:1266   */\n      dup3\n        /* \"#utility.yul\":1256:1290   */\n      mstore\n        /* \"#utility.yul\":1187:1296   */\n      pop\n      pop\n      jump\t// out\n        /* \"#utility.yul\":1302:1512   */\n    tag_15:\n        /* \"#utility.yul\":1389:1393   */\n      0x00\n        /* \"#utility.yul\":1427:1429   */\n      0x20\n        /* \"#utility.yul\":1416:1425   */\n      dup3\n        /* \"#utility.yul\":1412:1430   */\n      add\n        /* \"#utility.yul\":1404:1430   */\n      swap1\n      pop\n        /* \"#utility.yul\":1440:1505   */\n      tag_91\n        /* \"#utility.yul\":1502:1503   */\n      0x00\n        /* \"#utility.yul\":1491:1500   */\n      dup4\n        /* \"#utility.yul\":1487:1504   */\n      add\n        /* \"#utility.yul\":1478:1484   */\n      dup5\n        /* \"#utility.yul\":1440:1505   */\n      tag_50\n      jump\t// in\n    tag_91:\n        /* \"#utility.yul\":1302:1512   */\n      swap3\n      swap2\n      pop\n      pop\n      jump\t// out\n        /* \"#utility.yul\":1518:1644   */\n    tag_51:\n        /* \"#utility.yul\":1555:1562   */\n      0x00\n        /* \"#utility.yul\":1595:1637   */\n      0xffffffffffffffffffffffffffffffffffffffff\n        /* \"#utility.yul\":1588:1593   */\n      dup3\n        /* \"#utility.yul\":1584:1638   */\n      and\n        /* \"#utility.yul\":1573:1638   */\n      swap1\n      pop\n        /* \"#utility.yul\":1518:1644   */\n      swap2\n      swap1\n      pop\n      jump\t// out\n        /* \"#utility.yul\":1650:1746   */\n    tag_52:\n        /* \"#utility.yul\":1687:1694   */\n      0x00\n        /* \"#utility.yul\":1716:1740   */\n      tag_94\n        /* \"#utility.yul\":1734:1739   */\n      dup3\n        /* \"#utility.yul\":1716:1740   */\n      tag_51\n      jump\t// in\n    tag_94:\n        /* \"#utility.yul\":1705:1740   */\n      swap1\n      pop\n        /* \"#utility.yul\":1650:1746   */\n      swap2\n      swap1\n      pop\n      jump\t// out\n        /* \"#utility.yul\":1752:1874   */\n    tag_53:\n        /* \"#utility.yul\":1825:1849   */\n      tag_96\n        /* \"#utility.yul\":1843:1848   */\n      dup2\n        /* \"#utility.yul\":1825:1849   */\n      tag_52\n      jump\t// in\n    tag_96:\n        /* \"#utility.yul\":1818:1823   */\n      dup2\n        /* \"#utility.yul\":1815:1850   */\n      eq\n        /* \"#utility.yul\":1805:1868   */\n      tag_97\n      jumpi\n        /* \"#utility.yul\":1864:1865   */\n      0x00\n        /* \"#utility.yul\":1861:1862   */\n      dup1\n        /* \"#utility.yul\":1854:1866   */\n      revert\n        /* \"#utility.yul\":1805:1868   */\n    tag_97:\n        /* \"#utility.yul\":1752:1874   */\n      pop\n      jump\t// out\n        /* \"#utility.yul\":1880:2019   */\n    tag_54:\n        /* \"#utility.yul\":1926:1931   */\n      0x00\n        /* \"#utility.yul\":1964:1970   */\n      dup2\n        /* \"#utility.yul\":1951:1971   */\n      calldataload\n        /* \"#utility.yul\":1942:1971   */\n      swap1\n      pop\n        /* \"#utility.yul\":1980:2013   */\n      tag_99\n        /* \"#utility.yul\":2007:2012   */\n      dup2\n        /* \"#utility.yul\":1980:2013   */\n      tag_53\n      jump\t// in\n    tag_99:\n        /* \"#utility.yul\":1880:2019   */\n      swap3\n      swap2\n      pop\n      pop\n      jump\t// out\n        /* \"#utility.yul\":2025:2102   */\n    tag_55:\n        /* \"#utility.yul\":2062:2069   */\n      0x00\n        /* \"#utility.yul\":2091:2096   */\n      dup2\n        /* \"#utility.yul\":2080:2096   */\n      swap1\n      pop\n        /* \"#utility.yul\":2025:2102   */\n      swap2\n      swap1\n      pop\n      jump\t// out\n        /* \"#utility.yul\":2108:2230   */\n    tag_56:\n        /* \"#utility.yul\":2181:2205   */\n      tag_102\n        /* \"#utility.yul\":2199:2204   */\n      dup2\n        /* \"#utility.yul\":2181:2205   */\n      tag_55\n      jump\t// in\n    tag_102:\n        /* \"#utility.yul\":2174:2179   */\n      dup2\n        /* \"#utility.yul\":2171:2206   */\n      eq\n        /* \"#utility.yul\":2161:2224   */\n      tag_103\n      jumpi\n        /* \"#utility.yul\":2220:2221   */\n      0x00\n        /* \"#utility.yul\":2217:2218   */\n      dup1\n        /* \"#utility.yul\":2210:2222   */\n      revert\n        /* \"#utility.yul\":2161:2224   */\n    tag_103:\n        /* \"#utility.yul\":2108:2230   */\n      pop\n      jump\t// out\n        /* \"#utility.yul\":2236:2375   */\n    tag_57:\n        /* \"#utility.yul\":2282:2287   */\n      0x00\n        /* \"#utility.yul\":2320:2326   */\n      dup2\n        /* \"#utility.yul\":2307:2327   */\n      calldataload\n        /* \"#utility.yul\":2298:2327   */\n      swap1\n      pop\n        /* \"#utility.yul\":2336:2369   */\n      tag_105\n        /* \"#utility.yul\":2363:2368   */\n      dup2\n        /* \"#utility.yul\":2336:2369   */\n      tag_56\n      jump\t// in\n    tag_105:\n        /* \"#utility.yul\":2236:2375   */\n      swap3\n      swap2\n      pop\n      pop\n      jump\t// out\n        /* \"#utility.yul\":2381:2498   */\n    tag_58:\n        /* \"#utility.yul\":2490:2491   */\n      0x00\n        /* \"#utility.yul\":2487:2488   */\n      dup1\n        /* \"#utility.yul\":2480:2492   */\n      revert\n        /* \"#utility.yul\":2504:2621   */\n    tag_59:\n        /* \"#utility.yul\":2613:2614   */\n      0x00\n        /* \"#utility.yul\":2610:2611   */\n      dup1\n        /* \"#utility.yul\":2603:2615   */\n      revert\n        /* \"#utility.yul\":2627:2729   */\n    tag_60:\n        /* \"#utility.yul\":2668:2674   */\n      0x00\n        /* \"#utility.yul\":2719:2721   */\n      0x1f\n        /* \"#utility.yul\":2715:2722   */\n      not\n        /* \"#utility.yul\":2710:2712   */\n      0x1f\n        /* \"#utility.yul\":2703:2708   */\n      dup4\n        /* \"#utility.yul\":2699:2713   */\n      add\n        /* \"#utility.yul\":2695:2723   */\n      and\n        /* \"#utility.yul\":2685:2723   */\n      swap1\n      pop\n        /* \"#utility.yul\":2627:2729   */\n      swap2\n      swap1\n      pop\n      jump\t// out\n        /* \"#utility.yul\":2735:2915   */\n    tag_61:\n        /* \"#utility.yul\":2783:2860   */\n      0x4e487b7100000000000000000000000000000000000000000000000000000000\n        /* \"#utility.yul\":2780:2781   */\n      0x00\n        /* \"#utility.yul\":2773:2861   */\n      mstore\n        /* \"#utility.yul\":2880:2884   */\n      0x41\n        /* \"#utility.yul\":2877:2878   */\n      0x04\n        /* \"#utility.yul\":2870:2885   */\n      mstore\n        /* \"#utility.yul\":2904:2908   */\n      0x24\n        /* \"#utility.yul\":2901:2902   */\n      0x00\n        /* \"#utility.yul\":2894:2909   */\n      revert\n        /* \"#utility.yul\":2921:3202   */\n    tag_62:\n        /* \"#utility.yul\":3004:3031   */\n      tag_111\n        /* \"#utility.yul\":3026:3030   */\n      dup3\n        /* \"#utility.yul\":3004:3031   */\n      tag_60\n      jump\t// in\n    tag_111:\n        /* \"#utility.yul\":2996:3002   */\n      dup2\n        /* \"#utility.yul\":2992:3032   */\n      add\n        /* \"#utility.yul\":3134:3140   */\n      dup2\n        /* \"#utility.yul\":3122:3132   */\n      dup2\n        /* \"#utility.yul\":3119:3141   */\n      lt\n        /* \"#utility.yul\":3098:3116   */\n      0xffffffffffffffff\n        /* \"#utility.yul\":3086:3096   */\n      dup3\n        /* \"#utility.yul\":3083:3117   */\n      gt\n        /* \"#utility.yul\":3080:3142   */\n      or\n        /* \"#utility.yul\":3077:3165   */\n      iszero\n      tag_112\n      jumpi\n        /* \"#utility.yul\":3145:3163   */\n      tag_113\n      tag_61\n      jump\t// in\n    tag_113:\n        /* \"#utility.yul\":3077:3165   */\n    tag_112:\n        /* \"#utility.yul\":3185:3195   */\n      dup1\n        /* \"#utility.yul\":3181:3183   */\n      0x40\n        /* \"#utility.yul\":3174:3196   */\n      mstore\n        /* \"#utility.yul\":2964:3202   */\n      pop\n        /* \"#utility.yul\":2921:3202   */\n      pop\n      pop\n      jump\t// out\n        /* \"#utility.yul\":3208:3337   */\n    tag_63:\n        /* \"#utility.yul\":3242:3248   */\n      0x00\n        /* \"#utility.yul\":3269:3289   */\n      tag_115\n      tag_43\n      jump\t// in\n    tag_115:\n        /* \"#utility.yul\":3259:3289   */\n      swap1\n      pop\n        /* \"#utility.yul\":3298:3331   */\n      tag_116\n        /* \"#utility.yul\":3326:3330   */\n      dup3\n        /* \"#utility.yul\":3318:3324   */\n      dup3\n        /* \"#utility.yul\":3298:3331   */\n      tag_62\n      jump\t// in\n    tag_116:\n        /* \"#utility.yul\":3208:3337   */\n      swap2\n      swap1\n      pop\n      jump\t// out\n        /* \"#utility.yul\":3343:3650   */\n    tag_64:\n        /* \"#utility.yul\":3404:3408   */\n      0x00\n        /* \"#utility.yul\":3494:3512   */\n      0xffffffffffffffff\n        /* \"#utility.yul\":3486:3492   */\n      dup3\n        /* \"#utility.yul\":3483:3513   */\n      gt\n        /* \"#utility.yul\":3480:3536   */\n      iszero\n      tag_118\n      jumpi\n        /* \"#utility.yul\":3516:3534   */\n      tag_119\n      tag_61\n      jump\t// in\n    tag_119:\n        /* \"#utility.yul\":3480:3536   */\n    tag_118:\n        /* \"#utility.yul\":3554:3583   */\n      tag_120\n        /* \"#utility.yul\":3576:3582   */\n      dup3\n        /* \"#utility.yul\":3554:3583   */\n      tag_60\n      jump\t// in\n    tag_120:\n        /* \"#utility.yul\":3546:3583   */\n      swap1\n      pop\n        /* \"#utility.yul\":3638:3642   */\n      0x20\n        /* \"#utility.yul\":3632:3636   */\n      dup2\n        /* \"#utility.yul\":3628:3643   */\n      add\n        /* \"#utility.yul\":3620:3643   */\n      swap1\n      pop\n        /* \"#utility.yul\":3343:3650   */\n      swap2\n      swap1\n      pop\n      jump\t// out\n        /* \"#utility.yul\":3656:3802   */\n    tag_65:\n        /* \"#utility.yul\":3753:3759   */\n      dup3\n        /* \"#utility.yul\":3748:3751   */\n      dup2\n        /* \"#utility.yul\":3743:3746   */\n      dup4\n        /* \"#utility.yul\":3730:3760   */\n      calldatacopy\n        /* \"#utility.yul\":3794:3795   */\n      0x00\n        /* \"#utility.yul\":3785:3791   */\n      dup4\n        /* \"#utility.yul\":3780:3783   */\n      dup4\n        /* \"#utility.yul\":3776:3792   */\n      add\n        /* \"#utility.yul\":3769:3796   */\n      mstore\n        /* \"#utility.yul\":3656:3802   */\n      pop\n      pop\n      pop\n      jump\t// out\n        /* \"#utility.yul\":3808:4231   */\n    tag_66:\n        /* \"#utility.yul\":3885:3890   */\n      0x00\n        /* \"#utility.yul\":3910:3975   */\n      tag_123\n        /* \"#utility.yul\":3926:3974   */\n      tag_124\n        /* \"#utility.yul\":3967:3973   */\n      dup5\n        /* \"#utility.yul\":3926:3974   */\n      tag_64\n      jump\t// in\n    tag_124:\n        /* \"#utility.yul\":3910:3975   */\n      tag_63\n      jump\t// in\n    tag_123:\n        /* \"#utility.yul\":3901:3975   */\n      swap1\n      pop\n        /* \"#utility.yul\":3998:4004   */\n      dup3\n        /* \"#utility.yul\":3991:3996   */\n      dup2\n        /* \"#utility.yul\":3984:4005   */\n      mstore\n        /* \"#utility.yul\":4036:4040   */\n      0x20\n        /* \"#utility.yul\":4029:4034   */\n      dup2\n        /* \"#utility.yul\":4025:4041   */\n      add\n        /* \"#utility.yul\":4074:4077   */\n      dup5\n        /* \"#utility.yul\":4065:4071   */\n      dup5\n        /* \"#utility.yul\":4060:4063   */\n      dup5\n        /* \"#utility.yul\":4056:4072   */\n      add\n        /* \"#utility.yul\":4053:4078   */\n      gt\n        /* \"#utility.yul\":4050:4162   */\n      iszero\n      tag_125\n      jumpi\n        /* \"#utility.yul\":4081:4160   */\n      tag_126\n      tag_59\n      jump\t// in\n    tag_126:\n        /* \"#utility.yul\":4050:4162   */\n    tag_125:\n        /* \"#utility.yul\":4171:4225   */\n      tag_127\n        /* \"#utility.yul\":4218:4224   */\n      dup5\n        /* \"#utility.yul\":4213:4216   */\n      dup3\n        /* \"#utility.yul\":4208:4211   */\n      dup6\n        /* \"#utility.yul\":4171:4225   */\n      tag_65\n      jump\t// in\n    tag_127:\n        /* \"#utility.yul\":3891:4231   */\n      pop\n        /* \"#utility.yul\":3808:4231   */\n      swap4\n      swap3\n      pop\n      pop\n      pop\n      jump\t// out\n        /* \"#utility.yul\":4250:4588   */\n    tag_67:\n        /* \"#utility.yul\":4305:4310   */\n      0x00\n        /* \"#utility.yul\":4354:4357   */\n      dup3\n        /* \"#utility.yul\":4347:4351   */\n      0x1f\n        /* \"#utility.yul\":4339:4345   */\n      dup4\n        /* \"#utility.yul\":4335:4352   */\n      add\n        /* \"#utility.yul\":4331:4358   */\n      slt\n        /* \"#utility.yul\":4321:4443   */\n      tag_129\n      jumpi\n        /* \"#utility.yul\":4362:4441   */\n      tag_130\n      tag_58\n      jump\t// in\n    tag_130:\n        /* \"#utility.yul\":4321:4443   */\n    tag_129:\n        /* \"#utility.yul\":4479:4485   */\n      dup2\n        /* \"#utility.yul\":4466:4486   */\n      calldataload\n        /* \"#utility.yul\":4504:4582   */\n      tag_131\n        /* \"#utility.yul\":4578:4581   */\n      dup5\n        /* \"#utility.yul\":4570:4576   */\n      dup3\n        /* \"#utility.yul\":4563:4567   */\n      0x20\n        /* \"#utility.yul\":4555:4561   */\n      dup7\n        /* \"#utility.yul\":4551:4568   */\n      add\n        /* \"#utility.yul\":4504:4582   */\n      tag_66\n      jump\t// in\n    tag_131:\n        /* \"#utility.yul\":4495:4582   */\n      swap2\n      pop\n        /* \"#utility.yul\":4311:4588   */\n      pop\n        /* \"#utility.yul\":4250:4588   */\n      swap3\n      swap2\n      pop\n      pop\n      jump\t// out\n        /* \"#utility.yul\":4594:5537   */\n    tag_19:\n        /* \"#utility.yul\":4689:4695   */\n      0x00\n        /* \"#utility.yul\":4697:4703   */\n      dup1\n        /* \"#utility.yul\":4705:4711   */\n      0x00\n        /* \"#utility.yul\":4713:4719   */\n      dup1\n        /* \"#utility.yul\":4762:4765   */\n      0x80\n        /* \"#utility.yul\":4750:4759   */\n      dup6\n        /* \"#utility.yul\":4741:4748   */\n      dup8\n        /* \"#utility.yul\":4737:4760   */\n      sub\n        /* \"#utility.yul\":4733:4766   */\n      slt\n        /* \"#utility.yul\":4730:4850   */\n      iszero\n      tag_133\n      jumpi\n        /* \"#utility.yul\":4769:4848   */\n      tag_134\n      tag_44\n      jump\t// in\n    tag_134:\n        /* \"#utility.yul\":4730:4850   */\n    tag_133:\n        /* \"#utility.yul\":4889:4890   */\n      0x00\n        /* \"#utility.yul\":4914:4967   */\n      tag_135\n        /* \"#utility.yul\":4959:4966   */\n      dup8\n        /* \"#utility.yul\":4950:4956   */\n      dup3\n        /* \"#utility.yul\":4939:4948   */\n      dup9\n        /* \"#utility.yul\":4935:4957   */\n      add\n        /* \"#utility.yul\":4914:4967   */\n      tag_54\n      jump\t// in\n    tag_135:\n        /* \"#utility.yul\":4904:4967   */\n      swap5\n      pop\n        /* \"#utility.yul\":4860:4977   */\n      pop\n        /* \"#utility.yul\":5016:5018   */\n      0x20\n        /* \"#utility.yul\":5042:5095   */\n      tag_136\n        /* \"#utility.yul\":5087:5094   */\n      dup8\n        /* \"#utility.yul\":5078:5084   */\n      dup3\n        /* \"#utility.yul\":5067:5076   */\n      dup9\n        /* \"#utility.yul\":5063:5085   */\n      add\n        /* \"#utility.yul\":5042:5095   */\n      tag_54\n      jump\t// in\n    tag_136:\n        /* \"#utility.yul\":5032:5095   */\n      swap4\n      pop\n        /* \"#utility.yul\":4987:5105   */\n      pop\n        /* \"#utility.yul\":5144:5146   */\n      0x40\n        /* \"#utility.yul\":5170:5223   */\n      tag_137\n        /* \"#utility.yul\":5215:5222   */\n      dup8\n        /* \"#utility.yul\":5206:5212   */\n      dup3\n        /* \"#utility.yul\":5195:5204   */\n      dup9\n        /* \"#utility.yul\":5191:5213   */\n      add\n        /* \"#utility.yul\":5170:5223   */\n      tag_57\n      jump\t// in\n    tag_137:\n        /* \"#utility.yul\":5160:5223   */\n      swap3\n      pop\n        /* \"#utility.yul\":5115:5233   */\n      pop\n        /* \"#utility.yul\":5300:5302   */\n      0x60\n        /* \"#utility.yul\":5289:5298   */\n      dup6\n        /* \"#utility.yul\":5285:5303   */\n      add\n        /* \"#utility.yul\":5272:5304   */\n      calldataload\n        /* \"#utility.yul\":5331:5349   */\n      0xffffffffffffffff\n        /* \"#utility.yul\":5323:5329   */\n      dup2\n        /* \"#utility.yul\":5320:5350   */\n      gt\n        /* \"#utility.yul\":5317:5434   */\n      iszero\n      tag_138\n      jumpi\n        /* \"#utility.yul\":5353:5432   */\n      tag_139\n      tag_45\n      jump\t// in\n    tag_139:\n        /* \"#utility.yul\":5317:5434   */\n    tag_138:\n        /* \"#utility.yul\":5458:5520   */\n      tag_140\n        /* \"#utility.yul\":5512:5519   */\n      dup8\n        /* \"#utility.yul\":5503:5509   */\n      dup3\n        /* \"#utility.yul\":5492:5501   */\n      dup9\n        /* \"#utility.yul\":5488:5510   */\n      add\n        /* \"#utility.yul\":5458:5520   */\n      tag_67\n      jump\t// in\n    tag_140:\n        /* \"#utility.yul\":5448:5520   */\n      swap2\n      pop\n        /* \"#utility.yul\":5243:5530   */\n      pop\n        /* \"#utility.yul\":4594:5537   */\n      swap3\n      swap6\n      swap2\n      swap5\n      pop\n      swap3\n      pop\n      jump\t// out\n        /* \"#utility.yul\":5543:5658   */\n    tag_68:\n        /* \"#utility.yul\":5628:5651   */\n      tag_142\n        /* \"#utility.yul\":5645:5650   */\n      dup2\n        /* \"#utility.yul\":5628:5651   */\n      tag_46\n      jump\t// in\n    tag_142:\n        /* \"#utility.yul\":5623:5626   */\n      dup3\n        /* \"#utility.yul\":5616:5652   */\n      mstore\n        /* \"#utility.yul\":5543:5658   */\n      pop\n      pop\n      jump\t// out\n        /* \"#utility.yul\":5664:5882   */\n    tag_22:\n        /* \"#utility.yul\":5755:5759   */\n      0x00\n        /* \"#utility.yul\":5793:5795   */\n      0x20\n        /* \"#utility.yul\":5782:5791   */\n      dup3\n        /* \"#utility.yul\":5778:5796   */\n      add\n        /* \"#utility.yul\":5770:5796   */\n      swap1\n      pop\n        /* \"#utility.yul\":5806:5875   */\n      tag_144\n        /* \"#utility.yul\":5872:5873   */\n      0x00\n        /* \"#utility.yul\":5861:5870   */\n      dup4\n        /* \"#utility.yul\":5857:5874   */\n      add\n        /* \"#utility.yul\":5848:5854   */\n      dup5\n        /* \"#utility.yul\":5806:5875   */\n      tag_68\n      jump\t// in\n    tag_144:\n        /* \"#utility.yul\":5664:5882   */\n      swap3\n      swap2\n      pop\n      pop\n      jump\t// out\n        /* \"#utility.yul\":5888:6199   */\n    tag_69:\n        /* \"#utility.yul\":5965:5969   */\n      0x00\n        /* \"#utility.yul\":6055:6073   */\n      0xffffffffffffffff\n        /* \"#utility.yul\":6047:6053   */\n      dup3\n        /* \"#utility.yul\":6044:6074   */\n      gt\n        /* \"#utility.yul\":6041:6097   */\n      iszero\n      tag_146\n      jumpi\n        /* \"#utility.yul\":6077:6095   */\n      tag_147\n      tag_61\n      jump\t// in\n    tag_147:\n        /* \"#utility.yul\":6041:6097   */\n    tag_146:\n        /* \"#utility.yul\":6127:6131   */\n      0x20\n        /* \"#utility.yul\":6119:6125   */\n      dup3\n        /* \"#utility.yul\":6115:6132   */\n      mul\n        /* \"#utility.yul\":6107:6132   */\n      swap1\n      pop\n        /* \"#utility.yul\":6187:6191   */\n      0x20\n        /* \"#utility.yul\":6181:6185   */\n      dup2\n        /* \"#utility.yul\":6177:6192   */\n      add\n        /* \"#utility.yul\":6169:6192   */\n      swap1\n      pop\n        /* \"#utility.yul\":5888:6199   */\n      swap2\n      swap1\n      pop\n      jump\t// out\n        /* \"#utility.yul\":6205:6322   */\n    tag_70:\n        /* \"#utility.yul\":6314:6315   */\n      0x00\n        /* \"#utility.yul\":6311:6312   */\n      dup1\n        /* \"#utility.yul\":6304:6316   */\n      revert\n        /* \"#utility.yul\":6345:7055   */\n    tag_71:\n        /* \"#utility.yul\":6441:6446   */\n      0x00\n        /* \"#utility.yul\":6466:6547   */\n      tag_150\n        /* \"#utility.yul\":6482:6546   */\n      tag_151\n        /* \"#utility.yul\":6539:6545   */\n      dup5\n        /* \"#utility.yul\":6482:6546   */\n      tag_69\n      jump\t// in\n    tag_151:\n        /* \"#utility.yul\":6466:6547   */\n      tag_63\n      jump\t// in\n    tag_150:\n        /* \"#utility.yul\":6457:6547   */\n      swap1\n      pop\n        /* \"#utility.yul\":6567:6572   */\n      dup1\n        /* \"#utility.yul\":6596:6602   */\n      dup4\n        /* \"#utility.yul\":6589:6594   */\n      dup3\n        /* \"#utility.yul\":6582:6603   */\n      mstore\n        /* \"#utility.yul\":6630:6634   */\n      0x20\n        /* \"#utility.yul\":6623:6628   */\n      dup3\n        /* \"#utility.yul\":6619:6635   */\n      add\n        /* \"#utility.yul\":6612:6635   */\n      swap1\n      pop\n        /* \"#utility.yul\":6683:6687   */\n      0x20\n        /* \"#utility.yul\":6675:6681   */\n      dup5\n        /* \"#utility.yul\":6671:6688   */\n      mul\n        /* \"#utility.yul\":6663:6669   */\n      dup4\n        /* \"#utility.yul\":6659:6689   */\n      add\n        /* \"#utility.yul\":6712:6715   */\n      dup6\n        /* \"#utility.yul\":6704:6710   */\n      dup2\n        /* \"#utility.yul\":6701:6716   */\n      gt\n        /* \"#utility.yul\":6698:6820   */\n      iszero\n      tag_152\n      jumpi\n        /* \"#utility.yul\":6731:6810   */\n      tag_153\n      tag_70\n      jump\t// in\n    tag_153:\n        /* \"#utility.yul\":6698:6820   */\n    tag_152:\n        /* \"#utility.yul\":6846:6852   */\n      dup4\n        /* \"#utility.yul\":6829:7049   */\n    tag_154:\n        /* \"#utility.yul\":6863:6869   */\n      dup2\n        /* \"#utility.yul\":6858:6861   */\n      dup2\n        /* \"#utility.yul\":6855:6870   */\n      lt\n        /* \"#utility.yul\":6829:7049   */\n      iszero\n      tag_156\n      jumpi\n        /* \"#utility.yul\":6938:6941   */\n      dup1\n        /* \"#utility.yul\":6967:7004   */\n      tag_157\n        /* \"#utility.yul\":7000:7003   */\n      dup9\n        /* \"#utility.yul\":6988:6998   */\n      dup3\n        /* \"#utility.yul\":6967:7004   */\n      tag_57\n      jump\t// in\n    tag_157:\n        /* \"#utility.yul\":6962:6965   */\n      dup5\n        /* \"#utility.yul\":6955:7005   */\n      mstore\n        /* \"#utility.yul\":7034:7038   */\n      0x20\n        /* \"#utility.yul\":7029:7032   */\n      dup5\n        /* \"#utility.yul\":7025:7039   */\n      add\n        /* \"#utility.yul\":7018:7039   */\n      swap4\n      pop\n        /* \"#utility.yul\":6905:7049   */\n      pop\n        /* \"#utility.yul\":6889:6893   */\n      0x20\n        /* \"#utility.yul\":6884:6887   */\n      dup2\n        /* \"#utility.yul\":6880:6894   */\n      add\n        /* \"#utility.yul\":6873:6894   */\n      swap1\n      pop\n        /* \"#utility.yul\":6829:7049   */\n      jump(tag_154)\n    tag_156:\n        /* \"#utility.yul\":6833:6854   */\n      pop\n        /* \"#utility.yul\":6447:7055   */\n      pop\n      pop\n        /* \"#utility.yul\":6345:7055   */\n      swap4\n      swap3\n      pop\n      pop\n      pop\n      jump\t// out\n        /* \"#utility.yul\":7078:7448   */\n    tag_72:\n        /* \"#utility.yul\":7149:7154   */\n      0x00\n        /* \"#utility.yul\":7198:7201   */\n      dup3\n        /* \"#utility.yul\":7191:7195   */\n      0x1f\n        /* \"#utility.yul\":7183:7189   */\n      dup4\n        /* \"#utility.yul\":7179:7196   */\n      add\n        /* \"#utility.yul\":7175:7202   */\n      slt\n        /* \"#utility.yul\":7165:7287   */\n      tag_159\n      jumpi\n        /* \"#utility.yul\":7206:7285   */\n      tag_160\n      tag_58\n      jump\t// in\n    tag_160:\n        /* \"#utility.yul\":7165:7287   */\n    tag_159:\n        /* \"#utility.yul\":7323:7329   */\n      dup2\n        /* \"#utility.yul\":7310:7330   */\n      calldataload\n        /* \"#utility.yul\":7348:7442   */\n      tag_161\n        /* \"#utility.yul\":7438:7441   */\n      dup5\n        /* \"#utility.yul\":7430:7436   */\n      dup3\n        /* \"#utility.yul\":7423:7427   */\n      0x20\n        /* \"#utility.yul\":7415:7421   */\n      dup7\n        /* \"#utility.yul\":7411:7428   */\n      add\n        /* \"#utility.yul\":7348:7442   */\n      tag_71\n      jump\t// in\n    tag_161:\n        /* \"#utility.yul\":7339:7442   */\n      swap2\n      pop\n        /* \"#utility.yul\":7155:7448   */\n      pop\n        /* \"#utility.yul\":7078:7448   */\n      swap3\n      swap2\n      pop\n      pop\n      jump\t// out\n        /* \"#utility.yul\":7454:8963   */\n    tag_26:\n        /* \"#utility.yul\":7608:7614   */\n      0x00\n        /* \"#utility.yul\":7616:7622   */\n      dup1\n        /* \"#utility.yul\":7624:7630   */\n      0x00\n        /* \"#utility.yul\":7632:7638   */\n      dup1\n        /* \"#utility.yul\":7640:7646   */\n      0x00\n        /* \"#utility.yul\":7689:7692   */\n      0xa0\n        /* \"#utility.yul\":7677:7686   */\n      dup7\n        /* \"#utility.yul\":7668:7675   */\n      dup9\n        /* \"#utility.yul\":7664:7687   */\n      sub\n        /* \"#utility.yul\":7660:7693   */\n      slt\n        /* \"#utility.yul\":7657:7777   */\n      iszero\n      tag_163\n      jumpi\n        /* \"#utility.yul\":7696:7775   */\n      tag_164\n      tag_44\n      jump\t// in\n    tag_164:\n        /* \"#utility.yul\":7657:7777   */\n    tag_163:\n        /* \"#utility.yul\":7816:7817   */\n      0x00\n        /* \"#utility.yul\":7841:7894   */\n      tag_165\n        /* \"#utility.yul\":7886:7893   */\n      dup9\n        /* \"#utility.yul\":7877:7883   */\n      dup3\n        /* \"#utility.yul\":7866:7875   */\n      dup10\n        /* \"#utility.yul\":7862:7884   */\n      add\n        /* \"#utility.yul\":7841:7894   */\n      tag_54\n      jump\t// in\n    tag_165:\n        /* \"#utility.yul\":7831:7894   */\n      swap6\n      pop\n        /* \"#utility.yul\":7787:7904   */\n      pop\n        /* \"#utility.yul\":7943:7945   */\n      0x20\n        /* \"#utility.yul\":7969:8022   */\n      tag_166\n        /* \"#utility.yul\":8014:8021   */\n      dup9\n        /* \"#utility.yul\":8005:8011   */\n      dup3\n        /* \"#utility.yul\":7994:8003   */\n      dup10\n        /* \"#utility.yul\":7990:8012   */\n      add\n        /* \"#utility.yul\":7969:8022   */\n      tag_54\n      jump\t// in\n    tag_166:\n        /* \"#utility.yul\":7959:8022   */\n      swap5\n      pop\n        /* \"#utility.yul\":7914:8032   */\n      pop\n        /* \"#utility.yul\":8099:8101   */\n      0x40\n        /* \"#utility.yul\":8088:8097   */\n      dup7\n        /* \"#utility.yul\":8084:8102   */\n      add\n        /* \"#utility.yul\":8071:8103   */\n      calldataload\n        /* \"#utility.yul\":8130:8148   */\n      0xffffffffffffffff\n        /* \"#utility.yul\":8122:8128   */\n      dup2\n        /* \"#utility.yul\":8119:8149   */\n      gt\n        /* \"#utility.yul\":8116:8233   */\n      iszero\n      tag_167\n      jumpi\n        /* \"#utility.yul\":8152:8231   */\n      tag_168\n      tag_45\n      jump\t// in\n    tag_168:\n        /* \"#utility.yul\":8116:8233   */\n    tag_167:\n        /* \"#utility.yul\":8257:8335   */\n      tag_169\n        /* \"#utility.yul\":8327:8334   */\n      dup9\n        /* \"#utility.yul\":8318:8324   */\n      dup3\n        /* \"#utility.yul\":8307:8316   */\n      dup10\n        /* \"#utility.yul\":8303:8325   */\n      add\n        /* \"#utility.yul\":8257:8335   */\n      tag_72\n      jump\t// in\n    tag_169:\n        /* \"#utility.yul\":8247:8335   */\n      swap4\n      pop\n        /* \"#utility.yul\":8042:8345   */\n      pop\n        /* \"#utility.yul\":8412:8414   */\n      0x60\n        /* \"#utility.yul\":8401:8410   */\n      dup7\n        /* \"#utility.yul\":8397:8415   */\n      add\n        /* \"#utility.yul\":8384:8416   */\n      calldataload\n        /* \"#utility.yul\":8443:8461   */\n      0xffffffffffffffff\n        /* \"#utility.yul\":8435:8441   */\n      dup2\n        /* \"#utility.yul\":8432:8462   */\n      gt\n        /* \"#utility.yul\":8429:8546   */\n      iszero\n      tag_170\n      jumpi\n        /* \"#utility.yul\":8465:8544   */\n      tag_171\n      tag_45\n      jump\t// in\n    tag_171:\n        /* \"#utility.yul\":8429:8546   */\n    tag_170:\n        /* \"#utility.yul\":8570:8648   */\n      tag_172\n        /* \"#utility.yul\":8640:8647   */\n      dup9\n        /* \"#utility.yul\":8631:8637   */\n      dup3\n        /* \"#utility.yul\":8620:8629   */\n      dup10\n        /* \"#utility.yul\":8616:8638   */\n      add\n        /* \"#utility.yul\":8570:8648   */\n      tag_72\n      jump\t// in\n    tag_172:\n        /* \"#utility.yul\":8560:8648   */\n      swap3\n      pop\n        /* \"#utility.yul\":8355:8658   */\n      pop\n        /* \"#utility.yul\":8725:8728   */\n      0x80\n        /* \"#utility.yul\":8714:8723   */\n      dup7\n        /* \"#utility.yul\":8710:8729   */\n      add\n        /* \"#utility.yul\":8697:8730   */\n      calldataload\n        /* \"#utility.yul\":8757:8775   */\n      0xffffffffffffffff\n        /* \"#utility.yul\":8749:8755   */\n      dup2\n        /* \"#utility.yul\":8746:8776   */\n      gt\n        /* \"#utility.yul\":8743:8860   */\n      iszero\n      tag_173\n      jumpi\n        /* \"#utility.yul\":8779:8858   */\n      tag_174\n      tag_45\n      jump\t// in\n    tag_174:\n        /* \"#utility.yul\":8743:8860   */\n    tag_173:\n        /* \"#utility.yul\":8884:8946   */\n      tag_175\n        /* \"#utility.yul\":8938:8945   */\n      dup9\n        /* \"#utility.yul\":8929:8935   */\n      dup3\n        /* \"#utility.yul\":8918:8927   */\n      dup10\n        /* \"#utility.yul\":8914:8936   */\n      add\n        /* \"#utility.yul\":8884:8946   */\n      tag_67\n      jump\t// in\n    tag_175:\n        /* \"#utility.yul\":8874:8946   */\n      swap2\n      pop\n        /* \"#utility.yul\":8668:8956   */\n      pop\n        /* \"#utility.yul\":7454:8963   */\n      swap3\n      swap6\n      pop\n      swap3\n      swap6\n      swap1\n      swap4\n      pop\n      jump\t// out\n        /* \"#utility.yul\":8969:10058   */\n    tag_32:\n        /* \"#utility.yul\":9073:9079   */\n      0x00\n        /* \"#utility.yul\":9081:9087   */\n      dup1\n        /* \"#utility.yul\":9089:9095   */\n      0x00\n        /* \"#utility.yul\":9097:9103   */\n      dup1\n        /* \"#utility.yul\":9105:9111   */\n      0x00\n        /* \"#utility.yul\":9154:9157   */\n      0xa0\n        /* \"#utility.yul\":9142:9151   */\n      dup7\n        /* \"#utility.yul\":9133:9140   */\n      dup9\n        /* \"#utility.yul\":9129:9152   */\n      sub\n        /* \"#utility.yul\":9125:9158   */\n      slt\n        /* \"#utility.yul\":9122:9242   */\n      iszero\n      tag_177\n      jumpi\n        /* \"#utility.yul\":9161:9240   */\n      tag_178\n      tag_44\n      jump\t// in\n    tag_178:\n        /* \"#utility.yul\":9122:9242   */\n    tag_177:\n        /* \"#utility.yul\":9281:9282   */\n      0x00\n        /* \"#utility.yul\":9306:9359   */\n      tag_179\n        /* \"#utility.yul\":9351:9358   */\n      dup9\n        /* \"#utility.yul\":9342:9348   */\n      dup3\n        /* \"#utility.yul\":9331:9340   */\n      dup10\n        /* \"#utility.yul\":9327:9349   */\n      add\n        /* \"#utility.yul\":9306:9359   */\n      tag_54\n      jump\t// in\n    tag_179:\n        /* \"#utility.yul\":9296:9359   */\n      swap6\n      pop\n        /* \"#utility.yul\":9252:9369   */\n      pop\n        /* \"#utility.yul\":9408:9410   */\n      0x20\n        /* \"#utility.yul\":9434:9487   */\n      tag_180\n        /* \"#utility.yul\":9479:9486   */\n      dup9\n        /* \"#utility.yul\":9470:9476   */\n      dup3\n        /* \"#utility.yul\":9459:9468   */\n      dup10\n        /* \"#utility.yul\":9455:9477   */\n      add\n        /* \"#utility.yul\":9434:9487   */\n      tag_54\n      jump\t// in\n    tag_180:\n        /* \"#utility.yul\":9424:9487   */\n      swap5\n      pop\n        /* \"#utility.yul\":9379:9497   */\n      pop\n        /* \"#utility.yul\":9536:9538   */\n      0x40\n        /* \"#utility.yul\":9562:9615   */\n      tag_181\n        /* \"#utility.yul\":9607:9614   */\n      dup9\n        /* \"#utility.yul\":9598:9604   */\n      dup3\n        /* \"#utility.yul\":9587:9596   */\n      dup10\n        /* \"#utility.yul\":9583:9605   */\n      add\n        /* \"#utility.yul\":9562:9615   */\n      tag_57\n      jump\t// in\n    tag_181:\n        /* \"#utility.yul\":9552:9615   */\n      swap4\n      pop\n        /* \"#utility.yul\":9507:9625   */\n      pop\n        /* \"#utility.yul\":9664:9666   */\n      0x60\n        /* \"#utility.yul\":9690:9743   */\n      tag_182\n        /* \"#utility.yul\":9735:9742   */\n      dup9\n        /* \"#utility.yul\":9726:9732   */\n      dup3\n        /* \"#utility.yul\":9715:9724   */\n      dup10\n        /* \"#utility.yul\":9711:9733   */\n      add\n        /* \"#utility.yul\":9690:9743   */\n      tag_57\n      jump\t// in\n    tag_182:\n        /* \"#utility.yul\":9680:9743   */\n      swap3\n      pop\n        /* \"#utility.yul\":9635:9753   */\n      pop\n        /* \"#utility.yul\":9820:9823   */\n      0x80\n        /* \"#utility.yul\":9809:9818   */\n      dup7\n        /* \"#utility.yul\":9805:9824   */\n      add\n        /* \"#utility.yul\":9792:9825   */\n      calldataload\n        /* \"#utility.yul\":9852:9870   */\n      0xffffffffffffffff\n        /* \"#utility.yul\":9844:9850   */\n      dup2\n        /* \"#utility.yul\":9841:9871   */\n      gt\n        /* \"#utility.yul\":9838:9955   */\n      iszero\n      tag_183\n      jumpi\n        /* \"#utility.yul\":9874:9953   */\n      tag_184\n      tag_45\n      jump\t// in\n    tag_184:\n        /* \"#utility.yul\":9838:9955   */\n    tag_183:\n        /* \"#utility.yul\":9979:10041   */\n      tag_185\n        /* \"#utility.yul\":10033:10040   */\n      dup9\n        /* \"#utility.yul\":10024:10030   */\n      dup3\n        /* \"#utility.yul\":10013:10022   */\n      dup10\n        /* \"#utility.yul\":10009:10031   */\n      add\n        /* \"#utility.yul\":9979:10041   */\n      tag_67\n      jump\t// in\n    tag_185:\n        /* \"#utility.yul\":9969:10041   */\n      swap2\n      pop\n        /* \"#utility.yul\":9763:10051   */\n      pop\n        /* \"#utility.yul\":8969:10058   */\n      swap3\n      swap6\n      pop\n      swap3\n      swap6\n      swap1\n      swap4\n      pop\n      jump\t// out\n\n    auxdata: 0xa26469706673582212203fe448f8147b7822fab6ad1054b73c602c19f1980657a8e0823c2c0c7485e14d64736f6c63430008130033\n}\n",
				"bytecode": {
					"linkReferences": {},
					"object": "608060405234801561001057600080fd5b5061081f806100206000396000f3fe6080604052600436106100435760003560e01c806301ffc9a71461004f578063150b7a021461008c578063bc197c81146100c9578063f23a6e61146101065761004a565b3661004a57005b600080fd5b34801561005b57600080fd5b50610076600480360381019061007191906102d1565b610143565b6040516100839190610319565b60405180910390f35b34801561009857600080fd5b506100b360048036038101906100ae919061050e565b6101bd565b6040516100c091906105a0565b60405180910390f35b3480156100d557600080fd5b506100f060048036038101906100eb9190610683565b6101d1565b6040516100fd91906105a0565b60405180910390f35b34801561011257600080fd5b5061012d60048036038101906101289190610752565b6101e6565b60405161013a91906105a0565b60405180910390f35b60007f4e2312e0000000000000000000000000000000000000000000000000000000007bffffffffffffffffffffffffffffffffffffffffffffffffffffffff1916827bffffffffffffffffffffffffffffffffffffffffffffffffffffffff191614806101b657506101b5826101fb565b5b9050919050565b600063150b7a0260e01b9050949350505050565b600063bc197c8160e01b905095945050505050565b600063f23a6e6160e01b905095945050505050565b60007f01ffc9a7000000000000000000000000000000000000000000000000000000007bffffffffffffffffffffffffffffffffffffffffffffffffffffffff1916827bffffffffffffffffffffffffffffffffffffffffffffffffffffffff1916149050919050565b6000604051905090565b600080fd5b600080fd5b60007fffffffff0000000000000000000000000000000000000000000000000000000082169050919050565b6102ae81610279565b81146102b957600080fd5b50565b6000813590506102cb816102a5565b92915050565b6000602082840312156102e7576102e661026f565b5b60006102f5848285016102bc565b91505092915050565b60008115159050919050565b610313816102fe565b82525050565b600060208201905061032e600083018461030a565b92915050565b600073ffffffffffffffffffffffffffffffffffffffff82169050919050565b600061035f82610334565b9050919050565b61036f81610354565b811461037a57600080fd5b50565b60008135905061038c81610366565b92915050565b6000819050919050565b6103a581610392565b81146103b057600080fd5b50565b6000813590506103c28161039c565b92915050565b600080fd5b600080fd5b6000601f19601f8301169050919050565b7f4e487b7100000000000000000000000000000000000000000000000000000000600052604160045260246000fd5b61041b826103d2565b810181811067ffffffffffffffff8211171561043a576104396103e3565b5b80604052505050565b600061044d610265565b90506104598282610412565b919050565b600067ffffffffffffffff821115610479576104786103e3565b5b610482826103d2565b9050602081019050919050565b82818337600083830152505050565b60006104b16104ac8461045e565b610443565b9050828152602081018484840111156104cd576104cc6103cd565b5b6104d884828561048f565b509392505050565b600082601f8301126104f5576104f46103c8565b5b813561050584826020860161049e565b91505092915050565b600080600080608085870312156105285761052761026f565b5b60006105368782880161037d565b94505060206105478782880161037d565b9350506040610558878288016103b3565b925050606085013567ffffffffffffffff81111561057957610578610274565b5b610585878288016104e0565b91505092959194509250565b61059a81610279565b82525050565b60006020820190506105b56000830184610591565b92915050565b600067ffffffffffffffff8211156105d6576105d56103e3565b5b602082029050602081019050919050565b600080fd5b60006105ff6105fa846105bb565b610443565b90508083825260208201905060208402830185811115610622576106216105e7565b5b835b8181101561064b578061063788826103b3565b845260208401935050602081019050610624565b5050509392505050565b600082601f83011261066a576106696103c8565b5b813561067a8482602086016105ec565b91505092915050565b600080600080600060a0868803121561069f5761069e61026f565b5b60006106ad8882890161037d565b95505060206106be8882890161037d565b945050604086013567ffffffffffffffff8111156106df576106de610274565b5b6106eb88828901610655565b935050606086013567ffffffffffffffff81111561070c5761070b610274565b5b61071888828901610655565b925050608086013567ffffffffffffffff81111561073957610738610274565b5b610745888289016104e0565b9150509295509295909350565b600080600080600060a0868803121561076e5761076d61026f565b5b600061077c8882890161037d565b955050602061078d8882890161037d565b945050604061079e888289016103b3565b93505060606107af888289016103b3565b925050608086013567ffffffffffffffff8111156107d0576107cf610274565b5b6107dc888289016104e0565b915050929550929590935056fea26469706673582212203fe448f8147b7822fab6ad1054b73c602c19f1980657a8e0823c2c0c7485e14d64736f6c63430008130033",
					"opcodes": "PUSH1 0x80 PUSH1 0x40 MSTORE CALLVALUE DUP1 ISZERO PUSH2 0x10 JUMPI PUSH1 0x0 DUP1 REVERT JUMPDEST POP PUSH2 0x81F DUP1 PUSH2 0x20 PUSH1 0x0 CODECOPY PUSH1 0x0 RETURN INVALID PUSH1 0x80 PUSH1 0x40 MSTORE PUSH1 0x4 CALLDATASIZE LT PUSH2 0x43 JUMPI PUSH1 0x0 CALLDATALOAD PUSH1 0xE0 SHR DUP1 PUSH4 0x1FFC9A7 EQ PUSH2 0x4F JUMPI DUP1 PUSH4 0x150B7A02 EQ PUSH2 0x8C JUMPI DUP1 PUSH4 0xBC197C81 EQ PUSH2 0xC9 JUMPI DUP1 PUSH4 0xF23A6E61 EQ PUSH2 0x106 JUMPI PUSH2 0x4A JUMP JUMPDEST CALLDATASIZE PUSH2 0x4A JUMPI STOP JUMPDEST PUSH1 0x0 DUP1 REVERT JUMPDEST CALLVALUE DUP1 ISZERO PUSH2 0x5B JUMPI PUSH1 0x0 DUP1 REVERT JUMPDEST POP PUSH2 0x76 PUSH1 0x4 DUP1 CALLDATASIZE SUB DUP2 ADD SWAP1 PUSH2 0x71 SWAP2 SWAP1 PUSH2 0x2D1 JUMP JUMPDEST PUSH2 0x143 JUMP JUMPDEST PUSH1 0x40 MLOAD PUSH2 0x83 SWAP2 SWAP1 PUSH2 0x319 JUMP JUMPDEST PUSH1 0x40 MLOAD DUP1 SWAP2 SUB SWAP1 RETURN JUMPDEST CALLVALUE DUP1 ISZERO PUSH2 0x98 JUMPI PUSH1 0x0 DUP1 REVERT JUMPDEST POP PUSH2 0xB3 PUSH1 0x4 DUP1 CALLDATASIZE SUB DUP2 ADD SWAP1 PUSH2 0xAE SWAP2 SWAP1 PUSH2 0x50E JUMP JUMPDEST PUSH2 0x1BD JUMP JUMPDEST PUSH1 0x40 MLOAD PUSH2 0xC0 SWAP2 SWAP1 PUSH2 0x5A0 JUMP JUMPDEST PUSH1 0x40 MLOAD DUP1 SWAP2 SUB SWAP1 RETURN JUMPDEST CALLVALUE DUP1 ISZERO PUSH2 0xD5 JUMPI PUSH1 0x0 DUP1 REVERT JUMPDEST POP PUSH2 0xF0 PUSH1 0x4 DUP1 CALLDATASIZE SUB DUP2 ADD SWAP1 PUSH2 0xEB SWAP2 SWAP1 PUSH2 0x683 JUMP JUMPDEST PUSH2 0x1D1 JUMP JUMPDEST PUSH1 0x40 MLOAD PUSH2 0xFD SWAP2 SWAP1 PUSH2 0x5A0 JUMP JUMPDEST PUSH1 0x40 MLOAD DUP1 SWAP2 SUB SWAP1 RETURN JUMPDEST CALLVALUE DUP1 ISZERO PUSH2 0x112 JUMPI PUSH1 0x0 DUP1 REVERT JUMPDEST POP PUSH2 0x12D PUSH1 0x4 DUP1 CALLDATASIZE SUB DUP2 ADD SWAP1 PUSH2 0x128 SWAP2 SWAP1 PUSH2 0x752 JUMP JUMPDEST PUSH2 0x1E6 JUMP JUMPDEST PUSH1 0x40 MLOAD PUSH2 0x13A SWAP2 SWAP1 PUSH2 0x5A0 JUMP JUMPDEST PUSH1 0x40 MLOAD DUP1 SWAP2 SUB SWAP1 RETURN JUMPDEST PUSH1 0x0 PUSH32 0x4E2312E000000000000000000000000000000000000000000000000000000000 PUSH28 0xFFFFFFFFFFFFFFFFFFFFFFFFFFFFFFFFFFFFFFFFFFFFFFFFFFFFFFFF NOT AND DUP3 PUSH28 0xFFFFFFFFFFFFFFFFFFFFFFFFFFFFFFFFFFFFFFFFFFFFFFFFFFFFFFFF NOT AND EQ DUP1 PUSH2 0x1B6 JUMPI POP PUSH2 0x1B5 DUP3 PUSH2 0x1FB JUMP JUMPDEST JUMPDEST SWAP1 POP SWAP2 SWAP1 POP JUMP JUMPDEST PUSH1 0x0 PUSH4 0x150B7A02 PUSH1 0xE0 SHL SWAP1 POP SWAP5 SWAP4 POP POP POP POP JUMP JUMPDEST PUSH1 0x0 PUSH4 0xBC197C81 PUSH1 0xE0 SHL SWAP1 POP SWAP6 SWAP5 POP POP POP POP POP JUMP JUMPDEST PUSH1 0x0 PUSH4 0xF23A6E61 PUSH1 0xE0 SHL SWAP1 POP SWAP6 SWAP5 POP POP POP POP POP JUMP JUMPDEST PUSH1 0x0 PUSH32 0x1FFC9A700000000000000000000000000000000000000000000000000000000 PUSH28 0xFFFFFFFFFFFFFFFFFFFFFFFFFFFFFFFFFFFFFFFFFFFFFFFFFFFFFFFF NOT AND DUP3 PUSH28 0xFFFFFFFFFFFFFFFFFFFFFFFFFFFFFFFFFFFFFFFFFFFFFFFFFFFFFFFF NOT AND EQ SWAP1 POP SWAP2 SWAP1 POP JUMP JUMPDEST PUSH1 0x0 PUSH1 0x40 MLOAD SWAP1 POP SWAP1 JUMP JUMPDEST PUSH1 0x0 DUP1 REVERT JUMPDEST PUSH1 0x0 DUP1 REVERT JUMPDEST PUSH1 0x0 PUSH32 0xFFFFFFFF00000000000000000000000000000000000000000000000000000000 DUP3 AND SWAP1 POP SWAP2 SWAP1 POP JUMP JUMPDEST PUSH2 0x2AE DUP2 PUSH2 0x279 JUMP JUMPDEST DUP2 EQ PUSH2 0x2B9 JUMPI PUSH1 0x0 DUP1 REVERT JUMPDEST POP JUMP JUMPDEST PUSH1 0x0 DUP2 CALLDATALOAD SWAP1 POP PUSH2 0x2CB DUP2 PUSH2 0x2A5 JUMP JUMPDEST SWAP3 SWAP2 POP POP JUMP JUMPDEST PUSH1 0x0 PUSH1 0x20 DUP3 DUP5 SUB SLT ISZERO PUSH2 0x2E7 JUMPI PUSH2 0x2E6 PUSH2 0x26F JUMP JUMPDEST JUMPDEST PUSH1 0x0 PUSH2 0x2F5 DUP5 DUP3 DUP6 ADD PUSH2 0x2BC JUMP JUMPDEST SWAP2 POP POP SWAP3 SWAP2 POP POP JUMP JUMPDEST PUSH1 0x0 DUP2 ISZERO ISZERO SWAP1 POP SWAP2 SWAP1 POP JUMP JUMPDEST PUSH2 0x313 DUP2 PUSH2 0x2FE JUMP JUMPDEST DUP3 MSTORE POP POP JUMP JUMPDEST PUSH1 0x0 PUSH1 0x20 DUP3 ADD SWAP1 POP PUSH2 0x32E PUSH1 0x0 DUP4 ADD DUP5 PUSH2 0x30A JUMP JUMPDEST SWAP3 SWAP2 POP POP JUMP JUMPDEST PUSH1 0x0 PUSH20 0xFFFFFFFFFFFFFFFFFFFFFFFFFFFFFFFFFFFFFFFF DUP3 AND SWAP1 POP SWAP2 SWAP1 POP JUMP JUMPDEST PUSH1 0x0 PUSH2 0x35F DUP3 PUSH2 0x334 JUMP JUMPDEST SWAP1 POP SWAP2 SWAP1 POP JUMP JUMPDEST PUSH2 0x36F DUP2 PUSH2 0x354 JUMP JUMPDEST DUP2 EQ PUSH2 0x37A JUMPI PUSH1 0x0 DUP1 REVERT JUMPDEST POP JUMP JUMPDEST PUSH1 0x0 DUP2 CALLDATALOAD SWAP1 POP PUSH2 0x38C DUP2 PUSH2 0x366 JUMP JUMPDEST SWAP3 SWAP2 POP POP JUMP JUMPDEST PUSH1 0x0 DUP2 SWAP1 POP SWAP2 SWAP1 POP JUMP JUMPDEST PUSH2 0x3A5 DUP2 PUSH2 0x392 JUMP JUMPDEST DUP2 EQ PUSH2 0x3B0 JUMPI PUSH1 0x0 DUP1 REVERT JUMPDEST POP JUMP JUMPDEST PUSH1 0x0 DUP2 CALLDATALOAD SWAP1 POP PUSH2 0x3C2 DUP2 PUSH2 0x39C JUMP JUMPDEST SWAP3 SWAP2 POP POP JUMP JUMPDEST PUSH1 0x0 DUP1 REVERT JUMPDEST PUSH1 0x0 DUP1 REVERT JUMPDEST PUSH1 0x0 PUSH1 0x1F NOT PUSH1 0x1F DUP4 ADD AND SWAP1 POP SWAP2 SWAP1 POP JUMP JUMPDEST PUSH32 0x4E487B7100000000000000000000000000000000000000000000000000000000 PUSH1 0x0 MSTORE PUSH1 0x41 PUSH1 0x4 MSTORE PUSH1 0x24 PUSH1 0x0 REVERT JUMPDEST PUSH2 0x41B DUP3 PUSH2 0x3D2 JUMP JUMPDEST DUP2 ADD DUP2 DUP2 LT PUSH8 0xFFFFFFFFFFFFFFFF DUP3 GT OR ISZERO PUSH2 0x43A JUMPI PUSH2 0x439 PUSH2 0x3E3 JUMP JUMPDEST JUMPDEST DUP1 PUSH1 0x40 MSTORE POP POP POP JUMP JUMPDEST PUSH1 0x0 PUSH2 0x44D PUSH2 0x265 JUMP JUMPDEST SWAP1 POP PUSH2 0x459 DUP3 DUP3 PUSH2 0x412 JUMP JUMPDEST SWAP2 SWAP1 POP JUMP JUMPDEST PUSH1 0x0 PUSH8 0xFFFFFFFFFFFFFFFF DUP3 GT ISZERO PUSH2 0x479 JUMPI PUSH2 0x478 PUSH2 0x3E3 JUMP JUMPDEST JUMPDEST PUSH2 0x482 DUP3 PUSH2 0x3D2 JUMP JUMPDEST SWAP1 POP PUSH1 0x20 DUP2 ADD SWAP1 POP SWAP2 SWAP1 POP JUMP JUMPDEST DUP3 DUP2 DUP4 CALLDATACOPY PUSH1 0x0 DUP4 DUP4 ADD MSTORE POP POP POP JUMP JUMPDEST PUSH1 0x0 PUSH2 0x4B1 PUSH2 0x4AC DUP5 PUSH2 0x45E JUMP JUMPDEST PUSH2 0x443 JUMP JUMPDEST SWAP1 POP DUP3 DUP2 MSTORE PUSH1 0x20 DUP2 ADD DUP5 DUP5 DUP5 ADD GT ISZERO PUSH2 0x4CD JUMPI PUSH2 0x4CC PUSH2 0x3CD JUMP JUMPDEST JUMPDEST PUSH2 0x4D8 DUP5 DUP3 DUP6 PUSH2 0x48F JUMP JUMPDEST POP SWAP4 SWAP3 POP POP POP JUMP JUMPDEST PUSH1 0x0 DUP3 PUSH1 0x1F DUP4 ADD SLT PUSH2 0x4F5 JUMPI PUSH2 0x4F4 PUSH2 0x3C8 JUMP JUMPDEST JUMPDEST DUP2 CALLDATALOAD PUSH2 0x505 DUP5 DUP3 PUSH1 0x20 DUP7 ADD PUSH2 0x49E JUMP JUMPDEST SWAP2 POP POP SWAP3 SWAP2 POP POP JUMP JUMPDEST PUSH1 0x0 DUP1 PUSH1 0x0 DUP1 PUSH1 0x80 DUP6 DUP8 SUB SLT ISZERO PUSH2 0x528 JUMPI PUSH2 0x527 PUSH2 0x26F JUMP JUMPDEST JUMPDEST PUSH1 0x0 PUSH2 0x536 DUP8 DUP3 DUP9 ADD PUSH2 0x37D JUMP JUMPDEST SWAP5 POP POP PUSH1 0x20 PUSH2 0x547 DUP8 DUP3 DUP9 ADD PUSH2 0x37D JUMP JUMPDEST SWAP4 POP POP PUSH1 0x40 PUSH2 0x558 DUP8 DUP3 DUP9 ADD PUSH2 0x3B3 JUMP JUMPDEST SWAP3 POP POP PUSH1 0x60 DUP6 ADD CALLDATALOAD PUSH8 0xFFFFFFFFFFFFFFFF DUP2 GT ISZERO PUSH2 0x579 JUMPI PUSH2 0x578 PUSH2 0x274 JUMP JUMPDEST JUMPDEST PUSH2 0x585 DUP8 DUP3 DUP9 ADD PUSH2 0x4E0 JUMP JUMPDEST SWAP2 POP POP SWAP3 SWAP6 SWAP2 SWAP5 POP SWAP3 POP JUMP JUMPDEST PUSH2 0x59A DUP2 PUSH2 0x279 JUMP JUMPDEST DUP3 MSTORE POP POP JUMP JUMPDEST PUSH1 0x0 PUSH1 0x20 DUP3 ADD SWAP1 POP PUSH2 0x5B5 PUSH1 0x0 DUP4 ADD DUP5 PUSH2 0x591 JUMP JUMPDEST SWAP3 SWAP2 POP POP JUMP JUMPDEST PUSH1 0x0 PUSH8 0xFFFFFFFFFFFFFFFF DUP3 GT ISZERO PUSH2 0x5D6 JUMPI PUSH2 0x5D5 PUSH2 0x3E3 JUMP JUMPDEST JUMPDEST PUSH1 0x20 DUP3 MUL SWAP1 POP PUSH1 0x20 DUP2 ADD SWAP1 POP SWAP2 SWAP1 POP JUMP JUMPDEST PUSH1 0x0 DUP1 REVERT JUMPDEST PUSH1 0x0 PUSH2 0x5FF PUSH2 0x5FA DUP5 PUSH2 0x5BB JUMP JUMPDEST PUSH2 0x443 JUMP JUMPDEST SWAP1 POP DUP1 DUP4 DUP3 MSTORE PUSH1 0x20 DUP3 ADD SWAP1 POP PUSH1 0x20 DUP5 MUL DUP4 ADD DUP6 DUP2 GT ISZERO PUSH2 0x622 JUMPI PUSH2 0x621 PUSH2 0x5E7 JUMP JUMPDEST JUMPDEST DUP4 JUMPDEST DUP2 DUP2 LT ISZERO PUSH2 0x64B JUMPI DUP1 PUSH2 0x637 DUP9 DUP3 PUSH2 0x3B3 JUMP JUMPDEST DUP5 MSTORE PUSH1 0x20 DUP5 ADD SWAP4 POP POP PUSH1 0x20 DUP2 ADD SWAP1 POP PUSH2 0x624 JUMP JUMPDEST POP POP POP SWAP4 SWAP3 POP POP POP JUMP JUMPDEST PUSH1 0x0 DUP3 PUSH1 0x1F DUP4 ADD SLT PUSH2 0x66A JUMPI PUSH2 0x669 PUSH2 0x3C8 JUMP JUMPDEST JUMPDEST DUP2 CALLDATALOAD PUSH2 0x67A DUP5 DUP3 PUSH1 0x20 DUP7 ADD PUSH2 0x5EC JUMP JUMPDEST SWAP2 POP POP SWAP3 SWAP2 POP POP JUMP JUMPDEST PUSH1 0x0 DUP1 PUSH1 0x0 DUP1 PUSH1 0x0 PUSH1 0xA0 DUP7 DUP9 SUB SLT ISZERO PUSH2 0x69F JUMPI PUSH2 0x69E PUSH2 0x26F JUMP JUMPDEST JUMPDEST PUSH1 0x0 PUSH2 0x6AD DUP9 DUP3 DUP10 ADD PUSH2 0x37D JUMP JUMPDEST SWAP6 POP POP PUSH1 0x20 PUSH2 0x6BE DUP9 DUP3 DUP10 ADD PUSH2 0x37D JUMP JUMPDEST SWAP5 POP POP PUSH1 0x40 DUP7 ADD CALLDATALOAD PUSH8 0xFFFFFFFFFFFFFFFF DUP2 GT ISZERO PUSH2 0x6DF JUMPI PUSH2 0x6DE PUSH2 0x274 JUMP JUMPDEST JUMPDEST PUSH2 0x6EB DUP9 DUP3 DUP10 ADD PUSH2 0x655 JUMP JUMPDEST SWAP4 POP POP PUSH1 0x60 DUP7 ADD CALLDATALOAD PUSH8 0xFFFFFFFFFFFFFFFF DUP2 GT ISZERO PUSH2 0x70C JUMPI PUSH2 0x70B PUSH2 0x274 JUMP JUMPDEST JUMPDEST PUSH2 0x718 DUP9 DUP3 DUP10 ADD PUSH2 0x655 JUMP JUMPDEST SWAP3 POP POP PUSH1 0x80 DUP7 ADD CALLDATALOAD PUSH8 0xFFFFFFFFFFFFFFFF DUP2 GT ISZERO PUSH2 0x739 JUMPI PUSH2 0x738 PUSH2 0x274 JUMP JUMPDEST JUMPDEST PUSH2 0x745 DUP9 DUP3 DUP10 ADD PUSH2 0x4E0 JUMP JUMPDEST SWAP2 POP POP SWAP3 SWAP6 POP SWAP3 SWAP6 SWAP1 SWAP4 POP JUMP JUMPDEST PUSH1 0x0 DUP1 PUSH1 0x0 DUP1 PUSH1 0x0 PUSH1 0xA0 DUP7 DUP9 SUB SLT ISZERO PUSH2 0x76E JUMPI PUSH2 0x76D PUSH2 0x26F JUMP JUMPDEST JUMPDEST PUSH1 0x0 PUSH2 0x77C DUP9 DUP3 DUP10 ADD PUSH2 0x37D JUMP JUMPDEST SWAP6 POP POP PUSH1 0x20 PUSH2 0x78D DUP9 DUP3 DUP10 ADD PUSH2 0x37D JUMP JUMPDEST SWAP5 POP POP PUSH1 0x40 PUSH2 0x79E DUP9 DUP3 DUP10 ADD PUSH2 0x3B3 JUMP JUMPDEST SWAP4 POP POP PUSH1 0x60 PUSH2 0x7AF DUP9 DUP3 DUP10 ADD PUSH2 0x3B3 JUMP JUMPDEST SWAP3 POP POP PUSH1 0x80 DUP7 ADD CALLDATALOAD PUSH8 0xFFFFFFFFFFFFFFFF DUP2 GT ISZERO PUSH2 0x7D0 JUMPI PUSH2 0x7CF PUSH2 0x274 JUMP JUMPDEST JUMPDEST PUSH2 0x7DC DUP9 DUP3 DUP10 ADD PUSH2 0x4E0 JUMP JUMPDEST SWAP2 POP POP SWAP3 SWAP6 POP SWAP3 SWAP6 SWAP1 SWAP4 POP JUMP INVALID LOG2 PUSH5 0x6970667358 0x22 SLT KECCAK256 EXTCODEHASH 0xE4 BASEFEE 0xF8 EQ PUSH28 0x7822FAB6AD1054B73C602C19F1980657A8E0823C2C0C7485E14D6473 PUSH16 0x6C634300081300330000000000000000 "
				},
				"gasEstimates": {
					"creation": {
						"codeDepositCost": "415800",
						"executionCost": "449",
						"totalCost": "416249"
					},
					"external": {
						"onERC1155BatchReceived(address,address,uint256[],uint256[],bytes)": "infinite",
						"onERC1155Received(address,address,uint256,uint256,bytes)": "infinite",
						"onERC721Received(address,address,uint256,bytes)": "infinite",
						"supportsInterface(bytes4)": "705"
					}
				},
				"methodIdentifiers": {
					"onERC1155BatchReceived(address,address,uint256[],uint256[],bytes)": "bc197c81",
					"onERC1155Received(address,address,uint256,uint256,bytes)": "f23a6e61",
					"onERC721Received(address,address,uint256,bytes)": "150b7a02",
					"supportsInterface(bytes4)": "01ffc9a7"
				}
			},
			"storageLayout": {
				"storage": [],
				"types": null
			},
			"userdoc": {
				"kind": "user",
				"methods": {},
				"version": 1
			}
		}
	}
}