{
	"tba/lib/MinimalReceiver.sol": {
		"MinimalReceiver": {
			"abi": [
				{
					"inputs": [
						{
							"internalType": "address",
							"name": "",
							"type": "address"
						},
						{
							"internalType": "address",
							"name": "",
							"type": "address"
						},
						{
							"internalType": "uint256[]",
							"name": "",
							"type": "uint256[]"
						},
						{
							"internalType": "uint256[]",
							"name": "",
							"type": "uint256[]"
						},
						{
							"internalType": "bytes",
							"name": "",
							"type": "bytes"
						}
					],
					"name": "onERC1155BatchReceived",
					"outputs": [
						{
							"internalType": "bytes4",
							"name": "",
							"type": "bytes4"
						}
					],
					"stateMutability": "nonpayable",
					"type": "function"
				},
				{
					"inputs": [
						{
							"internalType": "address",
							"name": "",
							"type": "address"
						},
						{
							"internalType": "address",
							"name": "",
							"type": "address"
						},
						{
							"internalType": "uint256",
							"name": "",
							"type": "uint256"
						},
						{
							"internalType": "uint256",
							"name": "",
							"type": "uint256"
						},
						{
							"internalType": "bytes",
							"name": "",
							"type": "bytes"
						}
					],
					"name": "onERC1155Received",
					"outputs": [
						{
							"internalType": "bytes4",
							"name": "",
							"type": "bytes4"
						}
					],
					"stateMutability": "nonpayable",
					"type": "function"
				},
				{
					"inputs": [
						{
							"internalType": "address",
							"name": "",
							"type": "address"
						},
						{
							"internalType": "address",
							"name": "",
							"type": "address"
						},
						{
							"internalType": "uint256",
							"name": "",
							"type": "uint256"
						},
						{
							"internalType": "bytes",
							"name": "",
							"type": "bytes"
						}
					],
					"name": "onERC721Received",
					"outputs": [
						{
							"internalType": "bytes4",
							"name": "",
							"type": "bytes4"
						}
					],
					"stateMutability": "nonpayable",
					"type": "function"
				},
				{
					"inputs": [
						{
							"internalType": "bytes4",
							"name": "interfaceId",
							"type": "bytes4"
						}
					],
					"name": "supportsInterface",
					"outputs": [
						{
							"internalType": "bool",
							"name": "",
							"type": "bool"
						}
					],
					"stateMutability": "view",
					"type": "function"
				},
				{
					"stateMutability": "payable",
					"type": "receive"
				}
			],
			"devdoc": {
				"kind": "dev",
				"methods": {
					"onERC721Received(address,address,uint256,bytes)": {
						"details": "See {IERC721Receiver-onERC721Received}. Always returns `IERC721Receiver.onERC721Received.selector`."
					},
					"supportsInterface(bytes4)": {
						"details": "See {IERC165-supportsInterface}."
					}
				},
				"version": 1
			},
			"evm": {
				"assembly": "    /* \"tba/lib/MinimalReceiver.sol\":298:454  contract MinimalReceiver is ERC721Holder, ERC1155Holder {... */\n  mstore(0x40, 0x80)\n  callvalue\n  dup1\n  iszero\n  tag_1\n  jumpi\n  0x00\n  dup1\n  revert\ntag_1:\n  pop\n  dataSize(sub_0)\n  dup1\n  dataOffset(sub_0)\n  0x00\n  codecopy\n  0x00\n  return\nstop\n\nsub_0: assembly {\n        /* \"tba/lib/MinimalReceiver.sol\":298:454  contract MinimalReceiver is ERC721Holder, ERC1155Holder {... */\n      mstore(0x40, 0x80)\n      jumpi(tag_1, lt(calldatasize, 0x04))\n      shr(0xe0, calldataload(0x00))\n      dup1\n      0x01ffc9a7\n      eq\n      tag_3\n      jumpi\n      dup1\n      0x150b7a02\n      eq\n      tag_4\n      jumpi\n      dup1\n      0xbc197c81\n      eq\n      tag_5\n      jumpi\n      dup1\n      0xf23a6e61\n      eq\n      tag_6\n      jumpi\n      jump(tag_2)\n    tag_1:\n      jumpi(tag_2, calldatasize)\n      stop\n    tag_2:\n      0x00\n      dup1\n      revert\n        /* \"github.com/OpenZeppelin/openzeppelin-contracts/blob/v4.7.3/contracts/token/ERC1155/utils/ERC1155Receiver.sol\":387:608  function supportsInterface(bytes4 interfaceId) public view virtual override(ERC165, IERC165) returns (bool) {... */\n    tag_3:\n      callvalue\n      dup1\n      iszero\n      tag_9\n      jumpi\n      0x00\n      dup1\n      revert\n    tag_9:\n      pop\n      tag_10\n      0x04\n      dup1\n      calldatasize\n      sub\n      dup2\n      add\n      swap1\n      tag_11\n      swap2\n      swap1\n      tag_12\n      jump\t// in\n    tag_11:\n      tag_13\n      jump\t// in\n    tag_10:\n      mload(0x40)\n      tag_14\n      swap2\n      swap1\n      tag_15\n      jump\t// in\n    tag_14:\n      mload(0x40)\n      dup1\n      swap2\n      sub\n      swap1\n      return\n        /* \"github.com/OpenZeppelin/openzeppelin-contracts/blob/v4.7.3/contracts/token/ERC721/utils/ERC721Holder.sol\":588:788  function onERC721Received(... */\n    tag_4:\n      callvalue\n      dup1\n      iszero\n      tag_16\n      jumpi\n      0x00\n      dup1\n      revert\n    tag_16:\n      pop\n      tag_17\n      0x04\n      dup1\n      calldatasize\n      sub\n      dup2\n      add\n      swap1\n      tag_18\n      swap2\n      swap1\n      tag_19\n      jump\t// in\n    tag_18:\n      tag_20\n      jump\t// in\n    tag_17:\n      mload(0x40)\n      tag_21\n      swap2\n      swap1\n      tag_22\n      jump\t// in\n    tag_21:\n      mload(0x40)\n      dup1\n      swap2\n      sub\n      swap1\n      return\n        /* \"github.com/OpenZeppelin/openzeppelin-contracts/blob/v4.7.3/contracts/token/ERC1155/utils/ERC1155Holder.sol\":724:971  function onERC1155BatchReceived(... */\n    tag_5:\n      callvalue\n      dup1\n      iszero\n      tag_23\n      jumpi\n      0x00\n      dup1\n      revert\n    tag_23:\n      pop\n      tag_24\n      0x04\n      dup1\n      calldatasize\n      sub\n      dup2\n      add\n      swap1\n      tag_25\n      swap2\n      swap1\n      tag_26\n      jump\t// in\n    tag_25:\n      tag_27\n      jump\t// in\n    tag_24:\n      mload(0x40)\n      tag_28\n      swap2\n      swap1\n      tag_22\n      jump\t// in\n    tag_28:\n      mload(0x40)\n      dup1\n      swap2\n      sub\n      swap1\n      return\n        /* \"github.com/OpenZeppelin/openzeppelin-contracts/blob/v4.7.3/contracts/token/ERC1155/utils/ERC1155Holder.sol\":499:718  function onERC1155Received(... */\n    tag_6:\n      callvalue\n      dup1\n      iszero\n      tag_29\n      jumpi\n      0x00\n      dup1\n      revert\n    tag_29:\n      pop\n      tag_30\n      0x04\n      dup1\n      calldatasize\n      sub\n      dup2\n      add\n      swap1\n      tag_31\n      swap2\n      swap1\n      tag_32\n      jump\t// in\n    tag_31:\n      tag_33\n      jump\t// in\n    tag_30:\n      mload(0x40)\n      tag_34\n      swap2\n      swap1\n      tag_22\n      jump\t// in\n    tag_34:\n      mload(0x40)\n      dup1\n      swap2\n      sub\n      swap1\n      return\n        /* \"github.com/OpenZeppelin/openzeppelin-contracts/blob/v4.7.3/contracts/token/ERC1155/utils/ERC1155Receiver.sol\":387:608  function supportsInterface(bytes4 interfaceId) public view virtual override(ERC165, IERC165) returns (bool) {... */\n    tag_13:\n        /* \"github.com/OpenZeppelin/openzeppelin-contracts/blob/v4.7.3/contracts/token/ERC1155/utils/ERC1155Receiver.sol\":489:493  bool */\n      0x00\n        /* \"github.com/OpenZeppelin/openzeppelin-contracts/blob/v4.7.3/contracts/token/ERC1155/utils/ERC1155Receiver.sol\":527:561  type(IERC1155Receiver).interfaceId */\n      0x4e2312e000000000000000000000000000000000000000000000000000000000\n        /* \"github.com/OpenZeppelin/openzeppelin-contracts/blob/v4.7.3/contracts/token/ERC1155/utils/ERC1155Receiver.sol\":512:561  interfaceId == type(IERC1155Receiver).interfaceId */\n      not(0xffffffffffffffffffffffffffffffffffffffffffffffffffffffff)\n      and\n        /* \"github.com/OpenZeppelin/openzeppelin-contracts/blob/v4.7.3/contracts/token/ERC1155/utils/ERC1155Receiver.sol\":512:523  interfaceId */\n      dup3\n        /* \"github.com/OpenZeppelin/openzeppelin-contracts/blob/v4.7.3/contracts/token/ERC1155/utils/ERC1155Receiver.sol\":512:561  interfaceId == type(IERC1155Receiver).interfaceId */\n      not(0xffffffffffffffffffffffffffffffffffffffffffffffffffffffff)\n      and\n      eq\n        /* \"github.com/OpenZeppelin/openzeppelin-contracts/blob/v4.7.3/contracts/token/ERC1155/utils/ERC1155Receiver.sol\":512:601  interfaceId == type(IERC1155Receiver).interfaceId || super.supportsInterface(interfaceId) */\n      dup1\n      tag_36\n      jumpi\n      pop\n        /* \"github.com/OpenZeppelin/openzeppelin-contracts/blob/v4.7.3/contracts/token/ERC1155/utils/ERC1155Receiver.sol\":565:601  super.supportsInterface(interfaceId) */\n      tag_37\n        /* \"github.com/OpenZeppelin/openzeppelin-contracts/blob/v4.7.3/contracts/token/ERC1155/utils/ERC1155Receiver.sol\":589:600  interfaceId */\n      dup3\n        /* \"github.com/OpenZeppelin/openzeppelin-contracts/blob/v4.7.3/contracts/token/ERC1155/utils/ERC1155Receiver.sol\":565:588  super.supportsInterface */\n      tag_38\n        /* \"github.com/OpenZeppelin/openzeppelin-contracts/blob/v4.7.3/contracts/token/ERC1155/utils/ERC1155Receiver.sol\":565:601  super.supportsInterface(interfaceId) */\n      jump\t// in\n    tag_37:\n        /* \"github.com/OpenZeppelin/openzeppelin-contracts/blob/v4.7.3/contracts/token/ERC1155/utils/ERC1155Receiver.sol\":512:601  interfaceId == type(IERC1155Receiver).interfaceId || super.supportsInterface(interfaceId) */\n    tag_36:\n        /* \"github.com/OpenZeppelin/openzeppelin-contracts/blob/v4.7.3/contracts/token/ERC1155/utils/ERC1155Receiver.sol\":505:601  return interfaceId == type(IERC1155Receiver).interfaceId || super.supportsInterface(interfaceId) */\n      swap1\n      pop\n        /* \"github.com/OpenZeppelin/openzeppelin-contracts/blob/v4.7.3/contracts/token/ERC1155/utils/ERC1155Receiver.sol\":387:608  function supportsInterface(bytes4 interfaceId) public view virtual override(ERC165, IERC165) returns (bool) {... */\n      swap2\n      swap1\n      pop\n      jump\t// out\n        /* \"github.com/OpenZeppelin/openzeppelin-contracts/blob/v4.7.3/contracts/token/ERC721/utils/ERC721Holder.sol\":588:788  function onERC721Received(... */\n    tag_20:\n        /* \"github.com/OpenZeppelin/openzeppelin-contracts/blob/v4.7.3/contracts/token/ERC721/utils/ERC721Holder.sol\":726:732  bytes4 */\n      0x00\n        /* \"github.com/OpenZeppelin/openzeppelin-contracts/blob/v4.7.3/contracts/token/ERC721/utils/ERC721Holder.sol\":751:781  this.onERC721Received.selector */\n      shl(0xe0, 0x150b7a02)\n        /* \"github.com/OpenZeppelin/openzeppelin-contracts/blob/v4.7.3/contracts/token/ERC721/utils/ERC721Holder.sol\":744:781  return this.onERC721Received.selector */\n      swap1\n      pop\n        /* \"github.com/OpenZeppelin/openzeppelin-contracts/blob/v4.7.3/contracts/token/ERC721/utils/ERC721Holder.sol\":588:788  function onERC721Received(... */\n      swap5\n      swap4\n      pop\n      pop\n      pop\n      pop\n      jump\t// out\n        /* \"github.com/OpenZeppelin/openzeppelin-contracts/blob/v4.7.3/contracts/token/ERC1155/utils/ERC1155Holder.sol\":724:971  function onERC1155BatchReceived(... */\n    tag_27:\n        /* \"github.com/OpenZeppelin/openzeppelin-contracts/blob/v4.7.3/contracts/token/ERC1155/utils/ERC1155Holder.sol\":903:909  bytes4 */\n      0x00\n        /* \"github.com/OpenZeppelin/openzeppelin-contracts/blob/v4.7.3/contracts/token/ERC1155/utils/ERC1155Holder.sol\":928:964  this.onERC1155BatchReceived.selector */\n      shl(0xe0, 0xbc197c81)\n        /* \"github.com/OpenZeppelin/openzeppelin-contracts/blob/v4.7.3/contracts/token/ERC1155/utils/ERC1155Holder.sol\":921:964  return this.onERC1155BatchReceived.selector */\n      swap1\n      pop\n        /* \"github.com/OpenZeppelin/openzeppelin-contracts/blob/v4.7.3/contracts/token/ERC1155/utils/ERC1155Holder.sol\":724:971  function onERC1155BatchReceived(... */\n      swap6\n      swap5\n      pop\n      pop\n      pop\n      pop\n      pop\n      jump\t// out\n        /* \"github.com/OpenZeppelin/openzeppelin-contracts/blob/v4.7.3/contracts/token/ERC1155/utils/ERC1155Holder.sol\":499:718  function onERC1155Received(... */\n    tag_33:\n        /* \"github.com/OpenZeppelin/openzeppelin-contracts/blob/v4.7.3/contracts/token/ERC1155/utils/ERC1155Holder.sol\":655:661  bytes4 */\n      0x00\n        /* \"github.com/OpenZeppelin/openzeppelin-contracts/blob/v4.7.3/contracts/token/ERC1155/utils/ERC1155Holder.sol\":680:711  this.onERC1155Received.selector */\n      shl(0xe0, 0xf23a6e61)\n        /* \"github.com/OpenZeppelin/openzeppelin-contracts/blob/v4.7.3/contracts/token/ERC1155/utils/ERC1155Holder.sol\":673:711  return this.onERC1155Received.selector */\n      swap1\n      pop\n        /* \"github.com/OpenZeppelin/openzeppelin-contracts/blob/v4.7.3/contracts/token/ERC1155/utils/ERC1155Holder.sol\":499:718  function onERC1155Received(... */\n      swap6\n      swap5\n      pop\n      pop\n      pop\n      pop\n      pop\n      jump\t// out\n        /* \"github.com/OpenZeppelin/openzeppelin-contracts/blob/v4.7.3/contracts/utils/introspection/ERC165.sol\":829:984  function supportsInterface(bytes4 interfaceId) public view virtual override returns (bool) {... */\n    tag_38:\n        /* \"github.com/OpenZeppelin/openzeppelin-contracts/blob/v4.7.3/contracts/utils/introspection/ERC165.sol\":914:918  bool */\n      0x00\n        /* \"github.com/OpenZeppelin/openzeppelin-contracts/blob/v4.7.3/contracts/utils/introspection/ERC165.sol\":952:977  type(IERC165).interfaceId */\n      0x01ffc9a700000000000000000000000000000000000000000000000000000000\n        /* \"github.com/OpenZeppelin/openzeppelin-contracts/blob/v4.7.3/contracts/utils/introspection/ERC165.sol\":937:977  interfaceId == type(IERC165).interfaceId */\n      not(0xffffffffffffffffffffffffffffffffffffffffffffffffffffffff)\n      and\n        /* \"github.com/OpenZeppelin/openzeppelin-contracts/blob/v4.7.3/contracts/utils/introspection/ERC165.sol\":937:948  interfaceId */\n      dup3\n        /* \"github.com/OpenZeppelin/openzeppelin-contracts/blob/v4.7.3/contracts/utils/introspection/ERC165.sol\":937:977  interfaceId == type(IERC165).interfaceId */\n      not(0xffffffffffffffffffffffffffffffffffffffffffffffffffffffff)\n      and\n      eq\n        /* \"github.com/OpenZeppelin/openzeppelin-contracts/blob/v4.7.3/contracts/utils/introspection/ERC165.sol\":930:977  return interfaceId == type(IERC165).interfaceId */\n      swap1\n      pop\n        /* \"github.com/OpenZeppelin/openzeppelin-contracts/blob/v4.7.3/contracts/utils/introspection/ERC165.sol\":829:984  function supportsInterface(bytes4 interfaceId) public view virtual override returns (bool) {... */\n      swap2\n      swap1\n      pop\n      jump\t// out\n        /* \"#utility.yul\":7:82   */\n    tag_43:\n        /* \"#utility.yul\":40:46   */\n      0x00\n        /* \"#utility.yul\":73:75   */\n      0x40\n        /* \"#utility.yul\":67:76   */\n      mload\n        /* \"#utility.yul\":57:76   */\n      swap1\n      pop\n        /* \"#utility.yul\":7:82   */\n      swap1\n      jump\t// out\n        /* \"#utility.yul\":88:205   */\n    tag_44:\n        /* \"#utility.yul\":197:198   */\n      0x00\n        /* \"#utility.yul\":194:195   */\n      dup1\n        /* \"#utility.yul\":187:199   */\n      revert\n        /* \"#utility.yul\":211:328   */\n    tag_45:\n        /* \"#utility.yul\":320:321   */\n      0x00\n        /* \"#utility.yul\":317:318   */\n      dup1\n        /* \"#utility.yul\":310:322   */\n      revert\n        /* \"#utility.yul\":334:483   */\n    tag_46:\n        /* \"#utility.yul\":370:377   */\n      0x00\n        /* \"#utility.yul\":410:476   */\n      0xffffffff00000000000000000000000000000000000000000000000000000000\n        /* \"#utility.yul\":403:408   */\n      dup3\n        /* \"#utility.yul\":399:477   */\n      and\n        /* \"#utility.yul\":388:477   */\n      swap1\n      pop\n        /* \"#utility.yul\":334:483   */\n      swap2\n      swap1\n      pop\n      jump\t// out\n        /* \"#utility.yul\":489:609   */\n    tag_47:\n        /* \"#utility.yul\":561:584   */\n      tag_79\n        /* \"#utility.yul\":578:583   */\n      dup2\n        /* \"#utility.yul\":561:584   */\n      tag_46\n      jump\t// in\n    tag_79:\n        /* \"#utility.yul\":554:559   */\n      dup2\n        /* \"#utility.yul\":551:585   */\n      eq\n        /* \"#utility.yul\":541:603   */\n      tag_80\n      jumpi\n        /* \"#utility.yul\":599:600   */\n      0x00\n        /* \"#utility.yul\":596:597   */\n      dup1\n        /* \"#utility.yul\":589:601   */\n      revert\n        /* \"#utility.yul\":541:603   */\n    tag_80:\n        /* \"#utility.yul\":489:609   */\n      pop\n      jump\t// out\n        /* \"#utility.yul\":615:752   */\n    tag_48:\n        /* \"#utility.yul\":660:665   */\n      0x00\n        /* \"#utility.yul\":698:704   */\n      dup2\n        /* \"#utility.yul\":685:705   */\n      calldataload\n        /* \"#utility.yul\":676:705   */\n      swap1\n      pop\n        /* \"#utility.yul\":714:746   */\n      tag_82\n        /* \"#utility.yul\":740:745   */\n      dup2\n        /* \"#utility.yul\":714:746   */\n      tag_47\n      jump\t// in\n    tag_82:\n        /* \"#utility.yul\":615:752   */\n      swap3\n      swap2\n      pop\n      pop\n      jump\t// out\n        /* \"#utility.yul\":758:1085   */\n    tag_12:\n        /* \"#utility.yul\":816:822   */\n      0x00\n        /* \"#utility.yul\":865:867   */\n      0x20\n        /* \"#utility.yul\":853:862   */\n      dup3\n        /* \"#utility.yul\":844:851   */\n      dup5\n        /* \"#utility.yul\":840:863   */\n      sub\n        /* \"#utility.yul\":836:868   */\n      slt\n        /* \"#utility.yul\":833:952   */\n      iszero\n      tag_84\n      jumpi\n        /* \"#utility.yul\":871:950   */\n      tag_85\n      tag_44\n      jump\t// in\n    tag_85:\n        /* \"#utility.yul\":833:952   */\n    tag_84:\n        /* \"#utility.yul\":991:992   */\n      0x00\n        /* \"#utility.yul\":1016:1068   */\n      tag_86\n        /* \"#utility.yul\":1060:1067   */\n      dup5\n        /* \"#utility.yul\":1051:1057   */\n      dup3\n        /* \"#utility.yul\":1040:1049   */\n      dup6\n        /* \"#utility.yul\":1036:1058   */\n      add\n        /* \"#utility.yul\":1016:1068   */\n      tag_48\n      jump\t// in\n    tag_86:\n        /* \"#utility.yul\":1006:1068   */\n      swap2\n      pop\n        /* \"#utility.yul\":962:1078   */\n      pop\n        /* \"#utility.yul\":758:1085   */\n      swap3\n      swap2\n      pop\n      pop\n      jump\t// out\n        /* \"#utility.yul\":1091:1181   */\n    tag_49:\n        /* \"#utility.yul\":1125:1132   */\n      0x00\n        /* \"#utility.yul\":1168:1173   */\n      dup2\n        /* \"#utility.yul\":1161:1174   */\n      iszero\n        /* \"#utility.yul\":1154:1175   */\n      iszero\n        /* \"#utility.yul\":1143:1175   */\n      swap1\n      pop\n        /* \"#utility.yul\":1091:1181   */\n      swap2\n      swap1\n      pop\n      jump\t// out\n        /* \"#utility.yul\":1187:1296   */\n    tag_50:\n        /* \"#utility.yul\":1268:1289   */\n      tag_89\n        /* \"#utility.yul\":1283:1288   */\n      dup2\n        /* \"#utility.yul\":1268:1289   */\n      tag_49\n      jump\t// in\n    tag_89:\n        /* \"#utility.yul\":1263:1266   */\n      dup3\n        /* \"#utility.yul\":1256:1290   */\n      mstore\n        /* \"#utility.yul\":1187:1296   */\n      pop\n      pop\n      jump\t// out\n        /* \"#utility.yul\":1302:1512   */\n    tag_15:\n        /* \"#utility.yul\":1389:1393   */\n      0x00\n        /* \"#utility.yul\":1427:1429   */\n      0x20\n        /* \"#utility.yul\":1416:1425   */\n      dup3\n        /* \"#utility.yul\":1412:1430   */\n      add\n        /* \"#utility.yul\":1404:1430   */\n      swap1\n      pop\n        /* \"#utility.yul\":1440:1505   */\n      tag_91\n        /* \"#utility.yul\":1502:1503   */\n      0x00\n        /* \"#utility.yul\":1491:1500   */\n      dup4\n        /* \"#utility.yul\":1487:1504   */\n      add\n        /* \"#utility.yul\":1478:1484   */\n      dup5\n        /* \"#utility.yul\":1440:1505   */\n      tag_50\n      jump\t// in\n    tag_91:\n        /* \"#utility.yul\":1302:1512   */\n      swap3\n      swap2\n      pop\n      pop\n      jump\t// out\n        /* \"#utility.yul\":1518:1644   */\n    tag_51:\n        /* \"#utility.yul\":1555:1562   */\n      0x00\n        /* \"#utility.yul\":1595:1637   */\n      0xffffffffffffffffffffffffffffffffffffffff\n        /* \"#utility.yul\":1588:1593   */\n      dup3\n        /* \"#utility.yul\":1584:1638   */\n      and\n        /* \"#utility.yul\":1573:1638   */\n      swap1\n      pop\n        /* \"#utility.yul\":1518:1644   */\n      swap2\n      swap1\n      pop\n      jump\t// out\n        /* \"#utility.yul\":1650:1746   */\n    tag_52:\n        /* \"#utility.yul\":1687:1694   */\n      0x00\n        /* \"#utility.yul\":1716:1740   */\n      tag_94\n        /* \"#utility.yul\":1734:1739   */\n      dup3\n        /* \"#utility.yul\":1716:1740   */\n      tag_51\n      jump\t// in\n    tag_94:\n        /* \"#utility.yul\":1705:1740   */\n      swap1\n      pop\n        /* \"#utility.yul\":1650:1746   */\n      swap2\n      swap1\n      pop\n      jump\t// out\n        /* \"#utility.yul\":1752:1874   */\n    tag_53:\n        /* \"#utility.yul\":1825:1849   */\n      tag_96\n        /* \"#utility.yul\":1843:1848   */\n      dup2\n        /* \"#utility.yul\":1825:1849   */\n      tag_52\n      jump\t// in\n    tag_96:\n        /* \"#utility.yul\":1818:1823   */\n      dup2\n        /* \"#utility.yul\":1815:1850   */\n      eq\n        /* \"#utility.yul\":1805:1868   */\n      tag_97\n      jumpi\n        /* \"#utility.yul\":1864:1865   */\n      0x00\n        /* \"#utility.yul\":1861:1862   */\n      dup1\n        /* \"#utility.yul\":1854:1866   */\n      revert\n        /* \"#utility.yul\":1805:1868   */\n    tag_97:\n        /* \"#utility.yul\":1752:1874   */\n      pop\n      jump\t// out\n        /* \"#utility.yul\":1880:2019   */\n    tag_54:\n        /* \"#utility.yul\":1926:1931   */\n      0x00\n        /* \"#utility.yul\":1964:1970   */\n      dup2\n        /* \"#utility.yul\":1951:1971   */\n      calldataload\n        /* \"#utility.yul\":1942:1971   */\n      swap1\n      pop\n        /* \"#utility.yul\":1980:2013   */\n      tag_99\n        /* \"#utility.yul\":2007:2012   */\n      dup2\n        /* \"#utility.yul\":1980:2013   */\n      tag_53\n      jump\t// in\n    tag_99:\n        /* \"#utility.yul\":1880:2019   */\n      swap3\n      swap2\n      pop\n      pop\n      jump\t// out\n        /* \"#utility.yul\":2025:2102   */\n    tag_55:\n        /* \"#utility.yul\":2062:2069   */\n      0x00\n        /* \"#utility.yul\":2091:2096   */\n      dup2\n        /* \"#utility.yul\":2080:2096   */\n      swap1\n      pop\n        /* \"#utility.yul\":2025:2102   */\n      swap2\n      swap1\n      pop\n      jump\t// out\n        /* \"#utility.yul\":2108:2230   */\n    tag_56:\n        /* \"#utility.yul\":2181:2205   */\n      tag_102\n        /* \"#utility.yul\":2199:2204   */\n      dup2\n        /* \"#utility.yul\":2181:2205   */\n      tag_55\n      jump\t// in\n    tag_102:\n        /* \"#utility.yul\":2174:2179   */\n      dup2\n        /* \"#utility.yul\":2171:2206   */\n      eq\n        /* \"#utility.yul\":2161:2224   */\n      tag_103\n      jumpi\n        /* \"#utility.yul\":2220:2221   */\n      0x00\n        /* \"#utility.yul\":2217:2218   */\n      dup1\n        /* \"#utility.yul\":2210:2222   */\n      revert\n        /* \"#utility.yul\":2161:2224   */\n    tag_103:\n        /* \"#utility.yul\":2108:2230   */\n      pop\n      jump\t// out\n        /* \"#utility.yul\":2236:2375   */\n    tag_57:\n        /* \"#utility.yul\":2282:2287   */\n      0x00\n        /* \"#utility.yul\":2320:2326   */\n      dup2\n        /* \"#utility.yul\":2307:2327   */\n      calldataload\n        /* \"#utility.yul\":2298:2327   */\n      swap1\n      pop\n        /* \"#utility.yul\":2336:2369   */\n      tag_105\n        /* \"#utility.yul\":2363:2368   */\n      dup2\n        /* \"#utility.yul\":2336:2369   */\n      tag_56\n      jump\t// in\n    tag_105:\n        /* \"#utility.yul\":2236:2375   */\n      swap3\n      swap2\n      pop\n      pop\n      jump\t// out\n        /* \"#utility.yul\":2381:2498   */\n    tag_58:\n        /* \"#utility.yul\":2490:2491   */\n      0x00\n        /* \"#utility.yul\":2487:2488   */\n      dup1\n        /* \"#utility.yul\":2480:2492   */\n      revert\n        /* \"#utility.yul\":2504:2621   */\n    tag_59:\n        /* \"#utility.yul\":2613:2614   */\n      0x00\n        /* \"#utility.yul\":2610:2611   */\n      dup1\n        /* \"#utility.yul\":2603:2615   */\n      revert\n        /* \"#utility.yul\":2627:2729   */\n    tag_60:\n        /* \"#utility.yul\":2668:2674   */\n      0x00\n        /* \"#utility.yul\":2719:2721   */\n      0x1f\n        /* \"#utility.yul\":2715:2722   */\n      not\n        /* \"#utility.yul\":2710:2712   */\n      0x1f\n        /* \"#utility.yul\":2703:2708   */\n      dup4\n        /* \"#utility.yul\":2699:2713   */\n      add\n        /* \"#utility.yul\":2695:2723   */\n      and\n        /* \"#utility.yul\":2685:2723   */\n      swap1\n      pop\n        /* \"#utility.yul\":2627:2729   */\n      swap2\n      swap1\n      pop\n      jump\t// out\n        /* \"#utility.yul\":2735:2915   */\n    tag_61:\n        /* \"#utility.yul\":2783:2860   */\n      0x4e487b7100000000000000000000000000000000000000000000000000000000\n        /* \"#utility.yul\":2780:2781   */\n      0x00\n        /* \"#utility.yul\":2773:2861   */\n      mstore\n        /* \"#utility.yul\":2880:2884   */\n      0x41\n        /* \"#utility.yul\":2877:2878   */\n      0x04\n        /* \"#utility.yul\":2870:2885   */\n      mstore\n        /* \"#utility.yul\":2904:2908   */\n      0x24\n        /* \"#utility.yul\":2901:2902   */\n      0x00\n        /* \"#utility.yul\":2894:2909   */\n      revert\n        /* \"#utility.yul\":2921:3202   */\n    tag_62:\n        /* \"#utility.yul\":3004:3031   */\n      tag_111\n        /* \"#utility.yul\":3026:3030   */\n      dup3\n        /* \"#utility.yul\":3004:3031   */\n      tag_60\n      jump\t// in\n    tag_111:\n        /* \"#utility.yul\":2996:3002   */\n      dup2\n        /* \"#utility.yul\":2992:3032   */\n      add\n        /* \"#utility.yul\":3134:3140   */\n      dup2\n        /* \"#utility.yul\":3122:3132   */\n      dup2\n        /* \"#utility.yul\":3119:3141   */\n      lt\n        /* \"#utility.yul\":3098:3116   */\n      0xffffffffffffffff\n        /* \"#utility.yul\":3086:3096   */\n      dup3\n        /* \"#utility.yul\":3083:3117   */\n      gt\n        /* \"#utility.yul\":3080:3142   */\n      or\n        /* \"#utility.yul\":3077:3165   */\n      iszero\n      tag_112\n      jumpi\n        /* \"#utility.yul\":3145:3163   */\n      tag_113\n      tag_61\n      jump\t// in\n    tag_113:\n        /* \"#utility.yul\":3077:3165   */\n    tag_112:\n        /* \"#utility.yul\":3185:3195   */\n      dup1\n        /* \"#utility.yul\":3181:3183   */\n      0x40\n        /* \"#utility.yul\":3174:3196   */\n      mstore\n        /* \"#utility.yul\":2964:3202   */\n      pop\n        /* \"#utility.yul\":2921:3202   */\n      pop\n      pop\n      jump\t// out\n        /* \"#utility.yul\":3208:3337   */\n    tag_63:\n        /* \"#utility.yul\":3242:3248   */\n      0x00\n        /* \"#utility.yul\":3269:3289   */\n      tag_115\n      tag_43\n      jump\t// in\n    tag_115:\n        /* \"#utility.yul\":3259:3289   */\n      swap1\n      pop\n        /* \"#utility.yul\":3298:3331   */\n      tag_116\n        /* \"#utility.yul\":3326:3330   */\n      dup3\n        /* \"#utility.yul\":3318:3324   */\n      dup3\n        /* \"#utility.yul\":3298:3331   */\n      tag_62\n      jump\t// in\n    tag_116:\n        /* \"#utility.yul\":3208:3337   */\n      swap2\n      swap1\n      pop\n      jump\t// out\n        /* \"#utility.yul\":3343:3650   */\n    tag_64:\n        /* \"#utility.yul\":3404:3408   */\n      0x00\n        /* \"#utility.yul\":3494:3512   */\n      0xffffffffffffffff\n        /* \"#utility.yul\":3486:3492   */\n      dup3\n        /* \"#utility.yul\":3483:3513   */\n      gt\n        /* \"#utility.yul\":3480:3536   */\n      iszero\n      tag_118\n      jumpi\n        /* \"#utility.yul\":3516:3534   */\n      tag_119\n      tag_61\n      jump\t// in\n    tag_119:\n        /* \"#utility.yul\":3480:3536   */\n    tag_118:\n        /* \"#utility.yul\":3554:3583   */\n      tag_120\n        /* \"#utility.yul\":3576:3582   */\n      dup3\n        /* \"#utility.yul\":3554:3583   */\n      tag_60\n      jump\t// in\n    tag_120:\n        /* \"#utility.yul\":3546:3583   */\n      swap1\n      pop\n        /* \"#utility.yul\":3638:3642   */\n      0x20\n        /* \"#utility.yul\":3632:3636   */\n      dup2\n        /* \"#utility.yul\":3628:3643   */\n      add\n        /* \"#utility.yul\":3620:3643   */\n      swap1\n      pop\n        /* \"#utility.yul\":3343:3650   */\n      swap2\n      swap1\n      pop\n      jump\t// out\n        /* \"#utility.yul\":3656:3804   */\n    tag_65:\n        /* \"#utility.yul\":3754:3760   */\n      dup3\n        /* \"#utility.yul\":3749:3752   */\n      dup2\n        /* \"#utility.yul\":3744:3747   */\n      dup4\n        /* \"#utility.yul\":3731:3761   */\n      calldatacopy\n        /* \"#utility.yul\":3795:3796   */\n      0x00\n        /* \"#utility.yul\":3786:3792   */\n      dup4\n        /* \"#utility.yul\":3781:3784   */\n      dup4\n        /* \"#utility.yul\":3777:3793   */\n      add\n        /* \"#utility.yul\":3770:3797   */\n      mstore\n        /* \"#utility.yul\":3656:3804   */\n      pop\n      pop\n      pop\n      jump\t// out\n        /* \"#utility.yul\":3810:4233   */\n    tag_66:\n        /* \"#utility.yul\":3887:3892   */\n      0x00\n        /* \"#utility.yul\":3912:3977   */\n      tag_123\n        /* \"#utility.yul\":3928:3976   */\n      tag_124\n        /* \"#utility.yul\":3969:3975   */\n      dup5\n        /* \"#utility.yul\":3928:3976   */\n      tag_64\n      jump\t// in\n    tag_124:\n        /* \"#utility.yul\":3912:3977   */\n      tag_63\n      jump\t// in\n    tag_123:\n        /* \"#utility.yul\":3903:3977   */\n      swap1\n      pop\n        /* \"#utility.yul\":4000:4006   */\n      dup3\n        /* \"#utility.yul\":3993:3998   */\n      dup2\n        /* \"#utility.yul\":3986:4007   */\n      mstore\n        /* \"#utility.yul\":4038:4042   */\n      0x20\n        /* \"#utility.yul\":4031:4036   */\n      dup2\n        /* \"#utility.yul\":4027:4043   */\n      add\n        /* \"#utility.yul\":4076:4079   */\n      dup5\n        /* \"#utility.yul\":4067:4073   */\n      dup5\n        /* \"#utility.yul\":4062:4065   */\n      dup5\n        /* \"#utility.yul\":4058:4074   */\n      add\n        /* \"#utility.yul\":4055:4080   */\n      gt\n        /* \"#utility.yul\":4052:4164   */\n      iszero\n      tag_125\n      jumpi\n        /* \"#utility.yul\":4083:4162   */\n      tag_126\n      tag_59\n      jump\t// in\n    tag_126:\n        /* \"#utility.yul\":4052:4164   */\n    tag_125:\n        /* \"#utility.yul\":4173:4227   */\n      tag_127\n        /* \"#utility.yul\":4220:4226   */\n      dup5\n        /* \"#utility.yul\":4215:4218   */\n      dup3\n        /* \"#utility.yul\":4210:4213   */\n      dup6\n        /* \"#utility.yul\":4173:4227   */\n      tag_65\n      jump\t// in\n    tag_127:\n        /* \"#utility.yul\":3893:4233   */\n      pop\n        /* \"#utility.yul\":3810:4233   */\n      swap4\n      swap3\n      pop\n      pop\n      pop\n      jump\t// out\n        /* \"#utility.yul\":4252:4590   */\n    tag_67:\n        /* \"#utility.yul\":4307:4312   */\n      0x00\n        /* \"#utility.yul\":4356:4359   */\n      dup3\n        /* \"#utility.yul\":4349:4353   */\n      0x1f\n        /* \"#utility.yul\":4341:4347   */\n      dup4\n        /* \"#utility.yul\":4337:4354   */\n      add\n        /* \"#utility.yul\":4333:4360   */\n      slt\n        /* \"#utility.yul\":4323:4445   */\n      tag_129\n      jumpi\n        /* \"#utility.yul\":4364:4443   */\n      tag_130\n      tag_58\n      jump\t// in\n    tag_130:\n        /* \"#utility.yul\":4323:4445   */\n    tag_129:\n        /* \"#utility.yul\":4481:4487   */\n      dup2\n        /* \"#utility.yul\":4468:4488   */\n      calldataload\n        /* \"#utility.yul\":4506:4584   */\n      tag_131\n        /* \"#utility.yul\":4580:4583   */\n      dup5\n        /* \"#utility.yul\":4572:4578   */\n      dup3\n        /* \"#utility.yul\":4565:4569   */\n      0x20\n        /* \"#utility.yul\":4557:4563   */\n      dup7\n        /* \"#utility.yul\":4553:4570   */\n      add\n        /* \"#utility.yul\":4506:4584   */\n      tag_66\n      jump\t// in\n    tag_131:\n        /* \"#utility.yul\":4497:4584   */\n      swap2\n      pop\n        /* \"#utility.yul\":4313:4590   */\n      pop\n        /* \"#utility.yul\":4252:4590   */\n      swap3\n      swap2\n      pop\n      pop\n      jump\t// out\n        /* \"#utility.yul\":4596:5539   */\n    tag_19:\n        /* \"#utility.yul\":4691:4697   */\n      0x00\n        /* \"#utility.yul\":4699:4705   */\n      dup1\n        /* \"#utility.yul\":4707:4713   */\n      0x00\n        /* \"#utility.yul\":4715:4721   */\n      dup1\n        /* \"#utility.yul\":4764:4767   */\n      0x80\n        /* \"#utility.yul\":4752:4761   */\n      dup6\n        /* \"#utility.yul\":4743:4750   */\n      dup8\n        /* \"#utility.yul\":4739:4762   */\n      sub\n        /* \"#utility.yul\":4735:4768   */\n      slt\n        /* \"#utility.yul\":4732:4852   */\n      iszero\n      tag_133\n      jumpi\n        /* \"#utility.yul\":4771:4850   */\n      tag_134\n      tag_44\n      jump\t// in\n    tag_134:\n        /* \"#utility.yul\":4732:4852   */\n    tag_133:\n        /* \"#utility.yul\":4891:4892   */\n      0x00\n        /* \"#utility.yul\":4916:4969   */\n      tag_135\n        /* \"#utility.yul\":4961:4968   */\n      dup8\n        /* \"#utility.yul\":4952:4958   */\n      dup3\n        /* \"#utility.yul\":4941:4950   */\n      dup9\n        /* \"#utility.yul\":4937:4959   */\n      add\n        /* \"#utility.yul\":4916:4969   */\n      tag_54\n      jump\t// in\n    tag_135:\n        /* \"#utility.yul\":4906:4969   */\n      swap5\n      pop\n        /* \"#utility.yul\":4862:4979   */\n      pop\n        /* \"#utility.yul\":5018:5020   */\n      0x20\n        /* \"#utility.yul\":5044:5097   */\n      tag_136\n        /* \"#utility.yul\":5089:5096   */\n      dup8\n        /* \"#utility.yul\":5080:5086   */\n      dup3\n        /* \"#utility.yul\":5069:5078   */\n      dup9\n        /* \"#utility.yul\":5065:5087   */\n      add\n        /* \"#utility.yul\":5044:5097   */\n      tag_54\n      jump\t// in\n    tag_136:\n        /* \"#utility.yul\":5034:5097   */\n      swap4\n      pop\n        /* \"#utility.yul\":4989:5107   */\n      pop\n        /* \"#utility.yul\":5146:5148   */\n      0x40\n        /* \"#utility.yul\":5172:5225   */\n      tag_137\n        /* \"#utility.yul\":5217:5224   */\n      dup8\n        /* \"#utility.yul\":5208:5214   */\n      dup3\n        /* \"#utility.yul\":5197:5206   */\n      dup9\n        /* \"#utility.yul\":5193:5215   */\n      add\n        /* \"#utility.yul\":5172:5225   */\n      tag_57\n      jump\t// in\n    tag_137:\n        /* \"#utility.yul\":5162:5225   */\n      swap3\n      pop\n        /* \"#utility.yul\":5117:5235   */\n      pop\n        /* \"#utility.yul\":5302:5304   */\n      0x60\n        /* \"#utility.yul\":5291:5300   */\n      dup6\n        /* \"#utility.yul\":5287:5305   */\n      add\n        /* \"#utility.yul\":5274:5306   */\n      calldataload\n        /* \"#utility.yul\":5333:5351   */\n      0xffffffffffffffff\n        /* \"#utility.yul\":5325:5331   */\n      dup2\n        /* \"#utility.yul\":5322:5352   */\n      gt\n        /* \"#utility.yul\":5319:5436   */\n      iszero\n      tag_138\n      jumpi\n        /* \"#utility.yul\":5355:5434   */\n      tag_139\n      tag_45\n      jump\t// in\n    tag_139:\n        /* \"#utility.yul\":5319:5436   */\n    tag_138:\n        /* \"#utility.yul\":5460:5522   */\n      tag_140\n        /* \"#utility.yul\":5514:5521   */\n      dup8\n        /* \"#utility.yul\":5505:5511   */\n      dup3\n        /* \"#utility.yul\":5494:5503   */\n      dup9\n        /* \"#utility.yul\":5490:5512   */\n      add\n        /* \"#utility.yul\":5460:5522   */\n      tag_67\n      jump\t// in\n    tag_140:\n        /* \"#utility.yul\":5450:5522   */\n      swap2\n      pop\n        /* \"#utility.yul\":5245:5532   */\n      pop\n        /* \"#utility.yul\":4596:5539   */\n      swap3\n      swap6\n      swap2\n      swap5\n      pop\n      swap3\n      pop\n      jump\t// out\n        /* \"#utility.yul\":5545:5660   */\n    tag_68:\n        /* \"#utility.yul\":5630:5653   */\n      tag_142\n        /* \"#utility.yul\":5647:5652   */\n      dup2\n        /* \"#utility.yul\":5630:5653   */\n      tag_46\n      jump\t// in\n    tag_142:\n        /* \"#utility.yul\":5625:5628   */\n      dup3\n        /* \"#utility.yul\":5618:5654   */\n      mstore\n        /* \"#utility.yul\":5545:5660   */\n      pop\n      pop\n      jump\t// out\n        /* \"#utility.yul\":5666:5884   */\n    tag_22:\n        /* \"#utility.yul\":5757:5761   */\n      0x00\n        /* \"#utility.yul\":5795:5797   */\n      0x20\n        /* \"#utility.yul\":5784:5793   */\n      dup3\n        /* \"#utility.yul\":5780:5798   */\n      add\n        /* \"#utility.yul\":5772:5798   */\n      swap1\n      pop\n        /* \"#utility.yul\":5808:5877   */\n      tag_144\n        /* \"#utility.yul\":5874:5875   */\n      0x00\n        /* \"#utility.yul\":5863:5872   */\n      dup4\n        /* \"#utility.yul\":5859:5876   */\n      add\n        /* \"#utility.yul\":5850:5856   */\n      dup5\n        /* \"#utility.yul\":5808:5877   */\n      tag_68\n      jump\t// in\n    tag_144:\n        /* \"#utility.yul\":5666:5884   */\n      swap3\n      swap2\n      pop\n      pop\n      jump\t// out\n        /* \"#utility.yul\":5890:6201   */\n    tag_69:\n        /* \"#utility.yul\":5967:5971   */\n      0x00\n        /* \"#utility.yul\":6057:6075   */\n      0xffffffffffffffff\n        /* \"#utility.yul\":6049:6055   */\n      dup3\n        /* \"#utility.yul\":6046:6076   */\n      gt\n        /* \"#utility.yul\":6043:6099   */\n      iszero\n      tag_146\n      jumpi\n        /* \"#utility.yul\":6079:6097   */\n      tag_147\n      tag_61\n      jump\t// in\n    tag_147:\n        /* \"#utility.yul\":6043:6099   */\n    tag_146:\n        /* \"#utility.yul\":6129:6133   */\n      0x20\n        /* \"#utility.yul\":6121:6127   */\n      dup3\n        /* \"#utility.yul\":6117:6134   */\n      mul\n        /* \"#utility.yul\":6109:6134   */\n      swap1\n      pop\n        /* \"#utility.yul\":6189:6193   */\n      0x20\n        /* \"#utility.yul\":6183:6187   */\n      dup2\n        /* \"#utility.yul\":6179:6194   */\n      add\n        /* \"#utility.yul\":6171:6194   */\n      swap1\n      pop\n        /* \"#utility.yul\":5890:6201   */\n      swap2\n      swap1\n      pop\n      jump\t// out\n        /* \"#utility.yul\":6207:6324   */\n    tag_70:\n        /* \"#utility.yul\":6316:6317   */\n      0x00\n        /* \"#utility.yul\":6313:6314   */\n      dup1\n        /* \"#utility.yul\":6306:6318   */\n      revert\n        /* \"#utility.yul\":6347:7057   */\n    tag_71:\n        /* \"#utility.yul\":6443:6448   */\n      0x00\n        /* \"#utility.yul\":6468:6549   */\n      tag_150\n        /* \"#utility.yul\":6484:6548   */\n      tag_151\n        /* \"#utility.yul\":6541:6547   */\n      dup5\n        /* \"#utility.yul\":6484:6548   */\n      tag_69\n      jump\t// in\n    tag_151:\n        /* \"#utility.yul\":6468:6549   */\n      tag_63\n      jump\t// in\n    tag_150:\n        /* \"#utility.yul\":6459:6549   */\n      swap1\n      pop\n        /* \"#utility.yul\":6569:6574   */\n      dup1\n        /* \"#utility.yul\":6598:6604   */\n      dup4\n        /* \"#utility.yul\":6591:6596   */\n      dup3\n        /* \"#utility.yul\":6584:6605   */\n      mstore\n        /* \"#utility.yul\":6632:6636   */\n      0x20\n        /* \"#utility.yul\":6625:6630   */\n      dup3\n        /* \"#utility.yul\":6621:6637   */\n      add\n        /* \"#utility.yul\":6614:6637   */\n      swap1\n      pop\n        /* \"#utility.yul\":6685:6689   */\n      0x20\n        /* \"#utility.yul\":6677:6683   */\n      dup5\n        /* \"#utility.yul\":6673:6690   */\n      mul\n        /* \"#utility.yul\":6665:6671   */\n      dup4\n        /* \"#utility.yul\":6661:6691   */\n      add\n        /* \"#utility.yul\":6714:6717   */\n      dup6\n        /* \"#utility.yul\":6706:6712   */\n      dup2\n        /* \"#utility.yul\":6703:6718   */\n      gt\n        /* \"#utility.yul\":6700:6822   */\n      iszero\n      tag_152\n      jumpi\n        /* \"#utility.yul\":6733:6812   */\n      tag_153\n      tag_70\n      jump\t// in\n    tag_153:\n        /* \"#utility.yul\":6700:6822   */\n    tag_152:\n        /* \"#utility.yul\":6848:6854   */\n      dup4\n        /* \"#utility.yul\":6831:7051   */\n    tag_154:\n        /* \"#utility.yul\":6865:6871   */\n      dup2\n        /* \"#utility.yul\":6860:6863   */\n      dup2\n        /* \"#utility.yul\":6857:6872   */\n      lt\n        /* \"#utility.yul\":6831:7051   */\n      iszero\n      tag_156\n      jumpi\n        /* \"#utility.yul\":6940:6943   */\n      dup1\n        /* \"#utility.yul\":6969:7006   */\n      tag_157\n        /* \"#utility.yul\":7002:7005   */\n      dup9\n        /* \"#utility.yul\":6990:7000   */\n      dup3\n        /* \"#utility.yul\":6969:7006   */\n      tag_57\n      jump\t// in\n    tag_157:\n        /* \"#utility.yul\":6964:6967   */\n      dup5\n        /* \"#utility.yul\":6957:7007   */\n      mstore\n        /* \"#utility.yul\":7036:7040   */\n      0x20\n        /* \"#utility.yul\":7031:7034   */\n      dup5\n        /* \"#utility.yul\":7027:7041   */\n      add\n        /* \"#utility.yul\":7020:7041   */\n      swap4\n      pop\n        /* \"#utility.yul\":6907:7051   */\n      pop\n        /* \"#utility.yul\":6891:6895   */\n      0x20\n        /* \"#utility.yul\":6886:6889   */\n      dup2\n        /* \"#utility.yul\":6882:6896   */\n      add\n        /* \"#utility.yul\":6875:6896   */\n      swap1\n      pop\n        /* \"#utility.yul\":6831:7051   */\n      jump(tag_154)\n    tag_156:\n        /* \"#utility.yul\":6835:6856   */\n      pop\n        /* \"#utility.yul\":6449:7057   */\n      pop\n      pop\n        /* \"#utility.yul\":6347:7057   */\n      swap4\n      swap3\n      pop\n      pop\n      pop\n      jump\t// out\n        /* \"#utility.yul\":7080:7450   */\n    tag_72:\n        /* \"#utility.yul\":7151:7156   */\n      0x00\n        /* \"#utility.yul\":7200:7203   */\n      dup3\n        /* \"#utility.yul\":7193:7197   */\n      0x1f\n        /* \"#utility.yul\":7185:7191   */\n      dup4\n        /* \"#utility.yul\":7181:7198   */\n      add\n        /* \"#utility.yul\":7177:7204   */\n      slt\n        /* \"#utility.yul\":7167:7289   */\n      tag_159\n      jumpi\n        /* \"#utility.yul\":7208:7287   */\n      tag_160\n      tag_58\n      jump\t// in\n    tag_160:\n        /* \"#utility.yul\":7167:7289   */\n    tag_159:\n        /* \"#utility.yul\":7325:7331   */\n      dup2\n        /* \"#utility.yul\":7312:7332   */\n      calldataload\n        /* \"#utility.yul\":7350:7444   */\n      tag_161\n        /* \"#utility.yul\":7440:7443   */\n      dup5\n        /* \"#utility.yul\":7432:7438   */\n      dup3\n        /* \"#utility.yul\":7425:7429   */\n      0x20\n        /* \"#utility.yul\":7417:7423   */\n      dup7\n        /* \"#utility.yul\":7413:7430   */\n      add\n        /* \"#utility.yul\":7350:7444   */\n      tag_71\n      jump\t// in\n    tag_161:\n        /* \"#utility.yul\":7341:7444   */\n      swap2\n      pop\n        /* \"#utility.yul\":7157:7450   */\n      pop\n        /* \"#utility.yul\":7080:7450   */\n      swap3\n      swap2\n      pop\n      pop\n      jump\t// out\n        /* \"#utility.yul\":7456:8965   */\n    tag_26:\n        /* \"#utility.yul\":7610:7616   */\n      0x00\n        /* \"#utility.yul\":7618:7624   */\n      dup1\n        /* \"#utility.yul\":7626:7632   */\n      0x00\n        /* \"#utility.yul\":7634:7640   */\n      dup1\n        /* \"#utility.yul\":7642:7648   */\n      0x00\n        /* \"#utility.yul\":7691:7694   */\n      0xa0\n        /* \"#utility.yul\":7679:7688   */\n      dup7\n        /* \"#utility.yul\":7670:7677   */\n      dup9\n        /* \"#utility.yul\":7666:7689   */\n      sub\n        /* \"#utility.yul\":7662:7695   */\n      slt\n        /* \"#utility.yul\":7659:7779   */\n      iszero\n      tag_163\n      jumpi\n        /* \"#utility.yul\":7698:7777   */\n      tag_164\n      tag_44\n      jump\t// in\n    tag_164:\n        /* \"#utility.yul\":7659:7779   */\n    tag_163:\n        /* \"#utility.yul\":7818:7819   */\n      0x00\n        /* \"#utility.yul\":7843:7896   */\n      tag_165\n        /* \"#utility.yul\":7888:7895   */\n      dup9\n        /* \"#utility.yul\":7879:7885   */\n      dup3\n        /* \"#utility.yul\":7868:7877   */\n      dup10\n        /* \"#utility.yul\":7864:7886   */\n      add\n        /* \"#utility.yul\":7843:7896   */\n      tag_54\n      jump\t// in\n    tag_165:\n        /* \"#utility.yul\":7833:7896   */\n      swap6\n      pop\n        /* \"#utility.yul\":7789:7906   */\n      pop\n        /* \"#utility.yul\":7945:7947   */\n      0x20\n        /* \"#utility.yul\":7971:8024   */\n      tag_166\n        /* \"#utility.yul\":8016:8023   */\n      dup9\n        /* \"#utility.yul\":8007:8013   */\n      dup3\n        /* \"#utility.yul\":7996:8005   */\n      dup10\n        /* \"#utility.yul\":7992:8014   */\n      add\n        /* \"#utility.yul\":7971:8024   */\n      tag_54\n      jump\t// in\n    tag_166:\n        /* \"#utility.yul\":7961:8024   */\n      swap5\n      pop\n        /* \"#utility.yul\":7916:8034   */\n      pop\n        /* \"#utility.yul\":8101:8103   */\n      0x40\n        /* \"#utility.yul\":8090:8099   */\n      dup7\n        /* \"#utility.yul\":8086:8104   */\n      add\n        /* \"#utility.yul\":8073:8105   */\n      calldataload\n        /* \"#utility.yul\":8132:8150   */\n      0xffffffffffffffff\n        /* \"#utility.yul\":8124:8130   */\n      dup2\n        /* \"#utility.yul\":8121:8151   */\n      gt\n        /* \"#utility.yul\":8118:8235   */\n      iszero\n      tag_167\n      jumpi\n        /* \"#utility.yul\":8154:8233   */\n      tag_168\n      tag_45\n      jump\t// in\n    tag_168:\n        /* \"#utility.yul\":8118:8235   */\n    tag_167:\n        /* \"#utility.yul\":8259:8337   */\n      tag_169\n        /* \"#utility.yul\":8329:8336   */\n      dup9\n        /* \"#utility.yul\":8320:8326   */\n      dup3\n        /* \"#utility.yul\":8309:8318   */\n      dup10\n        /* \"#utility.yul\":8305:8327   */\n      add\n        /* \"#utility.yul\":8259:8337   */\n      tag_72\n      jump\t// in\n    tag_169:\n        /* \"#utility.yul\":8249:8337   */\n      swap4\n      pop\n        /* \"#utility.yul\":8044:8347   */\n      pop\n        /* \"#utility.yul\":8414:8416   */\n      0x60\n        /* \"#utility.yul\":8403:8412   */\n      dup7\n        /* \"#utility.yul\":8399:8417   */\n      add\n        /* \"#utility.yul\":8386:8418   */\n      calldataload\n        /* \"#utility.yul\":8445:8463   */\n      0xffffffffffffffff\n        /* \"#utility.yul\":8437:8443   */\n      dup2\n        /* \"#utility.yul\":8434:8464   */\n      gt\n        /* \"#utility.yul\":8431:8548   */\n      iszero\n      tag_170\n      jumpi\n        /* \"#utility.yul\":8467:8546   */\n      tag_171\n      tag_45\n      jump\t// in\n    tag_171:\n        /* \"#utility.yul\":8431:8548   */\n    tag_170:\n        /* \"#utility.yul\":8572:8650   */\n      tag_172\n        /* \"#utility.yul\":8642:8649   */\n      dup9\n        /* \"#utility.yul\":8633:8639   */\n      dup3\n        /* \"#utility.yul\":8622:8631   */\n      dup10\n        /* \"#utility.yul\":8618:8640   */\n      add\n        /* \"#utility.yul\":8572:8650   */\n      tag_72\n      jump\t// in\n    tag_172:\n        /* \"#utility.yul\":8562:8650   */\n      swap3\n      pop\n        /* \"#utility.yul\":8357:8660   */\n      pop\n        /* \"#utility.yul\":8727:8730   */\n      0x80\n        /* \"#utility.yul\":8716:8725   */\n      dup7\n        /* \"#utility.yul\":8712:8731   */\n      add\n        /* \"#utility.yul\":8699:8732   */\n      calldataload\n        /* \"#utility.yul\":8759:8777   */\n      0xffffffffffffffff\n        /* \"#utility.yul\":8751:8757   */\n      dup2\n        /* \"#utility.yul\":8748:8778   */\n      gt\n        /* \"#utility.yul\":8745:8862   */\n      iszero\n      tag_173\n      jumpi\n        /* \"#utility.yul\":8781:8860   */\n      tag_174\n      tag_45\n      jump\t// in\n    tag_174:\n        /* \"#utility.yul\":8745:8862   */\n    tag_173:\n        /* \"#utility.yul\":8886:8948   */\n      tag_175\n        /* \"#utility.yul\":8940:8947   */\n      dup9\n        /* \"#utility.yul\":8931:8937   */\n      dup3\n        /* \"#utility.yul\":8920:8929   */\n      dup10\n        /* \"#utility.yul\":8916:8938   */\n      add\n        /* \"#utility.yul\":8886:8948   */\n      tag_67\n      jump\t// in\n    tag_175:\n        /* \"#utility.yul\":8876:8948   */\n      swap2\n      pop\n        /* \"#utility.yul\":8670:8958   */\n      pop\n        /* \"#utility.yul\":7456:8965   */\n      swap3\n      swap6\n      pop\n      swap3\n      swap6\n      swap1\n      swap4\n      pop\n      jump\t// out\n        /* \"#utility.yul\":8971:10060   */\n    tag_32:\n        /* \"#utility.yul\":9075:9081   */\n      0x00\n        /* \"#utility.yul\":9083:9089   */\n      dup1\n        /* \"#utility.yul\":9091:9097   */\n      0x00\n        /* \"#utility.yul\":9099:9105   */\n      dup1\n        /* \"#utility.yul\":9107:9113   */\n      0x00\n        /* \"#utility.yul\":9156:9159   */\n      0xa0\n        /* \"#utility.yul\":9144:9153   */\n      dup7\n        /* \"#utility.yul\":9135:9142   */\n      dup9\n        /* \"#utility.yul\":9131:9154   */\n      sub\n        /* \"#utility.yul\":9127:9160   */\n      slt\n        /* \"#utility.yul\":9124:9244   */\n      iszero\n      tag_177\n      jumpi\n        /* \"#utility.yul\":9163:9242   */\n      tag_178\n      tag_44\n      jump\t// in\n    tag_178:\n        /* \"#utility.yul\":9124:9244   */\n    tag_177:\n        /* \"#utility.yul\":9283:9284   */\n      0x00\n        /* \"#utility.yul\":9308:9361   */\n      tag_179\n        /* \"#utility.yul\":9353:9360   */\n      dup9\n        /* \"#utility.yul\":9344:9350   */\n      dup3\n        /* \"#utility.yul\":9333:9342   */\n      dup10\n        /* \"#utility.yul\":9329:9351   */\n      add\n        /* \"#utility.yul\":9308:9361   */\n      tag_54\n      jump\t// in\n    tag_179:\n        /* \"#utility.yul\":9298:9361   */\n      swap6\n      pop\n        /* \"#utility.yul\":9254:9371   */\n      pop\n        /* \"#utility.yul\":9410:9412   */\n      0x20\n        /* \"#utility.yul\":9436:9489   */\n      tag_180\n        /* \"#utility.yul\":9481:9488   */\n      dup9\n        /* \"#utility.yul\":9472:9478   */\n      dup3\n        /* \"#utility.yul\":9461:9470   */\n      dup10\n        /* \"#utility.yul\":9457:9479   */\n      add\n        /* \"#utility.yul\":9436:9489   */\n      tag_54\n      jump\t// in\n    tag_180:\n        /* \"#utility.yul\":9426:9489   */\n      swap5\n      pop\n        /* \"#utility.yul\":9381:9499   */\n      pop\n        /* \"#utility.yul\":9538:9540   */\n      0x40\n        /* \"#utility.yul\":9564:9617   */\n      tag_181\n        /* \"#utility.yul\":9609:9616   */\n      dup9\n        /* \"#utility.yul\":9600:9606   */\n      dup3\n        /* \"#utility.yul\":9589:9598   */\n      dup10\n        /* \"#utility.yul\":9585:9607   */\n      add\n        /* \"#utility.yul\":9564:9617   */\n      tag_57\n      jump\t// in\n    tag_181:\n        /* \"#utility.yul\":9554:9617   */\n      swap4\n      pop\n        /* \"#utility.yul\":9509:9627   */\n      pop\n        /* \"#utility.yul\":9666:9668   */\n      0x60\n        /* \"#utility.yul\":9692:9745   */\n      tag_182\n        /* \"#utility.yul\":9737:9744   */\n      dup9\n        /* \"#utility.yul\":9728:9734   */\n      dup3\n        /* \"#utility.yul\":9717:9726   */\n      dup10\n        /* \"#utility.yul\":9713:9735   */\n      add\n        /* \"#utility.yul\":9692:9745   */\n      tag_57\n      jump\t// in\n    tag_182:\n        /* \"#utility.yul\":9682:9745   */\n      swap3\n      pop\n        /* \"#utility.yul\":9637:9755   */\n      pop\n        /* \"#utility.yul\":9822:9825   */\n      0x80\n        /* \"#utility.yul\":9811:9820   */\n      dup7\n        /* \"#utility.yul\":9807:9826   */\n      add\n        /* \"#utility.yul\":9794:9827   */\n      calldataload\n        /* \"#utility.yul\":9854:9872   */\n      0xffffffffffffffff\n        /* \"#utility.yul\":9846:9852   */\n      dup2\n        /* \"#utility.yul\":9843:9873   */\n      gt\n        /* \"#utility.yul\":9840:9957   */\n      iszero\n      tag_183\n      jumpi\n        /* \"#utility.yul\":9876:9955   */\n      tag_184\n      tag_45\n      jump\t// in\n    tag_184:\n        /* \"#utility.yul\":9840:9957   */\n    tag_183:\n        /* \"#utility.yul\":9981:10043   */\n      tag_185\n        /* \"#utility.yul\":10035:10042   */\n      dup9\n        /* \"#utility.yul\":10026:10032   */\n      dup3\n        /* \"#utility.yul\":10015:10024   */\n      dup10\n        /* \"#utility.yul\":10011:10033   */\n      add\n        /* \"#utility.yul\":9981:10043   */\n      tag_67\n      jump\t// in\n    tag_185:\n        /* \"#utility.yul\":9971:10043   */\n      swap2\n      pop\n        /* \"#utility.yul\":9765:10053   */\n      pop\n        /* \"#utility.yul\":8971:10060   */\n      swap3\n      swap6\n      pop\n      swap3\n      swap6\n      swap1\n      swap4\n      pop\n      jump\t// out\n\n    auxdata: 0xa2646970667358221220d4bd3e82b18f0650ee88e73ae0fb327f9f1ec5f792a56b2f7dd527a3f251898064736f6c634300081a0033\n}\n",
				"bytecode": {
					"linkReferences": {},
					"object": "6080604052348015600e575f80fd5b506107e78061001c5f395ff3fe608060405260043610610042575f3560e01c806301ffc9a71461004d578063150b7a0214610089578063bc197c81146100c5578063f23a6e611461010157610049565b3661004957005b5f80fd5b348015610058575f80fd5b50610073600480360381019061006e91906102c0565b61013d565b6040516100809190610305565b60405180910390f35b348015610094575f80fd5b506100af60048036038101906100aa91906104e7565b6101b6565b6040516100bc9190610576565b60405180910390f35b3480156100d0575f80fd5b506100eb60048036038101906100e69190610653565b6101c9565b6040516100f89190610576565b60405180910390f35b34801561010c575f80fd5b506101276004803603810190610122919061071e565b6101dd565b6040516101349190610576565b60405180910390f35b5f7f4e2312e0000000000000000000000000000000000000000000000000000000007bffffffffffffffffffffffffffffffffffffffffffffffffffffffff1916827bffffffffffffffffffffffffffffffffffffffffffffffffffffffff191614806101af57506101ae826101f1565b5b9050919050565b5f63150b7a0260e01b9050949350505050565b5f63bc197c8160e01b905095945050505050565b5f63f23a6e6160e01b905095945050505050565b5f7f01ffc9a7000000000000000000000000000000000000000000000000000000007bffffffffffffffffffffffffffffffffffffffffffffffffffffffff1916827bffffffffffffffffffffffffffffffffffffffffffffffffffffffff1916149050919050565b5f604051905090565b5f80fd5b5f80fd5b5f7fffffffff0000000000000000000000000000000000000000000000000000000082169050919050565b61029f8161026b565b81146102a9575f80fd5b50565b5f813590506102ba81610296565b92915050565b5f602082840312156102d5576102d4610263565b5b5f6102e2848285016102ac565b91505092915050565b5f8115159050919050565b6102ff816102eb565b82525050565b5f6020820190506103185f8301846102f6565b92915050565b5f73ffffffffffffffffffffffffffffffffffffffff82169050919050565b5f6103478261031e565b9050919050565b6103578161033d565b8114610361575f80fd5b50565b5f813590506103728161034e565b92915050565b5f819050919050565b61038a81610378565b8114610394575f80fd5b50565b5f813590506103a581610381565b92915050565b5f80fd5b5f80fd5b5f601f19601f8301169050919050565b7f4e487b71000000000000000000000000000000000000000000000000000000005f52604160045260245ffd5b6103f9826103b3565b810181811067ffffffffffffffff82111715610418576104176103c3565b5b80604052505050565b5f61042a61025a565b905061043682826103f0565b919050565b5f67ffffffffffffffff821115610455576104546103c3565b5b61045e826103b3565b9050602081019050919050565b828183375f83830152505050565b5f61048b6104868461043b565b610421565b9050828152602081018484840111156104a7576104a66103af565b5b6104b284828561046b565b509392505050565b5f82601f8301126104ce576104cd6103ab565b5b81356104de848260208601610479565b91505092915050565b5f805f80608085870312156104ff576104fe610263565b5b5f61050c87828801610364565b945050602061051d87828801610364565b935050604061052e87828801610397565b925050606085013567ffffffffffffffff81111561054f5761054e610267565b5b61055b878288016104ba565b91505092959194509250565b6105708161026b565b82525050565b5f6020820190506105895f830184610567565b92915050565b5f67ffffffffffffffff8211156105a9576105a86103c3565b5b602082029050602081019050919050565b5f80fd5b5f6105d06105cb8461058f565b610421565b905080838252602082019050602084028301858111156105f3576105f26105ba565b5b835b8181101561061c57806106088882610397565b8452602084019350506020810190506105f5565b5050509392505050565b5f82601f83011261063a576106396103ab565b5b813561064a8482602086016105be565b91505092915050565b5f805f805f60a0868803121561066c5761066b610263565b5b5f61067988828901610364565b955050602061068a88828901610364565b945050604086013567ffffffffffffffff8111156106ab576106aa610267565b5b6106b788828901610626565b935050606086013567ffffffffffffffff8111156106d8576106d7610267565b5b6106e488828901610626565b925050608086013567ffffffffffffffff81111561070557610704610267565b5b610711888289016104ba565b9150509295509295909350565b5f805f805f60a0868803121561073757610736610263565b5b5f61074488828901610364565b955050602061075588828901610364565b945050604061076688828901610397565b935050606061077788828901610397565b925050608086013567ffffffffffffffff81111561079857610797610267565b5b6107a4888289016104ba565b915050929550929590935056fea2646970667358221220d4bd3e82b18f0650ee88e73ae0fb327f9f1ec5f792a56b2f7dd527a3f251898064736f6c634300081a0033",
					"opcodes": "PUSH1 0x80 PUSH1 0x40 MSTORE CALLVALUE DUP1 ISZERO PUSH1 0xE JUMPI PUSH0 DUP1 REVERT JUMPDEST POP PUSH2 0x7E7 DUP1 PUSH2 0x1C PUSH0 CODECOPY PUSH0 RETURN INVALID PUSH1 0x80 PUSH1 0x40 MSTORE PUSH1 0x4 CALLDATASIZE LT PUSH2 0x42 JUMPI PUSH0 CALLDATALOAD PUSH1 0xE0 SHR DUP1 PUSH4 0x1FFC9A7 EQ PUSH2 0x4D JUMPI DUP1 PUSH4 0x150B7A02 EQ PUSH2 0x89 JUMPI DUP1 PUSH4 0xBC197C81 EQ PUSH2 0xC5 JUMPI DUP1 PUSH4 0xF23A6E61 EQ PUSH2 0x101 JUMPI PUSH2 0x49 JUMP JUMPDEST CALLDATASIZE PUSH2 0x49 JUMPI STOP JUMPDEST PUSH0 DUP1 REVERT JUMPDEST CALLVALUE DUP1 ISZERO PUSH2 0x58 JUMPI PUSH0 DUP1 REVERT JUMPDEST POP PUSH2 0x73 PUSH1 0x4 DUP1 CALLDATASIZE SUB DUP2 ADD SWAP1 PUSH2 0x6E SWAP2 SWAP1 PUSH2 0x2C0 JUMP JUMPDEST PUSH2 0x13D JUMP JUMPDEST PUSH1 0x40 MLOAD PUSH2 0x80 SWAP2 SWAP1 PUSH2 0x305 JUMP JUMPDEST PUSH1 0x40 MLOAD DUP1 SWAP2 SUB SWAP1 RETURN JUMPDEST CALLVALUE DUP1 ISZERO PUSH2 0x94 JUMPI PUSH0 DUP1 REVERT JUMPDEST POP PUSH2 0xAF PUSH1 0x4 DUP1 CALLDATASIZE SUB DUP2 ADD SWAP1 PUSH2 0xAA SWAP2 SWAP1 PUSH2 0x4E7 JUMP JUMPDEST PUSH2 0x1B6 JUMP JUMPDEST PUSH1 0x40 MLOAD PUSH2 0xBC SWAP2 SWAP1 PUSH2 0x576 JUMP JUMPDEST PUSH1 0x40 MLOAD DUP1 SWAP2 SUB SWAP1 RETURN JUMPDEST CALLVALUE DUP1 ISZERO PUSH2 0xD0 JUMPI PUSH0 DUP1 REVERT JUMPDEST POP PUSH2 0xEB PUSH1 0x4 DUP1 CALLDATASIZE SUB DUP2 ADD SWAP1 PUSH2 0xE6 SWAP2 SWAP1 PUSH2 0x653 JUMP JUMPDEST PUSH2 0x1C9 JUMP JUMPDEST PUSH1 0x40 MLOAD PUSH2 0xF8 SWAP2 SWAP1 PUSH2 0x576 JUMP JUMPDEST PUSH1 0x40 MLOAD DUP1 SWAP2 SUB SWAP1 RETURN JUMPDEST CALLVALUE DUP1 ISZERO PUSH2 0x10C JUMPI PUSH0 DUP1 REVERT JUMPDEST POP PUSH2 0x127 PUSH1 0x4 DUP1 CALLDATASIZE SUB DUP2 ADD SWAP1 PUSH2 0x122 SWAP2 SWAP1 PUSH2 0x71E JUMP JUMPDEST PUSH2 0x1DD JUMP JUMPDEST PUSH1 0x40 MLOAD PUSH2 0x134 SWAP2 SWAP1 PUSH2 0x576 JUMP JUMPDEST PUSH1 0x40 MLOAD DUP1 SWAP2 SUB SWAP1 RETURN JUMPDEST PUSH0 PUSH32 0x4E2312E000000000000000000000000000000000000000000000000000000000 PUSH28 0xFFFFFFFFFFFFFFFFFFFFFFFFFFFFFFFFFFFFFFFFFFFFFFFFFFFFFFFF NOT AND DUP3 PUSH28 0xFFFFFFFFFFFFFFFFFFFFFFFFFFFFFFFFFFFFFFFFFFFFFFFFFFFFFFFF NOT AND EQ DUP1 PUSH2 0x1AF JUMPI POP PUSH2 0x1AE DUP3 PUSH2 0x1F1 JUMP JUMPDEST JUMPDEST SWAP1 POP SWAP2 SWAP1 POP JUMP JUMPDEST PUSH0 PUSH4 0x150B7A02 PUSH1 0xE0 SHL SWAP1 POP SWAP5 SWAP4 POP POP POP POP JUMP JUMPDEST PUSH0 PUSH4 0xBC197C81 PUSH1 0xE0 SHL SWAP1 POP SWAP6 SWAP5 POP POP POP POP POP JUMP JUMPDEST PUSH0 PUSH4 0xF23A6E61 PUSH1 0xE0 SHL SWAP1 POP SWAP6 SWAP5 POP POP POP POP POP JUMP JUMPDEST PUSH0 PUSH32 0x1FFC9A700000000000000000000000000000000000000000000000000000000 PUSH28 0xFFFFFFFFFFFFFFFFFFFFFFFFFFFFFFFFFFFFFFFFFFFFFFFFFFFFFFFF NOT AND DUP3 PUSH28 0xFFFFFFFFFFFFFFFFFFFFFFFFFFFFFFFFFFFFFFFFFFFFFFFFFFFFFFFF NOT AND EQ SWAP1 POP SWAP2 SWAP1 POP JUMP JUMPDEST PUSH0 PUSH1 0x40 MLOAD SWAP1 POP SWAP1 JUMP JUMPDEST PUSH0 DUP1 REVERT JUMPDEST PUSH0 DUP1 REVERT JUMPDEST PUSH0 PUSH32 0xFFFFFFFF00000000000000000000000000000000000000000000000000000000 DUP3 AND SWAP1 POP SWAP2 SWAP1 POP JUMP JUMPDEST PUSH2 0x29F DUP2 PUSH2 0x26B JUMP JUMPDEST DUP2 EQ PUSH2 0x2A9 JUMPI PUSH0 DUP1 REVERT JUMPDEST POP JUMP JUMPDEST PUSH0 DUP2 CALLDATALOAD SWAP1 POP PUSH2 0x2BA DUP2 PUSH2 0x296 JUMP JUMPDEST SWAP3 SWAP2 POP POP JUMP JUMPDEST PUSH0 PUSH1 0x20 DUP3 DUP5 SUB SLT ISZERO PUSH2 0x2D5 JUMPI PUSH2 0x2D4 PUSH2 0x263 JUMP JUMPDEST JUMPDEST PUSH0 PUSH2 0x2E2 DUP5 DUP3 DUP6 ADD PUSH2 0x2AC JUMP JUMPDEST SWAP2 POP POP SWAP3 SWAP2 POP POP JUMP JUMPDEST PUSH0 DUP2 ISZERO ISZERO SWAP1 POP SWAP2 SWAP1 POP JUMP JUMPDEST PUSH2 0x2FF DUP2 PUSH2 0x2EB JUMP JUMPDEST DUP3 MSTORE POP POP JUMP JUMPDEST PUSH0 PUSH1 0x20 DUP3 ADD SWAP1 POP PUSH2 0x318 PUSH0 DUP4 ADD DUP5 PUSH2 0x2F6 JUMP JUMPDEST SWAP3 SWAP2 POP POP JUMP JUMPDEST PUSH0 PUSH20 0xFFFFFFFFFFFFFFFFFFFFFFFFFFFFFFFFFFFFFFFF DUP3 AND SWAP1 POP SWAP2 SWAP1 POP JUMP JUMPDEST PUSH0 PUSH2 0x347 DUP3 PUSH2 0x31E JUMP JUMPDEST SWAP1 POP SWAP2 SWAP1 POP JUMP JUMPDEST PUSH2 0x357 DUP2 PUSH2 0x33D JUMP JUMPDEST DUP2 EQ PUSH2 0x361 JUMPI PUSH0 DUP1 REVERT JUMPDEST POP JUMP JUMPDEST PUSH0 DUP2 CALLDATALOAD SWAP1 POP PUSH2 0x372 DUP2 PUSH2 0x34E JUMP JUMPDEST SWAP3 SWAP2 POP POP JUMP JUMPDEST PUSH0 DUP2 SWAP1 POP SWAP2 SWAP1 POP JUMP JUMPDEST PUSH2 0x38A DUP2 PUSH2 0x378 JUMP JUMPDEST DUP2 EQ PUSH2 0x394 JUMPI PUSH0 DUP1 REVERT JUMPDEST POP JUMP JUMPDEST PUSH0 DUP2 CALLDATALOAD SWAP1 POP PUSH2 0x3A5 DUP2 PUSH2 0x381 JUMP JUMPDEST SWAP3 SWAP2 POP POP JUMP JUMPDEST PUSH0 DUP1 REVERT JUMPDEST PUSH0 DUP1 REVERT JUMPDEST PUSH0 PUSH1 0x1F NOT PUSH1 0x1F DUP4 ADD AND SWAP1 POP SWAP2 SWAP1 POP JUMP JUMPDEST PUSH32 0x4E487B7100000000000000000000000000000000000000000000000000000000 PUSH0 MSTORE PUSH1 0x41 PUSH1 0x4 MSTORE PUSH1 0x24 PUSH0 REVERT JUMPDEST PUSH2 0x3F9 DUP3 PUSH2 0x3B3 JUMP JUMPDEST DUP2 ADD DUP2 DUP2 LT PUSH8 0xFFFFFFFFFFFFFFFF DUP3 GT OR ISZERO PUSH2 0x418 JUMPI PUSH2 0x417 PUSH2 0x3C3 JUMP JUMPDEST JUMPDEST DUP1 PUSH1 0x40 MSTORE POP POP POP JUMP JUMPDEST PUSH0 PUSH2 0x42A PUSH2 0x25A JUMP JUMPDEST SWAP1 POP PUSH2 0x436 DUP3 DUP3 PUSH2 0x3F0 JUMP JUMPDEST SWAP2 SWAP1 POP JUMP JUMPDEST PUSH0 PUSH8 0xFFFFFFFFFFFFFFFF DUP3 GT ISZERO PUSH2 0x455 JUMPI PUSH2 0x454 PUSH2 0x3C3 JUMP JUMPDEST JUMPDEST PUSH2 0x45E DUP3 PUSH2 0x3B3 JUMP JUMPDEST SWAP1 POP PUSH1 0x20 DUP2 ADD SWAP1 POP SWAP2 SWAP1 POP JUMP JUMPDEST DUP3 DUP2 DUP4 CALLDATACOPY PUSH0 DUP4 DUP4 ADD MSTORE POP POP POP JUMP JUMPDEST PUSH0 PUSH2 0x48B PUSH2 0x486 DUP5 PUSH2 0x43B JUMP JUMPDEST PUSH2 0x421 JUMP JUMPDEST SWAP1 POP DUP3 DUP2 MSTORE PUSH1 0x20 DUP2 ADD DUP5 DUP5 DUP5 ADD GT ISZERO PUSH2 0x4A7 JUMPI PUSH2 0x4A6 PUSH2 0x3AF JUMP JUMPDEST JUMPDEST PUSH2 0x4B2 DUP5 DUP3 DUP6 PUSH2 0x46B JUMP JUMPDEST POP SWAP4 SWAP3 POP POP POP JUMP JUMPDEST PUSH0 DUP3 PUSH1 0x1F DUP4 ADD SLT PUSH2 0x4CE JUMPI PUSH2 0x4CD PUSH2 0x3AB JUMP JUMPDEST JUMPDEST DUP2 CALLDATALOAD PUSH2 0x4DE DUP5 DUP3 PUSH1 0x20 DUP7 ADD PUSH2 0x479 JUMP JUMPDEST SWAP2 POP POP SWAP3 SWAP2 POP POP JUMP JUMPDEST PUSH0 DUP1 PUSH0 DUP1 PUSH1 0x80 DUP6 DUP8 SUB SLT ISZERO PUSH2 0x4FF JUMPI PUSH2 0x4FE PUSH2 0x263 JUMP JUMPDEST JUMPDEST PUSH0 PUSH2 0x50C DUP8 DUP3 DUP9 ADD PUSH2 0x364 JUMP JUMPDEST SWAP5 POP POP PUSH1 0x20 PUSH2 0x51D DUP8 DUP3 DUP9 ADD PUSH2 0x364 JUMP JUMPDEST SWAP4 POP POP PUSH1 0x40 PUSH2 0x52E DUP8 DUP3 DUP9 ADD PUSH2 0x397 JUMP JUMPDEST SWAP3 POP POP PUSH1 0x60 DUP6 ADD CALLDATALOAD PUSH8 0xFFFFFFFFFFFFFFFF DUP2 GT ISZERO PUSH2 0x54F JUMPI PUSH2 0x54E PUSH2 0x267 JUMP JUMPDEST JUMPDEST PUSH2 0x55B DUP8 DUP3 DUP9 ADD PUSH2 0x4BA JUMP JUMPDEST SWAP2 POP POP SWAP3 SWAP6 SWAP2 SWAP5 POP SWAP3 POP JUMP JUMPDEST PUSH2 0x570 DUP2 PUSH2 0x26B JUMP JUMPDEST DUP3 MSTORE POP POP JUMP JUMPDEST PUSH0 PUSH1 0x20 DUP3 ADD SWAP1 POP PUSH2 0x589 PUSH0 DUP4 ADD DUP5 PUSH2 0x567 JUMP JUMPDEST SWAP3 SWAP2 POP POP JUMP JUMPDEST PUSH0 PUSH8 0xFFFFFFFFFFFFFFFF DUP3 GT ISZERO PUSH2 0x5A9 JUMPI PUSH2 0x5A8 PUSH2 0x3C3 JUMP JUMPDEST JUMPDEST PUSH1 0x20 DUP3 MUL SWAP1 POP PUSH1 0x20 DUP2 ADD SWAP1 POP SWAP2 SWAP1 POP JUMP JUMPDEST PUSH0 DUP1 REVERT JUMPDEST PUSH0 PUSH2 0x5D0 PUSH2 0x5CB DUP5 PUSH2 0x58F JUMP JUMPDEST PUSH2 0x421 JUMP JUMPDEST SWAP1 POP DUP1 DUP4 DUP3 MSTORE PUSH1 0x20 DUP3 ADD SWAP1 POP PUSH1 0x20 DUP5 MUL DUP4 ADD DUP6 DUP2 GT ISZERO PUSH2 0x5F3 JUMPI PUSH2 0x5F2 PUSH2 0x5BA JUMP JUMPDEST JUMPDEST DUP4 JUMPDEST DUP2 DUP2 LT ISZERO PUSH2 0x61C JUMPI DUP1 PUSH2 0x608 DUP9 DUP3 PUSH2 0x397 JUMP JUMPDEST DUP5 MSTORE PUSH1 0x20 DUP5 ADD SWAP4 POP POP PUSH1 0x20 DUP2 ADD SWAP1 POP PUSH2 0x5F5 JUMP JUMPDEST POP POP POP SWAP4 SWAP3 POP POP POP JUMP JUMPDEST PUSH0 DUP3 PUSH1 0x1F DUP4 ADD SLT PUSH2 0x63A JUMPI PUSH2 0x639 PUSH2 0x3AB JUMP JUMPDEST JUMPDEST DUP2 CALLDATALOAD PUSH2 0x64A DUP5 DUP3 PUSH1 0x20 DUP7 ADD PUSH2 0x5BE JUMP JUMPDEST SWAP2 POP POP SWAP3 SWAP2 POP POP JUMP JUMPDEST PUSH0 DUP1 PUSH0 DUP1 PUSH0 PUSH1 0xA0 DUP7 DUP9 SUB SLT ISZERO PUSH2 0x66C JUMPI PUSH2 0x66B PUSH2 0x263 JUMP JUMPDEST JUMPDEST PUSH0 PUSH2 0x679 DUP9 DUP3 DUP10 ADD PUSH2 0x364 JUMP JUMPDEST SWAP6 POP POP PUSH1 0x20 PUSH2 0x68A DUP9 DUP3 DUP10 ADD PUSH2 0x364 JUMP JUMPDEST SWAP5 POP POP PUSH1 0x40 DUP7 ADD CALLDATALOAD PUSH8 0xFFFFFFFFFFFFFFFF DUP2 GT ISZERO PUSH2 0x6AB JUMPI PUSH2 0x6AA PUSH2 0x267 JUMP JUMPDEST JUMPDEST PUSH2 0x6B7 DUP9 DUP3 DUP10 ADD PUSH2 0x626 JUMP JUMPDEST SWAP4 POP POP PUSH1 0x60 DUP7 ADD CALLDATALOAD PUSH8 0xFFFFFFFFFFFFFFFF DUP2 GT ISZERO PUSH2 0x6D8 JUMPI PUSH2 0x6D7 PUSH2 0x267 JUMP JUMPDEST JUMPDEST PUSH2 0x6E4 DUP9 DUP3 DUP10 ADD PUSH2 0x626 JUMP JUMPDEST SWAP3 POP POP PUSH1 0x80 DUP7 ADD CALLDATALOAD PUSH8 0xFFFFFFFFFFFFFFFF DUP2 GT ISZERO PUSH2 0x705 JUMPI PUSH2 0x704 PUSH2 0x267 JUMP JUMPDEST JUMPDEST PUSH2 0x711 DUP9 DUP3 DUP10 ADD PUSH2 0x4BA JUMP JUMPDEST SWAP2 POP POP SWAP3 SWAP6 POP SWAP3 SWAP6 SWAP1 SWAP4 POP JUMP JUMPDEST PUSH0 DUP1 PUSH0 DUP1 PUSH0 PUSH1 0xA0 DUP7 DUP9 SUB SLT ISZERO PUSH2 0x737 JUMPI PUSH2 0x736 PUSH2 0x263 JUMP JUMPDEST JUMPDEST PUSH0 PUSH2 0x744 DUP9 DUP3 DUP10 ADD PUSH2 0x364 JUMP JUMPDEST SWAP6 POP POP PUSH1 0x20 PUSH2 0x755 DUP9 DUP3 DUP10 ADD PUSH2 0x364 JUMP JUMPDEST SWAP5 POP POP PUSH1 0x40 PUSH2 0x766 DUP9 DUP3 DUP10 ADD PUSH2 0x397 JUMP JUMPDEST SWAP4 POP POP PUSH1 0x60 PUSH2 0x777 DUP9 DUP3 DUP10 ADD PUSH2 0x397 JUMP JUMPDEST SWAP3 POP POP PUSH1 0x80 DUP7 ADD CALLDATALOAD PUSH8 0xFFFFFFFFFFFFFFFF DUP2 GT ISZERO PUSH2 0x798 JUMPI PUSH2 0x797 PUSH2 0x267 JUMP JUMPDEST JUMPDEST PUSH2 0x7A4 DUP9 DUP3 DUP10 ADD PUSH2 0x4BA JUMP JUMPDEST SWAP2 POP POP SWAP3 SWAP6 POP SWAP3 SWAP6 SWAP1 SWAP4 POP JUMP INVALID LOG2 PUSH5 0x6970667358 0x22 SLT KECCAK256 0xD4 0xBD RETURNDATACOPY DUP3 0xB1 DUP16 MOD POP 0xEE DUP9 0xE7 GASPRICE 0xE0 0xFB ORIGIN PUSH32 0x9F1EC5F792A56B2F7DD527A3F251898064736F6C634300081A00330000000000 "
				},
				"gasEstimates": {
					"creation": {
						"codeDepositCost": "404600",
						"executionCost": "441",
						"totalCost": "405041"
					},
					"external": {
						"onERC1155BatchReceived(address,address,uint256[],uint256[],bytes)": "infinite",
						"onERC1155Received(address,address,uint256,uint256,bytes)": "infinite",
						"onERC721Received(address,address,uint256,bytes)": "infinite",
						"supportsInterface(bytes4)": "695"
					}
				},
				"methodIdentifiers": {
					"onERC1155BatchReceived(address,address,uint256[],uint256[],bytes)": "bc197c81",
					"onERC1155Received(address,address,uint256,uint256,bytes)": "f23a6e61",
					"onERC721Received(address,address,uint256,bytes)": "150b7a02",
					"supportsInterface(bytes4)": "01ffc9a7"
				}
			},
			"storageLayout": {
				"storage": [],
				"types": null
			},
			"userdoc": {
				"kind": "user",
				"methods": {},
				"version": 1
			}
		}
	}
}