{
	"tba/ERC6551Registry.sol": {
		"ERC6551Registry": {
			"abi": [
				{
					"inputs": [],
					"name": "InitializationFailed",
					"type": "error"
				},
				{
					"anonymous": false,
					"inputs": [
						{
							"indexed": false,
							"internalType": "address",
							"name": "account",
							"type": "address"
						},
						{
							"indexed": false,
							"internalType": "address",
							"name": "implementation",
							"type": "address"
						},
						{
							"indexed": false,
							"internalType": "uint256",
							"name": "chainId",
							"type": "uint256"
						},
						{
							"indexed": false,
							"internalType": "address",
							"name": "tokenContract",
							"type": "address"
						},
						{
							"indexed": false,
							"internalType": "uint256",
							"name": "tokenId",
							"type": "uint256"
						},
						{
							"indexed": false,
							"internalType": "uint256",
							"name": "salt",
							"type": "uint256"
						}
					],
					"name": "AccountCreated",
					"type": "event"
				},
				{
					"inputs": [
						{
							"internalType": "address",
							"name": "implementation",
							"type": "address"
						},
						{
							"internalType": "uint256",
							"name": "chainId",
							"type": "uint256"
						},
						{
							"internalType": "address",
							"name": "tokenContract",
							"type": "address"
						},
						{
							"internalType": "uint256",
							"name": "tokenId",
							"type": "uint256"
						},
						{
							"internalType": "uint256",
							"name": "salt",
							"type": "uint256"
						}
					],
					"name": "account",
					"outputs": [
						{
							"internalType": "address",
							"name": "",
							"type": "address"
						}
					],
					"stateMutability": "view",
					"type": "function"
				},
				{
					"inputs": [
						{
							"internalType": "address",
							"name": "implementation",
							"type": "address"
						},
						{
							"internalType": "uint256",
							"name": "chainId",
							"type": "uint256"
						},
						{
							"internalType": "address",
							"name": "tokenContract",
							"type": "address"
						},
						{
							"internalType": "uint256",
							"name": "tokenId",
							"type": "uint256"
						},
						{
							"internalType": "uint256",
							"name": "salt",
							"type": "uint256"
						},
						{
							"internalType": "bytes",
							"name": "initData",
							"type": "bytes"
						}
					],
					"name": "createAccount",
					"outputs": [
						{
							"internalType": "address",
							"name": "",
							"type": "address"
						}
					],
					"stateMutability": "nonpayable",
					"type": "function"
				}
			],
			"devdoc": {
				"kind": "dev",
				"methods": {},
				"version": 1
			},
			"evm": {
				"assembly": "    /* \"tba/ERC6551Registry.sol\":199:2118  contract ERC6551Registry is IERC6551Registry {... */\n  mstore(0x40, 0x80)\n  callvalue\n  dup1\n  iszero\n  tag_1\n  jumpi\n  0x00\n  dup1\n  revert\ntag_1:\n  pop\n  dataSize(sub_0)\n  dup1\n  dataOffset(sub_0)\n  0x00\n  codecopy\n  0x00\n  return\nstop\n\nsub_0: assembly {\n        /* \"tba/ERC6551Registry.sol\":199:2118  contract ERC6551Registry is IERC6551Registry {... */\n      mstore(0x40, 0x80)\n      callvalue\n      dup1\n      iszero\n      tag_1\n      jumpi\n      0x00\n      dup1\n      revert\n    tag_1:\n      pop\n      jumpi(tag_2, lt(calldatasize, 0x04))\n      shr(0xe0, calldataload(0x00))\n      dup1\n      0x5e9bc536\n      eq\n      tag_3\n      jumpi\n      dup1\n      0xda7323b3\n      eq\n      tag_4\n      jumpi\n    tag_2:\n      0x00\n      dup1\n      revert\n        /* \"tba/ERC6551Registry.sol\":1218:1618  function account(... */\n    tag_3:\n      tag_5\n      0x04\n      dup1\n      calldatasize\n      sub\n      dup2\n      add\n      swap1\n      tag_6\n      swap2\n      swap1\n      tag_7\n      jump\t// in\n    tag_6:\n      tag_8\n      jump\t// in\n    tag_5:\n      mload(0x40)\n      tag_9\n      swap2\n      swap1\n      tag_10\n      jump\t// in\n    tag_9:\n      mload(0x40)\n      dup1\n      swap2\n      sub\n      swap1\n      return\n        /* \"tba/ERC6551Registry.sol\":285:1212  function createAccount(... */\n    tag_4:\n      tag_11\n      0x04\n      dup1\n      calldatasize\n      sub\n      dup2\n      add\n      swap1\n      tag_12\n      swap2\n      swap1\n      tag_13\n      jump\t// in\n    tag_12:\n      tag_14\n      jump\t// in\n    tag_11:\n      mload(0x40)\n      tag_15\n      swap2\n      swap1\n      tag_10\n      jump\t// in\n    tag_15:\n      mload(0x40)\n      dup1\n      swap2\n      sub\n      swap1\n      return\n        /* \"tba/ERC6551Registry.sol\":1218:1618  function account(... */\n    tag_8:\n        /* \"tba/ERC6551Registry.sol\":1399:1406  address */\n      0x00\n        /* \"tba/ERC6551Registry.sol\":1418:1438  bytes32 bytecodeHash */\n      dup1\n        /* \"tba/ERC6551Registry.sol\":1464:1532  _creationCode(implementation, chainId, tokenContract, tokenId, salt) */\n      tag_17\n        /* \"tba/ERC6551Registry.sol\":1478:1492  implementation */\n      dup8\n        /* \"tba/ERC6551Registry.sol\":1494:1501  chainId */\n      dup8\n        /* \"tba/ERC6551Registry.sol\":1503:1516  tokenContract */\n      dup8\n        /* \"tba/ERC6551Registry.sol\":1518:1525  tokenId */\n      dup8\n        /* \"tba/ERC6551Registry.sol\":1527:1531  salt */\n      dup8\n        /* \"tba/ERC6551Registry.sol\":1464:1477  _creationCode */\n      tag_18\n        /* \"tba/ERC6551Registry.sol\":1464:1532  _creationCode(implementation, chainId, tokenContract, tokenId, salt) */\n      jump\t// in\n    tag_17:\n        /* \"tba/ERC6551Registry.sol\":1441:1542  keccak256(... */\n      dup1\n      mload\n      swap1\n      0x20\n      add\n      keccak256\n        /* \"tba/ERC6551Registry.sol\":1418:1542  bytes32 bytecodeHash = keccak256(... */\n      swap1\n      pop\n        /* \"tba/ERC6551Registry.sol\":1560:1611  Create2.computeAddress(bytes32(salt), bytecodeHash) */\n      tag_19\n        /* \"tba/ERC6551Registry.sol\":1591:1595  salt */\n      dup4\n        /* \"tba/ERC6551Registry.sol\":1583:1596  bytes32(salt) */\n      0x00\n      shl\n        /* \"tba/ERC6551Registry.sol\":1598:1610  bytecodeHash */\n      dup3\n        /* \"tba/ERC6551Registry.sol\":1560:1582  Create2.computeAddress */\n      tag_20\n        /* \"tba/ERC6551Registry.sol\":1560:1611  Create2.computeAddress(bytes32(salt), bytecodeHash) */\n      jump\t// in\n    tag_19:\n        /* \"tba/ERC6551Registry.sol\":1553:1611  return Create2.computeAddress(bytes32(salt), bytecodeHash) */\n      swap2\n      pop\n      pop\n        /* \"tba/ERC6551Registry.sol\":1218:1618  function account(... */\n      swap6\n      swap5\n      pop\n      pop\n      pop\n      pop\n      pop\n      jump\t// out\n        /* \"tba/ERC6551Registry.sol\":285:1212  function createAccount(... */\n    tag_14:\n        /* \"tba/ERC6551Registry.sol\":500:507  address */\n      0x00\n        /* \"tba/ERC6551Registry.sol\":519:536  bytes memory code */\n      dup1\n        /* \"tba/ERC6551Registry.sol\":539:607  _creationCode(implementation, chainId, tokenContract, tokenId, salt) */\n      tag_22\n        /* \"tba/ERC6551Registry.sol\":553:567  implementation */\n      dup10\n        /* \"tba/ERC6551Registry.sol\":569:576  chainId */\n      dup10\n        /* \"tba/ERC6551Registry.sol\":578:591  tokenContract */\n      dup10\n        /* \"tba/ERC6551Registry.sol\":593:600  tokenId */\n      dup10\n        /* \"tba/ERC6551Registry.sol\":602:606  salt */\n      dup10\n        /* \"tba/ERC6551Registry.sol\":539:552  _creationCode */\n      tag_18\n        /* \"tba/ERC6551Registry.sol\":539:607  _creationCode(implementation, chainId, tokenContract, tokenId, salt) */\n      jump\t// in\n    tag_22:\n        /* \"tba/ERC6551Registry.sol\":519:607  bytes memory code = _creationCode(implementation, chainId, tokenContract, tokenId, salt) */\n      swap1\n      pop\n        /* \"tba/ERC6551Registry.sol\":618:634  address _account */\n      0x00\n        /* \"tba/ERC6551Registry.sol\":637:725  Create2.computeAddress(... */\n      tag_23\n        /* \"tba/ERC6551Registry.sol\":681:685  salt */\n      dup7\n        /* \"tba/ERC6551Registry.sol\":673:686  bytes32(salt) */\n      0x00\n      shl\n        /* \"tba/ERC6551Registry.sol\":710:714  code */\n      dup4\n        /* \"tba/ERC6551Registry.sol\":700:715  keccak256(code) */\n      dup1\n      mload\n      swap1\n      0x20\n      add\n      keccak256\n        /* \"tba/ERC6551Registry.sol\":637:659  Create2.computeAddress */\n      tag_20\n        /* \"tba/ERC6551Registry.sol\":637:725  Create2.computeAddress(... */\n      jump\t// in\n    tag_23:\n        /* \"tba/ERC6551Registry.sol\":618:725  address _account = Create2.computeAddress(... */\n      swap1\n      pop\n        /* \"tba/ERC6551Registry.sol\":764:765  0 */\n      0x00\n        /* \"tba/ERC6551Registry.sol\":740:748  _account */\n      dup2\n        /* \"tba/ERC6551Registry.sol\":740:760  _account.code.length */\n      0xffffffffffffffffffffffffffffffffffffffff\n      and\n      extcodesize\n        /* \"tba/ERC6551Registry.sol\":740:765  _account.code.length != 0 */\n      eq\n        /* \"tba/ERC6551Registry.sol\":736:782  if (_account.code.length != 0) return _account */\n      tag_24\n      jumpi\n        /* \"tba/ERC6551Registry.sol\":774:782  _account */\n      dup1\n        /* \"tba/ERC6551Registry.sol\":767:782  return _account */\n      swap3\n      pop\n      pop\n      pop\n      jump(tag_21)\n        /* \"tba/ERC6551Registry.sol\":736:782  if (_account.code.length != 0) return _account */\n    tag_24:\n        /* \"tba/ERC6551Registry.sol\":804:842  Create2.deploy(0, bytes32(salt), code) */\n      tag_25\n        /* \"tba/ERC6551Registry.sol\":819:820  0 */\n      0x00\n        /* \"tba/ERC6551Registry.sol\":830:834  salt */\n      dup8\n        /* \"tba/ERC6551Registry.sol\":822:835  bytes32(salt) */\n      0x00\n      shl\n        /* \"tba/ERC6551Registry.sol\":837:841  code */\n      dup5\n        /* \"tba/ERC6551Registry.sol\":804:818  Create2.deploy */\n      tag_26\n        /* \"tba/ERC6551Registry.sol\":804:842  Create2.deploy(0, bytes32(salt), code) */\n      jump\t// in\n    tag_25:\n        /* \"tba/ERC6551Registry.sol\":793:842  _account = Create2.deploy(0, bytes32(salt), code) */\n      swap1\n      pop\n        /* \"tba/ERC6551Registry.sol\":876:877  0 */\n      0x00\n        /* \"tba/ERC6551Registry.sol\":857:865  initData */\n      dup6\n      dup6\n        /* \"tba/ERC6551Registry.sol\":857:872  initData.length */\n      swap1\n      pop\n        /* \"tba/ERC6551Registry.sol\":857:877  initData.length != 0 */\n      eq\n        /* \"tba/ERC6551Registry.sol\":853:1003  if (initData.length != 0) {... */\n      tag_27\n      jumpi\n        /* \"tba/ERC6551Registry.sol\":894:906  bool success */\n      0x00\n        /* \"tba/ERC6551Registry.sol\":912:920  _account */\n      dup2\n        /* \"tba/ERC6551Registry.sol\":912:925  _account.call */\n      0xffffffffffffffffffffffffffffffffffffffff\n      and\n        /* \"tba/ERC6551Registry.sol\":926:934  initData */\n      dup7\n      dup7\n        /* \"tba/ERC6551Registry.sol\":912:935  _account.call(initData) */\n      mload(0x40)\n      tag_28\n      swap3\n      swap2\n      swap1\n      tag_29\n      jump\t// in\n    tag_28:\n      0x00\n      mload(0x40)\n      dup1\n      dup4\n      sub\n      dup2\n      0x00\n      dup7\n      gas\n      call\n      swap2\n      pop\n      pop\n      returndatasize\n      dup1\n      0x00\n      dup2\n      eq\n      tag_32\n      jumpi\n      mload(0x40)\n      swap2\n      pop\n      and(add(returndatasize, 0x3f), not(0x1f))\n      dup3\n      add\n      0x40\n      mstore\n      returndatasize\n      dup3\n      mstore\n      returndatasize\n      0x00\n      0x20\n      dup5\n      add\n      returndatacopy\n      jump(tag_31)\n    tag_32:\n      0x60\n      swap2\n      pop\n    tag_31:\n      pop\n        /* \"tba/ERC6551Registry.sol\":893:935  (bool success, ) = _account.call(initData) */\n      pop\n      swap1\n      pop\n        /* \"tba/ERC6551Registry.sol\":954:961  success */\n      dup1\n        /* \"tba/ERC6551Registry.sol\":949:992  if (!success) revert InitializationFailed() */\n      tag_33\n      jumpi\n        /* \"tba/ERC6551Registry.sol\":970:992  InitializationFailed() */\n      mload(0x40)\n      0x19b991a800000000000000000000000000000000000000000000000000000000\n      dup2\n      mstore\n      0x04\n      add\n      mload(0x40)\n      dup1\n      swap2\n      sub\n      swap1\n      revert\n        /* \"tba/ERC6551Registry.sol\":949:992  if (!success) revert InitializationFailed() */\n    tag_33:\n        /* \"tba/ERC6551Registry.sol\":879:1003  {... */\n      pop\n        /* \"tba/ERC6551Registry.sol\":853:1003  if (initData.length != 0) {... */\n    tag_27:\n        /* \"tba/ERC6551Registry.sol\":1018:1179  AccountCreated(... */\n      0x07fba7bba1191da7ee1155dcfa0030701c9c9a9cc34a93b991fc6fd0c9268d8f\n        /* \"tba/ERC6551Registry.sol\":1046:1054  _account */\n      dup2\n        /* \"tba/ERC6551Registry.sol\":1068:1082  implementation */\n      dup12\n        /* \"tba/ERC6551Registry.sol\":1096:1103  chainId */\n      dup12\n        /* \"tba/ERC6551Registry.sol\":1117:1130  tokenContract */\n      dup12\n        /* \"tba/ERC6551Registry.sol\":1144:1151  tokenId */\n      dup12\n        /* \"tba/ERC6551Registry.sol\":1165:1169  salt */\n      dup12\n        /* \"tba/ERC6551Registry.sol\":1018:1179  AccountCreated(... */\n      mload(0x40)\n      tag_34\n      swap7\n      swap6\n      swap5\n      swap4\n      swap3\n      swap2\n      swap1\n      tag_35\n      jump\t// in\n    tag_34:\n      mload(0x40)\n      dup1\n      swap2\n      sub\n      swap1\n      log1\n        /* \"tba/ERC6551Registry.sol\":1197:1205  _account */\n      dup1\n        /* \"tba/ERC6551Registry.sol\":1190:1205  return _account */\n      swap3\n      pop\n      pop\n      pop\n        /* \"tba/ERC6551Registry.sol\":285:1212  function createAccount(... */\n    tag_21:\n      swap8\n      swap7\n      pop\n      pop\n      pop\n      pop\n      pop\n      pop\n      pop\n      jump\t// out\n        /* \"tba/ERC6551Registry.sol\":1624:2116  function _creationCode(... */\n    tag_18:\n        /* \"tba/ERC6551Registry.sol\":1816:1828  bytes memory */\n      0x60\n        /* \"tba/ERC6551Registry.sol\":1956:1971  implementation_ */\n      dup6\n        /* \"tba/ERC6551Registry.sol\":2053:2058  salt_ */\n      dup3\n        /* \"tba/ERC6551Registry.sol\":2060:2068  chainId_ */\n      dup7\n        /* \"tba/ERC6551Registry.sol\":2070:2084  tokenContract_ */\n      dup7\n        /* \"tba/ERC6551Registry.sol\":2086:2094  tokenId_ */\n      dup7\n        /* \"tba/ERC6551Registry.sol\":2042:2095  abi.encode(salt_, chainId_, tokenContract_, tokenId_) */\n      add(0x20, mload(0x40))\n      tag_37\n      swap5\n      swap4\n      swap3\n      swap2\n      swap1\n      tag_38\n      jump\t// in\n    tag_37:\n      mload(0x40)\n      0x20\n      dup2\n      dup4\n      sub\n      sub\n      dup2\n      mstore\n      swap1\n      0x40\n      mstore\n        /* \"tba/ERC6551Registry.sol\":1859:2109  abi.encodePacked(... */\n      add(0x20, mload(0x40))\n      tag_39\n      swap3\n      swap2\n      swap1\n      tag_40\n      jump\t// in\n    tag_39:\n      mload(0x40)\n      0x20\n      dup2\n      dup4\n      sub\n      sub\n      dup2\n      mstore\n      swap1\n      0x40\n      mstore\n        /* \"tba/ERC6551Registry.sol\":1840:2109  return... */\n      swap1\n      pop\n        /* \"tba/ERC6551Registry.sol\":1624:2116  function _creationCode(... */\n      swap6\n      swap5\n      pop\n      pop\n      pop\n      pop\n      pop\n      jump\t// out\n        /* \"github.com/OpenZeppelin/openzeppelin-contracts/blob/v4.7.3/contracts/utils/Create2.sol\":1837:2002  function computeAddress(bytes32 salt, bytes32 bytecodeHash) internal view returns (address) {... */\n    tag_20:\n        /* \"github.com/OpenZeppelin/openzeppelin-contracts/blob/v4.7.3/contracts/utils/Create2.sol\":1920:1927  address */\n      0x00\n        /* \"github.com/OpenZeppelin/openzeppelin-contracts/blob/v4.7.3/contracts/utils/Create2.sol\":1946:1995  computeAddress(salt, bytecodeHash, address(this)) */\n      tag_42\n        /* \"github.com/OpenZeppelin/openzeppelin-contracts/blob/v4.7.3/contracts/utils/Create2.sol\":1961:1965  salt */\n      dup4\n        /* \"github.com/OpenZeppelin/openzeppelin-contracts/blob/v4.7.3/contracts/utils/Create2.sol\":1967:1979  bytecodeHash */\n      dup4\n        /* \"github.com/OpenZeppelin/openzeppelin-contracts/blob/v4.7.3/contracts/utils/Create2.sol\":1989:1993  this */\n      address\n        /* \"github.com/OpenZeppelin/openzeppelin-contracts/blob/v4.7.3/contracts/utils/Create2.sol\":1946:1960  computeAddress */\n      tag_43\n        /* \"github.com/OpenZeppelin/openzeppelin-contracts/blob/v4.7.3/contracts/utils/Create2.sol\":1946:1995  computeAddress(salt, bytecodeHash, address(this)) */\n      jump\t// in\n    tag_42:\n        /* \"github.com/OpenZeppelin/openzeppelin-contracts/blob/v4.7.3/contracts/utils/Create2.sol\":1939:1995  return computeAddress(salt, bytecodeHash, address(this)) */\n      swap1\n      pop\n        /* \"github.com/OpenZeppelin/openzeppelin-contracts/blob/v4.7.3/contracts/utils/Create2.sol\":1837:2002  function computeAddress(bytes32 salt, bytes32 bytecodeHash) internal view returns (address) {... */\n      swap3\n      swap2\n      pop\n      pop\n      jump\t// out\n        /* \"github.com/OpenZeppelin/openzeppelin-contracts/blob/v4.7.3/contracts/utils/Create2.sol\":1081:1633  function deploy(... */\n    tag_26:\n        /* \"github.com/OpenZeppelin/openzeppelin-contracts/blob/v4.7.3/contracts/utils/Create2.sol\":1198:1205  address */\n      0x00\n        /* \"github.com/OpenZeppelin/openzeppelin-contracts/blob/v4.7.3/contracts/utils/Create2.sol\":1217:1229  address addr */\n      dup1\n        /* \"github.com/OpenZeppelin/openzeppelin-contracts/blob/v4.7.3/contracts/utils/Create2.sol\":1272:1278  amount */\n      dup5\n        /* \"github.com/OpenZeppelin/openzeppelin-contracts/blob/v4.7.3/contracts/utils/Create2.sol\":1247:1268  address(this).balance */\n      selfbalance\n        /* \"github.com/OpenZeppelin/openzeppelin-contracts/blob/v4.7.3/contracts/utils/Create2.sol\":1247:1278  address(this).balance >= amount */\n      lt\n      iszero\n        /* \"github.com/OpenZeppelin/openzeppelin-contracts/blob/v4.7.3/contracts/utils/Create2.sol\":1239:1312  require(address(this).balance >= amount, \"Create2: insufficient balance\") */\n      tag_45\n      jumpi\n      mload(0x40)\n      0x08c379a000000000000000000000000000000000000000000000000000000000\n      dup2\n      mstore\n      0x04\n      add\n      tag_46\n      swap1\n      tag_47\n      jump\t// in\n    tag_46:\n      mload(0x40)\n      dup1\n      swap2\n      sub\n      swap1\n      revert\n    tag_45:\n        /* \"github.com/OpenZeppelin/openzeppelin-contracts/blob/v4.7.3/contracts/utils/Create2.sol\":1349:1350  0 */\n      0x00\n        /* \"github.com/OpenZeppelin/openzeppelin-contracts/blob/v4.7.3/contracts/utils/Create2.sol\":1330:1338  bytecode */\n      dup4\n        /* \"github.com/OpenZeppelin/openzeppelin-contracts/blob/v4.7.3/contracts/utils/Create2.sol\":1330:1345  bytecode.length */\n      mload\n        /* \"github.com/OpenZeppelin/openzeppelin-contracts/blob/v4.7.3/contracts/utils/Create2.sol\":1330:1350  bytecode.length != 0 */\n      sub\n        /* \"github.com/OpenZeppelin/openzeppelin-contracts/blob/v4.7.3/contracts/utils/Create2.sol\":1322:1387  require(bytecode.length != 0, \"Create2: bytecode length is zero\") */\n      tag_48\n      jumpi\n      mload(0x40)\n      0x08c379a000000000000000000000000000000000000000000000000000000000\n      dup2\n      mstore\n      0x04\n      add\n      tag_49\n      swap1\n      tag_50\n      jump\t// in\n    tag_49:\n      mload(0x40)\n      dup1\n      swap2\n      sub\n      swap1\n      revert\n    tag_48:\n        /* \"github.com/OpenZeppelin/openzeppelin-contracts/blob/v4.7.3/contracts/utils/Create2.sol\":1525:1529  salt */\n      dup4\n        /* \"github.com/OpenZeppelin/openzeppelin-contracts/blob/v4.7.3/contracts/utils/Create2.sol\":1514:1522  bytecode */\n      dup4\n        /* \"github.com/OpenZeppelin/openzeppelin-contracts/blob/v4.7.3/contracts/utils/Create2.sol\":1508:1523  mload(bytecode) */\n      mload\n        /* \"github.com/OpenZeppelin/openzeppelin-contracts/blob/v4.7.3/contracts/utils/Create2.sol\":1501:1505  0x20 */\n      0x20\n        /* \"github.com/OpenZeppelin/openzeppelin-contracts/blob/v4.7.3/contracts/utils/Create2.sol\":1491:1499  bytecode */\n      dup6\n        /* \"github.com/OpenZeppelin/openzeppelin-contracts/blob/v4.7.3/contracts/utils/Create2.sol\":1487:1506  add(bytecode, 0x20) */\n      add\n        /* \"github.com/OpenZeppelin/openzeppelin-contracts/blob/v4.7.3/contracts/utils/Create2.sol\":1479:1485  amount */\n      dup8\n        /* \"github.com/OpenZeppelin/openzeppelin-contracts/blob/v4.7.3/contracts/utils/Create2.sol\":1471:1530  create2(amount, add(bytecode, 0x20), mload(bytecode), salt) */\n      create2\n        /* \"github.com/OpenZeppelin/openzeppelin-contracts/blob/v4.7.3/contracts/utils/Create2.sol\":1463:1530  addr := create2(amount, add(bytecode, 0x20), mload(bytecode), salt) */\n      swap1\n      pop\n        /* \"github.com/OpenZeppelin/openzeppelin-contracts/blob/v4.7.3/contracts/utils/Create2.sol\":1573:1574  0 */\n      0x00\n        /* \"github.com/OpenZeppelin/openzeppelin-contracts/blob/v4.7.3/contracts/utils/Create2.sol\":1557:1575  addr != address(0) */\n      0xffffffffffffffffffffffffffffffffffffffff\n      and\n        /* \"github.com/OpenZeppelin/openzeppelin-contracts/blob/v4.7.3/contracts/utils/Create2.sol\":1557:1561  addr */\n      dup2\n        /* \"github.com/OpenZeppelin/openzeppelin-contracts/blob/v4.7.3/contracts/utils/Create2.sol\":1557:1575  addr != address(0) */\n      0xffffffffffffffffffffffffffffffffffffffff\n      and\n      sub\n        /* \"github.com/OpenZeppelin/openzeppelin-contracts/blob/v4.7.3/contracts/utils/Create2.sol\":1549:1605  require(addr != address(0), \"Create2: Failed on deploy\") */\n      tag_51\n      jumpi\n      mload(0x40)\n      0x08c379a000000000000000000000000000000000000000000000000000000000\n      dup2\n      mstore\n      0x04\n      add\n      tag_52\n      swap1\n      tag_53\n      jump\t// in\n    tag_52:\n      mload(0x40)\n      dup1\n      swap2\n      sub\n      swap1\n      revert\n    tag_51:\n        /* \"github.com/OpenZeppelin/openzeppelin-contracts/blob/v4.7.3/contracts/utils/Create2.sol\":1622:1626  addr */\n      dup1\n        /* \"github.com/OpenZeppelin/openzeppelin-contracts/blob/v4.7.3/contracts/utils/Create2.sol\":1615:1626  return addr */\n      swap2\n      pop\n      pop\n        /* \"github.com/OpenZeppelin/openzeppelin-contracts/blob/v4.7.3/contracts/utils/Create2.sol\":1081:1633  function deploy(... */\n      swap4\n      swap3\n      pop\n      pop\n      pop\n      jump\t// out\n        /* \"github.com/OpenZeppelin/openzeppelin-contracts/blob/v4.7.3/contracts/utils/Create2.sol\":2245:2538  function computeAddress(... */\n    tag_43:\n        /* \"github.com/OpenZeppelin/openzeppelin-contracts/blob/v4.7.3/contracts/utils/Create2.sol\":2376:2383  address */\n      0x00\n        /* \"github.com/OpenZeppelin/openzeppelin-contracts/blob/v4.7.3/contracts/utils/Create2.sol\":2395:2408  bytes32 _data */\n      dup1\n        /* \"github.com/OpenZeppelin/openzeppelin-contracts/blob/v4.7.3/contracts/utils/Create2.sol\":2445:2449  0xff */\n      0xff\n        /* \"github.com/OpenZeppelin/openzeppelin-contracts/blob/v4.7.3/contracts/utils/Create2.sol\":2438:2450  bytes1(0xff) */\n      0xf8\n      shl\n        /* \"github.com/OpenZeppelin/openzeppelin-contracts/blob/v4.7.3/contracts/utils/Create2.sol\":2452:2460  deployer */\n      dup4\n        /* \"github.com/OpenZeppelin/openzeppelin-contracts/blob/v4.7.3/contracts/utils/Create2.sol\":2462:2466  salt */\n      dup7\n        /* \"github.com/OpenZeppelin/openzeppelin-contracts/blob/v4.7.3/contracts/utils/Create2.sol\":2468:2480  bytecodeHash */\n      dup7\n        /* \"github.com/OpenZeppelin/openzeppelin-contracts/blob/v4.7.3/contracts/utils/Create2.sol\":2421:2481  abi.encodePacked(bytes1(0xff), deployer, salt, bytecodeHash) */\n      add(0x20, mload(0x40))\n      tag_55\n      swap5\n      swap4\n      swap3\n      swap2\n      swap1\n      tag_56\n      jump\t// in\n    tag_55:\n      mload(0x40)\n      0x20\n      dup2\n      dup4\n      sub\n      sub\n      dup2\n      mstore\n      swap1\n      0x40\n      mstore\n        /* \"github.com/OpenZeppelin/openzeppelin-contracts/blob/v4.7.3/contracts/utils/Create2.sol\":2411:2482  keccak256(abi.encodePacked(bytes1(0xff), deployer, salt, bytecodeHash)) */\n      dup1\n      mload\n      swap1\n      0x20\n      add\n      keccak256\n        /* \"github.com/OpenZeppelin/openzeppelin-contracts/blob/v4.7.3/contracts/utils/Create2.sol\":2395:2482  bytes32 _data = keccak256(abi.encodePacked(bytes1(0xff), deployer, salt, bytecodeHash)) */\n      swap1\n      pop\n        /* \"github.com/OpenZeppelin/openzeppelin-contracts/blob/v4.7.3/contracts/utils/Create2.sol\":2523:2528  _data */\n      dup1\n        /* \"github.com/OpenZeppelin/openzeppelin-contracts/blob/v4.7.3/contracts/utils/Create2.sol\":2515:2529  uint256(_data) */\n      0x00\n      shr\n        /* \"github.com/OpenZeppelin/openzeppelin-contracts/blob/v4.7.3/contracts/utils/Create2.sol\":2492:2531  return address(uint160(uint256(_data))) */\n      swap2\n      pop\n      pop\n        /* \"github.com/OpenZeppelin/openzeppelin-contracts/blob/v4.7.3/contracts/utils/Create2.sol\":2245:2538  function computeAddress(... */\n      swap4\n      swap3\n      pop\n      pop\n      pop\n      jump\t// out\n        /* \"#utility.yul\":88:205   */\n    tag_58:\n        /* \"#utility.yul\":197:198   */\n      0x00\n        /* \"#utility.yul\":194:195   */\n      dup1\n        /* \"#utility.yul\":187:199   */\n      revert\n        /* \"#utility.yul\":211:328   */\n    tag_59:\n        /* \"#utility.yul\":320:321   */\n      0x00\n        /* \"#utility.yul\":317:318   */\n      dup1\n        /* \"#utility.yul\":310:322   */\n      revert\n        /* \"#utility.yul\":334:460   */\n    tag_60:\n        /* \"#utility.yul\":371:378   */\n      0x00\n        /* \"#utility.yul\":411:453   */\n      0xffffffffffffffffffffffffffffffffffffffff\n        /* \"#utility.yul\":404:409   */\n      dup3\n        /* \"#utility.yul\":400:454   */\n      and\n        /* \"#utility.yul\":389:454   */\n      swap1\n      pop\n        /* \"#utility.yul\":334:460   */\n      swap2\n      swap1\n      pop\n      jump\t// out\n        /* \"#utility.yul\":466:562   */\n    tag_61:\n        /* \"#utility.yul\":503:510   */\n      0x00\n        /* \"#utility.yul\":532:556   */\n      tag_107\n        /* \"#utility.yul\":550:555   */\n      dup3\n        /* \"#utility.yul\":532:556   */\n      tag_60\n      jump\t// in\n    tag_107:\n        /* \"#utility.yul\":521:556   */\n      swap1\n      pop\n        /* \"#utility.yul\":466:562   */\n      swap2\n      swap1\n      pop\n      jump\t// out\n        /* \"#utility.yul\":568:690   */\n    tag_62:\n        /* \"#utility.yul\":641:665   */\n      tag_109\n        /* \"#utility.yul\":659:664   */\n      dup2\n        /* \"#utility.yul\":641:665   */\n      tag_61\n      jump\t// in\n    tag_109:\n        /* \"#utility.yul\":634:639   */\n      dup2\n        /* \"#utility.yul\":631:666   */\n      eq\n        /* \"#utility.yul\":621:684   */\n      tag_110\n      jumpi\n        /* \"#utility.yul\":680:681   */\n      0x00\n        /* \"#utility.yul\":677:678   */\n      dup1\n        /* \"#utility.yul\":670:682   */\n      revert\n        /* \"#utility.yul\":621:684   */\n    tag_110:\n        /* \"#utility.yul\":568:690   */\n      pop\n      jump\t// out\n        /* \"#utility.yul\":696:835   */\n    tag_63:\n        /* \"#utility.yul\":742:747   */\n      0x00\n        /* \"#utility.yul\":780:786   */\n      dup2\n        /* \"#utility.yul\":767:787   */\n      calldataload\n        /* \"#utility.yul\":758:787   */\n      swap1\n      pop\n        /* \"#utility.yul\":796:829   */\n      tag_112\n        /* \"#utility.yul\":823:828   */\n      dup2\n        /* \"#utility.yul\":796:829   */\n      tag_62\n      jump\t// in\n    tag_112:\n        /* \"#utility.yul\":696:835   */\n      swap3\n      swap2\n      pop\n      pop\n      jump\t// out\n        /* \"#utility.yul\":841:918   */\n    tag_64:\n        /* \"#utility.yul\":878:885   */\n      0x00\n        /* \"#utility.yul\":907:912   */\n      dup2\n        /* \"#utility.yul\":896:912   */\n      swap1\n      pop\n        /* \"#utility.yul\":841:918   */\n      swap2\n      swap1\n      pop\n      jump\t// out\n        /* \"#utility.yul\":924:1046   */\n    tag_65:\n        /* \"#utility.yul\":997:1021   */\n      tag_115\n        /* \"#utility.yul\":1015:1020   */\n      dup2\n        /* \"#utility.yul\":997:1021   */\n      tag_64\n      jump\t// in\n    tag_115:\n        /* \"#utility.yul\":990:995   */\n      dup2\n        /* \"#utility.yul\":987:1022   */\n      eq\n        /* \"#utility.yul\":977:1040   */\n      tag_116\n      jumpi\n        /* \"#utility.yul\":1036:1037   */\n      0x00\n        /* \"#utility.yul\":1033:1034   */\n      dup1\n        /* \"#utility.yul\":1026:1038   */\n      revert\n        /* \"#utility.yul\":977:1040   */\n    tag_116:\n        /* \"#utility.yul\":924:1046   */\n      pop\n      jump\t// out\n        /* \"#utility.yul\":1052:1191   */\n    tag_66:\n        /* \"#utility.yul\":1098:1103   */\n      0x00\n        /* \"#utility.yul\":1136:1142   */\n      dup2\n        /* \"#utility.yul\":1123:1143   */\n      calldataload\n        /* \"#utility.yul\":1114:1143   */\n      swap1\n      pop\n        /* \"#utility.yul\":1152:1185   */\n      tag_118\n        /* \"#utility.yul\":1179:1184   */\n      dup2\n        /* \"#utility.yul\":1152:1185   */\n      tag_65\n      jump\t// in\n    tag_118:\n        /* \"#utility.yul\":1052:1191   */\n      swap3\n      swap2\n      pop\n      pop\n      jump\t// out\n        /* \"#utility.yul\":1197:2108   */\n    tag_7:\n        /* \"#utility.yul\":1292:1298   */\n      0x00\n        /* \"#utility.yul\":1300:1306   */\n      dup1\n        /* \"#utility.yul\":1308:1314   */\n      0x00\n        /* \"#utility.yul\":1316:1322   */\n      dup1\n        /* \"#utility.yul\":1324:1330   */\n      0x00\n        /* \"#utility.yul\":1373:1376   */\n      0xa0\n        /* \"#utility.yul\":1361:1370   */\n      dup7\n        /* \"#utility.yul\":1352:1359   */\n      dup9\n        /* \"#utility.yul\":1348:1371   */\n      sub\n        /* \"#utility.yul\":1344:1377   */\n      slt\n        /* \"#utility.yul\":1341:1461   */\n      iszero\n      tag_120\n      jumpi\n        /* \"#utility.yul\":1380:1459   */\n      tag_121\n      tag_58\n      jump\t// in\n    tag_121:\n        /* \"#utility.yul\":1341:1461   */\n    tag_120:\n        /* \"#utility.yul\":1500:1501   */\n      0x00\n        /* \"#utility.yul\":1525:1578   */\n      tag_122\n        /* \"#utility.yul\":1570:1577   */\n      dup9\n        /* \"#utility.yul\":1561:1567   */\n      dup3\n        /* \"#utility.yul\":1550:1559   */\n      dup10\n        /* \"#utility.yul\":1546:1568   */\n      add\n        /* \"#utility.yul\":1525:1578   */\n      tag_63\n      jump\t// in\n    tag_122:\n        /* \"#utility.yul\":1515:1578   */\n      swap6\n      pop\n        /* \"#utility.yul\":1471:1588   */\n      pop\n        /* \"#utility.yul\":1627:1629   */\n      0x20\n        /* \"#utility.yul\":1653:1706   */\n      tag_123\n        /* \"#utility.yul\":1698:1705   */\n      dup9\n        /* \"#utility.yul\":1689:1695   */\n      dup3\n        /* \"#utility.yul\":1678:1687   */\n      dup10\n        /* \"#utility.yul\":1674:1696   */\n      add\n        /* \"#utility.yul\":1653:1706   */\n      tag_66\n      jump\t// in\n    tag_123:\n        /* \"#utility.yul\":1643:1706   */\n      swap5\n      pop\n        /* \"#utility.yul\":1598:1716   */\n      pop\n        /* \"#utility.yul\":1755:1757   */\n      0x40\n        /* \"#utility.yul\":1781:1834   */\n      tag_124\n        /* \"#utility.yul\":1826:1833   */\n      dup9\n        /* \"#utility.yul\":1817:1823   */\n      dup3\n        /* \"#utility.yul\":1806:1815   */\n      dup10\n        /* \"#utility.yul\":1802:1824   */\n      add\n        /* \"#utility.yul\":1781:1834   */\n      tag_63\n      jump\t// in\n    tag_124:\n        /* \"#utility.yul\":1771:1834   */\n      swap4\n      pop\n        /* \"#utility.yul\":1726:1844   */\n      pop\n        /* \"#utility.yul\":1883:1885   */\n      0x60\n        /* \"#utility.yul\":1909:1962   */\n      tag_125\n        /* \"#utility.yul\":1954:1961   */\n      dup9\n        /* \"#utility.yul\":1945:1951   */\n      dup3\n        /* \"#utility.yul\":1934:1943   */\n      dup10\n        /* \"#utility.yul\":1930:1952   */\n      add\n        /* \"#utility.yul\":1909:1962   */\n      tag_66\n      jump\t// in\n    tag_125:\n        /* \"#utility.yul\":1899:1962   */\n      swap3\n      pop\n        /* \"#utility.yul\":1854:1972   */\n      pop\n        /* \"#utility.yul\":2011:2014   */\n      0x80\n        /* \"#utility.yul\":2038:2091   */\n      tag_126\n        /* \"#utility.yul\":2083:2090   */\n      dup9\n        /* \"#utility.yul\":2074:2080   */\n      dup3\n        /* \"#utility.yul\":2063:2072   */\n      dup10\n        /* \"#utility.yul\":2059:2081   */\n      add\n        /* \"#utility.yul\":2038:2091   */\n      tag_66\n      jump\t// in\n    tag_126:\n        /* \"#utility.yul\":2028:2091   */\n      swap2\n      pop\n        /* \"#utility.yul\":1982:2101   */\n      pop\n        /* \"#utility.yul\":1197:2108   */\n      swap3\n      swap6\n      pop\n      swap3\n      swap6\n      swap1\n      swap4\n      pop\n      jump\t// out\n        /* \"#utility.yul\":2114:2232   */\n    tag_67:\n        /* \"#utility.yul\":2201:2225   */\n      tag_128\n        /* \"#utility.yul\":2219:2224   */\n      dup2\n        /* \"#utility.yul\":2201:2225   */\n      tag_61\n      jump\t// in\n    tag_128:\n        /* \"#utility.yul\":2196:2199   */\n      dup3\n        /* \"#utility.yul\":2189:2226   */\n      mstore\n        /* \"#utility.yul\":2114:2232   */\n      pop\n      pop\n      jump\t// out\n        /* \"#utility.yul\":2238:2460   */\n    tag_10:\n        /* \"#utility.yul\":2331:2335   */\n      0x00\n        /* \"#utility.yul\":2369:2371   */\n      0x20\n        /* \"#utility.yul\":2358:2367   */\n      dup3\n        /* \"#utility.yul\":2354:2372   */\n      add\n        /* \"#utility.yul\":2346:2372   */\n      swap1\n      pop\n        /* \"#utility.yul\":2382:2453   */\n      tag_130\n        /* \"#utility.yul\":2450:2451   */\n      0x00\n        /* \"#utility.yul\":2439:2448   */\n      dup4\n        /* \"#utility.yul\":2435:2452   */\n      add\n        /* \"#utility.yul\":2426:2432   */\n      dup5\n        /* \"#utility.yul\":2382:2453   */\n      tag_67\n      jump\t// in\n    tag_130:\n        /* \"#utility.yul\":2238:2460   */\n      swap3\n      swap2\n      pop\n      pop\n      jump\t// out\n        /* \"#utility.yul\":2466:2583   */\n    tag_68:\n        /* \"#utility.yul\":2575:2576   */\n      0x00\n        /* \"#utility.yul\":2572:2573   */\n      dup1\n        /* \"#utility.yul\":2565:2577   */\n      revert\n        /* \"#utility.yul\":2589:2706   */\n    tag_69:\n        /* \"#utility.yul\":2698:2699   */\n      0x00\n        /* \"#utility.yul\":2695:2696   */\n      dup1\n        /* \"#utility.yul\":2688:2700   */\n      revert\n        /* \"#utility.yul\":2712:2829   */\n    tag_70:\n        /* \"#utility.yul\":2821:2822   */\n      0x00\n        /* \"#utility.yul\":2818:2819   */\n      dup1\n        /* \"#utility.yul\":2811:2823   */\n      revert\n        /* \"#utility.yul\":2848:3400   */\n    tag_71:\n        /* \"#utility.yul\":2905:2913   */\n      0x00\n        /* \"#utility.yul\":2915:2921   */\n      dup1\n        /* \"#utility.yul\":2965:2968   */\n      dup4\n        /* \"#utility.yul\":2958:2962   */\n      0x1f\n        /* \"#utility.yul\":2950:2956   */\n      dup5\n        /* \"#utility.yul\":2946:2963   */\n      add\n        /* \"#utility.yul\":2942:2969   */\n      slt\n        /* \"#utility.yul\":2932:3054   */\n      tag_135\n      jumpi\n        /* \"#utility.yul\":2973:3052   */\n      tag_136\n      tag_68\n      jump\t// in\n    tag_136:\n        /* \"#utility.yul\":2932:3054   */\n    tag_135:\n        /* \"#utility.yul\":3086:3092   */\n      dup3\n        /* \"#utility.yul\":3073:3093   */\n      calldataload\n        /* \"#utility.yul\":3063:3093   */\n      swap1\n      pop\n        /* \"#utility.yul\":3116:3134   */\n      0xffffffffffffffff\n        /* \"#utility.yul\":3108:3114   */\n      dup2\n        /* \"#utility.yul\":3105:3135   */\n      gt\n        /* \"#utility.yul\":3102:3219   */\n      iszero\n      tag_137\n      jumpi\n        /* \"#utility.yul\":3138:3217   */\n      tag_138\n      tag_69\n      jump\t// in\n    tag_138:\n        /* \"#utility.yul\":3102:3219   */\n    tag_137:\n        /* \"#utility.yul\":3252:3256   */\n      0x20\n        /* \"#utility.yul\":3244:3250   */\n      dup4\n        /* \"#utility.yul\":3240:3257   */\n      add\n        /* \"#utility.yul\":3228:3257   */\n      swap2\n      pop\n        /* \"#utility.yul\":3306:3309   */\n      dup4\n        /* \"#utility.yul\":3298:3302   */\n      0x01\n        /* \"#utility.yul\":3290:3296   */\n      dup3\n        /* \"#utility.yul\":3286:3303   */\n      mul\n        /* \"#utility.yul\":3276:3284   */\n      dup4\n        /* \"#utility.yul\":3272:3304   */\n      add\n        /* \"#utility.yul\":3269:3310   */\n      gt\n        /* \"#utility.yul\":3266:3394   */\n      iszero\n      tag_139\n      jumpi\n        /* \"#utility.yul\":3313:3392   */\n      tag_140\n      tag_70\n      jump\t// in\n    tag_140:\n        /* \"#utility.yul\":3266:3394   */\n    tag_139:\n        /* \"#utility.yul\":2848:3400   */\n      swap3\n      pop\n      swap3\n      swap1\n      pop\n      jump\t// out\n        /* \"#utility.yul\":3406:4661   */\n    tag_13:\n        /* \"#utility.yul\":3521:3527   */\n      0x00\n        /* \"#utility.yul\":3529:3535   */\n      dup1\n        /* \"#utility.yul\":3537:3543   */\n      0x00\n        /* \"#utility.yul\":3545:3551   */\n      dup1\n        /* \"#utility.yul\":3553:3559   */\n      0x00\n        /* \"#utility.yul\":3561:3567   */\n      dup1\n        /* \"#utility.yul\":3569:3575   */\n      0x00\n        /* \"#utility.yul\":3618:3621   */\n      0xc0\n        /* \"#utility.yul\":3606:3615   */\n      dup9\n        /* \"#utility.yul\":3597:3604   */\n      dup11\n        /* \"#utility.yul\":3593:3616   */\n      sub\n        /* \"#utility.yul\":3589:3622   */\n      slt\n        /* \"#utility.yul\":3586:3706   */\n      iszero\n      tag_142\n      jumpi\n        /* \"#utility.yul\":3625:3704   */\n      tag_143\n      tag_58\n      jump\t// in\n    tag_143:\n        /* \"#utility.yul\":3586:3706   */\n    tag_142:\n        /* \"#utility.yul\":3745:3746   */\n      0x00\n        /* \"#utility.yul\":3770:3823   */\n      tag_144\n        /* \"#utility.yul\":3815:3822   */\n      dup11\n        /* \"#utility.yul\":3806:3812   */\n      dup3\n        /* \"#utility.yul\":3795:3804   */\n      dup12\n        /* \"#utility.yul\":3791:3813   */\n      add\n        /* \"#utility.yul\":3770:3823   */\n      tag_63\n      jump\t// in\n    tag_144:\n        /* \"#utility.yul\":3760:3823   */\n      swap8\n      pop\n        /* \"#utility.yul\":3716:3833   */\n      pop\n        /* \"#utility.yul\":3872:3874   */\n      0x20\n        /* \"#utility.yul\":3898:3951   */\n      tag_145\n        /* \"#utility.yul\":3943:3950   */\n      dup11\n        /* \"#utility.yul\":3934:3940   */\n      dup3\n        /* \"#utility.yul\":3923:3932   */\n      dup12\n        /* \"#utility.yul\":3919:3941   */\n      add\n        /* \"#utility.yul\":3898:3951   */\n      tag_66\n      jump\t// in\n    tag_145:\n        /* \"#utility.yul\":3888:3951   */\n      swap7\n      pop\n        /* \"#utility.yul\":3843:3961   */\n      pop\n        /* \"#utility.yul\":4000:4002   */\n      0x40\n        /* \"#utility.yul\":4026:4079   */\n      tag_146\n        /* \"#utility.yul\":4071:4078   */\n      dup11\n        /* \"#utility.yul\":4062:4068   */\n      dup3\n        /* \"#utility.yul\":4051:4060   */\n      dup12\n        /* \"#utility.yul\":4047:4069   */\n      add\n        /* \"#utility.yul\":4026:4079   */\n      tag_63\n      jump\t// in\n    tag_146:\n        /* \"#utility.yul\":4016:4079   */\n      swap6\n      pop\n        /* \"#utility.yul\":3971:4089   */\n      pop\n        /* \"#utility.yul\":4128:4130   */\n      0x60\n        /* \"#utility.yul\":4154:4207   */\n      tag_147\n        /* \"#utility.yul\":4199:4206   */\n      dup11\n        /* \"#utility.yul\":4190:4196   */\n      dup3\n        /* \"#utility.yul\":4179:4188   */\n      dup12\n        /* \"#utility.yul\":4175:4197   */\n      add\n        /* \"#utility.yul\":4154:4207   */\n      tag_66\n      jump\t// in\n    tag_147:\n        /* \"#utility.yul\":4144:4207   */\n      swap5\n      pop\n        /* \"#utility.yul\":4099:4217   */\n      pop\n        /* \"#utility.yul\":4256:4259   */\n      0x80\n        /* \"#utility.yul\":4283:4336   */\n      tag_148\n        /* \"#utility.yul\":4328:4335   */\n      dup11\n        /* \"#utility.yul\":4319:4325   */\n      dup3\n        /* \"#utility.yul\":4308:4317   */\n      dup12\n        /* \"#utility.yul\":4304:4326   */\n      add\n        /* \"#utility.yul\":4283:4336   */\n      tag_66\n      jump\t// in\n    tag_148:\n        /* \"#utility.yul\":4273:4336   */\n      swap4\n      pop\n        /* \"#utility.yul\":4227:4346   */\n      pop\n        /* \"#utility.yul\":4413:4416   */\n      0xa0\n        /* \"#utility.yul\":4402:4411   */\n      dup9\n        /* \"#utility.yul\":4398:4417   */\n      add\n        /* \"#utility.yul\":4385:4418   */\n      calldataload\n        /* \"#utility.yul\":4445:4463   */\n      0xffffffffffffffff\n        /* \"#utility.yul\":4437:4443   */\n      dup2\n        /* \"#utility.yul\":4434:4464   */\n      gt\n        /* \"#utility.yul\":4431:4548   */\n      iszero\n      tag_149\n      jumpi\n        /* \"#utility.yul\":4467:4546   */\n      tag_150\n      tag_59\n      jump\t// in\n    tag_150:\n        /* \"#utility.yul\":4431:4548   */\n    tag_149:\n        /* \"#utility.yul\":4580:4644   */\n      tag_151\n        /* \"#utility.yul\":4636:4643   */\n      dup11\n        /* \"#utility.yul\":4627:4633   */\n      dup3\n        /* \"#utility.yul\":4616:4625   */\n      dup12\n        /* \"#utility.yul\":4612:4634   */\n      add\n        /* \"#utility.yul\":4580:4644   */\n      tag_71\n      jump\t// in\n    tag_151:\n        /* \"#utility.yul\":4562:4644   */\n      swap3\n      pop\n      swap3\n      pop\n        /* \"#utility.yul\":4356:4654   */\n      pop\n        /* \"#utility.yul\":3406:4661   */\n      swap3\n      swap6\n      swap9\n      swap2\n      swap5\n      swap8\n      pop\n      swap3\n      swap6\n      pop\n      jump\t// out\n        /* \"#utility.yul\":4667:4814   */\n    tag_72:\n        /* \"#utility.yul\":4768:4779   */\n      0x00\n        /* \"#utility.yul\":4805:4808   */\n      dup2\n        /* \"#utility.yul\":4790:4808   */\n      swap1\n      pop\n        /* \"#utility.yul\":4667:4814   */\n      swap3\n      swap2\n      pop\n      pop\n      jump\t// out\n        /* \"#utility.yul\":4820:4968   */\n    tag_73:\n        /* \"#utility.yul\":4918:4924   */\n      dup3\n        /* \"#utility.yul\":4913:4916   */\n      dup2\n        /* \"#utility.yul\":4908:4911   */\n      dup4\n        /* \"#utility.yul\":4895:4925   */\n      calldatacopy\n        /* \"#utility.yul\":4959:4960   */\n      0x00\n        /* \"#utility.yul\":4950:4956   */\n      dup4\n        /* \"#utility.yul\":4945:4948   */\n      dup4\n        /* \"#utility.yul\":4941:4957   */\n      add\n        /* \"#utility.yul\":4934:4961   */\n      mstore\n        /* \"#utility.yul\":4820:4968   */\n      pop\n      pop\n      pop\n      jump\t// out\n        /* \"#utility.yul\":4996:5323   */\n    tag_74:\n        /* \"#utility.yul\":5110:5113   */\n      0x00\n        /* \"#utility.yul\":5131:5219   */\n      tag_155\n        /* \"#utility.yul\":5212:5218   */\n      dup4\n        /* \"#utility.yul\":5207:5210   */\n      dup6\n        /* \"#utility.yul\":5131:5219   */\n      tag_72\n      jump\t// in\n    tag_155:\n        /* \"#utility.yul\":5124:5219   */\n      swap4\n      pop\n        /* \"#utility.yul\":5229:5285   */\n      tag_156\n        /* \"#utility.yul\":5278:5284   */\n      dup4\n        /* \"#utility.yul\":5273:5276   */\n      dup6\n        /* \"#utility.yul\":5266:5271   */\n      dup5\n        /* \"#utility.yul\":5229:5285   */\n      tag_73\n      jump\t// in\n    tag_156:\n        /* \"#utility.yul\":5310:5316   */\n      dup3\n        /* \"#utility.yul\":5305:5308   */\n      dup5\n        /* \"#utility.yul\":5301:5317   */\n      add\n        /* \"#utility.yul\":5294:5317   */\n      swap1\n      pop\n        /* \"#utility.yul\":4996:5323   */\n      swap4\n      swap3\n      pop\n      pop\n      pop\n      jump\t// out\n        /* \"#utility.yul\":5329:5620   */\n    tag_29:\n        /* \"#utility.yul\":5469:5472   */\n      0x00\n        /* \"#utility.yul\":5491:5594   */\n      tag_158\n        /* \"#utility.yul\":5590:5593   */\n      dup3\n        /* \"#utility.yul\":5581:5587   */\n      dup5\n        /* \"#utility.yul\":5573:5579   */\n      dup7\n        /* \"#utility.yul\":5491:5594   */\n      tag_74\n      jump\t// in\n    tag_158:\n        /* \"#utility.yul\":5484:5594   */\n      swap2\n      pop\n        /* \"#utility.yul\":5611:5614   */\n      dup2\n        /* \"#utility.yul\":5604:5614   */\n      swap1\n      pop\n        /* \"#utility.yul\":5329:5620   */\n      swap4\n      swap3\n      pop\n      pop\n      pop\n      jump\t// out\n        /* \"#utility.yul\":5626:5744   */\n    tag_75:\n        /* \"#utility.yul\":5713:5737   */\n      tag_160\n        /* \"#utility.yul\":5731:5736   */\n      dup2\n        /* \"#utility.yul\":5713:5737   */\n      tag_64\n      jump\t// in\n    tag_160:\n        /* \"#utility.yul\":5708:5711   */\n      dup3\n        /* \"#utility.yul\":5701:5738   */\n      mstore\n        /* \"#utility.yul\":5626:5744   */\n      pop\n      pop\n      jump\t// out\n        /* \"#utility.yul\":5750:6525   */\n    tag_35:\n        /* \"#utility.yul\":5983:5987   */\n      0x00\n        /* \"#utility.yul\":6021:6024   */\n      0xc0\n        /* \"#utility.yul\":6010:6019   */\n      dup3\n        /* \"#utility.yul\":6006:6025   */\n      add\n        /* \"#utility.yul\":5998:6025   */\n      swap1\n      pop\n        /* \"#utility.yul\":6035:6106   */\n      tag_162\n        /* \"#utility.yul\":6103:6104   */\n      0x00\n        /* \"#utility.yul\":6092:6101   */\n      dup4\n        /* \"#utility.yul\":6088:6105   */\n      add\n        /* \"#utility.yul\":6079:6085   */\n      dup10\n        /* \"#utility.yul\":6035:6106   */\n      tag_67\n      jump\t// in\n    tag_162:\n        /* \"#utility.yul\":6116:6188   */\n      tag_163\n        /* \"#utility.yul\":6184:6186   */\n      0x20\n        /* \"#utility.yul\":6173:6182   */\n      dup4\n        /* \"#utility.yul\":6169:6187   */\n      add\n        /* \"#utility.yul\":6160:6166   */\n      dup9\n        /* \"#utility.yul\":6116:6188   */\n      tag_67\n      jump\t// in\n    tag_163:\n        /* \"#utility.yul\":6198:6270   */\n      tag_164\n        /* \"#utility.yul\":6266:6268   */\n      0x40\n        /* \"#utility.yul\":6255:6264   */\n      dup4\n        /* \"#utility.yul\":6251:6269   */\n      add\n        /* \"#utility.yul\":6242:6248   */\n      dup8\n        /* \"#utility.yul\":6198:6270   */\n      tag_75\n      jump\t// in\n    tag_164:\n        /* \"#utility.yul\":6280:6352   */\n      tag_165\n        /* \"#utility.yul\":6348:6350   */\n      0x60\n        /* \"#utility.yul\":6337:6346   */\n      dup4\n        /* \"#utility.yul\":6333:6351   */\n      add\n        /* \"#utility.yul\":6324:6330   */\n      dup7\n        /* \"#utility.yul\":6280:6352   */\n      tag_67\n      jump\t// in\n    tag_165:\n        /* \"#utility.yul\":6362:6435   */\n      tag_166\n        /* \"#utility.yul\":6430:6433   */\n      0x80\n        /* \"#utility.yul\":6419:6428   */\n      dup4\n        /* \"#utility.yul\":6415:6434   */\n      add\n        /* \"#utility.yul\":6406:6412   */\n      dup6\n        /* \"#utility.yul\":6362:6435   */\n      tag_75\n      jump\t// in\n    tag_166:\n        /* \"#utility.yul\":6445:6518   */\n      tag_167\n        /* \"#utility.yul\":6513:6516   */\n      0xa0\n        /* \"#utility.yul\":6502:6511   */\n      dup4\n        /* \"#utility.yul\":6498:6517   */\n      add\n        /* \"#utility.yul\":6489:6495   */\n      dup5\n        /* \"#utility.yul\":6445:6518   */\n      tag_75\n      jump\t// in\n    tag_167:\n        /* \"#utility.yul\":5750:6525   */\n      swap8\n      swap7\n      pop\n      pop\n      pop\n      pop\n      pop\n      pop\n      pop\n      jump\t// out\n        /* \"#utility.yul\":6531:7084   */\n    tag_38:\n        /* \"#utility.yul\":6708:6712   */\n      0x00\n        /* \"#utility.yul\":6746:6749   */\n      0x80\n        /* \"#utility.yul\":6735:6744   */\n      dup3\n        /* \"#utility.yul\":6731:6750   */\n      add\n        /* \"#utility.yul\":6723:6750   */\n      swap1\n      pop\n        /* \"#utility.yul\":6760:6831   */\n      tag_169\n        /* \"#utility.yul\":6828:6829   */\n      0x00\n        /* \"#utility.yul\":6817:6826   */\n      dup4\n        /* \"#utility.yul\":6813:6830   */\n      add\n        /* \"#utility.yul\":6804:6810   */\n      dup8\n        /* \"#utility.yul\":6760:6831   */\n      tag_75\n      jump\t// in\n    tag_169:\n        /* \"#utility.yul\":6841:6913   */\n      tag_170\n        /* \"#utility.yul\":6909:6911   */\n      0x20\n        /* \"#utility.yul\":6898:6907   */\n      dup4\n        /* \"#utility.yul\":6894:6912   */\n      add\n        /* \"#utility.yul\":6885:6891   */\n      dup7\n        /* \"#utility.yul\":6841:6913   */\n      tag_75\n      jump\t// in\n    tag_170:\n        /* \"#utility.yul\":6923:6995   */\n      tag_171\n        /* \"#utility.yul\":6991:6993   */\n      0x40\n        /* \"#utility.yul\":6980:6989   */\n      dup4\n        /* \"#utility.yul\":6976:6994   */\n      add\n        /* \"#utility.yul\":6967:6973   */\n      dup6\n        /* \"#utility.yul\":6923:6995   */\n      tag_67\n      jump\t// in\n    tag_171:\n        /* \"#utility.yul\":7005:7077   */\n      tag_172\n        /* \"#utility.yul\":7073:7075   */\n      0x60\n        /* \"#utility.yul\":7062:7071   */\n      dup4\n        /* \"#utility.yul\":7058:7076   */\n      add\n        /* \"#utility.yul\":7049:7055   */\n      dup5\n        /* \"#utility.yul\":7005:7077   */\n      tag_75\n      jump\t// in\n    tag_172:\n        /* \"#utility.yul\":6531:7084   */\n      swap6\n      swap5\n      pop\n      pop\n      pop\n      pop\n      pop\n      jump\t// out\n        /* \"#utility.yul\":7090:7238   */\n    tag_76:\n        /* \"#utility.yul\":7192:7203   */\n      0x00\n        /* \"#utility.yul\":7229:7232   */\n      dup2\n        /* \"#utility.yul\":7214:7232   */\n      swap1\n      pop\n        /* \"#utility.yul\":7090:7238   */\n      swap3\n      swap2\n      pop\n      pop\n      jump\t// out\n        /* \"#utility.yul\":7244:7458   */\n    tag_77:\n        /* \"#utility.yul\":7384:7450   */\n      0x3d60ad80600a3d3981f3363d3d373d3d3d363d73000000000000000000000000\n        /* \"#utility.yul\":7380:7381   */\n      0x00\n        /* \"#utility.yul\":7372:7378   */\n      dup3\n        /* \"#utility.yul\":7368:7382   */\n      add\n        /* \"#utility.yul\":7361:7451   */\n      mstore\n        /* \"#utility.yul\":7244:7458   */\n      pop\n      jump\t// out\n        /* \"#utility.yul\":7464:7866   */\n    tag_78:\n        /* \"#utility.yul\":7624:7627   */\n      0x00\n        /* \"#utility.yul\":7645:7730   */\n      tag_176\n        /* \"#utility.yul\":7727:7729   */\n      0x14\n        /* \"#utility.yul\":7722:7725   */\n      dup4\n        /* \"#utility.yul\":7645:7730   */\n      tag_76\n      jump\t// in\n    tag_176:\n        /* \"#utility.yul\":7638:7730   */\n      swap2\n      pop\n        /* \"#utility.yul\":7739:7832   */\n      tag_177\n        /* \"#utility.yul\":7828:7831   */\n      dup3\n        /* \"#utility.yul\":7739:7832   */\n      tag_77\n      jump\t// in\n    tag_177:\n        /* \"#utility.yul\":7857:7859   */\n      0x14\n        /* \"#utility.yul\":7852:7855   */\n      dup3\n        /* \"#utility.yul\":7848:7860   */\n      add\n        /* \"#utility.yul\":7841:7860   */\n      swap1\n      pop\n        /* \"#utility.yul\":7464:7866   */\n      swap2\n      swap1\n      pop\n      jump\t// out\n        /* \"#utility.yul\":7872:7966   */\n    tag_79:\n        /* \"#utility.yul\":7905:7913   */\n      0x00\n        /* \"#utility.yul\":7953:7958   */\n      dup2\n        /* \"#utility.yul\":7949:7951   */\n      0x60\n        /* \"#utility.yul\":7945:7959   */\n      shl\n        /* \"#utility.yul\":7924:7959   */\n      swap1\n      pop\n        /* \"#utility.yul\":7872:7966   */\n      swap2\n      swap1\n      pop\n      jump\t// out\n        /* \"#utility.yul\":7972:8066   */\n    tag_80:\n        /* \"#utility.yul\":8011:8018   */\n      0x00\n        /* \"#utility.yul\":8040:8060   */\n      tag_180\n        /* \"#utility.yul\":8054:8059   */\n      dup3\n        /* \"#utility.yul\":8040:8060   */\n      tag_79\n      jump\t// in\n    tag_180:\n        /* \"#utility.yul\":8029:8060   */\n      swap1\n      pop\n        /* \"#utility.yul\":7972:8066   */\n      swap2\n      swap1\n      pop\n      jump\t// out\n        /* \"#utility.yul\":8072:8172   */\n    tag_81:\n        /* \"#utility.yul\":8111:8118   */\n      0x00\n        /* \"#utility.yul\":8140:8166   */\n      tag_182\n        /* \"#utility.yul\":8160:8165   */\n      dup3\n        /* \"#utility.yul\":8140:8166   */\n      tag_80\n      jump\t// in\n    tag_182:\n        /* \"#utility.yul\":8129:8166   */\n      swap1\n      pop\n        /* \"#utility.yul\":8072:8172   */\n      swap2\n      swap1\n      pop\n      jump\t// out\n        /* \"#utility.yul\":8178:8335   */\n    tag_82:\n        /* \"#utility.yul\":8283:8328   */\n      tag_184\n        /* \"#utility.yul\":8303:8327   */\n      tag_185\n        /* \"#utility.yul\":8321:8326   */\n      dup3\n        /* \"#utility.yul\":8303:8327   */\n      tag_61\n      jump\t// in\n    tag_185:\n        /* \"#utility.yul\":8283:8328   */\n      tag_81\n      jump\t// in\n    tag_184:\n        /* \"#utility.yul\":8278:8281   */\n      dup3\n        /* \"#utility.yul\":8271:8329   */\n      mstore\n        /* \"#utility.yul\":8178:8335   */\n      pop\n      pop\n      jump\t// out\n        /* \"#utility.yul\":8341:8555   */\n    tag_83:\n        /* \"#utility.yul\":8481:8547   */\n      0x5af43d82803e903d91602b57fd5bf30000000000000000000000000000000000\n        /* \"#utility.yul\":8477:8478   */\n      0x00\n        /* \"#utility.yul\":8469:8475   */\n      dup3\n        /* \"#utility.yul\":8465:8479   */\n      add\n        /* \"#utility.yul\":8458:8548   */\n      mstore\n        /* \"#utility.yul\":8341:8555   */\n      pop\n      jump\t// out\n        /* \"#utility.yul\":8561:8963   */\n    tag_84:\n        /* \"#utility.yul\":8721:8724   */\n      0x00\n        /* \"#utility.yul\":8742:8827   */\n      tag_188\n        /* \"#utility.yul\":8824:8826   */\n      0x0f\n        /* \"#utility.yul\":8819:8822   */\n      dup4\n        /* \"#utility.yul\":8742:8827   */\n      tag_76\n      jump\t// in\n    tag_188:\n        /* \"#utility.yul\":8735:8827   */\n      swap2\n      pop\n        /* \"#utility.yul\":8836:8929   */\n      tag_189\n        /* \"#utility.yul\":8925:8928   */\n      dup3\n        /* \"#utility.yul\":8836:8929   */\n      tag_83\n      jump\t// in\n    tag_189:\n        /* \"#utility.yul\":8954:8956   */\n      0x0f\n        /* \"#utility.yul\":8949:8952   */\n      dup3\n        /* \"#utility.yul\":8945:8957   */\n      add\n        /* \"#utility.yul\":8938:8957   */\n      swap1\n      pop\n        /* \"#utility.yul\":8561:8963   */\n      swap2\n      swap1\n      pop\n      jump\t// out\n        /* \"#utility.yul\":8969:9067   */\n    tag_85:\n        /* \"#utility.yul\":9020:9026   */\n      0x00\n        /* \"#utility.yul\":9054:9059   */\n      dup2\n        /* \"#utility.yul\":9048:9060   */\n      mload\n        /* \"#utility.yul\":9038:9060   */\n      swap1\n      pop\n        /* \"#utility.yul\":8969:9067   */\n      swap2\n      swap1\n      pop\n      jump\t// out\n        /* \"#utility.yul\":9073:9212   */\n    tag_86:\n        /* \"#utility.yul\":9162:9168   */\n      dup3\n        /* \"#utility.yul\":9157:9160   */\n      dup2\n        /* \"#utility.yul\":9152:9155   */\n      dup4\n        /* \"#utility.yul\":9146:9169   */\n      mcopy\n        /* \"#utility.yul\":9203:9204   */\n      0x00\n        /* \"#utility.yul\":9194:9200   */\n      dup4\n        /* \"#utility.yul\":9189:9192   */\n      dup4\n        /* \"#utility.yul\":9185:9201   */\n      add\n        /* \"#utility.yul\":9178:9205   */\n      mstore\n        /* \"#utility.yul\":9073:9212   */\n      pop\n      pop\n      pop\n      jump\t// out\n        /* \"#utility.yul\":9218:9604   */\n    tag_87:\n        /* \"#utility.yul\":9322:9325   */\n      0x00\n        /* \"#utility.yul\":9350:9388   */\n      tag_193\n        /* \"#utility.yul\":9382:9387   */\n      dup3\n        /* \"#utility.yul\":9350:9388   */\n      tag_85\n      jump\t// in\n    tag_193:\n        /* \"#utility.yul\":9404:9492   */\n      tag_194\n        /* \"#utility.yul\":9485:9491   */\n      dup2\n        /* \"#utility.yul\":9480:9483   */\n      dup6\n        /* \"#utility.yul\":9404:9492   */\n      tag_72\n      jump\t// in\n    tag_194:\n        /* \"#utility.yul\":9397:9492   */\n      swap4\n      pop\n        /* \"#utility.yul\":9501:9566   */\n      tag_195\n        /* \"#utility.yul\":9559:9565   */\n      dup2\n        /* \"#utility.yul\":9554:9557   */\n      dup6\n        /* \"#utility.yul\":9547:9551   */\n      0x20\n        /* \"#utility.yul\":9540:9545   */\n      dup7\n        /* \"#utility.yul\":9536:9552   */\n      add\n        /* \"#utility.yul\":9501:9566   */\n      tag_86\n      jump\t// in\n    tag_195:\n        /* \"#utility.yul\":9591:9597   */\n      dup1\n        /* \"#utility.yul\":9586:9589   */\n      dup5\n        /* \"#utility.yul\":9582:9598   */\n      add\n        /* \"#utility.yul\":9575:9598   */\n      swap2\n      pop\n        /* \"#utility.yul\":9326:9604   */\n      pop\n        /* \"#utility.yul\":9218:9604   */\n      swap3\n      swap2\n      pop\n      pop\n      jump\t// out\n        /* \"#utility.yul\":9610:10554   */\n    tag_40:\n        /* \"#utility.yul\":9970:9973   */\n      0x00\n        /* \"#utility.yul\":9992:10140   */\n      tag_197\n        /* \"#utility.yul\":10136:10139   */\n      dup3\n        /* \"#utility.yul\":9992:10140   */\n      tag_78\n      jump\t// in\n    tag_197:\n        /* \"#utility.yul\":9985:10140   */\n      swap2\n      pop\n        /* \"#utility.yul\":10150:10225   */\n      tag_198\n        /* \"#utility.yul\":10221:10224   */\n      dup3\n        /* \"#utility.yul\":10212:10218   */\n      dup6\n        /* \"#utility.yul\":10150:10225   */\n      tag_82\n      jump\t// in\n    tag_198:\n        /* \"#utility.yul\":10250:10252   */\n      0x14\n        /* \"#utility.yul\":10245:10248   */\n      dup3\n        /* \"#utility.yul\":10241:10253   */\n      add\n        /* \"#utility.yul\":10234:10253   */\n      swap2\n      pop\n        /* \"#utility.yul\":10270:10418   */\n      tag_199\n        /* \"#utility.yul\":10414:10417   */\n      dup3\n        /* \"#utility.yul\":10270:10418   */\n      tag_84\n      jump\t// in\n    tag_199:\n        /* \"#utility.yul\":10263:10418   */\n      swap2\n      pop\n        /* \"#utility.yul\":10435:10528   */\n      tag_200\n        /* \"#utility.yul\":10524:10527   */\n      dup3\n        /* \"#utility.yul\":10515:10521   */\n      dup5\n        /* \"#utility.yul\":10435:10528   */\n      tag_87\n      jump\t// in\n    tag_200:\n        /* \"#utility.yul\":10428:10528   */\n      swap2\n      pop\n        /* \"#utility.yul\":10545:10548   */\n      dup2\n        /* \"#utility.yul\":10538:10548   */\n      swap1\n      pop\n        /* \"#utility.yul\":9610:10554   */\n      swap4\n      swap3\n      pop\n      pop\n      pop\n      jump\t// out\n        /* \"#utility.yul\":10560:10729   */\n    tag_88:\n        /* \"#utility.yul\":10644:10655   */\n      0x00\n        /* \"#utility.yul\":10678:10684   */\n      dup3\n        /* \"#utility.yul\":10673:10676   */\n      dup3\n        /* \"#utility.yul\":10666:10685   */\n      mstore\n        /* \"#utility.yul\":10718:10722   */\n      0x20\n        /* \"#utility.yul\":10713:10716   */\n      dup3\n        /* \"#utility.yul\":10709:10723   */\n      add\n        /* \"#utility.yul\":10694:10723   */\n      swap1\n      pop\n        /* \"#utility.yul\":10560:10729   */\n      swap3\n      swap2\n      pop\n      pop\n      jump\t// out\n        /* \"#utility.yul\":10735:10914   */\n    tag_89:\n        /* \"#utility.yul\":10875:10906   */\n      0x437265617465323a20696e73756666696369656e742062616c616e6365000000\n        /* \"#utility.yul\":10871:10872   */\n      0x00\n        /* \"#utility.yul\":10863:10869   */\n      dup3\n        /* \"#utility.yul\":10859:10873   */\n      add\n        /* \"#utility.yul\":10852:10907   */\n      mstore\n        /* \"#utility.yul\":10735:10914   */\n      pop\n      jump\t// out\n        /* \"#utility.yul\":10920:11286   */\n    tag_90:\n        /* \"#utility.yul\":11062:11065   */\n      0x00\n        /* \"#utility.yul\":11083:11150   */\n      tag_204\n        /* \"#utility.yul\":11147:11149   */\n      0x1d\n        /* \"#utility.yul\":11142:11145   */\n      dup4\n        /* \"#utility.yul\":11083:11150   */\n      tag_88\n      jump\t// in\n    tag_204:\n        /* \"#utility.yul\":11076:11150   */\n      swap2\n      pop\n        /* \"#utility.yul\":11159:11252   */\n      tag_205\n        /* \"#utility.yul\":11248:11251   */\n      dup3\n        /* \"#utility.yul\":11159:11252   */\n      tag_89\n      jump\t// in\n    tag_205:\n        /* \"#utility.yul\":11277:11279   */\n      0x20\n        /* \"#utility.yul\":11272:11275   */\n      dup3\n        /* \"#utility.yul\":11268:11280   */\n      add\n        /* \"#utility.yul\":11261:11280   */\n      swap1\n      pop\n        /* \"#utility.yul\":10920:11286   */\n      swap2\n      swap1\n      pop\n      jump\t// out\n        /* \"#utility.yul\":11292:11711   */\n    tag_47:\n        /* \"#utility.yul\":11458:11462   */\n      0x00\n        /* \"#utility.yul\":11496:11498   */\n      0x20\n        /* \"#utility.yul\":11485:11494   */\n      dup3\n        /* \"#utility.yul\":11481:11499   */\n      add\n        /* \"#utility.yul\":11473:11499   */\n      swap1\n      pop\n        /* \"#utility.yul\":11545:11554   */\n      dup2\n        /* \"#utility.yul\":11539:11543   */\n      dup2\n        /* \"#utility.yul\":11535:11555   */\n      sub\n        /* \"#utility.yul\":11531:11532   */\n      0x00\n        /* \"#utility.yul\":11520:11529   */\n      dup4\n        /* \"#utility.yul\":11516:11533   */\n      add\n        /* \"#utility.yul\":11509:11556   */\n      mstore\n        /* \"#utility.yul\":11573:11704   */\n      tag_207\n        /* \"#utility.yul\":11699:11703   */\n      dup2\n        /* \"#utility.yul\":11573:11704   */\n      tag_90\n      jump\t// in\n    tag_207:\n        /* \"#utility.yul\":11565:11704   */\n      swap1\n      pop\n        /* \"#utility.yul\":11292:11711   */\n      swap2\n      swap1\n      pop\n      jump\t// out\n        /* \"#utility.yul\":11717:11899   */\n    tag_91:\n        /* \"#utility.yul\":11857:11891   */\n      0x437265617465323a2062797465636f6465206c656e677468206973207a65726f\n        /* \"#utility.yul\":11853:11854   */\n      0x00\n        /* \"#utility.yul\":11845:11851   */\n      dup3\n        /* \"#utility.yul\":11841:11855   */\n      add\n        /* \"#utility.yul\":11834:11892   */\n      mstore\n        /* \"#utility.yul\":11717:11899   */\n      pop\n      jump\t// out\n        /* \"#utility.yul\":11905:12271   */\n    tag_92:\n        /* \"#utility.yul\":12047:12050   */\n      0x00\n        /* \"#utility.yul\":12068:12135   */\n      tag_210\n        /* \"#utility.yul\":12132:12134   */\n      0x20\n        /* \"#utility.yul\":12127:12130   */\n      dup4\n        /* \"#utility.yul\":12068:12135   */\n      tag_88\n      jump\t// in\n    tag_210:\n        /* \"#utility.yul\":12061:12135   */\n      swap2\n      pop\n        /* \"#utility.yul\":12144:12237   */\n      tag_211\n        /* \"#utility.yul\":12233:12236   */\n      dup3\n        /* \"#utility.yul\":12144:12237   */\n      tag_91\n      jump\t// in\n    tag_211:\n        /* \"#utility.yul\":12262:12264   */\n      0x20\n        /* \"#utility.yul\":12257:12260   */\n      dup3\n        /* \"#utility.yul\":12253:12265   */\n      add\n        /* \"#utility.yul\":12246:12265   */\n      swap1\n      pop\n        /* \"#utility.yul\":11905:12271   */\n      swap2\n      swap1\n      pop\n      jump\t// out\n        /* \"#utility.yul\":12277:12696   */\n    tag_50:\n        /* \"#utility.yul\":12443:12447   */\n      0x00\n        /* \"#utility.yul\":12481:12483   */\n      0x20\n        /* \"#utility.yul\":12470:12479   */\n      dup3\n        /* \"#utility.yul\":12466:12484   */\n      add\n        /* \"#utility.yul\":12458:12484   */\n      swap1\n      pop\n        /* \"#utility.yul\":12530:12539   */\n      dup2\n        /* \"#utility.yul\":12524:12528   */\n      dup2\n        /* \"#utility.yul\":12520:12540   */\n      sub\n        /* \"#utility.yul\":12516:12517   */\n      0x00\n        /* \"#utility.yul\":12505:12514   */\n      dup4\n        /* \"#utility.yul\":12501:12518   */\n      add\n        /* \"#utility.yul\":12494:12541   */\n      mstore\n        /* \"#utility.yul\":12558:12689   */\n      tag_213\n        /* \"#utility.yul\":12684:12688   */\n      dup2\n        /* \"#utility.yul\":12558:12689   */\n      tag_92\n      jump\t// in\n    tag_213:\n        /* \"#utility.yul\":12550:12689   */\n      swap1\n      pop\n        /* \"#utility.yul\":12277:12696   */\n      swap2\n      swap1\n      pop\n      jump\t// out\n        /* \"#utility.yul\":12702:12877   */\n    tag_93:\n        /* \"#utility.yul\":12842:12869   */\n      0x437265617465323a204661696c6564206f6e206465706c6f7900000000000000\n        /* \"#utility.yul\":12838:12839   */\n      0x00\n        /* \"#utility.yul\":12830:12836   */\n      dup3\n        /* \"#utility.yul\":12826:12840   */\n      add\n        /* \"#utility.yul\":12819:12870   */\n      mstore\n        /* \"#utility.yul\":12702:12877   */\n      pop\n      jump\t// out\n        /* \"#utility.yul\":12883:13249   */\n    tag_94:\n        /* \"#utility.yul\":13025:13028   */\n      0x00\n        /* \"#utility.yul\":13046:13113   */\n      tag_216\n        /* \"#utility.yul\":13110:13112   */\n      0x19\n        /* \"#utility.yul\":13105:13108   */\n      dup4\n        /* \"#utility.yul\":13046:13113   */\n      tag_88\n      jump\t// in\n    tag_216:\n        /* \"#utility.yul\":13039:13113   */\n      swap2\n      pop\n        /* \"#utility.yul\":13122:13215   */\n      tag_217\n        /* \"#utility.yul\":13211:13214   */\n      dup3\n        /* \"#utility.yul\":13122:13215   */\n      tag_93\n      jump\t// in\n    tag_217:\n        /* \"#utility.yul\":13240:13242   */\n      0x20\n        /* \"#utility.yul\":13235:13238   */\n      dup3\n        /* \"#utility.yul\":13231:13243   */\n      add\n        /* \"#utility.yul\":13224:13243   */\n      swap1\n      pop\n        /* \"#utility.yul\":12883:13249   */\n      swap2\n      swap1\n      pop\n      jump\t// out\n        /* \"#utility.yul\":13255:13674   */\n    tag_53:\n        /* \"#utility.yul\":13421:13425   */\n      0x00\n        /* \"#utility.yul\":13459:13461   */\n      0x20\n        /* \"#utility.yul\":13448:13457   */\n      dup3\n        /* \"#utility.yul\":13444:13462   */\n      add\n        /* \"#utility.yul\":13436:13462   */\n      swap1\n      pop\n        /* \"#utility.yul\":13508:13517   */\n      dup2\n        /* \"#utility.yul\":13502:13506   */\n      dup2\n        /* \"#utility.yul\":13498:13518   */\n      sub\n        /* \"#utility.yul\":13494:13495   */\n      0x00\n        /* \"#utility.yul\":13483:13492   */\n      dup4\n        /* \"#utility.yul\":13479:13496   */\n      add\n        /* \"#utility.yul\":13472:13519   */\n      mstore\n        /* \"#utility.yul\":13536:13667   */\n      tag_219\n        /* \"#utility.yul\":13662:13666   */\n      dup2\n        /* \"#utility.yul\":13536:13667   */\n      tag_94\n      jump\t// in\n    tag_219:\n        /* \"#utility.yul\":13528:13667   */\n      swap1\n      pop\n        /* \"#utility.yul\":13255:13674   */\n      swap2\n      swap1\n      pop\n      jump\t// out\n        /* \"#utility.yul\":13680:13829   */\n    tag_95:\n        /* \"#utility.yul\":13716:13723   */\n      0x00\n        /* \"#utility.yul\":13756:13822   */\n      0xff00000000000000000000000000000000000000000000000000000000000000\n        /* \"#utility.yul\":13749:13754   */\n      dup3\n        /* \"#utility.yul\":13745:13823   */\n      and\n        /* \"#utility.yul\":13734:13823   */\n      swap1\n      pop\n        /* \"#utility.yul\":13680:13829   */\n      swap2\n      swap1\n      pop\n      jump\t// out\n        /* \"#utility.yul\":13835:13913   */\n    tag_96:\n        /* \"#utility.yul\":13873:13880   */\n      0x00\n        /* \"#utility.yul\":13902:13907   */\n      dup2\n        /* \"#utility.yul\":13891:13907   */\n      swap1\n      pop\n        /* \"#utility.yul\":13835:13913   */\n      swap2\n      swap1\n      pop\n      jump\t// out\n        /* \"#utility.yul\":13919:14072   */\n    tag_97:\n        /* \"#utility.yul\":14022:14065   */\n      tag_223\n        /* \"#utility.yul\":14041:14064   */\n      tag_224\n        /* \"#utility.yul\":14058:14063   */\n      dup3\n        /* \"#utility.yul\":14041:14064   */\n      tag_95\n      jump\t// in\n    tag_224:\n        /* \"#utility.yul\":14022:14065   */\n      tag_96\n      jump\t// in\n    tag_223:\n        /* \"#utility.yul\":14017:14020   */\n      dup3\n        /* \"#utility.yul\":14010:14066   */\n      mstore\n        /* \"#utility.yul\":13919:14072   */\n      pop\n      pop\n      jump\t// out\n        /* \"#utility.yul\":14078:14155   */\n    tag_98:\n        /* \"#utility.yul\":14115:14122   */\n      0x00\n        /* \"#utility.yul\":14144:14149   */\n      dup2\n        /* \"#utility.yul\":14133:14149   */\n      swap1\n      pop\n        /* \"#utility.yul\":14078:14155   */\n      swap2\n      swap1\n      pop\n      jump\t// out\n        /* \"#utility.yul\":14161:14240   */\n    tag_99:\n        /* \"#utility.yul\":14200:14207   */\n      0x00\n        /* \"#utility.yul\":14229:14234   */\n      dup2\n        /* \"#utility.yul\":14218:14234   */\n      swap1\n      pop\n        /* \"#utility.yul\":14161:14240   */\n      swap2\n      swap1\n      pop\n      jump\t// out\n        /* \"#utility.yul\":14246:14403   */\n    tag_100:\n        /* \"#utility.yul\":14351:14396   */\n      tag_228\n        /* \"#utility.yul\":14371:14395   */\n      tag_229\n        /* \"#utility.yul\":14389:14394   */\n      dup3\n        /* \"#utility.yul\":14371:14395   */\n      tag_98\n      jump\t// in\n    tag_229:\n        /* \"#utility.yul\":14351:14396   */\n      tag_99\n      jump\t// in\n    tag_228:\n        /* \"#utility.yul\":14346:14349   */\n      dup3\n        /* \"#utility.yul\":14339:14397   */\n      mstore\n        /* \"#utility.yul\":14246:14403   */\n      pop\n      pop\n      jump\t// out\n        /* \"#utility.yul\":14409:15083   */\n    tag_56:\n        /* \"#utility.yul\":14603:14606   */\n      0x00\n        /* \"#utility.yul\":14618:14691   */\n      tag_231\n        /* \"#utility.yul\":14687:14690   */\n      dup3\n        /* \"#utility.yul\":14678:14684   */\n      dup8\n        /* \"#utility.yul\":14618:14691   */\n      tag_97\n      jump\t// in\n    tag_231:\n        /* \"#utility.yul\":14716:14717   */\n      0x01\n        /* \"#utility.yul\":14711:14714   */\n      dup3\n        /* \"#utility.yul\":14707:14718   */\n      add\n        /* \"#utility.yul\":14700:14718   */\n      swap2\n      pop\n        /* \"#utility.yul\":14728:14803   */\n      tag_232\n        /* \"#utility.yul\":14799:14802   */\n      dup3\n        /* \"#utility.yul\":14790:14796   */\n      dup7\n        /* \"#utility.yul\":14728:14803   */\n      tag_82\n      jump\t// in\n    tag_232:\n        /* \"#utility.yul\":14828:14830   */\n      0x14\n        /* \"#utility.yul\":14823:14826   */\n      dup3\n        /* \"#utility.yul\":14819:14831   */\n      add\n        /* \"#utility.yul\":14812:14831   */\n      swap2\n      pop\n        /* \"#utility.yul\":14841:14916   */\n      tag_233\n        /* \"#utility.yul\":14912:14915   */\n      dup3\n        /* \"#utility.yul\":14903:14909   */\n      dup6\n        /* \"#utility.yul\":14841:14916   */\n      tag_100\n      jump\t// in\n    tag_233:\n        /* \"#utility.yul\":14941:14943   */\n      0x20\n        /* \"#utility.yul\":14936:14939   */\n      dup3\n        /* \"#utility.yul\":14932:14944   */\n      add\n        /* \"#utility.yul\":14925:14944   */\n      swap2\n      pop\n        /* \"#utility.yul\":14954:15029   */\n      tag_234\n        /* \"#utility.yul\":15025:15028   */\n      dup3\n        /* \"#utility.yul\":15016:15022   */\n      dup5\n        /* \"#utility.yul\":14954:15029   */\n      tag_100\n      jump\t// in\n    tag_234:\n        /* \"#utility.yul\":15054:15056   */\n      0x20\n        /* \"#utility.yul\":15049:15052   */\n      dup3\n        /* \"#utility.yul\":15045:15057   */\n      add\n        /* \"#utility.yul\":15038:15057   */\n      swap2\n      pop\n        /* \"#utility.yul\":15074:15077   */\n      dup2\n        /* \"#utility.yul\":15067:15077   */\n      swap1\n      pop\n        /* \"#utility.yul\":14409:15083   */\n      swap6\n      swap5\n      pop\n      pop\n      pop\n      pop\n      pop\n      jump\t// out\n\n    auxdata: 0xa2646970667358221220b1934b7b242a8496c3af335381a9e104e77e9163133c767039a0cf38c6258cc064736f6c634300081a0033\n}\n",
				"bytecode": {
					"linkReferences": {},
					"object": "6080604052348015600e575f80fd5b50610ac68061001c5f395ff3fe608060405234801561000f575f80fd5b5060043610610034575f3560e01c80635e9bc53614610038578063da7323b314610068575b5f80fd5b610052600480360381019061004d9190610470565b610098565b60405161005f91906104f6565b60405180910390f35b610082600480360381019061007d9190610570565b6100c8565b60405161008f91906104f6565b60405180910390f35b5f806100a78787878787610225565b8051906020012090506100bc835f1b82610279565b91505095945050505050565b5f806100d78989898989610225565b90505f6100ed865f1b8380519060200120610279565b90505f8173ffffffffffffffffffffffffffffffffffffffff163b1461011757809250505061021a565b6101245f875f1b8461028d565b90505f85859050146101d3575f8173ffffffffffffffffffffffffffffffffffffffff168686604051610158929190610656565b5f604051808303815f865af19150503d805f8114610191576040519150601f19603f3d011682016040523d82523d5f602084013e610196565b606091505b50509050806101d1576040517f19b991a800000000000000000000000000000000000000000000000000000000815260040160405180910390fd5b505b7f07fba7bba1191da7ee1155dcfa0030701c9c9a9cc34a93b991fc6fd0c9268d8f818b8b8b8b8b60405161020c9695949392919061067d565b60405180910390a180925050505b979650505050505050565b6060858286868660405160200161023f94939291906106dc565b60405160208183030381529060405260405160200161025f92919061084a565b604051602081830303815290604052905095945050505050565b5f610285838330610399565b905092915050565b5f80844710156102d2576040517f08c379a00000000000000000000000000000000000000000000000000000000081526004016102c9906108e1565b60405180910390fd5b5f835103610315576040517f08c379a000000000000000000000000000000000000000000000000000000000815260040161030c90610949565b60405180910390fd5b8383516020850187f590505f73ffffffffffffffffffffffffffffffffffffffff168173ffffffffffffffffffffffffffffffffffffffff160361038e576040517f08c379a0000000000000000000000000000000000000000000000000000000008152600401610385906109b1565b60405180910390fd5b809150509392505050565b5f8060ff60f81b8386866040516020016103b69493929190610a43565b604051602081830303815290604052805190602001209050805f1c9150509392505050565b5f80fd5b5f80fd5b5f73ffffffffffffffffffffffffffffffffffffffff82169050919050565b5f61040c826103e3565b9050919050565b61041c81610402565b8114610426575f80fd5b50565b5f8135905061043781610413565b92915050565b5f819050919050565b61044f8161043d565b8114610459575f80fd5b50565b5f8135905061046a81610446565b92915050565b5f805f805f60a08688031215610489576104886103db565b5b5f61049688828901610429565b95505060206104a78882890161045c565b94505060406104b888828901610429565b93505060606104c98882890161045c565b92505060806104da8882890161045c565b9150509295509295909350565b6104f081610402565b82525050565b5f6020820190506105095f8301846104e7565b92915050565b5f80fd5b5f80fd5b5f80fd5b5f8083601f8401126105305761052f61050f565b5b8235905067ffffffffffffffff81111561054d5761054c610513565b5b60208301915083600182028301111561056957610568610517565b5b9250929050565b5f805f805f805f60c0888a03121561058b5761058a6103db565b5b5f6105988a828b01610429565b97505060206105a98a828b0161045c565b96505060406105ba8a828b01610429565b95505060606105cb8a828b0161045c565b94505060806105dc8a828b0161045c565b93505060a088013567ffffffffffffffff8111156105fd576105fc6103df565b5b6106098a828b0161051b565b925092505092959891949750929550565b5f81905092915050565b828183375f83830152505050565b5f61063d838561061a565b935061064a838584610624565b82840190509392505050565b5f610662828486610632565b91508190509392505050565b6106778161043d565b82525050565b5f60c0820190506106905f8301896104e7565b61069d60208301886104e7565b6106aa604083018761066e565b6106b760608301866104e7565b6106c4608083018561066e565b6106d160a083018461066e565b979650505050505050565b5f6080820190506106ef5f83018761066e565b6106fc602083018661066e565b61070960408301856104e7565b610716606083018461066e565b95945050505050565b5f81905092915050565b7f3d60ad80600a3d3981f3363d3d373d3d3d363d730000000000000000000000005f82015250565b5f61075d60148361071f565b915061076882610729565b601482019050919050565b5f8160601b9050919050565b5f61078982610773565b9050919050565b5f61079a8261077f565b9050919050565b6107b26107ad82610402565b610790565b82525050565b7f5af43d82803e903d91602b57fd5bf300000000000000000000000000000000005f82015250565b5f6107ec600f8361071f565b91506107f7826107b8565b600f82019050919050565b5f81519050919050565b8281835e5f83830152505050565b5f61082482610802565b61082e818561061a565b935061083e81856020860161080c565b80840191505092915050565b5f61085482610751565b915061086082856107a1565b60148201915061086f826107e0565b915061087b828461081a565b91508190509392505050565b5f82825260208201905092915050565b7f437265617465323a20696e73756666696369656e742062616c616e63650000005f82015250565b5f6108cb601d83610887565b91506108d682610897565b602082019050919050565b5f6020820190508181035f8301526108f8816108bf565b9050919050565b7f437265617465323a2062797465636f6465206c656e677468206973207a65726f5f82015250565b5f610933602083610887565b915061093e826108ff565b602082019050919050565b5f6020820190508181035f83015261096081610927565b9050919050565b7f437265617465323a204661696c6564206f6e206465706c6f79000000000000005f82015250565b5f61099b601983610887565b91506109a682610967565b602082019050919050565b5f6020820190508181035f8301526109c88161098f565b9050919050565b5f7fff0000000000000000000000000000000000000000000000000000000000000082169050919050565b5f819050919050565b610a14610a0f826109cf565b6109fa565b82525050565b5f819050919050565b5f819050919050565b610a3d610a3882610a1a565b610a23565b82525050565b5f610a4e8287610a03565b600182019150610a5e82866107a1565b601482019150610a6e8285610a2c565b602082019150610a7e8284610a2c565b6020820191508190509594505050505056fea2646970667358221220b1934b7b242a8496c3af335381a9e104e77e9163133c767039a0cf38c6258cc064736f6c634300081a0033",
					"opcodes": "PUSH1 0x80 PUSH1 0x40 MSTORE CALLVALUE DUP1 ISZERO PUSH1 0xE JUMPI PUSH0 DUP1 REVERT JUMPDEST POP PUSH2 0xAC6 DUP1 PUSH2 0x1C PUSH0 CODECOPY PUSH0 RETURN INVALID PUSH1 0x80 PUSH1 0x40 MSTORE CALLVALUE DUP1 ISZERO PUSH2 0xF JUMPI PUSH0 DUP1 REVERT JUMPDEST POP PUSH1 0x4 CALLDATASIZE LT PUSH2 0x34 JUMPI PUSH0 CALLDATALOAD PUSH1 0xE0 SHR DUP1 PUSH4 0x5E9BC536 EQ PUSH2 0x38 JUMPI DUP1 PUSH4 0xDA7323B3 EQ PUSH2 0x68 JUMPI JUMPDEST PUSH0 DUP1 REVERT JUMPDEST PUSH2 0x52 PUSH1 0x4 DUP1 CALLDATASIZE SUB DUP2 ADD SWAP1 PUSH2 0x4D SWAP2 SWAP1 PUSH2 0x470 JUMP JUMPDEST PUSH2 0x98 JUMP JUMPDEST PUSH1 0x40 MLOAD PUSH2 0x5F SWAP2 SWAP1 PUSH2 0x4F6 JUMP JUMPDEST PUSH1 0x40 MLOAD DUP1 SWAP2 SUB SWAP1 RETURN JUMPDEST PUSH2 0x82 PUSH1 0x4 DUP1 CALLDATASIZE SUB DUP2 ADD SWAP1 PUSH2 0x7D SWAP2 SWAP1 PUSH2 0x570 JUMP JUMPDEST PUSH2 0xC8 JUMP JUMPDEST PUSH1 0x40 MLOAD PUSH2 0x8F SWAP2 SWAP1 PUSH2 0x4F6 JUMP JUMPDEST PUSH1 0x40 MLOAD DUP1 SWAP2 SUB SWAP1 RETURN JUMPDEST PUSH0 DUP1 PUSH2 0xA7 DUP8 DUP8 DUP8 DUP8 DUP8 PUSH2 0x225 JUMP JUMPDEST DUP1 MLOAD SWAP1 PUSH1 0x20 ADD KECCAK256 SWAP1 POP PUSH2 0xBC DUP4 PUSH0 SHL DUP3 PUSH2 0x279 JUMP JUMPDEST SWAP2 POP POP SWAP6 SWAP5 POP POP POP POP POP JUMP JUMPDEST PUSH0 DUP1 PUSH2 0xD7 DUP10 DUP10 DUP10 DUP10 DUP10 PUSH2 0x225 JUMP JUMPDEST SWAP1 POP PUSH0 PUSH2 0xED DUP7 PUSH0 SHL DUP4 DUP1 MLOAD SWAP1 PUSH1 0x20 ADD KECCAK256 PUSH2 0x279 JUMP JUMPDEST SWAP1 POP PUSH0 DUP2 PUSH20 0xFFFFFFFFFFFFFFFFFFFFFFFFFFFFFFFFFFFFFFFF AND EXTCODESIZE EQ PUSH2 0x117 JUMPI DUP1 SWAP3 POP POP POP PUSH2 0x21A JUMP JUMPDEST PUSH2 0x124 PUSH0 DUP8 PUSH0 SHL DUP5 PUSH2 0x28D JUMP JUMPDEST SWAP1 POP PUSH0 DUP6 DUP6 SWAP1 POP EQ PUSH2 0x1D3 JUMPI PUSH0 DUP2 PUSH20 0xFFFFFFFFFFFFFFFFFFFFFFFFFFFFFFFFFFFFFFFF AND DUP7 DUP7 PUSH1 0x40 MLOAD PUSH2 0x158 SWAP3 SWAP2 SWAP1 PUSH2 0x656 JUMP JUMPDEST PUSH0 PUSH1 0x40 MLOAD DUP1 DUP4 SUB DUP2 PUSH0 DUP7 GAS CALL SWAP2 POP POP RETURNDATASIZE DUP1 PUSH0 DUP2 EQ PUSH2 0x191 JUMPI PUSH1 0x40 MLOAD SWAP2 POP PUSH1 0x1F NOT PUSH1 0x3F RETURNDATASIZE ADD AND DUP3 ADD PUSH1 0x40 MSTORE RETURNDATASIZE DUP3 MSTORE RETURNDATASIZE PUSH0 PUSH1 0x20 DUP5 ADD RETURNDATACOPY PUSH2 0x196 JUMP JUMPDEST PUSH1 0x60 SWAP2 POP JUMPDEST POP POP SWAP1 POP DUP1 PUSH2 0x1D1 JUMPI PUSH1 0x40 MLOAD PUSH32 0x19B991A800000000000000000000000000000000000000000000000000000000 DUP2 MSTORE PUSH1 0x4 ADD PUSH1 0x40 MLOAD DUP1 SWAP2 SUB SWAP1 REVERT JUMPDEST POP JUMPDEST PUSH32 0x7FBA7BBA1191DA7EE1155DCFA0030701C9C9A9CC34A93B991FC6FD0C9268D8F DUP2 DUP12 DUP12 DUP12 DUP12 DUP12 PUSH1 0x40 MLOAD PUSH2 0x20C SWAP7 SWAP6 SWAP5 SWAP4 SWAP3 SWAP2 SWAP1 PUSH2 0x67D JUMP JUMPDEST PUSH1 0x40 MLOAD DUP1 SWAP2 SUB SWAP1 LOG1 DUP1 SWAP3 POP POP POP JUMPDEST SWAP8 SWAP7 POP POP POP POP POP POP POP JUMP JUMPDEST PUSH1 0x60 DUP6 DUP3 DUP7 DUP7 DUP7 PUSH1 0x40 MLOAD PUSH1 0x20 ADD PUSH2 0x23F SWAP5 SWAP4 SWAP3 SWAP2 SWAP1 PUSH2 0x6DC JUMP JUMPDEST PUSH1 0x40 MLOAD PUSH1 0x20 DUP2 DUP4 SUB SUB DUP2 MSTORE SWAP1 PUSH1 0x40 MSTORE PUSH1 0x40 MLOAD PUSH1 0x20 ADD PUSH2 0x25F SWAP3 SWAP2 SWAP1 PUSH2 0x84A JUMP JUMPDEST PUSH1 0x40 MLOAD PUSH1 0x20 DUP2 DUP4 SUB SUB DUP2 MSTORE SWAP1 PUSH1 0x40 MSTORE SWAP1 POP SWAP6 SWAP5 POP POP POP POP POP JUMP JUMPDEST PUSH0 PUSH2 0x285 DUP4 DUP4 ADDRESS PUSH2 0x399 JUMP JUMPDEST SWAP1 POP SWAP3 SWAP2 POP POP JUMP JUMPDEST PUSH0 DUP1 DUP5 SELFBALANCE LT ISZERO PUSH2 0x2D2 JUMPI PUSH1 0x40 MLOAD PUSH32 0x8C379A000000000000000000000000000000000000000000000000000000000 DUP2 MSTORE PUSH1 0x4 ADD PUSH2 0x2C9 SWAP1 PUSH2 0x8E1 JUMP JUMPDEST PUSH1 0x40 MLOAD DUP1 SWAP2 SUB SWAP1 REVERT JUMPDEST PUSH0 DUP4 MLOAD SUB PUSH2 0x315 JUMPI PUSH1 0x40 MLOAD PUSH32 0x8C379A000000000000000000000000000000000000000000000000000000000 DUP2 MSTORE PUSH1 0x4 ADD PUSH2 0x30C SWAP1 PUSH2 0x949 JUMP JUMPDEST PUSH1 0x40 MLOAD DUP1 SWAP2 SUB SWAP1 REVERT JUMPDEST DUP4 DUP4 MLOAD PUSH1 0x20 DUP6 ADD DUP8 CREATE2 SWAP1 POP PUSH0 PUSH20 0xFFFFFFFFFFFFFFFFFFFFFFFFFFFFFFFFFFFFFFFF AND DUP2 PUSH20 0xFFFFFFFFFFFFFFFFFFFFFFFFFFFFFFFFFFFFFFFF AND SUB PUSH2 0x38E JUMPI PUSH1 0x40 MLOAD PUSH32 0x8C379A000000000000000000000000000000000000000000000000000000000 DUP2 MSTORE PUSH1 0x4 ADD PUSH2 0x385 SWAP1 PUSH2 0x9B1 JUMP JUMPDEST PUSH1 0x40 MLOAD DUP1 SWAP2 SUB SWAP1 REVERT JUMPDEST DUP1 SWAP2 POP POP SWAP4 SWAP3 POP POP POP JUMP JUMPDEST PUSH0 DUP1 PUSH1 0xFF PUSH1 0xF8 SHL DUP4 DUP7 DUP7 PUSH1 0x40 MLOAD PUSH1 0x20 ADD PUSH2 0x3B6 SWAP5 SWAP4 SWAP3 SWAP2 SWAP1 PUSH2 0xA43 JUMP JUMPDEST PUSH1 0x40 MLOAD PUSH1 0x20 DUP2 DUP4 SUB SUB DUP2 MSTORE SWAP1 PUSH1 0x40 MSTORE DUP1 MLOAD SWAP1 PUSH1 0x20 ADD KECCAK256 SWAP1 POP DUP1 PUSH0 SHR SWAP2 POP POP SWAP4 SWAP3 POP POP POP JUMP JUMPDEST PUSH0 DUP1 REVERT JUMPDEST PUSH0 DUP1 REVERT JUMPDEST PUSH0 PUSH20 0xFFFFFFFFFFFFFFFFFFFFFFFFFFFFFFFFFFFFFFFF DUP3 AND SWAP1 POP SWAP2 SWAP1 POP JUMP JUMPDEST PUSH0 PUSH2 0x40C DUP3 PUSH2 0x3E3 JUMP JUMPDEST SWAP1 POP SWAP2 SWAP1 POP JUMP JUMPDEST PUSH2 0x41C DUP2 PUSH2 0x402 JUMP JUMPDEST DUP2 EQ PUSH2 0x426 JUMPI PUSH0 DUP1 REVERT JUMPDEST POP JUMP JUMPDEST PUSH0 DUP2 CALLDATALOAD SWAP1 POP PUSH2 0x437 DUP2 PUSH2 0x413 JUMP JUMPDEST SWAP3 SWAP2 POP POP JUMP JUMPDEST PUSH0 DUP2 SWAP1 POP SWAP2 SWAP1 POP JUMP JUMPDEST PUSH2 0x44F DUP2 PUSH2 0x43D JUMP JUMPDEST DUP2 EQ PUSH2 0x459 JUMPI PUSH0 DUP1 REVERT JUMPDEST POP JUMP JUMPDEST PUSH0 DUP2 CALLDATALOAD SWAP1 POP PUSH2 0x46A DUP2 PUSH2 0x446 JUMP JUMPDEST SWAP3 SWAP2 POP POP JUMP JUMPDEST PUSH0 DUP1 PUSH0 DUP1 PUSH0 PUSH1 0xA0 DUP7 DUP9 SUB SLT ISZERO PUSH2 0x489 JUMPI PUSH2 0x488 PUSH2 0x3DB JUMP JUMPDEST JUMPDEST PUSH0 PUSH2 0x496 DUP9 DUP3 DUP10 ADD PUSH2 0x429 JUMP JUMPDEST SWAP6 POP POP PUSH1 0x20 PUSH2 0x4A7 DUP9 DUP3 DUP10 ADD PUSH2 0x45C JUMP JUMPDEST SWAP5 POP POP PUSH1 0x40 PUSH2 0x4B8 DUP9 DUP3 DUP10 ADD PUSH2 0x429 JUMP JUMPDEST SWAP4 POP POP PUSH1 0x60 PUSH2 0x4C9 DUP9 DUP3 DUP10 ADD PUSH2 0x45C JUMP JUMPDEST SWAP3 POP POP PUSH1 0x80 PUSH2 0x4DA DUP9 DUP3 DUP10 ADD PUSH2 0x45C JUMP JUMPDEST SWAP2 POP POP SWAP3 SWAP6 POP SWAP3 SWAP6 SWAP1 SWAP4 POP JUMP JUMPDEST PUSH2 0x4F0 DUP2 PUSH2 0x402 JUMP JUMPDEST DUP3 MSTORE POP POP JUMP JUMPDEST PUSH0 PUSH1 0x20 DUP3 ADD SWAP1 POP PUSH2 0x509 PUSH0 DUP4 ADD DUP5 PUSH2 0x4E7 JUMP JUMPDEST SWAP3 SWAP2 POP POP JUMP JUMPDEST PUSH0 DUP1 REVERT JUMPDEST PUSH0 DUP1 REVERT JUMPDEST PUSH0 DUP1 REVERT JUMPDEST PUSH0 DUP1 DUP4 PUSH1 0x1F DUP5 ADD SLT PUSH2 0x530 JUMPI PUSH2 0x52F PUSH2 0x50F JUMP JUMPDEST JUMPDEST DUP3 CALLDATALOAD SWAP1 POP PUSH8 0xFFFFFFFFFFFFFFFF DUP2 GT ISZERO PUSH2 0x54D JUMPI PUSH2 0x54C PUSH2 0x513 JUMP JUMPDEST JUMPDEST PUSH1 0x20 DUP4 ADD SWAP2 POP DUP4 PUSH1 0x1 DUP3 MUL DUP4 ADD GT ISZERO PUSH2 0x569 JUMPI PUSH2 0x568 PUSH2 0x517 JUMP JUMPDEST JUMPDEST SWAP3 POP SWAP3 SWAP1 POP JUMP JUMPDEST PUSH0 DUP1 PUSH0 DUP1 PUSH0 DUP1 PUSH0 PUSH1 0xC0 DUP9 DUP11 SUB SLT ISZERO PUSH2 0x58B JUMPI PUSH2 0x58A PUSH2 0x3DB JUMP JUMPDEST JUMPDEST PUSH0 PUSH2 0x598 DUP11 DUP3 DUP12 ADD PUSH2 0x429 JUMP JUMPDEST SWAP8 POP POP PUSH1 0x20 PUSH2 0x5A9 DUP11 DUP3 DUP12 ADD PUSH2 0x45C JUMP JUMPDEST SWAP7 POP POP PUSH1 0x40 PUSH2 0x5BA DUP11 DUP3 DUP12 ADD PUSH2 0x429 JUMP JUMPDEST SWAP6 POP POP PUSH1 0x60 PUSH2 0x5CB DUP11 DUP3 DUP12 ADD PUSH2 0x45C JUMP JUMPDEST SWAP5 POP POP PUSH1 0x80 PUSH2 0x5DC DUP11 DUP3 DUP12 ADD PUSH2 0x45C JUMP JUMPDEST SWAP4 POP POP PUSH1 0xA0 DUP9 ADD CALLDATALOAD PUSH8 0xFFFFFFFFFFFFFFFF DUP2 GT ISZERO PUSH2 0x5FD JUMPI PUSH2 0x5FC PUSH2 0x3DF JUMP JUMPDEST JUMPDEST PUSH2 0x609 DUP11 DUP3 DUP12 ADD PUSH2 0x51B JUMP JUMPDEST SWAP3 POP SWAP3 POP POP SWAP3 SWAP6 SWAP9 SWAP2 SWAP5 SWAP8 POP SWAP3 SWAP6 POP JUMP JUMPDEST PUSH0 DUP2 SWAP1 POP SWAP3 SWAP2 POP POP JUMP JUMPDEST DUP3 DUP2 DUP4 CALLDATACOPY PUSH0 DUP4 DUP4 ADD MSTORE POP POP POP JUMP JUMPDEST PUSH0 PUSH2 0x63D DUP4 DUP6 PUSH2 0x61A JUMP JUMPDEST SWAP4 POP PUSH2 0x64A DUP4 DUP6 DUP5 PUSH2 0x624 JUMP JUMPDEST DUP3 DUP5 ADD SWAP1 POP SWAP4 SWAP3 POP POP POP JUMP JUMPDEST PUSH0 PUSH2 0x662 DUP3 DUP5 DUP7 PUSH2 0x632 JUMP JUMPDEST SWAP2 POP DUP2 SWAP1 POP SWAP4 SWAP3 POP POP POP JUMP JUMPDEST PUSH2 0x677 DUP2 PUSH2 0x43D JUMP JUMPDEST DUP3 MSTORE POP POP JUMP JUMPDEST PUSH0 PUSH1 0xC0 DUP3 ADD SWAP1 POP PUSH2 0x690 PUSH0 DUP4 ADD DUP10 PUSH2 0x4E7 JUMP JUMPDEST PUSH2 0x69D PUSH1 0x20 DUP4 ADD DUP9 PUSH2 0x4E7 JUMP JUMPDEST PUSH2 0x6AA PUSH1 0x40 DUP4 ADD DUP8 PUSH2 0x66E JUMP JUMPDEST PUSH2 0x6B7 PUSH1 0x60 DUP4 ADD DUP7 PUSH2 0x4E7 JUMP JUMPDEST PUSH2 0x6C4 PUSH1 0x80 DUP4 ADD DUP6 PUSH2 0x66E JUMP JUMPDEST PUSH2 0x6D1 PUSH1 0xA0 DUP4 ADD DUP5 PUSH2 0x66E JUMP JUMPDEST SWAP8 SWAP7 POP POP POP POP POP POP POP JUMP JUMPDEST PUSH0 PUSH1 0x80 DUP3 ADD SWAP1 POP PUSH2 0x6EF PUSH0 DUP4 ADD DUP8 PUSH2 0x66E JUMP JUMPDEST PUSH2 0x6FC PUSH1 0x20 DUP4 ADD DUP7 PUSH2 0x66E JUMP JUMPDEST PUSH2 0x709 PUSH1 0x40 DUP4 ADD DUP6 PUSH2 0x4E7 JUMP JUMPDEST PUSH2 0x716 PUSH1 0x60 DUP4 ADD DUP5 PUSH2 0x66E JUMP JUMPDEST SWAP6 SWAP5 POP POP POP POP POP JUMP JUMPDEST PUSH0 DUP2 SWAP1 POP SWAP3 SWAP2 POP POP JUMP JUMPDEST PUSH32 0x3D60AD80600A3D3981F3363D3D373D3D3D363D73000000000000000000000000 PUSH0 DUP3 ADD MSTORE POP JUMP JUMPDEST PUSH0 PUSH2 0x75D PUSH1 0x14 DUP4 PUSH2 0x71F JUMP JUMPDEST SWAP2 POP PUSH2 0x768 DUP3 PUSH2 0x729 JUMP JUMPDEST PUSH1 0x14 DUP3 ADD SWAP1 POP SWAP2 SWAP1 POP JUMP JUMPDEST PUSH0 DUP2 PUSH1 0x60 SHL SWAP1 POP SWAP2 SWAP1 POP JUMP JUMPDEST PUSH0 PUSH2 0x789 DUP3 PUSH2 0x773 JUMP JUMPDEST SWAP1 POP SWAP2 SWAP1 POP JUMP JUMPDEST PUSH0 PUSH2 0x79A DUP3 PUSH2 0x77F JUMP JUMPDEST SWAP1 POP SWAP2 SWAP1 POP JUMP JUMPDEST PUSH2 0x7B2 PUSH2 0x7AD DUP3 PUSH2 0x402 JUMP JUMPDEST PUSH2 0x790 JUMP JUMPDEST DUP3 MSTORE POP POP JUMP JUMPDEST PUSH32 0x5AF43D82803E903D91602B57FD5BF30000000000000000000000000000000000 PUSH0 DUP3 ADD MSTORE POP JUMP JUMPDEST PUSH0 PUSH2 0x7EC PUSH1 0xF DUP4 PUSH2 0x71F JUMP JUMPDEST SWAP2 POP PUSH2 0x7F7 DUP3 PUSH2 0x7B8 JUMP JUMPDEST PUSH1 0xF DUP3 ADD SWAP1 POP SWAP2 SWAP1 POP JUMP JUMPDEST PUSH0 DUP2 MLOAD SWAP1 POP SWAP2 SWAP1 POP JUMP JUMPDEST DUP3 DUP2 DUP4 MCOPY PUSH0 DUP4 DUP4 ADD MSTORE POP POP POP JUMP JUMPDEST PUSH0 PUSH2 0x824 DUP3 PUSH2 0x802 JUMP JUMPDEST PUSH2 0x82E DUP2 DUP6 PUSH2 0x61A JUMP JUMPDEST SWAP4 POP PUSH2 0x83E DUP2 DUP6 PUSH1 0x20 DUP7 ADD PUSH2 0x80C JUMP JUMPDEST DUP1 DUP5 ADD SWAP2 POP POP SWAP3 SWAP2 POP POP JUMP JUMPDEST PUSH0 PUSH2 0x854 DUP3 PUSH2 0x751 JUMP JUMPDEST SWAP2 POP PUSH2 0x860 DUP3 DUP6 PUSH2 0x7A1 JUMP JUMPDEST PUSH1 0x14 DUP3 ADD SWAP2 POP PUSH2 0x86F DUP3 PUSH2 0x7E0 JUMP JUMPDEST SWAP2 POP PUSH2 0x87B DUP3 DUP5 PUSH2 0x81A JUMP JUMPDEST SWAP2 POP DUP2 SWAP1 POP SWAP4 SWAP3 POP POP POP JUMP JUMPDEST PUSH0 DUP3 DUP3 MSTORE PUSH1 0x20 DUP3 ADD SWAP1 POP SWAP3 SWAP2 POP POP JUMP JUMPDEST PUSH32 0x437265617465323A20696E73756666696369656E742062616C616E6365000000 PUSH0 DUP3 ADD MSTORE POP JUMP JUMPDEST PUSH0 PUSH2 0x8CB PUSH1 0x1D DUP4 PUSH2 0x887 JUMP JUMPDEST SWAP2 POP PUSH2 0x8D6 DUP3 PUSH2 0x897 JUMP JUMPDEST PUSH1 0x20 DUP3 ADD SWAP1 POP SWAP2 SWAP1 POP JUMP JUMPDEST PUSH0 PUSH1 0x20 DUP3 ADD SWAP1 POP DUP2 DUP2 SUB PUSH0 DUP4 ADD MSTORE PUSH2 0x8F8 DUP2 PUSH2 0x8BF JUMP JUMPDEST SWAP1 POP SWAP2 SWAP1 POP JUMP JUMPDEST PUSH32 0x437265617465323A2062797465636F6465206C656E677468206973207A65726F PUSH0 DUP3 ADD MSTORE POP JUMP JUMPDEST PUSH0 PUSH2 0x933 PUSH1 0x20 DUP4 PUSH2 0x887 JUMP JUMPDEST SWAP2 POP PUSH2 0x93E DUP3 PUSH2 0x8FF JUMP JUMPDEST PUSH1 0x20 DUP3 ADD SWAP1 POP SWAP2 SWAP1 POP JUMP JUMPDEST PUSH0 PUSH1 0x20 DUP3 ADD SWAP1 POP DUP2 DUP2 SUB PUSH0 DUP4 ADD MSTORE PUSH2 0x960 DUP2 PUSH2 0x927 JUMP JUMPDEST SWAP1 POP SWAP2 SWAP1 POP JUMP JUMPDEST PUSH32 0x437265617465323A204661696C6564206F6E206465706C6F7900000000000000 PUSH0 DUP3 ADD MSTORE POP JUMP JUMPDEST PUSH0 PUSH2 0x99B PUSH1 0x19 DUP4 PUSH2 0x887 JUMP JUMPDEST SWAP2 POP PUSH2 0x9A6 DUP3 PUSH2 0x967 JUMP JUMPDEST PUSH1 0x20 DUP3 ADD SWAP1 POP SWAP2 SWAP1 POP JUMP JUMPDEST PUSH0 PUSH1 0x20 DUP3 ADD SWAP1 POP DUP2 DUP2 SUB PUSH0 DUP4 ADD MSTORE PUSH2 0x9C8 DUP2 PUSH2 0x98F JUMP JUMPDEST SWAP1 POP SWAP2 SWAP1 POP JUMP JUMPDEST PUSH0 PUSH32 0xFF00000000000000000000000000000000000000000000000000000000000000 DUP3 AND SWAP1 POP SWAP2 SWAP1 POP JUMP JUMPDEST PUSH0 DUP2 SWAP1 POP SWAP2 SWAP1 POP JUMP JUMPDEST PUSH2 0xA14 PUSH2 0xA0F DUP3 PUSH2 0x9CF JUMP JUMPDEST PUSH2 0x9FA JUMP JUMPDEST DUP3 MSTORE POP POP JUMP JUMPDEST PUSH0 DUP2 SWAP1 POP SWAP2 SWAP1 POP JUMP JUMPDEST PUSH0 DUP2 SWAP1 POP SWAP2 SWAP1 POP JUMP JUMPDEST PUSH2 0xA3D PUSH2 0xA38 DUP3 PUSH2 0xA1A JUMP JUMPDEST PUSH2 0xA23 JUMP JUMPDEST DUP3 MSTORE POP POP JUMP JUMPDEST PUSH0 PUSH2 0xA4E DUP3 DUP8 PUSH2 0xA03 JUMP JUMPDEST PUSH1 0x1 DUP3 ADD SWAP2 POP PUSH2 0xA5E DUP3 DUP7 PUSH2 0x7A1 JUMP JUMPDEST PUSH1 0x14 DUP3 ADD SWAP2 POP PUSH2 0xA6E DUP3 DUP6 PUSH2 0xA2C JUMP JUMPDEST PUSH1 0x20 DUP3 ADD SWAP2 POP PUSH2 0xA7E DUP3 DUP5 PUSH2 0xA2C JUMP JUMPDEST PUSH1 0x20 DUP3 ADD SWAP2 POP DUP2 SWAP1 POP SWAP6 SWAP5 POP POP POP POP POP JUMP INVALID LOG2 PUSH5 0x6970667358 0x22 SLT KECCAK256 0xB1 SWAP4 0x4B PUSH28 0x242A8496C3AF335381A9E104E77E9163133C767039A0CF38C6258CC0 PUSH5 0x736F6C6343 STOP ADDMOD BYTE STOP CALLER "
				},
				"gasEstimates": {
					"creation": {
						"codeDepositCost": "551600",
						"executionCost": "585",
						"totalCost": "552185"
					},
					"external": {
						"account(address,uint256,address,uint256,uint256)": "infinite",
						"createAccount(address,uint256,address,uint256,uint256,bytes)": "infinite"
					},
					"internal": {
						"_creationCode(address,uint256,address,uint256,uint256)": "infinite"
					}
				},
				"methodIdentifiers": {
					"account(address,uint256,address,uint256,uint256)": "5e9bc536",
					"createAccount(address,uint256,address,uint256,uint256,bytes)": "da7323b3"
				}
			},
			"storageLayout": {
				"storage": [],
				"types": null
			},
			"userdoc": {
				"kind": "user",
				"methods": {},
				"version": 1
			}
		}
	}
}